{
  "abi": [
    {
      "inputs": [
        {
          "internalType": "address",
          "name": "owner",
          "type": "address"
        },
        {
          "internalType": "uint256[]",
          "name": "scores",
          "type": "uint256[]"
        },
        {
          "internalType": "address",
          "name": "specialTraitAddress",
          "type": "address"
        }
      ],
      "name": "tokenURI",
      "outputs": [
        {
          "internalType": "string",
          "name": "",
          "type": "string"
        }
      ],
      "stateMutability": "view",
      "type": "function"
    }
  ],
  "bytecode": {
    "object": "0x608060405234801561001057600080fd5b506101df806100206000396000f3fe608060405234801561001057600080fd5b506004361061002b5760003560e01c8063bd18ec6114610030575b600080fd5b61005461003e36600461009c565b6040805160208101909152600081529392505050565b604051610061919061017d565b60405180910390f35b80356001600160a01b038116811461008157600080fd5b919050565b634e487b7160e01b600052604160045260246000fd5b6000806000606084860312156100b157600080fd5b6100ba8461006a565b925060208085013567ffffffffffffffff808211156100d857600080fd5b818701915087601f8301126100ec57600080fd5b8135818111156100fe576100fe610086565b8060051b604051601f19603f8301168101818110858211171561012357610123610086565b60405291825284820192508381018501918a83111561014157600080fd5b938501935b8285101561015f57843584529385019392850192610146565b8097505050505050506101746040850161006a565b90509250925092565b600060208083528351808285015260005b818110156101aa5785810183015185820160400152820161018e565b818111156101bc576000604083870101525b50601f01601f191692909201604001939250505056fea164736f6c634300080c000a",
    "linkReferences": {}
  }
}