{
  "abi": [
    {
      "inputs": [
        {
          "internalType": "uint256",
          "name": "value",
          "type": "uint256"
        }
      ],
      "name": "getXPosForCounter",
      "outputs": [
        {
          "internalType": "uint256",
          "name": "",
          "type": "uint256"
        }
      ],
      "stateMutability": "pure",
      "type": "function"
    },
    {
      "inputs": [
        {
          "internalType": "string",
          "name": "str",
          "type": "string"
        },
        {
          "internalType": "uint256",
          "name": "startIndex",
          "type": "uint256"
        },
        {
          "internalType": "uint256",
          "name": "endIndex",
          "type": "uint256"
        }
      ],
      "name": "substring",
      "outputs": [
        {
          "internalType": "string",
          "name": "",
          "type": "string"
        }
      ],
      "stateMutability": "pure",
      "type": "function"
    },
    {
      "inputs": [
        {
          "internalType": "address",
          "name": "owner",
          "type": "address"
        },
        {
          "internalType": "uint256[]",
          "name": "scores",
          "type": "uint256[]"
        },
        {
          "internalType": "contract IBackedBunnyTraitRenderer",
          "name": "specialTraitRenderer",
          "type": "address"
        },
        {
          "internalType": "string",
          "name": "bunnyPFPSVG",
          "type": "string"
        }
      ],
      "name": "tokenURI",
      "outputs": [
        {
          "internalType": "string",
          "name": "",
          "type": "string"
        }
      ],
      "stateMutability": "view",
      "type": "function"
    }
  ],
  "bytecode": {
    "object": "0x608060405234801561001057600080fd5b506135df806100206000396000f3fe608060405234801561001057600080fd5b50600436106100415760003560e01c80631dcd9b5514610046578063609869c31461006f57806366929aa014610090575b600080fd5b610059610054366004610e24565b6100a3565b6040516100669190610ea2565b60405180910390f35b61008261007d366004610ed5565b610172565b604051908152602001610066565b61005961009e366004610f11565b6101a3565b60608360006100b28585611015565b67ffffffffffffffff8111156100ca576100ca610d5f565b6040519080825280601f01601f1916602001820160405280156100f4576020820181803683370190505b509050845b84811015610166578281815181106101135761011361102c565b01602001516001600160f81b0319168261012d8884611015565b8151811061013d5761013d61102c565b60200101906001600160f81b031916908160001a9053508061015e81611042565b9150506100f9565b509150505b9392505050565b6000600a8210156101855750600e919050565b60648210156101965750600f919050565b506011919050565b919050565b60606101b1858585856101ba565b95945050505050565b60606000836001600160a01b03166331bc80576040518163ffffffff1660e01b8152600401600060405180830381865afa1580156101fc573d6000803e3d6000fd5b505050506040513d6000823e601f3d908101601f19168201604052610224919081019061105d565b90506000846001600160a01b031663328ecd1c6040518163ffffffff1660e01b8152600401600060405180830381865afa158015610266573d6000803e3d6000fd5b505050506040513d6000823e601f3d908101601f1916820160405261028e919081019061105d565b90506000856001600160a01b03166342aa4e826040518163ffffffff1660e01b8152600401600060405180830381865afa1580156102d0573d6000803e3d6000fd5b505050506040513d6000823e601f3d908101601f191682016040526102f8919081019061105d565b9050610302610365565b61030b82610606565b610313610656565b61031e8b8b8761077b565b88511561032b5788610333565b6103336108ab565b87604051602001610349969594939291906110e7565b6040516020818303038152906040529350505050949350505050565b6040517f3c7374796c6520747970653d22746578742f637373223e00000000000000000060208201527f2e636865636b65727b66696c6c3a20236666663b206f7061636974793a20302e603782015262383b7d60e81b60578201527f2e6261636b67726f756e647b66696c6c3a20234546454245373b206f70616369605a8201526874793a20302e343b7d60b81b607a8201527f2e7374317b666f6e742d66616d696c793a206d6f6e6f73706163653b20666f6e60838201527f742d73697a653a203270783b206c65747465722d73706163696e673a20302e3260a38201527570783b20746578742d616e63686f723a20656e643b7d60501b60c38201527f2e7374327b666f6e742d66616d696c793a206d6f6e6f73706163653b20666f6e60d98201526c742d73697a653a203270783b7d60981b60f98201527f2e7374337b666f6e742d66616d696c793a206d6f6e6f73706163653b20666f6e6101068201527f742d73697a653a203270783b20746578742d616e63686f723a206d6964646c65610126820152613b7d60f01b6101468201527f2e656d7074797b66696c6c3a20234546454245373b206f7061636974793a2030610148820152632e383b7d60e01b6101688201527f2e61637469766974797b66696c6c3a20234646354344423b7d0000000000000061016c8201527f2e636f6e7472696275746f727b66696c6c3a20236666636635333b7d000000006101858201527f2e636f6d6d756e6974797b66696c6c3a20233536353366663b7d0000000000006101a18201527f2e737461727368696e657b6f7061636974793a20303b2066696c6c3a207768696101bb8201526374653b7d60e01b6101db820152671e17b9ba3cb6329f60c11b6101df8201526060906101e7015b604051602081830303815290604052905090565b606060405160200161061790611267565b60405160208183030381529060405261062f83610936565b604051602001610640929190611b77565b6040516020818303038152906040529050919050565b6040517f3c672066696c7465723d2275726c2823676c6f7729223e00000000000000000060208201527f3c7061746820643d224d36302e353638332034322e343235384336322e34303060378201527f382036382e383531352035392e323431372037392033342e343536203739433960578201527f2e363730323520373920362e36353037312036392e3334333520382e3431333360778201527f382034322e363731384331302e313736312031362031342e373633362038203360978201527f342e34353620384335342e3134383420382035382e373335392031362036302e60b78201527f353638332034322e343235385a222066696c6c3d227768697465222f3e00000060d7820152631e17b39f60e11b60f482015260609060f8016105f2565b60606107c3836000815181106107935761079361102c565b6020026020010151600060405180604001604052806008815260200167616374697669747960c01b815250610949565b61080c846001815181106107d9576107d961102c565b602002602001015160056040518060400160405280600b81526020016a31b7b73a3934b13aba37b960a91b815250610949565b610853856002815181106108225761082261102c565b6020026020010151600a60405180604001604052806009815260200168636f6d6d756e69747960b81b815250610949565b8461086961086089610a9d565b600060066100a3565b61087e6108758a610a9d565b6026602a6100a3565b60405160200161089396959493929190611bb8565b60405160208183030381529060405290509392505050565b60606040516020016108bc90611d80565b6040516020818303038152906040526040516020016108da9061229c565b6040516020818303038152906040526040516020016108f890612735565b60405160208183030381529060405260405160200161091690612be6565b60408051601f19818403018152908290526105f294939291602001612eaf565b6060816040516020016106409190612f06565b606060038411801590610a645761095f84610ab9565b600186101561097d57604051806020016040528060008152506109a8565b61098685610ab9565b846040516020016109989291906131bf565b6040516020818303038152906040525b60028710156109c657604051806020016040528060008152506109f1565b6109cf86610ab9565b856040516020016109e1929190613242565b6040516020818303038152906040525b6003881015610a0f5760405180602001604052806000815250610a3a565b610a1887610ab9565b86604051602001610a2a92919061326c565b6040516020818303038152906040525b604051602001610a4d94939291906132f0565b60405160208183030381529060405291505061016b565b610a6d84610ab9565b83610a81610a7c876002613391565b610ab9565b610a8a88610ab9565b604051602001610a4d94939291906133a9565b6060610ab36001600160a01b0383166014610bbf565b92915050565b606081610add5750506040805180820190915260018152600360fc1b602082015290565b8160005b8115610b075780610af181611042565b9150610b009050600a836134b4565b9150610ae1565b60008167ffffffffffffffff811115610b2257610b22610d5f565b6040519080825280601f01601f191660200182016040528015610b4c576020820181803683370190505b5090505b8415610bb757610b61600183611015565b9150610b6e600a866134c8565b610b79906030613391565b60f81b818381518110610b8e57610b8e61102c565b60200101906001600160f81b031916908160001a905350610bb0600a866134b4565b9450610b50565b949350505050565b60606000610bce8360026134dc565b610bd9906002613391565b67ffffffffffffffff811115610bf157610bf1610d5f565b6040519080825280601f01601f191660200182016040528015610c1b576020820181803683370190505b509050600360fc1b81600081518110610c3657610c3661102c565b60200101906001600160f81b031916908160001a905350600f60fb1b81600181518110610c6557610c6561102c565b60200101906001600160f81b031916908160001a9053506000610c898460026134dc565b610c94906001613391565b90505b6001811115610d0c576f181899199a1a9b1b9c1cb0b131b232b360811b85600f1660108110610cc857610cc861102c565b1a60f81b828281518110610cde57610cde61102c565b60200101906001600160f81b031916908160001a90535060049490941c93610d05816134fb565b9050610c97565b50831561016b5760405162461bcd60e51b815260206004820181905260248201527f537472696e67733a20686578206c656e67746820696e73756666696369656e74604482015260640160405180910390fd5b634e487b7160e01b600052604160045260246000fd5b604051601f8201601f1916810167ffffffffffffffff81118282101715610d9e57610d9e610d5f565b604052919050565b600067ffffffffffffffff821115610dc057610dc0610d5f565b50601f01601f191660200190565b600082601f830112610ddf57600080fd5b8135610df2610ded82610da6565b610d75565b818152846020838601011115610e0757600080fd5b816020850160208301376000918101602001919091529392505050565b600080600060608486031215610e3957600080fd5b833567ffffffffffffffff811115610e5057600080fd5b610e5c86828701610dce565b9660208601359650604090950135949350505050565b60005b83811015610e8d578181015183820152602001610e75565b83811115610e9c576000848401525b50505050565b6020815260008251806020840152610ec1816040850160208701610e72565b601f01601f19169190910160400192915050565b600060208284031215610ee757600080fd5b5035919050565b6001600160a01b0381168114610f0357600080fd5b50565b803561019e81610eee565b60008060008060808587031215610f2757600080fd5b8435610f3281610eee565b935060208581013567ffffffffffffffff80821115610f5057600080fd5b818801915088601f830112610f6457600080fd5b813581811115610f7657610f76610d5f565b8060051b610f85858201610d75565b918252838101850191858101908c841115610f9f57600080fd5b948601945b83861015610fbd57853582529486019490860190610fa4565b9850610fcf9250505060408901610f06565b94506060880135925080831115610fe557600080fd5b5050610ff387828801610dce565b91505092959194509250565b634e487b7160e01b600052601160045260246000fd5b60008282101561102757611027610fff565b500390565b634e487b7160e01b600052603260045260246000fd5b600060001982141561105657611056610fff565b5060010190565b60006020828403121561106f57600080fd5b815167ffffffffffffffff81111561108657600080fd5b8201601f8101841361109757600080fd5b80516110a5610ded82610da6565b8181528560208385010111156110ba57600080fd5b6101b1826020830160208601610e72565b600081516110dd818560208601610e72565b9290920192915050565b7f3c7376672076657273696f6e3d22312e312220786d6c6e733d22687474703a2f81527f2f7777772e77332e6f72672f323030302f7376672220786d6c6e733a786c696e60208201527f6b3d22687474703a2f2f7777772e77332e6f72672f313939392f786c696e6b2260408201527f20783d223070782220793d22307078222076696577426f783d2230203020373960608201527f20393922207374796c653d2277696474683a203437343b206865696768743a2060808201527f3539343b206d617267696e3a203130307078206175746f3b2220786d6c3a737060a08201526e30b1b29e91383932b9b2b93b32911f60891b60c0820152600087516111f58160cf850160208c01610e72565b87519083019061120c8160cf840160208c01610e72565b87519101906112228160cf840160208b01610e72565b61124361123d61123760cf848601018a6110cb565b886110cb565b866110cb565b91505061125881651e17b9bb339f60d11b9052565b60060198975050505050505050565b651e3232b3399f60d11b81527f3c672069643d2273746172222077696474683d223322206865696768743d2233600682015261111f60f11b60268201527f3c7265637420783d22312220793d2230222077696474683d2231222068656967602882015268343a1e91189110179f60b91b604882015260006113da61139f611364611329605186017f3c7265637420783d22302220793d2231222077696474683d2231222068656967815268343a1e91189110179f60b91b602082015260290190565b7f3c7265637420783d22312220793d2231222077696474683d2231222068656967815268343a1e91189110179f60b91b602082015260290190565b7f3c7265637420783d22322220793d2231222077696474683d2231222068656967815268343a1e91189110179f60b91b602082015260290190565b7f3c7265637420783d22312220793d2232222077696474683d2231222068656967815268343a1e91189110179f60b91b602082015260290190565b631e17b39f60e11b81527f3c672069643d2273746172726f772220636c6173733d22656d70747922207769600482015273323a341e91191891103432b4b3b43a1e9119911f60611b6024820152603881017f3c75736520783d22302220786c696e6b3a687265663d222373746172222f3e00815290507f3c75736520783d22352220786c696e6b3a687265663d222373746172222f3e00601f8201527f3c75736520783d2231302220786c696e6b3a687265663d222373746172222f3e603e820152631e17b39f60e11b605e8201527f3c672069643d226561726e65647870222077696474683d2233222068656967686062820152653a1e9119911f60d11b6082820152608881017f3c75736520783d22302220786c696e6b3a687265663d222373746172222f3e00815290507f3c7265637420636c6173733d22737461727368696e652220783d22302220793d601f820152600080516020613573833981519152603f8201526000805160206135b3833981519152605f8201527f3d22303b2e363b3022206475723d2235732220626567696e3d22307322207265607f820152600080516020613553833981519152609f8201526116e061163660bf83017f3c7265637420636c6173733d22737461727368696e652220783d22312220793d81527f2232222077696474683d223122206865696768743d2231223e3c616e696d617460208201526000805160206135b383398151915260408201527f3d22303b2e383b3022206475723d2235732220626567696e3d223273222072656060820152600080516020613553833981519152608082015260a00190565b7f3c7265637420636c6173733d22737461727368696e652220783d22312220793d815260008051602061357383398151915260208201526000805160206135b383398151915260408201527f3d22303b2e353b3022206475723d2235732220626567696e3d22313230306d7360608201527f2220726570656174436f756e743d22696e646566696e69746522202f3e3c2f7260808201526332b1ba1f60e11b60a082015260a40190565b631e17b39f60e11b815290506f1e339034b21e9131b7bab73a32b9111f60811b60048201527f3c75736520783d22332220786c696e6b3a687265663d222373746172222f3e0060148201527f3c7265637420636c6173733d22737461727368696e652220783d22332220793d603382015260008051602061357383398151915260538201526000805160206135b383398151915260738201527f3d22303b2e363b3022206475723d2233732220626567696e3d22307322207265609382015260008051602061355383398151915260b3820152611b63611ac6611a2961198c61195161139f61191661186c60d389017f3c7265637420636c6173733d22737461727368696e652220783d22342220793d81527f2232222077696474683d223122206865696768743d2231223e3c616e696d617460208201526000805160206135b383398151915260408201527f3d22303b2e383b3022206475723d2233732220626567696e3d223273222072656060820152600080516020613553833981519152608082015260a00190565b7f3c7265637420636c6173733d22737461727368696e652220783d22342220793d815260008051602061357383398151915260208201526000805160206135b383398151915260408201527f3d22303b2e353b3022206475723d2233732220626567696e3d22313230306d7360608201527f2220726570656174436f756e743d22696e646566696e69746522202f3e3c2f7260808201526332b1ba1f60e11b60a082015260a40190565b7f3c7265637420783d22302220793d2230222077696474683d2231222068656967815268343a1e91189110179f60b91b602082015260290190565b7f3c7265637420783d22372220793d2230222077696474683d2231222068656967815268343a1e91189110179f60b91b602082015260290190565b7f3c7265637420636c6173733d22737461727368696e652220783d22302220793d81527f2230222077696474683d223122206865696768743d2231223e3c616e696d617460208201526000805160206135b383398151915260408201527f3d22303b2e363b3022206475723d2234732220626567696e3d223073222072656060820152600080516020613553833981519152608082015260a00190565b7f3c7265637420636c6173733d22737461727368696e652220783d22312220793d81527f2232222077696474683d223122206865696768743d2231223e3c616e696d617460208201526000805160206135b383398151915260408201527f3d22303b2e383b3022206475723d2234732220626567696e3d223273222072656060820152600080516020613553833981519152608082015260a00190565b7f3c7265637420636c6173733d22737461727368696e652220783d22372220793d81527f2230222077696474683d223122206865696768743d2231223e3c616e696d617460208201526000805160206135b383398151915260408201527f3d22303b2e383b3022206475723d2234732220626567696e3d223373222072656060820152600080516020613553833981519152608082015260a00190565b631e17b39f60e11b81526004019392505050565b60008351611b89818460208801610e72565b835190830190611b9d818360208801610e72565b661e17b232b3399f60c91b9101908152600701949350505050565b7f3c67207472616e73666f726d3d227472616e736c61746528333620353129223e81527f3c746578743e3c747370616e20783d222d322220793d22322220636c6173733d60208201527f22737431223e41435449564954593c2f747370616e3e3c747370616e20783d2260408201527f2d322220793d22372220636c6173733d22737431223e434f4e5452494255544f60608201527f523c2f747370616e3e3c747370616e20783d222d322220793d2231322220636c60808201527f6173733d22737431223e434f4d4d554e4954593c2f747370616e3e3c2f74657860a0820152613a1f60f11b60c08201526000611cc5611cbf611cb960c285018b6110cb565b896110cb565b876110cb565b631e17b39f60e11b81527f3c7465787420636c6173733d22737433223e3c747370616e20783d22333522206004820152663c9e911b1c911f60c91b6024820152611d11602b8201611cbf565b7f3c2f747370616e3e3c747370616e20783d2233352220793d223732223e00000081529050611d43601d8201866110cb565b6217171760e91b81529050611d5b60038201856110cb565b6e1e17ba39b830b71f1e17ba32bc3a1f60891b8152600f019998505050505050505050565b7f3c7376672077696474683d22333922206865696768743d22333922207669657781527f426f783d22302030203339203339222066696c6c3d226e6f6e652220786d6c6e60208201527f733d22687474703a2f2f7777772e77332e6f72672f323030302f73766722207860408201526c1e91189a91103c9e911899911f60991b60608201527f3c7265637420783d2231312220793d223134222077696474683d223137222068606d8201527f65696768743d223137222066696c6c3d22626c61636b222f3e00000000000000608d8201527f3c7265637420783d2231322220793d223135222077696474683d22313522206860a68201527f65696768743d223135222066696c6c3d227768697465222f3e0000000000000060c68201527f3c726563742077696474683d223122206865696768743d22313322207472616e60df8201527f73666f726d3d226d6174726978282d312030203020312032362031362922206660ff8201526e34b6361e911198189818981891179f60891b61011f8201526000610ab36122516122026121b861216e6121246120da612090612046611ff7611f9161012e8d017f3c726563742077696474683d223122206865696768743d22313322207472616e81527f73666f726d3d226d6174726978282d312030203020312031342031362922206660208201526e34b6361e911198189818981891179f60891b6040820152604f0190565b7f3c726563742077696474683d223322206865696768743d223122207472616e7381527f666f726d3d226d6174726978282d31203020302031203231203136292220666960208201526d36361e911198189818981891179f60911b6040820152604e0190565b7f3c7265637420783d22362220793d2238222077696474683d223122206865696781527f68743d2234222066696c6c3d2223303130313031222f3e000000000000000000602082015260370190565b7f3c7265637420783d2231362220793d2238222077696474683d2231222068656981527733b43a1e911911103334b6361e911198189818981891179f60411b602082015260380190565b7f3c7265637420783d2232342220793d2232222077696474683d2231222068656981527733b43a1e911911103334b6361e911198189818981891179f60411b602082015260380190565b7f3c7265637420783d2232302220793d2238222077696474683d2231222068656981527733b43a1e911a11103334b6361e911198189818981891179f60411b602082015260380190565b7f3c7265637420783d2231392220793d2234222077696474683d2231222068656981527733b43a1e911a11103334b6361e911198189818981891179f60411b602082015260380190565b7f3c7265637420783d2232352220793d2234222077696474683d2231222068656981527733b43a1e911991103334b6361e911198189818981891179f60411b602082015260380190565b7f3c7265637420783d2232362220793d2237222077696474683d2231222068656981527733b43a1e911991103334b6361e911198189818981891179f60411b602082015260380190565b7f3c7265637420783d2232352220793d223130222077696474683d22312220686581527f696768743d2234222066696c6c3d2223303130313031222f3e00000000000000602082015260390190565b7f3c7265637420783d2231332220793d223133222077696474683d22312220686581527834b3b43a1e911911103334b6361e911198189818981891179f60391b602082015260390190565b7f3c7265637420783d2231342220793d223135222077696474683d22312220686581527834b3b43a1e911911103334b6361e911198189818981891179f60391b60208201527f3c7265637420783d2232342220793d223134222077696474683d22312220686560398201527f696768743d2233222066696c6c3d2223303130313031222f3e0000000000000060598201527f3c7265637420783d2231372220793d223130222077696474683d22312220686560728201527f696768743d2237222066696c6c3d2223303130313031222f3e0000000000000060928201527f3c7265637420783d2232312220793d223132222077696474683d22312220686560ab8201527f696768743d2235222066696c6c3d2223303130313031222f3e0000000000000060cb8201527f3c7265637420783d22372220793d2237222077696474683d223122206865696760e482015276343a1e911891103334b6361e911198189818981891179f60491b6101048201527f3c7265637420783d2231342220793d2236222077696474683d2231222068656961011b82015260008051602061359383398151915261013b8201526000610ab36126eb6126ae6126716126346125f76125ba6125716125346124f76124ad6101538d017f3c7265637420783d2231352220793d2237222077696474683d223122206865698152600080516020613593833981519152602082015260380190565b7f3c7265637420783d2232302220793d2232222077696474683d2231222068656981527733b43a1e911911103334b6361e911198189818981891179f60411b602082015260380190565b7f3c7265637420783d2231342220793d2239222077696474683d223122206865698152600080516020613593833981519152602082015260380190565b7f3c7265637420783d2231322220793d223132222077696474683d2231222068658152600080516020613513833981519152602082015260390190565b7f3c7265637420783d22382220793d2236222077696474683d2233222068656967815276343a1e911891103334b6361e911198189818981891179f60491b602082015260370190565b7f3c7265637420783d22372220793d223132222077696474683d223322206865698152600080516020613593833981519152602082015260380190565b7f3c7265637420783d2231322220793d223130222077696474683d2232222068658152600080516020613513833981519152602082015260390190565b7f3c7265637420783d2231302220793d223131222077696474683d2233222068658152600080516020613513833981519152602082015260390190565b7f3c7265637420783d2231312220793d2235222077696474683d223322206865698152600080516020613593833981519152602082015260380190565b7f3c7265637420783d2231312220793d2236222077696474683d223322206865698152600080516020613533833981519152602082015260380190565b7f3c7265637420783d2232312220793d2232222077696474683d2233222068656981527733b43a1e911911103334b6361e9111a322a322a32291179f60411b602082015260380190565b7f3c7265637420783d2232302220793d2234222077696474683d2235222068656981527f6768743d2233222066696c6c3d2223464546454645222f3e000000000000000060208201527f3c7265637420783d2232302220793d2237222077696474683d22362220686569603882015260008051602061353383398151915260588201527f3c7265637420783d2232312220793d2238222077696474683d2235222068656960708201527733b43a1e911911103334b6361e9111a322a322a32291179f60411b60908201527f3c7265637420783d2232312220793d223130222077696474683d22342220686560a88201527834b3b43a1e911911103334b6361e9111a322a322a32291179f60391b60c882018190527f3c7265637420783d2232322220793d223132222077696474683d22332220686560e18301526101018201527f3c7265637420783d2232322220793d223134222077696474683d22322220686561011a8201527f696768743d2233222066696c6c3d2223464546454645222f3e0000000000000061013a8201527f3c7265637420783d2231342220793d223130222077696474683d2233222068656101538201527f696768743d2231222066696c6c3d2223464546454645222f3e000000000000006101738201526000610ab3612ba9612b6c612b23612ae6612a9d612a54612a176129cc61298161018c8c017f3c7265637420783d2231332220793d223131222077696474683d22342220686581527834b3b43a1e911911103334b6361e9111a322a322a32291179f60391b602082015260390190565b7f3c7265637420783d2231342220793d223133222077696474683d22332220686581527834b3b43a1e911911103334b6361e9111a322a322a32291179f60391b602082015260390190565b7f3c7265637420783d2231352220793d223135222077696474683d22322220686581527834b3b43a1e911911103334b6361e9111a322a322a32291179f60391b602082015260390190565b7f3c7265637420783d22372220793d223131222077696474683d223322206865698152600080516020613533833981519152602082015260380190565b7f3c7265637420783d22382220793d2237222077696474683d2237222068656967815276343a1e911891103334b6361e9111a322a322a32291179f60491b602082015260370190565b7f3c7265637420783d22372220793d2238222077696474683d2239222068656967815276343a1e911891103334b6361e9111a322a322a32291179f60491b602082015260370190565b7f3c7265637420783d2231352220793d2239222077696474683d223122206865698152600080516020613533833981519152602082015260380190565b7f3c7265637420783d22372220793d2239222077696474683d2237222068656967815276343a1e911891103334b6361e9111a322a322a32291179f60491b602082015260370190565b7f3c7265637420783d22372220793d223130222077696474683d223522206865698152600080516020613533833981519152602082015260380190565b7f3c7265637420783d2232312220793d2231222077696474683d223322206865698152600080516020613593833981519152602082015260380190565b7f3c726563742077696474683d22313122206865696768743d223122207472616e81527f73666f726d3d226d6174726978282d312030203020312032352032382922206660208201526e34b6361e911198189818981891179f60891b60408201527f3c726563742077696474683d22313122206865696768743d2231312220747261604f8201527f6e73666f726d3d226d6174726978282d31203020302031203235203137292220606f8201526f3334b6361e9111a322a322a32291179f60811b608f8201527f3c7265637420783d2231362220793d223230222077696474683d223122206865609f82015260008051602061351383398151915260bf82018190527f3c7265637420783d2232322220793d223230222077696474683d22312220686560d883015260f88201526000612e9a612e5d612e20612de3612da6612d6961011188017f3c7265637420783d2231352220793d223231222077696474683d2231222068658152600080516020613513833981519152602082015260390190565b7f3c7265637420783d2231372220793d223231222077696474683d2231222068658152600080516020613513833981519152602082015260390190565b7f3c7265637420783d2232312220793d223231222077696474683d2231222068658152600080516020613513833981519152602082015260390190565b7f3c7265637420783d2232332220793d223231222077696474683d2231222068658152600080516020613513833981519152602082015260390190565b7f3c7265637420783d2231382220793d223234222077696474683d2233222068658152600080516020613513833981519152602082015260390190565b7f3c7265637420783d2231392220793d223235222077696474683d2231222068658152600080516020613513833981519152602082015260390190565b651e17b9bb339f60d11b815260060192915050565b60008551612ec1818460208a01610e72565b855190830190612ed5818360208a01610e72565b8551910190612ee8818360208901610e72565b8451910190612efb818360208801610e72565b019695505050505050565b7f3c66696c7465722069643d22676c6f772220783d222d3330252220793d222d3381527f3025222077696474683d223136302522206865696768743d2231363025223e0060208201527f3c6665466c6f6f6420726573756c743d22666c6f6f642220666c6f6f642d636f603f820152643637b91e9160d91b605f82015260008251612f98816064850160208701610e72565b7f2220666c6f6f642d6f7061636974793d222e31223e3c2f6665466c6f6f643e006064918401918201527f3c6665436f6d706f7369746520696e3d22666c6f6f642220726573756c743d2260838201527f6d61736b2220696e323d22536f757263654772617068696322206f706572617460a38201527537b91e9134b7111f1e17b332a1b7b6b837b9b4ba329f60511b60c382015261310c6130a460d983017f3c66654d6f7270686f6c6f677920696e3d226d61736b2220726573756c743d2281527f64696c6174656422206f70657261746f723d2264696c61746522207261646975602082015274399e911a111f1e17b332a6b7b9383437b637b3bc9f60591b604082015260550190565b7f3c6665476175737369616e426c757220696e3d2264696c61746564222072657381527f756c743d22626c75727265642220737464446576696174696f6e3d2233223e3c60208201526f17b332a3b0bab9b9b4b0b721363ab91f60811b604082015260500190565b681e3332a6b2b933b29f60b91b81527f3c66654d657267654e6f646520696e3d22626c7572726564223e3c2f66654d656009820152673933b2a737b2329f60c11b60298201527f3c66654d657267654e6f646520696e3d22536f7572636547726170686963223e60318201526d1e17b332a6b2b933b2a737b2329f60911b6051820152691e17b332a6b2b933b29f60b11b605f820152681e17b334b63a32b91f60b91b6069820152607201949350505050565b6d1e3ab9b2903c1e911811103c9e9160911b815282516000906131e981600e850160208801610e72565b7f2220786c696e6b3a687265663d22236561726e656478702220636c6173733d22600e91840191820152835161322681602e840160208801610e72565b6211179f60e91b602e9290910191820152603101949350505050565b6d1e3ab9b2903c1e911a91103c9e9160911b815282516000906131e981600e850160208801610e72565b6e1e3ab9b2903c1e91189811103c9e9160891b8152825160009061329781600f850160208801610e72565b7f2220786c696e6b3a687265663d22236561726e656478702220636c6173733d22600f9184019182015283516132d481602f840160208801610e72565b6211179f60e91b602f9290910191820152603201949350505050565b6d1e3ab9b2903c1e911811103c9e9160911b8152845160009061331a81600e850160208a01610e72565b7f2220786c696e6b3a687265663d222373746172726f77222f3e00000000000000600e918401918201528551613357816027840160208a01610e72565b855191019061336d816027840160208901610e72565b8451910190613383816027840160208801610e72565b016027019695505050505050565b600082198211156133a4576133a4610fff565b500190565b6d1e3ab9b2903c1e911811103c9e9160911b815284516000906133d381600e850160208a01610e72565b7f2220786c696e6b3a687265663d2223636f756e7465722220636c6173733d2200600e91840191820152855161341081602d840160208a01610e72565b6211179f60e91b602d92909101918201526e1e3a32bc3a103c1e911c91103c9e9160891b6030820152845161344c81603f840160208901610e72565b6e04440c6d8c2e6e67a44e6e864447cf608b1b603f9290910191820152835161347c81604e840160208801610e72565b661e17ba32bc3a1f60c91b604e92909101918201526055019695505050505050565b634e487b7160e01b600052601260045260246000fd5b6000826134c3576134c361349e565b500490565b6000826134d7576134d761349e565b500690565b60008160001904831182151516156134f6576134f6610fff565b500290565b60008161350a5761350a610fff565b50600019019056fe696768743d2231222066696c6c3d2223303130313031222f3e000000000000006768743d2231222066696c6c3d2223464546454645222f3e000000000000000070656174436f756e743d22696e646566696e69746522202f3e3c2f726563743e2231222077696474683d223122206865696768743d2231223e3c616e696d61746768743d2231222066696c6c3d2223303130313031222f3e000000000000000065206174747269627574654e616d653d226f706163697479222076616c756573a164736f6c634300080c000a",
    "linkReferences": {}
  }
}