{
  "abi": [
    {
      "inputs": [],
      "name": "glowColor",
      "outputs": [
        {
          "internalType": "string",
          "name": "",
          "type": "string"
        }
      ],
      "stateMutability": "pure",
      "type": "function"
    },
    {
      "inputs": [],
      "name": "renderTrait",
      "outputs": [
        {
          "internalType": "string",
          "name": "",
          "type": "string"
        }
      ],
      "stateMutability": "pure",
      "type": "function"
    },
    {
      "inputs": [],
      "name": "traitName",
      "outputs": [
        {
          "internalType": "string",
          "name": "",
          "type": "string"
        }
      ],
      "stateMutability": "pure",
      "type": "function"
    }
  ],
  "bytecode": {
    "object": "0x608060405234801561001057600080fd5b5061012a806100206000396000f3fe608060405234801561001057600080fd5b50600436106100415760003560e01c806331bc805714610046578063328ecd1c1461006c57806342aa4e82146100a5575b600080fd5b6040805160208101909152600081525b60405161006391906100c8565b60405180910390f35b60408051808201909152601781527f4261636b656420436f6d6d756e697479204d656d6265720000000000000000006020820152610056565b6040805180820190915260078152660233030303030360cc1b6020820152610056565b600060208083528351808285015260005b818110156100f5578581018301518582016040015282016100d9565b81811115610107576000604083870101525b50601f01601f191692909201604001939250505056fea164736f6c634300080c000a",
    "linkReferences": {}
  }
}