{
  "abi": [
    {
      "inputs": [
        {
          "internalType": "uint256",
          "name": "",
          "type": "uint256"
        }
      ],
      "name": "accessoryIdToAccessory",
      "outputs": [
        {
          "internalType": "string",
          "name": "name",
          "type": "string"
        },
        {
          "internalType": "bool",
          "name": "xpBased",
          "type": "bool"
        },
        {
          "internalType": "address",
          "name": "artContract",
          "type": "address"
        },
        {
          "internalType": "uint256",
          "name": "qualifyingXPScore",
          "type": "uint256"
        },
        {
          "internalType": "uint256",
          "name": "xpCategory",
          "type": "uint256"
        }
      ],
      "stateMutability": "view",
      "type": "function"
    },
    {
      "inputs": [
        {
          "internalType": "address",
          "name": "",
          "type": "address"
        }
      ],
      "name": "addressToAccessoryEnabled",
      "outputs": [
        {
          "internalType": "uint256",
          "name": "",
          "type": "uint256"
        }
      ],
      "stateMutability": "view",
      "type": "function"
    },
    {
      "inputs": [
        {
          "internalType": "address",
          "name": "",
          "type": "address"
        },
        {
          "internalType": "uint256",
          "name": "",
          "type": "uint256"
        }
      ],
      "name": "addressToAccessoryUnlocked",
      "outputs": [
        {
          "internalType": "bool",
          "name": "",
          "type": "bool"
        }
      ],
      "stateMutability": "view",
      "type": "function"
    },
    {
      "inputs": [
        {
          "internalType": "address",
          "name": "",
          "type": "address"
        },
        {
          "internalType": "uint256",
          "name": "",
          "type": "uint256"
        }
      ],
      "name": "addressToCategoryScore",
      "outputs": [
        {
          "internalType": "uint256",
          "name": "",
          "type": "uint256"
        }
      ],
      "stateMutability": "view",
      "type": "function"
    },
    {
      "inputs": [
        {
          "internalType": "address",
          "name": "",
          "type": "address"
        }
      ],
      "name": "addressToPFPTokenIdLink",
      "outputs": [
        {
          "internalType": "uint256",
          "name": "",
          "type": "uint256"
        }
      ],
      "stateMutability": "view",
      "type": "function"
    },
    {
      "inputs": [],
      "name": "admin",
      "outputs": [
        {
          "internalType": "address",
          "name": "",
          "type": "address"
        }
      ],
      "stateMutability": "view",
      "type": "function"
    },
    {
      "inputs": [],
      "name": "bunnyPFPContractAddress",
      "outputs": [
        {
          "internalType": "address",
          "name": "",
          "type": "address"
        }
      ],
      "stateMutability": "view",
      "type": "function"
    },
    {
      "inputs": [
        {
          "internalType": "uint256",
          "name": "",
          "type": "uint256"
        }
      ],
      "name": "categoryIdToDisplayName",
      "outputs": [
        {
          "internalType": "string",
          "name": "",
          "type": "string"
        }
      ],
      "stateMutability": "view",
      "type": "function"
    },
    {
      "inputs": [],
      "name": "cdmAddr",
      "outputs": [
        {
          "internalType": "address",
          "name": "",
          "type": "address"
        }
      ],
      "stateMutability": "view",
      "type": "function"
    },
    {
      "inputs": [],
      "name": "descriptor",
      "outputs": [
        {
          "internalType": "contract IBackedCommunityTokenDescriptorV1",
          "name": "",
          "type": "address"
        }
      ],
      "stateMutability": "view",
      "type": "function"
    },
    {
      "inputs": [],
      "name": "nonce",
      "outputs": [
        {
          "internalType": "uint256",
          "name": "",
          "type": "uint256"
        }
      ],
      "stateMutability": "view",
      "type": "function"
    },
    {
      "inputs": [
        {
          "internalType": "uint256",
          "name": "",
          "type": "uint256"
        }
      ],
      "name": "tokenIdToAddressApprovals",
      "outputs": [
        {
          "internalType": "address",
          "name": "",
          "type": "address"
        }
      ],
      "stateMutability": "view",
      "type": "function"
    },
    {
      "inputs": [],
      "name": "totalCategoryCount",
      "outputs": [
        {
          "internalType": "uint256",
          "name": "",
          "type": "uint256"
        }
      ],
      "stateMutability": "view",
      "type": "function"
    },
    {
      "inputs": [],
      "name": "totalSpecialyAccessoryCount",
      "outputs": [
        {
          "internalType": "uint256",
          "name": "",
          "type": "uint256"
        }
      ],
      "stateMutability": "view",
      "type": "function"
    }
  ],
  "bytecode": {
    "object": "0x608060405234801561001057600080fd5b5061055e806100206000396000f3fe608060405234801561001057600080fd5b50600436106100ea5760003560e01c8063957a27541161008c578063c17c7faa11610066578063c17c7faa1461023a578063db8a06cf1461024d578063dfcf2cf814610271578063f851a4401461028457600080fd5b8063957a2754146101fd578063affed0e014610228578063b2b52ef11461023157600080fd5b80634fb05fe2116100c85780634fb05fe21461017d5780637473660a146101a65780637a0c81af146101d4578063904b65d9146101f457600080fd5b80632fdaa490146100ef578063303e74df146101325780633ed0b70e1461015d575b600080fd5b61011d6100fd366004610411565b600960209081526000928352604080842090915290825290205460ff1681565b60405190151581526020015b60405180910390f35b600354610145906001600160a01b031681565b6040516001600160a01b039091168152602001610129565b61017061016b36600461043b565b610297565b60405161012991906104a1565b61014561018b36600461043b565b600d602052600090815260409020546001600160a01b031681565b6101c66101b43660046104bb565b600a6020526000908152604090205481565b604051908152602001610129565b6101c66101e23660046104bb565b600c6020526000908152604090205481565b6101c660075481565b6101c661020b366004610411565b600660209081526000928352604080842090915290825290205481565b6101c660005481565b6101c660045481565b600254610145906001600160a01b031681565b61026061025b36600461043b565b610331565b6040516101299594939291906104d6565b600b54610145906001600160a01b031681565b600154610145906001600160a01b031681565b600560205260009081526040902080546102b090610516565b80601f01602080910402602001604051908101604052809291908181526020018280546102dc90610516565b80156103295780601f106102fe57610100808354040283529160200191610329565b820191906000526020600020905b81548152906001019060200180831161030c57829003601f168201915b505050505081565b60086020526000908152604090208054819061034c90610516565b80601f016020809104026020016040519081016040528092919081815260200182805461037890610516565b80156103c55780601f1061039a576101008083540402835291602001916103c5565b820191906000526020600020905b8154815290600101906020018083116103a857829003601f168201915b5050505060018301546002840154600390940154929360ff8216936101009092046001600160a01b031692509085565b80356001600160a01b038116811461040c57600080fd5b919050565b6000806040838503121561042457600080fd5b61042d836103f5565b946020939093013593505050565b60006020828403121561044d57600080fd5b5035919050565b6000815180845260005b8181101561047a5760208185018101518683018201520161045e565b8181111561048c576000602083870101525b50601f01601f19169290920160200192915050565b6020815260006104b46020830184610454565b9392505050565b6000602082840312156104cd57600080fd5b6104b4826103f5565b60a0815260006104e960a0830188610454565b9515156020830152506001600160a01b039390931660408401526060830191909152608090910152919050565b600181811c9082168061052a57607f821691505b6020821081141561054b57634e487b7160e01b600052602260045260246000fd5b5091905056fea164736f6c634300080c000a",
    "linkReferences": {}
  }
}