{
  "abi": [
    {
      "inputs": [
        {
          "internalType": "uint256",
          "name": "",
          "type": "uint256"
        }
      ],
      "name": "accessoryIdToAccessory",
      "outputs": [
        {
          "internalType": "string",
          "name": "name",
          "type": "string"
        },
        {
          "internalType": "bool",
          "name": "xpBased",
          "type": "bool"
        },
        {
          "internalType": "address",
          "name": "artContract",
          "type": "address"
        },
        {
          "internalType": "uint256",
          "name": "qualifyingXPScore",
          "type": "uint256"
        },
        {
          "internalType": "uint256",
          "name": "xpCategory",
          "type": "uint256"
        }
      ],
      "stateMutability": "view",
      "type": "function"
    },
    {
      "inputs": [
        {
          "internalType": "address",
          "name": "",
          "type": "address"
        }
      ],
      "name": "addressToAccessoryEnabled",
      "outputs": [
        {
          "internalType": "uint256",
          "name": "",
          "type": "uint256"
        }
      ],
      "stateMutability": "view",
      "type": "function"
    },
    {
      "inputs": [
        {
          "internalType": "address",
          "name": "",
          "type": "address"
        },
        {
          "internalType": "uint256",
          "name": "",
          "type": "uint256"
        }
      ],
      "name": "addressToAccessoryUnlocked",
      "outputs": [
        {
          "internalType": "bool",
          "name": "",
          "type": "bool"
        }
      ],
      "stateMutability": "view",
      "type": "function"
    },
    {
      "inputs": [
        {
          "internalType": "address",
          "name": "",
          "type": "address"
        },
        {
          "internalType": "uint256",
          "name": "",
          "type": "uint256"
        }
      ],
      "name": "addressToCategoryScore",
      "outputs": [
        {
          "internalType": "uint256",
          "name": "",
          "type": "uint256"
        }
      ],
      "stateMutability": "view",
      "type": "function"
    },
    {
      "inputs": [
        {
          "internalType": "address",
          "name": "",
          "type": "address"
        }
      ],
      "name": "addressToPFPSVGLink",
      "outputs": [
        {
          "internalType": "string",
          "name": "",
          "type": "string"
        }
      ],
      "stateMutability": "view",
      "type": "function"
    },
    {
      "inputs": [],
      "name": "admin",
      "outputs": [
        {
          "internalType": "address",
          "name": "",
          "type": "address"
        }
      ],
      "stateMutability": "view",
      "type": "function"
    },
    {
      "inputs": [],
      "name": "bunnyPFPContractAddress",
      "outputs": [
        {
          "internalType": "address",
          "name": "",
          "type": "address"
        }
      ],
      "stateMutability": "view",
      "type": "function"
    },
    {
      "inputs": [
        {
          "internalType": "uint256",
          "name": "",
          "type": "uint256"
        }
      ],
      "name": "categoryIdToDisplayName",
      "outputs": [
        {
          "internalType": "string",
          "name": "",
          "type": "string"
        }
      ],
      "stateMutability": "view",
      "type": "function"
    },
    {
      "inputs": [],
      "name": "cdmAddr",
      "outputs": [
        {
          "internalType": "address",
          "name": "",
          "type": "address"
        }
      ],
      "stateMutability": "view",
      "type": "function"
    },
    {
      "inputs": [],
      "name": "descriptor",
      "outputs": [
        {
          "internalType": "contract IBackedCommunityTokenDescriptorV1",
          "name": "",
          "type": "address"
        }
      ],
      "stateMutability": "view",
      "type": "function"
    },
    {
      "inputs": [],
      "name": "nonce",
      "outputs": [
        {
          "internalType": "uint256",
          "name": "",
          "type": "uint256"
        }
      ],
      "stateMutability": "view",
      "type": "function"
    },
    {
      "inputs": [],
      "name": "totalCategoryCount",
      "outputs": [
        {
          "internalType": "uint256",
          "name": "",
          "type": "uint256"
        }
      ],
      "stateMutability": "view",
      "type": "function"
    },
    {
      "inputs": [],
      "name": "totalSpecialyAccessoryCount",
      "outputs": [
        {
          "internalType": "uint256",
          "name": "",
          "type": "uint256"
        }
      ],
      "stateMutability": "view",
      "type": "function"
    }
  ],
  "bytecode": {
    "object": "0x608060405234801561001057600080fd5b50610526806100206000396000f3fe608060405234801561001057600080fd5b50600436106100cf5760003560e01c8063affed0e01161008c578063cb19a1d611610066578063cb19a1d6146101e9578063db8a06cf146101fc578063dfcf2cf814610220578063f851a4401461023357600080fd5b8063affed0e0146101c4578063b2b52ef1146101cd578063c17c7faa146101d657600080fd5b80632fdaa490146100d4578063303e74df146101175780633ed0b70e146101425780637473660a14610162578063904b65d914610190578063957a275414610199575b600080fd5b6101026100e23660046103d9565b600960209081526000928352604080842090915290825290205460ff1681565b60405190151581526020015b60405180910390f35b60035461012a906001600160a01b031681565b6040516001600160a01b03909116815260200161010e565b610155610150366004610403565b610246565b60405161010e9190610469565b610182610170366004610483565b600a6020526000908152604090205481565b60405190815260200161010e565b61018260075481565b6101826101a73660046103d9565b600660209081526000928352604080842090915290825290205481565b61018260005481565b61018260045481565b60025461012a906001600160a01b031681565b6101556101f7366004610483565b6102e0565b61020f61020a366004610403565b6102f9565b60405161010e95949392919061049e565b600b5461012a906001600160a01b031681565b60015461012a906001600160a01b031681565b6005602052600090815260409020805461025f906104de565b80601f016020809104026020016040519081016040528092919081815260200182805461028b906104de565b80156102d85780601f106102ad576101008083540402835291602001916102d8565b820191906000526020600020905b8154815290600101906020018083116102bb57829003601f168201915b505050505081565b600c602052600090815260409020805461025f906104de565b600860205260009081526040902080548190610314906104de565b80601f0160208091040260200160405190810160405280929190818152602001828054610340906104de565b801561038d5780601f106103625761010080835404028352916020019161038d565b820191906000526020600020905b81548152906001019060200180831161037057829003601f168201915b5050505060018301546002840154600390940154929360ff8216936101009092046001600160a01b031692509085565b80356001600160a01b03811681146103d457600080fd5b919050565b600080604083850312156103ec57600080fd5b6103f5836103bd565b946020939093013593505050565b60006020828403121561041557600080fd5b5035919050565b6000815180845260005b8181101561044257602081850181015186830182015201610426565b81811115610454576000602083870101525b50601f01601f19169290920160200192915050565b60208152600061047c602083018461041c565b9392505050565b60006020828403121561049557600080fd5b61047c826103bd565b60a0815260006104b160a083018861041c565b9515156020830152506001600160a01b039390931660408401526060830191909152608090910152919050565b600181811c908216806104f257607f821691505b6020821081141561051357634e487b7160e01b600052602260045260246000fd5b5091905056fea164736f6c634300080c000a",
    "linkReferences": {}
  }
}