{
  "abi": [
    {
      "inputs": [
        {
          "internalType": "uint256",
          "name": "",
          "type": "uint256"
        }
      ],
      "name": "accessoryIdToAccessory",
      "outputs": [
        {
          "internalType": "string",
          "name": "name",
          "type": "string"
        },
        {
          "internalType": "bool",
          "name": "xpBased",
          "type": "bool"
        },
        {
          "internalType": "address",
          "name": "artContract",
          "type": "address"
        },
        {
          "internalType": "uint256",
          "name": "qualifyingXPScore",
          "type": "uint256"
        },
        {
          "internalType": "uint256",
          "name": "xpCategory",
          "type": "uint256"
        }
      ],
      "stateMutability": "view",
      "type": "function"
    },
    {
      "inputs": [
        {
          "internalType": "address",
          "name": "",
          "type": "address"
        }
      ],
      "name": "addressToAccessoryEnabled",
      "outputs": [
        {
          "internalType": "uint256",
          "name": "",
          "type": "uint256"
        }
      ],
      "stateMutability": "view",
      "type": "function"
    },
    {
      "inputs": [
        {
          "internalType": "address",
          "name": "",
          "type": "address"
        },
        {
          "internalType": "uint256",
          "name": "",
          "type": "uint256"
        }
      ],
      "name": "addressToAccessoryUnlocked",
      "outputs": [
        {
          "internalType": "bool",
          "name": "",
          "type": "bool"
        }
      ],
      "stateMutability": "view",
      "type": "function"
    },
    {
      "inputs": [
        {
          "internalType": "address",
          "name": "",
          "type": "address"
        },
        {
          "internalType": "uint256",
          "name": "",
          "type": "uint256"
        }
      ],
      "name": "addressToCategoryScore",
      "outputs": [
        {
          "internalType": "uint256",
          "name": "",
          "type": "uint256"
        }
      ],
      "stateMutability": "view",
      "type": "function"
    },
    {
      "inputs": [
        {
          "internalType": "address",
          "name": "",
          "type": "address"
        }
      ],
      "name": "addressToPFPTokenIdLink",
      "outputs": [
        {
          "internalType": "uint256",
          "name": "",
          "type": "uint256"
        }
      ],
      "stateMutability": "view",
      "type": "function"
    },
    {
      "inputs": [],
      "name": "admin",
      "outputs": [
        {
          "internalType": "address",
          "name": "",
          "type": "address"
        }
      ],
      "stateMutability": "view",
      "type": "function"
    },
    {
      "inputs": [],
      "name": "bunnyPFPContractAddress",
      "outputs": [
        {
          "internalType": "address",
          "name": "",
          "type": "address"
        }
      ],
      "stateMutability": "view",
      "type": "function"
    },
    {
      "inputs": [
        {
          "internalType": "uint256",
          "name": "",
          "type": "uint256"
        }
      ],
      "name": "categoryIdToDisplayName",
      "outputs": [
        {
          "internalType": "string",
          "name": "",
          "type": "string"
        }
      ],
      "stateMutability": "view",
      "type": "function"
    },
    {
      "inputs": [],
      "name": "descriptor",
      "outputs": [
        {
          "internalType": "contract IBackedCommunityTokenDescriptorV1",
          "name": "",
          "type": "address"
        }
      ],
      "stateMutability": "view",
      "type": "function"
    },
    {
      "inputs": [],
      "name": "nonce",
      "outputs": [
        {
          "internalType": "uint256",
          "name": "",
          "type": "uint256"
        }
      ],
      "stateMutability": "view",
      "type": "function"
    },
    {
      "inputs": [],
      "name": "totalCategoryCount",
      "outputs": [
        {
          "internalType": "uint256",
          "name": "",
          "type": "uint256"
        }
      ],
      "stateMutability": "view",
      "type": "function"
    },
    {
      "inputs": [],
      "name": "totalSpecialyAccessoryCount",
      "outputs": [
        {
          "internalType": "uint256",
          "name": "",
          "type": "uint256"
        }
      ],
      "stateMutability": "view",
      "type": "function"
    }
  ],
  "bytecode": {
    "object": "0x608060405234801561001057600080fd5b506104ec806100206000396000f3fe608060405234801561001057600080fd5b50600436106100b45760003560e01c8063957a275411610071578063957a27541461019e578063affed0e0146101c9578063b2b52ef1146101d2578063db8a06cf146101db578063dfcf2cf8146101ff578063f851a4401461021257600080fd5b80632fdaa490146100b9578063303e74df146100fc5780633ed0b70e146101275780637473660a146101475780637a0c81af14610175578063904b65d914610195575b600080fd5b6100e76100c736600461039f565b600860209081526000928352604080842090915290825290205460ff1681565b60405190151581526020015b60405180910390f35b60025461010f906001600160a01b031681565b6040516001600160a01b0390911681526020016100f3565b61013a6101353660046103c9565b610225565b6040516100f3919061042f565b610167610155366004610449565b60096020526000908152604090205481565b6040519081526020016100f3565b610167610183366004610449565b600b6020526000908152604090205481565b61016760065481565b6101676101ac36600461039f565b600560209081526000928352604080842090915290825290205481565b61016760005481565b61016760035481565b6101ee6101e93660046103c9565b6102bf565b6040516100f3959493929190610464565b600a5461010f906001600160a01b031681565b60015461010f906001600160a01b031681565b6004602052600090815260409020805461023e906104a4565b80601f016020809104026020016040519081016040528092919081815260200182805461026a906104a4565b80156102b75780601f1061028c576101008083540402835291602001916102b7565b820191906000526020600020905b81548152906001019060200180831161029a57829003601f168201915b505050505081565b6007602052600090815260409020805481906102da906104a4565b80601f0160208091040260200160405190810160405280929190818152602001828054610306906104a4565b80156103535780601f1061032857610100808354040283529160200191610353565b820191906000526020600020905b81548152906001019060200180831161033657829003601f168201915b5050505060018301546002840154600390940154929360ff8216936101009092046001600160a01b031692509085565b80356001600160a01b038116811461039a57600080fd5b919050565b600080604083850312156103b257600080fd5b6103bb83610383565b946020939093013593505050565b6000602082840312156103db57600080fd5b5035919050565b6000815180845260005b81811015610408576020818501810151868301820152016103ec565b8181111561041a576000602083870101525b50601f01601f19169290920160200192915050565b60208152600061044260208301846103e2565b9392505050565b60006020828403121561045b57600080fd5b61044282610383565b60a08152600061047760a08301886103e2565b9515156020830152506001600160a01b039390931660408401526060830191909152608090910152919050565b600181811c908216806104b857607f821691505b602082108114156104d957634e487b7160e01b600052602260045260246000fd5b5091905056fea164736f6c634300080c000a",
    "linkReferences": {}
  }
}