{
  "abi": [
    {
      "inputs": [],
      "stateMutability": "nonpayable",
      "type": "constructor"
    },
    {
      "anonymous": false,
      "inputs": [
        {
          "indexed": true,
          "internalType": "address",
          "name": "owner",
          "type": "address"
        },
        {
          "indexed": true,
          "internalType": "address",
          "name": "approved",
          "type": "address"
        },
        {
          "indexed": true,
          "internalType": "uint256",
          "name": "tokenId",
          "type": "uint256"
        }
      ],
      "name": "Approval",
      "type": "event"
    },
    {
      "anonymous": false,
      "inputs": [
        {
          "indexed": true,
          "internalType": "address",
          "name": "owner",
          "type": "address"
        },
        {
          "indexed": true,
          "internalType": "address",
          "name": "operator",
          "type": "address"
        },
        {
          "indexed": false,
          "internalType": "bool",
          "name": "approved",
          "type": "bool"
        }
      ],
      "name": "ApprovalForAll",
      "type": "event"
    },
    {
      "anonymous": false,
      "inputs": [
        {
          "indexed": true,
          "internalType": "address",
          "name": "from",
          "type": "address"
        },
        {
          "indexed": true,
          "internalType": "address",
          "name": "to",
          "type": "address"
        },
        {
          "indexed": true,
          "internalType": "uint256",
          "name": "tokenId",
          "type": "uint256"
        }
      ],
      "name": "Transfer",
      "type": "event"
    },
    {
      "inputs": [
        {
          "internalType": "address",
          "name": "to",
          "type": "address"
        },
        {
          "internalType": "uint256",
          "name": "tokenId",
          "type": "uint256"
        }
      ],
      "name": "approve",
      "outputs": [],
      "stateMutability": "nonpayable",
      "type": "function"
    },
    {
      "inputs": [
        {
          "internalType": "address",
          "name": "owner",
          "type": "address"
        }
      ],
      "name": "balanceOf",
      "outputs": [
        {
          "internalType": "uint256",
          "name": "",
          "type": "uint256"
        }
      ],
      "stateMutability": "view",
      "type": "function"
    },
    {
      "inputs": [
        {
          "internalType": "uint256",
          "name": "tokenId",
          "type": "uint256"
        }
      ],
      "name": "getApproved",
      "outputs": [
        {
          "internalType": "address",
          "name": "",
          "type": "address"
        }
      ],
      "stateMutability": "view",
      "type": "function"
    },
    {
      "inputs": [
        {
          "internalType": "address",
          "name": "owner",
          "type": "address"
        },
        {
          "internalType": "address",
          "name": "operator",
          "type": "address"
        }
      ],
      "name": "isApprovedForAll",
      "outputs": [
        {
          "internalType": "bool",
          "name": "",
          "type": "bool"
        }
      ],
      "stateMutability": "view",
      "type": "function"
    },
    {
      "inputs": [],
      "name": "mint",
      "outputs": [
        {
          "internalType": "uint256",
          "name": "id",
          "type": "uint256"
        }
      ],
      "stateMutability": "nonpayable",
      "type": "function"
    },
    {
      "inputs": [
        {
          "internalType": "address",
          "name": "to",
          "type": "address"
        }
      ],
      "name": "mintTo",
      "outputs": [
        {
          "internalType": "uint256",
          "name": "id",
          "type": "uint256"
        }
      ],
      "stateMutability": "nonpayable",
      "type": "function"
    },
    {
      "inputs": [],
      "name": "name",
      "outputs": [
        {
          "internalType": "string",
          "name": "",
          "type": "string"
        }
      ],
      "stateMutability": "view",
      "type": "function"
    },
    {
      "inputs": [
        {
          "internalType": "uint256",
          "name": "tokenId",
          "type": "uint256"
        }
      ],
      "name": "ownerOf",
      "outputs": [
        {
          "internalType": "address",
          "name": "",
          "type": "address"
        }
      ],
      "stateMutability": "view",
      "type": "function"
    },
    {
      "inputs": [
        {
          "internalType": "address",
          "name": "from",
          "type": "address"
        },
        {
          "internalType": "address",
          "name": "to",
          "type": "address"
        },
        {
          "internalType": "uint256",
          "name": "tokenId",
          "type": "uint256"
        }
      ],
      "name": "safeTransferFrom",
      "outputs": [],
      "stateMutability": "nonpayable",
      "type": "function"
    },
    {
      "inputs": [
        {
          "internalType": "address",
          "name": "from",
          "type": "address"
        },
        {
          "internalType": "address",
          "name": "to",
          "type": "address"
        },
        {
          "internalType": "uint256",
          "name": "tokenId",
          "type": "uint256"
        },
        {
          "internalType": "bytes",
          "name": "data",
          "type": "bytes"
        }
      ],
      "name": "safeTransferFrom",
      "outputs": [],
      "stateMutability": "nonpayable",
      "type": "function"
    },
    {
      "inputs": [
        {
          "internalType": "address",
          "name": "operator",
          "type": "address"
        },
        {
          "internalType": "bool",
          "name": "approved",
          "type": "bool"
        }
      ],
      "name": "setApprovalForAll",
      "outputs": [],
      "stateMutability": "nonpayable",
      "type": "function"
    },
    {
      "inputs": [
        {
          "internalType": "bytes4",
          "name": "interfaceId",
          "type": "bytes4"
        }
      ],
      "name": "supportsInterface",
      "outputs": [
        {
          "internalType": "bool",
          "name": "",
          "type": "bool"
        }
      ],
      "stateMutability": "view",
      "type": "function"
    },
    {
      "inputs": [],
      "name": "symbol",
      "outputs": [
        {
          "internalType": "string",
          "name": "",
          "type": "string"
        }
      ],
      "stateMutability": "view",
      "type": "function"
    },
    {
      "inputs": [
        {
          "internalType": "uint256",
          "name": "tokenId",
          "type": "uint256"
        }
      ],
      "name": "tokenURI",
      "outputs": [
        {
          "internalType": "string",
          "name": "",
          "type": "string"
        }
      ],
      "stateMutability": "view",
      "type": "function"
    },
    {
      "inputs": [
        {
          "internalType": "address",
          "name": "from",
          "type": "address"
        },
        {
          "internalType": "address",
          "name": "to",
          "type": "address"
        },
        {
          "internalType": "uint256",
          "name": "tokenId",
          "type": "uint256"
        }
      ],
      "name": "transferFrom",
      "outputs": [],
      "stateMutability": "nonpayable",
      "type": "function"
    }
  ],
  "bytecode": {
    "object": "0x608060405260006006553480156200001657600080fd5b50604080518082018252600a8152695465737445524337323160b01b602080830191825283518085019094526004845263151154d560e21b908401528151919291620000659160009162000084565b5080516200007b90600190602084019062000084565b50505062000167565b82805462000092906200012a565b90600052602060002090601f016020900481019282620000b6576000855562000101565b82601f10620000d157805160ff191683800117855562000101565b8280016001018555821562000101579182015b8281111562000101578251825591602001919060010190620000e4565b506200010f92915062000113565b5090565b5b808211156200010f576000815560010162000114565b600181811c908216806200013f57607f821691505b602082108114156200016157634e487b7160e01b600052602260045260246000fd5b50919050565b61135d80620001776000396000f3fe608060405234801561001057600080fd5b50600436106100f55760003560e01c80636352211e11610097578063a22cb46511610066578063a22cb465146101f4578063b88d4fde14610207578063c87b56dd1461021a578063e985e9c51461022d57600080fd5b80636352211e146101b357806370a08231146101c6578063755edd17146101d957806395d89b41146101ec57600080fd5b8063095ea7b3116100d3578063095ea7b3146101625780631249c58b1461017757806323b872dd1461018d57806342842e0e146101a057600080fd5b806301ffc9a7146100fa57806306fdde0314610122578063081812fc14610137575b600080fd5b61010d610108366004610e9e565b610269565b60405190151581526020015b60405180910390f35b61012a6102bb565b6040516101199190610f13565b61014a610145366004610f26565b61034d565b6040516001600160a01b039091168152602001610119565b610175610170366004610f56565b6103e7565b005b61017f6104fd565b604051908152602001610119565b61017561019b366004610f80565b61050d565b6101756101ae366004610f80565b61053e565b61014a6101c1366004610f26565b610559565b61017f6101d4366004610fbc565b6105d0565b61017f6101e7366004610fbc565b610656565b61012a61067e565b610175610202366004610fd7565b61068d565b610175610215366004611029565b61069c565b61012a610228366004610f26565b6106d4565b61010d61023b366004611105565b6001600160a01b03918216600090815260056020908152604080832093909416825291909152205460ff1690565b60006001600160e01b031982166380ac58cd60e01b148061029a57506001600160e01b03198216635b5e139f60e01b145b806102b557506301ffc9a760e01b6001600160e01b03198316145b92915050565b6060600080546102ca90611138565b80601f01602080910402602001604051908101604052809291908181526020018280546102f690611138565b80156103435780601f1061031857610100808354040283529160200191610343565b820191906000526020600020905b81548152906001019060200180831161032657829003601f168201915b5050505050905090565b6000818152600260205260408120546001600160a01b03166103cb5760405162461bcd60e51b815260206004820152602c60248201527f4552433732313a20617070726f76656420717565727920666f72206e6f6e657860448201526b34b9ba32b73a103a37b5b2b760a11b60648201526084015b60405180910390fd5b506000908152600460205260409020546001600160a01b031690565b60006103f282610559565b9050806001600160a01b0316836001600160a01b031614156104605760405162461bcd60e51b815260206004820152602160248201527f4552433732313a20617070726f76616c20746f2063757272656e74206f776e656044820152603960f91b60648201526084016103c2565b336001600160a01b038216148061047c575061047c813361023b565b6104ee5760405162461bcd60e51b815260206004820152603e60248201527f4552433732313a20617070726f76652063616c6c6572206973206e6f7420746f60448201527f6b656e206f776e6572206e6f7220617070726f76656420666f7220616c6c000060648201526084016103c2565b6104f883836107bc565b505050565b600061050833610656565b905090565b610517338261082a565b6105335760405162461bcd60e51b81526004016103c290611173565b6104f88383836108a9565b6104f88383836040518060200160405280600081525061069c565b6000818152600260205260408120546001600160a01b0316806102b55760405162461bcd60e51b815260206004820152602960248201527f4552433732313a206f776e657220717565727920666f72206e6f6e657869737460448201526832b73a103a37b5b2b760b91b60648201526084016103c2565b60006001600160a01b03821661063a5760405162461bcd60e51b815260206004820152602960248201527f4552433732313a2061646472657373207a65726f206973206e6f7420612076616044820152683634b21037bbb732b960b91b60648201526084016103c2565b506001600160a01b031660009081526003602052604090205490565b600680546000916106799184918461066d836111d7565b91905055925082610a45565b919050565b6060600180546102ca90611138565b610698338383610b87565b5050565b6106a6338361082a565b6106c25760405162461bcd60e51b81526004016103c290611173565b6106ce84848484610c56565b50505050565b6000818152600260205260409020546060906001600160a01b03166107535760405162461bcd60e51b815260206004820152602f60248201527f4552433732314d657461646174613a2055524920717565727920666f72206e6f60448201526e3732bc34b9ba32b73a103a37b5b2b760891b60648201526084016103c2565b600061076a60408051602081019091526000815290565b9050600081511161078a57604051806020016040528060008152506107b5565b8061079484610c89565b6040516020016107a59291906111f2565b6040516020818303038152906040525b9392505050565b600081815260046020526040902080546001600160a01b0319166001600160a01b03841690811790915581906107f182610559565b6001600160a01b03167f8c5be1e5ebec7d5bd14f71427d1e84f3dd0314c0f7b2291e5b200ac8c7c3b92560405160405180910390a45050565b60008061083683610559565b9050806001600160a01b0316846001600160a01b0316148061087d57506001600160a01b0380821660009081526005602090815260408083209388168352929052205460ff165b806108a15750836001600160a01b03166108968461034d565b6001600160a01b0316145b949350505050565b826001600160a01b03166108bc82610559565b6001600160a01b0316146109205760405162461bcd60e51b815260206004820152602560248201527f4552433732313a207472616e736665722066726f6d20696e636f72726563742060448201526437bbb732b960d91b60648201526084016103c2565b6001600160a01b0382166109825760405162461bcd60e51b8152602060048201526024808201527f4552433732313a207472616e7366657220746f20746865207a65726f206164646044820152637265737360e01b60648201526084016103c2565b61098d6000826107bc565b6001600160a01b03831660009081526003602052604081208054600192906109b6908490611221565b90915550506001600160a01b03821660009081526003602052604081208054600192906109e4908490611238565b909155505060008181526002602052604080822080546001600160a01b0319166001600160a01b0386811691821790925591518493918716917fddf252ad1be2c89b69c2b068fc378daa952ba7f163c4a11628f55a4df523b3ef91a4505050565b6001600160a01b038216610a9b5760405162461bcd60e51b815260206004820181905260248201527f4552433732313a206d696e7420746f20746865207a65726f206164647265737360448201526064016103c2565b6000818152600260205260409020546001600160a01b031615610b005760405162461bcd60e51b815260206004820152601c60248201527f4552433732313a20746f6b656e20616c7265616479206d696e7465640000000060448201526064016103c2565b6001600160a01b0382166000908152600360205260408120805460019290610b29908490611238565b909155505060008181526002602052604080822080546001600160a01b0319166001600160a01b03861690811790915590518392907fddf252ad1be2c89b69c2b068fc378daa952ba7f163c4a11628f55a4df523b3ef908290a45050565b816001600160a01b0316836001600160a01b03161415610be95760405162461bcd60e51b815260206004820152601960248201527f4552433732313a20617070726f766520746f2063616c6c65720000000000000060448201526064016103c2565b6001600160a01b03838116600081815260056020908152604080832094871680845294825291829020805460ff191686151590811790915591519182527f17307eab39ab6107e8899845ad3d59bd9653f200f220920489ca2b5937696c31910160405180910390a3505050565b610c618484846108a9565b610c6d84848484610d87565b6106ce5760405162461bcd60e51b81526004016103c290611250565b606081610cad5750506040805180820190915260018152600360fc1b602082015290565b8160005b8115610cd75780610cc1816111d7565b9150610cd09050600a836112b8565b9150610cb1565b60008167ffffffffffffffff811115610cf257610cf2611013565b6040519080825280601f01601f191660200182016040528015610d1c576020820181803683370190505b5090505b84156108a157610d31600183611221565b9150610d3e600a866112cc565b610d49906030611238565b60f81b818381518110610d5e57610d5e6112e0565b60200101906001600160f81b031916908160001a905350610d80600a866112b8565b9450610d20565b60006001600160a01b0384163b15610e7a57604051630a85bd0160e11b81526001600160a01b0385169063150b7a0290610dcb9033908990889088906004016112f6565b6020604051808303816000875af1925050508015610e06575060408051601f3d908101601f19168201909252610e0391810190611333565b60015b610e60573d808015610e34576040519150601f19603f3d011682016040523d82523d6000602084013e610e39565b606091505b508051610e585760405162461bcd60e51b81526004016103c290611250565b805181602001fd5b6001600160e01b031916630a85bd0160e11b1490506108a1565b506001949350505050565b6001600160e01b031981168114610e9b57600080fd5b50565b600060208284031215610eb057600080fd5b81356107b581610e85565b60005b83811015610ed6578181015183820152602001610ebe565b838111156106ce5750506000910152565b60008151808452610eff816020860160208601610ebb565b601f01601f19169290920160200192915050565b6020815260006107b56020830184610ee7565b600060208284031215610f3857600080fd5b5035919050565b80356001600160a01b038116811461067957600080fd5b60008060408385031215610f6957600080fd5b610f7283610f3f565b946020939093013593505050565b600080600060608486031215610f9557600080fd5b610f9e84610f3f565b9250610fac60208501610f3f565b9150604084013590509250925092565b600060208284031215610fce57600080fd5b6107b582610f3f565b60008060408385031215610fea57600080fd5b610ff383610f3f565b91506020830135801515811461100857600080fd5b809150509250929050565b634e487b7160e01b600052604160045260246000fd5b6000806000806080858703121561103f57600080fd5b61104885610f3f565b935061105660208601610f3f565b925060408501359150606085013567ffffffffffffffff8082111561107a57600080fd5b818701915087601f83011261108e57600080fd5b8135818111156110a0576110a0611013565b604051601f8201601f19908116603f011681019083821181831017156110c8576110c8611013565b816040528281528a60208487010111156110e157600080fd5b82602086016020830137600060208483010152809550505050505092959194509250565b6000806040838503121561111857600080fd5b61112183610f3f565b915061112f60208401610f3f565b90509250929050565b600181811c9082168061114c57607f821691505b6020821081141561116d57634e487b7160e01b600052602260045260246000fd5b50919050565b6020808252602e908201527f4552433732313a2063616c6c6572206973206e6f7420746f6b656e206f776e6560408201526d1c881b9bdc88185c1c1c9bdd995960921b606082015260800190565b634e487b7160e01b600052601160045260246000fd5b60006000198214156111eb576111eb6111c1565b5060010190565b60008351611204818460208801610ebb565b835190830190611218818360208801610ebb565b01949350505050565b600082821015611233576112336111c1565b500390565b6000821982111561124b5761124b6111c1565b500190565b60208082526032908201527f4552433732313a207472616e7366657220746f206e6f6e20455243373231526560408201527131b2b4bb32b91034b6b83632b6b2b73a32b960711b606082015260800190565b634e487b7160e01b600052601260045260246000fd5b6000826112c7576112c76112a2565b500490565b6000826112db576112db6112a2565b500690565b634e487b7160e01b600052603260045260246000fd5b6001600160a01b038581168252841660208201526040810183905260806060820181905260009061132990830184610ee7565b9695505050505050565b60006020828403121561134557600080fd5b81516107b581610e8556fea164736f6c634300080c000a",
    "linkReferences": {}
  }
}