{
  "abi": [
    {
      "anonymous": false,
      "inputs": [
        {
          "indexed": true,
          "internalType": "address",
          "name": "addr",
          "type": "address"
        },
        {
          "indexed": true,
          "internalType": "address",
          "name": "oldAccessory",
          "type": "address"
        },
        {
          "indexed": true,
          "internalType": "address",
          "name": "newAccessory",
          "type": "address"
        }
      ],
      "name": "AccessorySwapped",
      "type": "event"
    },
    {
      "anonymous": false,
      "inputs": [
        {
          "indexed": true,
          "internalType": "address",
          "name": "addr",
          "type": "address"
        },
        {
          "indexed": true,
          "internalType": "address",
          "name": "accessory",
          "type": "address"
        },
        {
          "indexed": true,
          "internalType": "string",
          "name": "ipfsLink",
          "type": "string"
        }
      ],
      "name": "AccessoryUnlocked",
      "type": "event"
    },
    {
      "anonymous": false,
      "inputs": [
        {
          "indexed": true,
          "internalType": "address",
          "name": "owner",
          "type": "address"
        },
        {
          "indexed": true,
          "internalType": "address",
          "name": "approved",
          "type": "address"
        },
        {
          "indexed": true,
          "internalType": "uint256",
          "name": "tokenId",
          "type": "uint256"
        }
      ],
      "name": "Approval",
      "type": "event"
    },
    {
      "anonymous": false,
      "inputs": [
        {
          "indexed": true,
          "internalType": "address",
          "name": "owner",
          "type": "address"
        },
        {
          "indexed": true,
          "internalType": "address",
          "name": "operator",
          "type": "address"
        },
        {
          "indexed": false,
          "internalType": "bool",
          "name": "approved",
          "type": "bool"
        }
      ],
      "name": "ApprovalForAll",
      "type": "event"
    },
    {
      "anonymous": false,
      "inputs": [
        {
          "indexed": true,
          "internalType": "address",
          "name": "addr",
          "type": "address"
        },
        {
          "indexed": true,
          "internalType": "string",
          "name": "categoryId",
          "type": "string"
        },
        {
          "indexed": true,
          "internalType": "string",
          "name": "ipfsLink",
          "type": "string"
        },
        {
          "indexed": false,
          "internalType": "uint256",
          "name": "newScore",
          "type": "uint256"
        }
      ],
      "name": "CategoryScoreChanged",
      "type": "event"
    },
    {
      "anonymous": false,
      "inputs": [
        {
          "indexed": false,
          "internalType": "uint8",
          "name": "version",
          "type": "uint8"
        }
      ],
      "name": "Initialized",
      "type": "event"
    },
    {
      "anonymous": false,
      "inputs": [
        {
          "indexed": true,
          "internalType": "address",
          "name": "previousOwner",
          "type": "address"
        },
        {
          "indexed": true,
          "internalType": "address",
          "name": "newOwner",
          "type": "address"
        }
      ],
      "name": "OwnershipTransferred",
      "type": "event"
    },
    {
      "anonymous": false,
      "inputs": [
        {
          "indexed": true,
          "internalType": "address",
          "name": "from",
          "type": "address"
        },
        {
          "indexed": true,
          "internalType": "address",
          "name": "to",
          "type": "address"
        },
        {
          "indexed": true,
          "internalType": "uint256",
          "name": "tokenId",
          "type": "uint256"
        }
      ],
      "name": "Transfer",
      "type": "event"
    },
    {
      "inputs": [
        {
          "internalType": "address",
          "name": "accessory",
          "type": "address"
        }
      ],
      "name": "addSpecialAccessory",
      "outputs": [],
      "stateMutability": "nonpayable",
      "type": "function"
    },
    {
      "inputs": [
        {
          "internalType": "address",
          "name": "",
          "type": "address"
        }
      ],
      "name": "addressToAccessoryEnabled",
      "outputs": [
        {
          "internalType": "address",
          "name": "",
          "type": "address"
        }
      ],
      "stateMutability": "view",
      "type": "function"
    },
    {
      "inputs": [
        {
          "internalType": "address",
          "name": "",
          "type": "address"
        },
        {
          "internalType": "address",
          "name": "",
          "type": "address"
        }
      ],
      "name": "addressToAccessoryUnlocked",
      "outputs": [
        {
          "internalType": "bool",
          "name": "",
          "type": "bool"
        }
      ],
      "stateMutability": "view",
      "type": "function"
    },
    {
      "inputs": [
        {
          "internalType": "address",
          "name": "",
          "type": "address"
        },
        {
          "internalType": "string",
          "name": "",
          "type": "string"
        }
      ],
      "name": "addressToCategoryScore",
      "outputs": [
        {
          "internalType": "uint256",
          "name": "",
          "type": "uint256"
        }
      ],
      "stateMutability": "view",
      "type": "function"
    },
    {
      "inputs": [
        {
          "internalType": "address",
          "name": "",
          "type": "address"
        }
      ],
      "name": "addressToPFPSVGLink",
      "outputs": [
        {
          "internalType": "string",
          "name": "",
          "type": "string"
        }
      ],
      "stateMutability": "view",
      "type": "function"
    },
    {
      "inputs": [
        {
          "internalType": "address",
          "name": "to",
          "type": "address"
        },
        {
          "internalType": "uint256",
          "name": "tokenId",
          "type": "uint256"
        }
      ],
      "name": "approve",
      "outputs": [],
      "stateMutability": "nonpayable",
      "type": "function"
    },
    {
      "inputs": [
        {
          "internalType": "address",
          "name": "owner",
          "type": "address"
        }
      ],
      "name": "balanceOf",
      "outputs": [
        {
          "internalType": "uint256",
          "name": "",
          "type": "uint256"
        }
      ],
      "stateMutability": "view",
      "type": "function"
    },
    {
      "inputs": [],
      "name": "bunnyPFPContractAddress",
      "outputs": [
        {
          "internalType": "address",
          "name": "",
          "type": "address"
        }
      ],
      "stateMutability": "view",
      "type": "function"
    },
    {
      "inputs": [],
      "name": "cdmAddr",
      "outputs": [
        {
          "internalType": "address",
          "name": "",
          "type": "address"
        }
      ],
      "stateMutability": "view",
      "type": "function"
    },
    {
      "inputs": [],
      "name": "clearBunnyPFPLink",
      "outputs": [],
      "stateMutability": "nonpayable",
      "type": "function"
    },
    {
      "inputs": [
        {
          "internalType": "address",
          "name": "accessory",
          "type": "address"
        }
      ],
      "name": "deleteSpecialAccessory",
      "outputs": [],
      "stateMutability": "nonpayable",
      "type": "function"
    },
    {
      "inputs": [],
      "name": "descriptor",
      "outputs": [
        {
          "internalType": "contract IBackedCommunityTokenDescriptorV1",
          "name": "",
          "type": "address"
        }
      ],
      "stateMutability": "view",
      "type": "function"
    },
    {
      "inputs": [
        {
          "internalType": "uint256",
          "name": "tokenId",
          "type": "uint256"
        }
      ],
      "name": "getApproved",
      "outputs": [
        {
          "internalType": "address",
          "name": "",
          "type": "address"
        }
      ],
      "stateMutability": "view",
      "type": "function"
    },
    {
      "inputs": [
        {
          "internalType": "address",
          "name": "user",
          "type": "address"
        }
      ],
      "name": "getUnlockedAccessoriesForAddress",
      "outputs": [
        {
          "internalType": "address[]",
          "name": "",
          "type": "address[]"
        }
      ],
      "stateMutability": "view",
      "type": "function"
    },
    {
      "inputs": [
        {
          "internalType": "address",
          "name": "_descriptorAddress",
          "type": "address"
        }
      ],
      "name": "initialize",
      "outputs": [],
      "stateMutability": "nonpayable",
      "type": "function"
    },
    {
      "inputs": [
        {
          "internalType": "address",
          "name": "owner",
          "type": "address"
        },
        {
          "internalType": "address",
          "name": "operator",
          "type": "address"
        }
      ],
      "name": "isApprovedForAll",
      "outputs": [
        {
          "internalType": "bool",
          "name": "",
          "type": "bool"
        }
      ],
      "stateMutability": "view",
      "type": "function"
    },
    {
      "inputs": [
        {
          "internalType": "address",
          "name": "mintTo",
          "type": "address"
        }
      ],
      "name": "mint",
      "outputs": [],
      "stateMutability": "nonpayable",
      "type": "function"
    },
    {
      "inputs": [],
      "name": "name",
      "outputs": [
        {
          "internalType": "string",
          "name": "",
          "type": "string"
        }
      ],
      "stateMutability": "view",
      "type": "function"
    },
    {
      "inputs": [],
      "name": "nonce",
      "outputs": [
        {
          "internalType": "uint256",
          "name": "",
          "type": "uint256"
        }
      ],
      "stateMutability": "view",
      "type": "function"
    },
    {
      "inputs": [
        {
          "internalType": "address",
          "name": "oldAccessory",
          "type": "address"
        },
        {
          "internalType": "address",
          "name": "newAccessory",
          "type": "address"
        }
      ],
      "name": "overrideSpecialAccessory",
      "outputs": [],
      "stateMutability": "nonpayable",
      "type": "function"
    },
    {
      "inputs": [],
      "name": "owner",
      "outputs": [
        {
          "internalType": "address",
          "name": "",
          "type": "address"
        }
      ],
      "stateMutability": "view",
      "type": "function"
    },
    {
      "inputs": [
        {
          "internalType": "uint256",
          "name": "tokenId",
          "type": "uint256"
        }
      ],
      "name": "ownerOf",
      "outputs": [
        {
          "internalType": "address",
          "name": "",
          "type": "address"
        }
      ],
      "stateMutability": "view",
      "type": "function"
    },
    {
      "inputs": [],
      "name": "renounceOwnership",
      "outputs": [],
      "stateMutability": "nonpayable",
      "type": "function"
    },
    {
      "inputs": [
        {
          "internalType": "address",
          "name": "from",
          "type": "address"
        },
        {
          "internalType": "address",
          "name": "to",
          "type": "address"
        },
        {
          "internalType": "uint256",
          "name": "tokenId",
          "type": "uint256"
        }
      ],
      "name": "safeTransferFrom",
      "outputs": [],
      "stateMutability": "nonpayable",
      "type": "function"
    },
    {
      "inputs": [
        {
          "internalType": "address",
          "name": "from",
          "type": "address"
        },
        {
          "internalType": "address",
          "name": "to",
          "type": "address"
        },
        {
          "internalType": "uint256",
          "name": "tokenId",
          "type": "uint256"
        },
        {
          "internalType": "bytes",
          "name": "_data",
          "type": "bytes"
        }
      ],
      "name": "safeTransferFrom",
      "outputs": [],
      "stateMutability": "nonpayable",
      "type": "function"
    },
    {
      "inputs": [
        {
          "internalType": "address",
          "name": "operator",
          "type": "address"
        },
        {
          "internalType": "bool",
          "name": "approved",
          "type": "bool"
        }
      ],
      "name": "setApprovalForAll",
      "outputs": [],
      "stateMutability": "nonpayable",
      "type": "function"
    },
    {
      "inputs": [
        {
          "internalType": "address",
          "name": "addr",
          "type": "address"
        }
      ],
      "name": "setBunnyPFPContract",
      "outputs": [],
      "stateMutability": "nonpayable",
      "type": "function"
    },
    {
      "inputs": [
        {
          "internalType": "bytes",
          "name": "message",
          "type": "bytes"
        }
      ],
      "name": "setBunnyPFPSVGFromL1",
      "outputs": [],
      "stateMutability": "nonpayable",
      "type": "function"
    },
    {
      "inputs": [
        {
          "internalType": "address",
          "name": "addr",
          "type": "address"
        }
      ],
      "name": "setDescriptorContract",
      "outputs": [],
      "stateMutability": "nonpayable",
      "type": "function"
    },
    {
      "inputs": [
        {
          "internalType": "address",
          "name": "accessory",
          "type": "address"
        }
      ],
      "name": "setEnabledAccessory",
      "outputs": [],
      "stateMutability": "nonpayable",
      "type": "function"
    },
    {
      "inputs": [
        {
          "internalType": "address",
          "name": "addr",
          "type": "address"
        }
      ],
      "name": "setOptimismCrossChainMessengerAddress",
      "outputs": [],
      "stateMutability": "nonpayable",
      "type": "function"
    },
    {
      "inputs": [
        {
          "internalType": "bytes4",
          "name": "interfaceId",
          "type": "bytes4"
        }
      ],
      "name": "supportsInterface",
      "outputs": [
        {
          "internalType": "bool",
          "name": "",
          "type": "bool"
        }
      ],
      "stateMutability": "view",
      "type": "function"
    },
    {
      "inputs": [],
      "name": "symbol",
      "outputs": [
        {
          "internalType": "string",
          "name": "",
          "type": "string"
        }
      ],
      "stateMutability": "view",
      "type": "function"
    },
    {
      "inputs": [
        {
          "internalType": "uint256",
          "name": "tokenId",
          "type": "uint256"
        }
      ],
      "name": "tokenURI",
      "outputs": [
        {
          "internalType": "string",
          "name": "",
          "type": "string"
        }
      ],
      "stateMutability": "view",
      "type": "function"
    },
    {
      "inputs": [],
      "name": "totalCategoryCount",
      "outputs": [
        {
          "internalType": "uint256",
          "name": "",
          "type": "uint256"
        }
      ],
      "stateMutability": "view",
      "type": "function"
    },
    {
      "inputs": [
        {
          "internalType": "address",
          "name": "from",
          "type": "address"
        },
        {
          "internalType": "address",
          "name": "to",
          "type": "address"
        },
        {
          "internalType": "uint256",
          "name": "tokenId",
          "type": "uint256"
        }
      ],
      "name": "transferFrom",
      "outputs": [],
      "stateMutability": "nonpayable",
      "type": "function"
    },
    {
      "inputs": [
        {
          "internalType": "address",
          "name": "newOwner",
          "type": "address"
        }
      ],
      "name": "transferOwnership",
      "outputs": [],
      "stateMutability": "nonpayable",
      "type": "function"
    },
    {
      "inputs": [
        {
          "components": [
            {
              "internalType": "bool",
              "name": "isCategoryChange",
              "type": "bool"
            },
            {
              "internalType": "address",
              "name": "user",
              "type": "address"
            },
            {
              "internalType": "string",
              "name": "categoryId",
              "type": "string"
            },
            {
              "internalType": "address",
              "name": "accessoryId",
              "type": "address"
            },
            {
              "internalType": "string",
              "name": "ipfsLink",
              "type": "string"
            }
          ],
          "internalType": "struct IBackedCommunityTokenV1.CategoryOrAccessoryChange[]",
          "name": "changes",
          "type": "tuple[]"
        }
      ],
      "name": "unlockAccessoryOrIncrementCategory",
      "outputs": [],
      "stateMutability": "nonpayable",
      "type": "function"
    }
  ],
  "bytecode": {
    "object": "0x608060405234801561001057600080fd5b50612cad806100206000396000f3fe608060405234801561001057600080fd5b50600436106102325760003560e01c8063948f5d2511610130578063c87b56dd116100b8578063d4f353c01161007c578063d4f353c0146104f0578063da2fd4cb14610503578063dfcf2cf81461053f578063e985e9c514610552578063f2fde38b1461056557600080fd5b8063c87b56dd14610484578063cb19a1d614610497578063d1c5df07146104aa578063d31c1def146104ca578063d37825b2146104dd57600080fd5b8063affed0e0116100ff578063affed0e014610439578063b2b52ef114610442578063b88d4fde1461044b578063c17c7faa1461045e578063c4d66de81461047157600080fd5b8063948f5d251461040357806395d89b4114610416578063a22cb4651461041e578063aa416e541461043157600080fd5b806342842e0e116101be57806370a082311161018257806370a082311461038d578063715018a6146103ae5780637473660a146103b65780638da5cb5b146103df5780639129fa06146103f057600080fd5b806342842e0e146103135780634c0332a5146103265780635c78ea6f146103395780636352211e146103675780636a6278421461037a57600080fd5b8063095ea7b311610205578063095ea7b3146102b45780631ac838fd146102c757806323b872dd146102da578063303e74df146102ed578063344936711461030057600080fd5b806301ffc9a7146102375780630303348f1461025f57806306fdde0314610274578063081812fc14610289575b600080fd5b61024a6102453660046122b3565b610578565b60405190151581526020015b60405180910390f35b61027261026d3660046122e5565b6105ca565b005b61027c61061f565b604051610256919061235a565b61029c61029736600461236d565b6106b1565b6040516001600160a01b039091168152602001610256565b6102726102c2366004612386565b610746565b6102726102d53660046122e5565b61085c565b6102726102e83660046123b2565b610892565b60025461029c906001600160a01b031681565b61027261030e3660046124f9565b6108c3565b6102726103213660046123b2565b61097b565b610272610334366004612651565b610996565b61024a6103473660046126c3565b600760209081526000928352604080842090915290825290205460ff1681565b61029c61037536600461236d565b610b3f565b6102726103883660046122e5565b610bb6565b6103a061039b3660046122e5565b610bd4565b604051908152602001610256565b610272610c5a565b61029c6103c43660046122e5565b6008602052600090815260409020546001600160a01b031681565b60a2546001600160a01b031661029c565b6102726103fe3660046126c3565b610c90565b6102726104113660046122e5565b610ccc565b61027c610dc1565b61027261042c3660046126fc565b610dd0565b610272610ddb565b6103a060005481565b6103a060035481565b610272610459366004612731565b610e03565b60015461029c906001600160a01b031681565b61027261047f3660046122e5565b610e3b565b61027c61049236600461236d565b610f12565b61027c6104a53660046122e5565b61101b565b6104bd6104b83660046122e5565b6110b5565b60405161025691906127b1565b6102726104d83660046122e5565b611185565b6102726104eb3660046122e5565b6111b8565b6102726104fe3660046122e5565b611204565b6103a06105113660046127fe565b6004602090815260009283526040909220815180830184018051928152908401929093019190912091525481565b60095461029c906001600160a01b031681565b61024a6105603660046126c3565b611250565b6102726105733660046122e5565b61127e565b60006001600160e01b031982166380ac58cd60e01b14806105a957506001600160e01b03198216635b5e139f60e01b145b806105c457506301ffc9a760e01b6001600160e01b03198316145b92915050565b60a2546001600160a01b031633146105fd5760405162461bcd60e51b81526004016105f49061284e565b60405180910390fd5b600180546001600160a01b0319166001600160a01b0392909216919091179055565b60606070805461062e90612883565b80601f016020809104026020016040519081016040528092919081815260200182805461065a90612883565b80156106a75780601f1061067c576101008083540402835291602001916106a7565b820191906000526020600020905b81548152906001019060200180831161068a57829003601f168201915b5050505050905090565b6000818152607260205260408120546001600160a01b031661072a5760405162461bcd60e51b815260206004820152602c60248201527f4552433732313a20617070726f76656420717565727920666f72206e6f6e657860448201526b34b9ba32b73a103a37b5b2b760a11b60648201526084016105f4565b506000908152607460205260409020546001600160a01b031690565b600061075182610b3f565b9050806001600160a01b0316836001600160a01b031614156107bf5760405162461bcd60e51b815260206004820152602160248201527f4552433732313a20617070726f76616c20746f2063757272656e74206f776e656044820152603960f91b60648201526084016105f4565b336001600160a01b03821614806107db57506107db8133611250565b61084d5760405162461bcd60e51b815260206004820152603860248201527f4552433732313a20617070726f76652063616c6c6572206973206e6f74206f7760448201527f6e6572206e6f7220617070726f76656420666f7220616c6c000000000000000060648201526084016105f4565b6108578383611316565b505050565b60a2546001600160a01b031633146108865760405162461bcd60e51b81526004016105f49061284e565b61088f81611384565b50565b61089c338261138f565b6108b85760405162461bcd60e51b81526004016105f4906128be565b610857838383611466565b60a2546001600160a01b031633146108ed5760405162461bcd60e51b81526004016105f49061284e565b60005b81518110156109775781818151811061090b5761090b61290f565b602002602001015160000151156109435761093e8282815181106109315761093161290f565b60200260200101516114e5565b610965565b6109658282815181106109585761095861290f565b60200260200101516115b5565b8061096f8161293b565b9150506108f0565b5050565b61085783838360405180602001604052806000815250610e03565b6000806109a5838501856127fe565b60015491935091506001600160a01b03163314610a2a5760405162461bcd60e51b815260206004820152603d60248201527f4261636b6564436f6d6d756e697479546f6b656e56313a2063616c6c6572206d60448201527f7573742062652063726f737320646f6d61696e206d657373656e67657200000060648201526084016105f4565b60095460015460408051636e296e4560e01b815290516001600160a01b039384169390921691636e296e45916004808201926020929091908290030181865afa158015610a7b573d6000803e3d6000fd5b505050506040513d601f19601f82011682018060405250810190610a9f9190612956565b6001600160a01b031614610b0f5760405162461bcd60e51b815260206004820152603160248201527f4261636b6564436f6d6d756e697479546f6b656e56313a206f726967696e206d6044820152700757374206265204261636b65642050465607c1b60648201526084016105f4565b6001600160a01b0382166000908152600a602090815260409091208251610b3892840190612204565b5050505050565b6000818152607260205260408120546001600160a01b0316806105c45760405162461bcd60e51b815260206004820152602960248201527f4552433732313a206f776e657220717565727920666f72206e6f6e657869737460448201526832b73a103a37b5b2b760b91b60648201526084016105f4565b6000805461088f9183919080610bcb8361293b565b9190505561173f565b60006001600160a01b038216610c3e5760405162461bcd60e51b815260206004820152602960248201527f4552433732313a2061646472657373207a65726f206973206e6f7420612076616044820152683634b21037bbb732b960b91b60648201526084016105f4565b506001600160a01b031660009081526073602052604090205490565b60a2546001600160a01b03163314610c845760405162461bcd60e51b81526004016105f49061284e565b610c8e60006117b1565b565b60a2546001600160a01b03163314610cba5760405162461bcd60e51b81526004016105f49061284e565b610cc382611384565b61097781611803565b336000818152600860205260409020546001600160a01b031690610cf0908361180e565b610d625760405162461bcd60e51b815260206004820152603760248201527f4261636b6564436f6d6d756e697479546f6b656e56313a2075736572206e6f7460448201527f20656c696769626c6520666f72206163636573736f727900000000000000000060648201526084016105f4565b3360008181526008602052604080822080546001600160a01b0319166001600160a01b03878116918217909255915191939085169290917f71b8fdcd9c592fb82eb9e8b57fa1cd9eb855d80852ccade6cc37e537b4dcca829190a45050565b60606071805461062e90612883565b61097733838361195f565b6040805160208082018084526000808452338152600a909252929020905161088f9290612204565b610e0d338361138f565b610e295760405162461bcd60e51b81526004016105f4906128be565b610e3584848484611a2e565b50505050565b6000610e476001611a61565b90508015610e5f57600b805461ff0019166101001790555b610eae6040518060400160405280600f81526020016e4261636b6564436f6d6d756e69747960881b81525060405180604001604052806006815260200165109050d2d15160d21b815250611af0565b600280546001600160a01b0319166001600160a01b038416179055801561097757600b805461ff0019169055604051600181527f7f26b83ff96e1f2b6a682f133852f6798a09c465da95921460cefb38474024989060200160405180910390a15050565b6040516331a9108f60e11b8152600481018290526060906000903090636352211e90602401602060405180830381865afa158015610f54573d6000803e3d6000fd5b505050506040513d601f19601f82011682018060405250810190610f789190612956565b6002546001600160a01b03808316600090815260086020908152604080832054600a90925291829020915163045b0e1b60e01b81529495509282169363045b0e1b93610fcf93899388939290911691600401612973565b600060405180830381865afa158015610fec573d6000803e3d6000fd5b505050506040513d6000823e601f3d908101601f191682016040526110149190810190612a41565b9392505050565b600a602052600090815260409020805461103490612883565b80601f016020809104026020016040519081016040528092919081815260200182805461106090612883565b80156110ad5780601f10611082576101008083540402835291602001916110ad565b820191906000526020600020905b81548152906001019060200180831161109057829003601f168201915b505050505081565b606060006110c36005611b29565b905060008167ffffffffffffffff8111156110e0576110e06123f3565b604051908082528060200260200182016040528015611109578160200160208202803683370190505b50905060005b8281101561117d5761112b85611126600584611b33565b61180e565b611136576000611141565b611141600582611b33565b8282815181106111535761115361290f565b6001600160a01b0390921660209283029190910190910152806111758161293b565b91505061110f565b509392505050565b60a2546001600160a01b031633146111af5760405162461bcd60e51b81526004016105f49061284e565b61088f81611803565b60a2546001600160a01b031633146111e25760405162461bcd60e51b81526004016105f49061284e565b600280546001600160a01b0319166001600160a01b0392909216919091179055565b60a2546001600160a01b0316331461122e5760405162461bcd60e51b81526004016105f49061284e565b600980546001600160a01b0319166001600160a01b0392909216919091179055565b6001600160a01b03918216600090815260756020908152604080832093909416825291909152205460ff1690565b60a2546001600160a01b031633146112a85760405162461bcd60e51b81526004016105f49061284e565b6001600160a01b03811661130d5760405162461bcd60e51b815260206004820152602660248201527f4f776e61626c653a206e6577206f776e657220697320746865207a65726f206160448201526564647265737360d01b60648201526084016105f4565b61088f816117b1565b600081815260746020526040902080546001600160a01b0319166001600160a01b038416908117909155819061134b82610b3f565b6001600160a01b03167f8c5be1e5ebec7d5bd14f71427d1e84f3dd0314c0f7b2291e5b200ac8c7c3b92560405160405180910390a45050565b610977600582611b3f565b6000818152607260205260408120546001600160a01b03166114085760405162461bcd60e51b815260206004820152602c60248201527f4552433732313a206f70657261746f7220717565727920666f72206e6f6e657860448201526b34b9ba32b73a103a37b5b2b760a11b60648201526084016105f4565b600061141383610b3f565b9050806001600160a01b0316846001600160a01b0316148061143a575061143a8185611250565b8061145e5750836001600160a01b0316611453846106b1565b6001600160a01b0316145b949350505050565b60a2546001600160a01b031633146114da5760405162461bcd60e51b815260206004820152603160248201527f455243373231536f756c626f756e643a206f6e6c7920636f6e7472616374206f6044820152703bb732b91031b0b7103a3930b739b332b960791b60648201526084016105f4565b610857838383611b54565b6020808201516001600160a01b0316600090815260049091526040808220818401519151909161151491612ab8565b90815260200160405180910390206000815461152f9061293b565b9182905550608083015160405191925061154891612ab8565b604051809103902082604001516040516115629190612ab8565b604051809103902083602001516001600160a01b03167f550eb8c5419f65a6fb2d1532208d8f8a57f7ca8e706cf723b05a62e4cb1d77bf846040516115a991815260200190565b60405180910390a45050565b60608101516001600160a01b03166116285760405162461bcd60e51b815260206004820152603060248201527f4261636b6564436f6d6d756e697479546f6b656e56313a204163636573736f7260448201526f1e48191bd95cc81b9bdd08195e1a5cdd60821b60648201526084016105f4565b6116358160600151611cf0565b61169f5760405162461bcd60e51b815260206004820152603560248201527f4261636b6564436f6d6d756e697479546f6b656e56313a204163636573736f726044820152741e481b5d5cdd0818994818591b5a5b8818985cd959605a1b60648201526084016105f4565b6020808201516001600160a01b039081166000908152600783526040808220606086015190931682529190925290819020805460ff19166001179055608082015190516116ec9190612ab8565b604051809103902081606001516001600160a01b031682602001516001600160a01b03167f28872e757c4b534d5bdaf86f7e4df15b560c34bb4afcf4500730dfd00b181f9760405160405180910390a450565b600161174a83610bd4565b106117a75760405162461bcd60e51b815260206004820152602760248201527f455243373231536f756c626f756e643a2063616e6e6f74206f776e206d6f7265604482015266207468616e203160c81b60648201526084016105f4565b6109778282611d65565b60a280546001600160a01b038381166001600160a01b0319831681179093556040519116919082907f8be0079c531659141344cd1fd0a4f28419497f9722a3daafe3b4186f6b6457e090600090a35050565b610977600582611ea7565b600061181982611cf0565b1561184d57506001600160a01b0380831660009081526007602090815260408083209385168352929052205460ff166105c4565b816001600160a01b03166314f569986040518163ffffffff1660e01b8152600401602060405180830381865afa15801561188b573d6000803e3d6000fd5b505050506040513d601f19601f820116820180604052508101906118af9190612ad4565b60046000856001600160a01b03166001600160a01b03168152602001908152602001600020836001600160a01b0316631f110f146040518163ffffffff1660e01b8152600401600060405180830381865afa158015611912573d6000803e3d6000fd5b505050506040513d6000823e601f3d908101601f1916820160405261193a9190810190612a41565b6040516119479190612ab8565b908152602001604051809103902054101590506105c4565b816001600160a01b0316836001600160a01b031614156119c15760405162461bcd60e51b815260206004820152601960248201527f4552433732313a20617070726f766520746f2063616c6c65720000000000000060448201526064016105f4565b6001600160a01b03838116600081815260756020908152604080832094871680845294825291829020805460ff191686151590811790915591519182527f17307eab39ab6107e8899845ad3d59bd9653f200f220920489ca2b5937696c31910160405180910390a3505050565b611a39848484611466565b611a4584848484611ebc565b610e355760405162461bcd60e51b81526004016105f490612aed565b600b54600090610100900460ff1615611aaa578160ff166001148015611a865750303b155b611aa25760405162461bcd60e51b81526004016105f490612b3f565b506000919050565b600b5460ff808416911610611ad15760405162461bcd60e51b81526004016105f490612b3f565b50600b805460ff191660ff92909216919091179055600190565b919050565b600b54610100900460ff16611b175760405162461bcd60e51b81526004016105f490612b8d565b611b218282611fba565b610977611feb565b60006105c4825490565b6000611014838361201a565b6000611014836001600160a01b038416612044565b826001600160a01b0316611b6782610b3f565b6001600160a01b031614611bcb5760405162461bcd60e51b815260206004820152602560248201527f4552433732313a207472616e736665722066726f6d20696e636f72726563742060448201526437bbb732b960d91b60648201526084016105f4565b6001600160a01b038216611c2d5760405162461bcd60e51b8152602060048201526024808201527f4552433732313a207472616e7366657220746f20746865207a65726f206164646044820152637265737360e01b60648201526084016105f4565b611c38600082611316565b6001600160a01b0383166000908152607360205260408120805460019290611c61908490612bd8565b90915550506001600160a01b0382166000908152607360205260408120805460019290611c8f908490612bef565b909155505060008181526072602052604080822080546001600160a01b0319166001600160a01b0386811691821790925591518493918716917fddf252ad1be2c89b69c2b068fc378daa952ba7f163c4a11628f55a4df523b3ef91a4505050565b600080829050806001600160a01b0316631f110f146040518163ffffffff1660e01b8152600401600060405180830381865afa158015611d34573d6000803e3d6000fd5b505050506040513d6000823e601f3d908101601f19168201604052611d5c9190810190612a41565b51159392505050565b6001600160a01b038216611dbb5760405162461bcd60e51b815260206004820181905260248201527f4552433732313a206d696e7420746f20746865207a65726f206164647265737360448201526064016105f4565b6000818152607260205260409020546001600160a01b031615611e205760405162461bcd60e51b815260206004820152601c60248201527f4552433732313a20746f6b656e20616c7265616479206d696e7465640000000060448201526064016105f4565b6001600160a01b0382166000908152607360205260408120805460019290611e49908490612bef565b909155505060008181526072602052604080822080546001600160a01b0319166001600160a01b03861690811790915590518392907fddf252ad1be2c89b69c2b068fc378daa952ba7f163c4a11628f55a4df523b3ef908290a45050565b6000611014836001600160a01b038416612137565b60006001600160a01b0384163b15611faf57604051630a85bd0160e11b81526001600160a01b0385169063150b7a0290611f00903390899088908890600401612c07565b6020604051808303816000875af1925050508015611f3b575060408051601f3d908101601f19168201909252611f3891810190612c44565b60015b611f95573d808015611f69576040519150601f19603f3d011682016040523d82523d6000602084013e611f6e565b606091505b508051611f8d5760405162461bcd60e51b81526004016105f490612aed565b805181602001fd5b6001600160e01b031916630a85bd0160e11b14905061145e565b506001949350505050565b600b54610100900460ff16611fe15760405162461bcd60e51b81526004016105f490612b8d565b6109778282612186565b600b54610100900460ff166120125760405162461bcd60e51b81526004016105f490612b8d565b610c8e6121d4565b60008260000182815481106120315761203161290f565b9060005260206000200154905092915050565b6000818152600183016020526040812054801561212d576000612068600183612bd8565b855490915060009061207c90600190612bd8565b90508181146120e157600086600001828154811061209c5761209c61290f565b90600052602060002001549050808760000184815481106120bf576120bf61290f565b6000918252602080832090910192909255918252600188019052604090208390555b85548690806120f2576120f2612c61565b6001900381819060005260206000200160009055905585600101600086815260200190815260200160002060009055600193505050506105c4565b60009150506105c4565b600081815260018301602052604081205461217e575081546001818101845560008481526020808220909301849055845484825282860190935260409020919091556105c4565b5060006105c4565b600b54610100900460ff166121ad5760405162461bcd60e51b81526004016105f490612b8d565b81516121c0906070906020850190612204565b508051610857906071906020840190612204565b600b54610100900460ff166121fb5760405162461bcd60e51b81526004016105f490612b8d565b610c8e336117b1565b82805461221090612883565b90600052602060002090601f0160209004810192826122325760008555612278565b82601f1061224b57805160ff1916838001178555612278565b82800160010185558215612278579182015b8281111561227857825182559160200191906001019061225d565b50612284929150612288565b5090565b5b808211156122845760008155600101612289565b6001600160e01b03198116811461088f57600080fd5b6000602082840312156122c557600080fd5b81356110148161229d565b6001600160a01b038116811461088f57600080fd5b6000602082840312156122f757600080fd5b8135611014816122d0565b60005b8381101561231d578181015183820152602001612305565b83811115610e355750506000910152565b60008151808452612346816020860160208601612302565b601f01601f19169290920160200192915050565b602081526000611014602083018461232e565b60006020828403121561237f57600080fd5b5035919050565b6000806040838503121561239957600080fd5b82356123a4816122d0565b946020939093013593505050565b6000806000606084860312156123c757600080fd5b83356123d2816122d0565b925060208401356123e2816122d0565b929592945050506040919091013590565b634e487b7160e01b600052604160045260246000fd5b60405160a0810167ffffffffffffffff8111828210171561242c5761242c6123f3565b60405290565b604051601f8201601f1916810167ffffffffffffffff8111828210171561245b5761245b6123f3565b604052919050565b80358015158114611aeb57600080fd5b600067ffffffffffffffff82111561248d5761248d6123f3565b50601f01601f191660200190565b60006124ae6124a984612473565b612432565b90508281528383830111156124c257600080fd5b828260208301376000602084830101529392505050565b600082601f8301126124ea57600080fd5b6110148383356020850161249b565b6000602080838503121561250c57600080fd5b823567ffffffffffffffff8082111561252457600080fd5b818501915085601f83011261253857600080fd5b81358181111561254a5761254a6123f3565b8060051b612559858201612432565b918252838101850191858101908984111561257357600080fd5b86860192505b838310156126445782358581111561259057600080fd5b860160a0818c03601f190112156125a75760008081fd5b6125af612409565b6125ba898301612463565b81526040808301356125cb816122d0565b828b0152606083810135898111156125e35760008081fd5b6125f18f8d838801016124d9565b83850152506080915081840135612607816122d0565b9083015260a08301358881111561261e5760008081fd5b61262c8e8c838701016124d9565b91830191909152508352509186019190860190612579565b9998505050505050505050565b6000806020838503121561266457600080fd5b823567ffffffffffffffff8082111561267c57600080fd5b818501915085601f83011261269057600080fd5b81358181111561269f57600080fd5b8660208285010111156126b157600080fd5b60209290920196919550909350505050565b600080604083850312156126d657600080fd5b82356126e1816122d0565b915060208301356126f1816122d0565b809150509250929050565b6000806040838503121561270f57600080fd5b823561271a816122d0565b915061272860208401612463565b90509250929050565b6000806000806080858703121561274757600080fd5b8435612752816122d0565b93506020850135612762816122d0565b925060408501359150606085013567ffffffffffffffff81111561278557600080fd5b8501601f8101871361279657600080fd5b6127a58782356020840161249b565b91505092959194509250565b6020808252825182820181905260009190848201906040850190845b818110156127f25783516001600160a01b0316835292840192918401916001016127cd565b50909695505050505050565b6000806040838503121561281157600080fd5b823561281c816122d0565b9150602083013567ffffffffffffffff81111561283857600080fd5b612844858286016124d9565b9150509250929050565b6020808252818101527f4f776e61626c653a2063616c6c6572206973206e6f7420746865206f776e6572604082015260600190565b600181811c9082168061289757607f821691505b602082108114156128b857634e487b7160e01b600052602260045260246000fd5b50919050565b60208082526031908201527f4552433732313a207472616e736665722063616c6c6572206973206e6f74206f6040820152701ddb995c881b9bdc88185c1c1c9bdd9959607a1b606082015260800190565b634e487b7160e01b600052603260045260246000fd5b634e487b7160e01b600052601160045260246000fd5b600060001982141561294f5761294f612925565b5060010190565b60006020828403121561296857600080fd5b8151611014816122d0565b8481526001600160a01b038481166020808401919091529084166040830152608060608301528254600091908290600181811c90828116806129b657607f831692505b8583108114156129d457634e487b7160e01b85526022600452602485fd5b6080880183905260a088018180156129f35760018114612a0457612a2f565b60ff19861682528782019650612a2f565b60008b81526020902060005b86811015612a2957815484820152908501908901612a10565b83019750505b50949c9b505050505050505050505050565b600060208284031215612a5357600080fd5b815167ffffffffffffffff811115612a6a57600080fd5b8201601f81018413612a7b57600080fd5b8051612a896124a982612473565b818152856020838501011115612a9e57600080fd5b612aaf826020830160208601612302565b95945050505050565b60008251612aca818460208701612302565b9190910192915050565b600060208284031215612ae657600080fd5b5051919050565b60208082526032908201527f4552433732313a207472616e7366657220746f206e6f6e20455243373231526560408201527131b2b4bb32b91034b6b83632b6b2b73a32b960711b606082015260800190565b6020808252602e908201527f496e697469616c697a61626c653a20636f6e747261637420697320616c72656160408201526d191e481a5b9a5d1a585b1a5e995960921b606082015260800190565b6020808252602b908201527f496e697469616c697a61626c653a20636f6e7472616374206973206e6f74206960408201526a6e697469616c697a696e6760a81b606082015260800190565b600082821015612bea57612bea612925565b500390565b60008219821115612c0257612c02612925565b500190565b6001600160a01b0385811682528416602082015260408101839052608060608201819052600090612c3a9083018461232e565b9695505050505050565b600060208284031215612c5657600080fd5b81516110148161229d565b634e487b7160e01b600052603160045260246000fdfea26469706673582212207f60c0327eb8aa7009a3436ef4733804b8f6052f49750f53ac1209eddda3665164736f6c634300080c0033",
    "linkReferences": {}
  },
  "methodIdentifiers": {
    "addSpecialAccessory(address)": "d31c1def",
    "addressToAccessoryEnabled(address)": "7473660a",
    "addressToAccessoryUnlocked(address,address)": "5c78ea6f",
    "addressToCategoryScore(address,string)": "da2fd4cb",
    "addressToPFPSVGLink(address)": "cb19a1d6",
    "approve(address,uint256)": "095ea7b3",
    "balanceOf(address)": "70a08231",
    "bunnyPFPContractAddress()": "dfcf2cf8",
    "cdmAddr()": "c17c7faa",
    "clearBunnyPFPLink()": "aa416e54",
    "deleteSpecialAccessory(address)": "1ac838fd",
    "descriptor()": "303e74df",
    "getApproved(uint256)": "081812fc",
    "getUnlockedAccessoriesForAddress(address)": "d1c5df07",
    "initialize(address)": "c4d66de8",
    "isApprovedForAll(address,address)": "e985e9c5",
    "mint(address)": "6a627842",
    "name()": "06fdde03",
    "nonce()": "affed0e0",
    "overrideSpecialAccessory(address,address)": "9129fa06",
    "owner()": "8da5cb5b",
    "ownerOf(uint256)": "6352211e",
    "renounceOwnership()": "715018a6",
    "safeTransferFrom(address,address,uint256)": "42842e0e",
    "safeTransferFrom(address,address,uint256,bytes)": "b88d4fde",
    "setApprovalForAll(address,bool)": "a22cb465",
    "setBunnyPFPContract(address)": "d4f353c0",
    "setBunnyPFPSVGFromL1(bytes)": "4c0332a5",
    "setDescriptorContract(address)": "d37825b2",
    "setEnabledAccessory(address)": "948f5d25",
    "setOptimismCrossChainMessengerAddress(address)": "0303348f",
    "supportsInterface(bytes4)": "01ffc9a7",
    "symbol()": "95d89b41",
    "tokenURI(uint256)": "c87b56dd",
    "totalCategoryCount()": "b2b52ef1",
    "transferFrom(address,address,uint256)": "23b872dd",
    "transferOwnership(address)": "f2fde38b",
    "unlockAccessoryOrIncrementCategory((bool,address,string,address,string)[])": "34493671"
  },
  "id": 32
}