{
  "abi": [
    {
      "anonymous": false,
      "inputs": [
        {
          "indexed": true,
          "internalType": "uint256",
          "name": "accessoryId",
          "type": "uint256"
        },
        {
          "indexed": true,
          "internalType": "address",
          "name": "artContract",
          "type": "address"
        },
        {
          "indexed": false,
          "internalType": "string",
          "name": "xpCategory",
          "type": "string"
        },
        {
          "indexed": false,
          "internalType": "uint256",
          "name": "qualifyingXPScore",
          "type": "uint256"
        }
      ],
      "name": "AccessoryAdded",
      "type": "event"
    },
    {
      "anonymous": false,
      "inputs": [
        {
          "indexed": true,
          "internalType": "address",
          "name": "addr",
          "type": "address"
        },
        {
          "indexed": true,
          "internalType": "uint256",
          "name": "accessoryId",
          "type": "uint256"
        },
        {
          "indexed": false,
          "internalType": "string",
          "name": "ipfsLink",
          "type": "string"
        },
        {
          "indexed": false,
          "internalType": "bool",
          "name": "unlocked",
          "type": "bool"
        },
        {
          "indexed": false,
          "internalType": "bytes32",
          "name": "ipfsEntryHash",
          "type": "bytes32"
        }
      ],
      "name": "AccessoryLockChanged",
      "type": "event"
    },
    {
      "anonymous": false,
      "inputs": [
        {
          "indexed": true,
          "internalType": "address",
          "name": "addr",
          "type": "address"
        },
        {
          "indexed": true,
          "internalType": "uint256",
          "name": "oldAccessory",
          "type": "uint256"
        },
        {
          "indexed": true,
          "internalType": "uint256",
          "name": "newAccessory",
          "type": "uint256"
        }
      ],
      "name": "AccessorySwapped",
      "type": "event"
    },
    {
      "anonymous": false,
      "inputs": [
        {
          "indexed": true,
          "internalType": "address",
          "name": "owner",
          "type": "address"
        },
        {
          "indexed": true,
          "internalType": "address",
          "name": "approved",
          "type": "address"
        },
        {
          "indexed": true,
          "internalType": "uint256",
          "name": "tokenId",
          "type": "uint256"
        }
      ],
      "name": "Approval",
      "type": "event"
    },
    {
      "anonymous": false,
      "inputs": [
        {
          "indexed": true,
          "internalType": "address",
          "name": "owner",
          "type": "address"
        },
        {
          "indexed": true,
          "internalType": "address",
          "name": "operator",
          "type": "address"
        },
        {
          "indexed": false,
          "internalType": "bool",
          "name": "approved",
          "type": "bool"
        }
      ],
      "name": "ApprovalForAll",
      "type": "event"
    },
    {
      "anonymous": false,
      "inputs": [
        {
          "indexed": true,
          "internalType": "address",
          "name": "owner",
          "type": "address"
        },
        {
          "indexed": true,
          "internalType": "uint256",
          "name": "tokenId",
          "type": "uint256"
        }
      ],
      "name": "BunnyPFPLinked",
      "type": "event"
    },
    {
      "anonymous": false,
      "inputs": [
        {
          "indexed": true,
          "internalType": "address",
          "name": "addr",
          "type": "address"
        },
        {
          "indexed": false,
          "internalType": "string",
          "name": "ipfsLink",
          "type": "string"
        },
        {
          "indexed": false,
          "internalType": "string",
          "name": "categoryId",
          "type": "string"
        },
        {
          "indexed": false,
          "internalType": "uint256",
          "name": "newScore",
          "type": "uint256"
        },
        {
          "indexed": false,
          "internalType": "uint256",
          "name": "oldScore",
          "type": "uint256"
        },
        {
          "indexed": false,
          "internalType": "bytes32",
          "name": "ipfsEntryHash",
          "type": "bytes32"
        }
      ],
      "name": "CategoryScoreChanged",
      "type": "event"
    },
    {
      "anonymous": false,
      "inputs": [
        {
          "indexed": false,
          "internalType": "uint8",
          "name": "version",
          "type": "uint8"
        }
      ],
      "name": "Initialized",
      "type": "event"
    },
    {
      "anonymous": false,
      "inputs": [
        {
          "indexed": true,
          "internalType": "address",
          "name": "previousOwner",
          "type": "address"
        },
        {
          "indexed": true,
          "internalType": "address",
          "name": "newOwner",
          "type": "address"
        }
      ],
      "name": "OwnershipTransferred",
      "type": "event"
    },
    {
      "anonymous": false,
      "inputs": [
        {
          "indexed": true,
          "internalType": "address",
          "name": "from",
          "type": "address"
        },
        {
          "indexed": true,
          "internalType": "address",
          "name": "to",
          "type": "address"
        },
        {
          "indexed": true,
          "internalType": "uint256",
          "name": "tokenId",
          "type": "uint256"
        }
      ],
      "name": "Transfer",
      "type": "event"
    },
    {
      "inputs": [
        {
          "internalType": "uint256",
          "name": "",
          "type": "uint256"
        }
      ],
      "name": "accessoryIdToAccessory",
      "outputs": [
        {
          "internalType": "address",
          "name": "artContract",
          "type": "address"
        },
        {
          "internalType": "string",
          "name": "xpCategory",
          "type": "string"
        },
        {
          "internalType": "uint256",
          "name": "qualifyingXPScore",
          "type": "uint256"
        }
      ],
      "stateMutability": "view",
      "type": "function"
    },
    {
      "inputs": [
        {
          "components": [
            {
              "internalType": "address",
              "name": "artContract",
              "type": "address"
            },
            {
              "internalType": "string",
              "name": "xpCategory",
              "type": "string"
            },
            {
              "internalType": "uint256",
              "name": "qualifyingXPScore",
              "type": "uint256"
            }
          ],
          "internalType": "struct IBackedCommunityTokenV1.Accessory",
          "name": "accessory",
          "type": "tuple"
        }
      ],
      "name": "addAccessory",
      "outputs": [
        {
          "internalType": "uint256",
          "name": "newAccessoryId",
          "type": "uint256"
        }
      ],
      "stateMutability": "nonpayable",
      "type": "function"
    },
    {
      "inputs": [
        {
          "internalType": "address",
          "name": "",
          "type": "address"
        }
      ],
      "name": "addressToAccessoryEnabled",
      "outputs": [
        {
          "internalType": "uint256",
          "name": "",
          "type": "uint256"
        }
      ],
      "stateMutability": "view",
      "type": "function"
    },
    {
      "inputs": [
        {
          "internalType": "address",
          "name": "",
          "type": "address"
        },
        {
          "internalType": "uint256",
          "name": "",
          "type": "uint256"
        }
      ],
      "name": "addressToAccessoryUnlocked",
      "outputs": [
        {
          "internalType": "bool",
          "name": "",
          "type": "bool"
        }
      ],
      "stateMutability": "view",
      "type": "function"
    },
    {
      "inputs": [
        {
          "internalType": "address",
          "name": "",
          "type": "address"
        },
        {
          "internalType": "string",
          "name": "",
          "type": "string"
        }
      ],
      "name": "addressToCategoryScore",
      "outputs": [
        {
          "internalType": "uint256",
          "name": "",
          "type": "uint256"
        }
      ],
      "stateMutability": "view",
      "type": "function"
    },
    {
      "inputs": [
        {
          "internalType": "address",
          "name": "",
          "type": "address"
        }
      ],
      "name": "addressToPFPSVGLink",
      "outputs": [
        {
          "internalType": "string",
          "name": "",
          "type": "string"
        }
      ],
      "stateMutability": "view",
      "type": "function"
    },
    {
      "inputs": [
        {
          "internalType": "address",
          "name": "to",
          "type": "address"
        },
        {
          "internalType": "uint256",
          "name": "tokenId",
          "type": "uint256"
        }
      ],
      "name": "approve",
      "outputs": [],
      "stateMutability": "nonpayable",
      "type": "function"
    },
    {
      "inputs": [
        {
          "internalType": "address",
          "name": "owner",
          "type": "address"
        }
      ],
      "name": "balanceOf",
      "outputs": [
        {
          "internalType": "uint256",
          "name": "",
          "type": "uint256"
        }
      ],
      "stateMutability": "view",
      "type": "function"
    },
    {
      "inputs": [],
      "name": "bunnyPFPContractAddress",
      "outputs": [
        {
          "internalType": "address",
          "name": "",
          "type": "address"
        }
      ],
      "stateMutability": "view",
      "type": "function"
    },
    {
      "inputs": [],
      "name": "cdmAddr",
      "outputs": [
        {
          "internalType": "address",
          "name": "",
          "type": "address"
        }
      ],
      "stateMutability": "view",
      "type": "function"
    },
    {
      "inputs": [],
      "name": "clearBunnyPFPLink",
      "outputs": [],
      "stateMutability": "nonpayable",
      "type": "function"
    },
    {
      "inputs": [],
      "name": "descriptor",
      "outputs": [
        {
          "internalType": "contract IBackedCommunityTokenDescriptorV1",
          "name": "",
          "type": "address"
        }
      ],
      "stateMutability": "view",
      "type": "function"
    },
    {
      "inputs": [
        {
          "internalType": "uint256",
          "name": "tokenId",
          "type": "uint256"
        }
      ],
      "name": "getApproved",
      "outputs": [
        {
          "internalType": "address",
          "name": "",
          "type": "address"
        }
      ],
      "stateMutability": "view",
      "type": "function"
    },
    {
      "inputs": [
        {
          "internalType": "address",
          "name": "user",
          "type": "address"
        }
      ],
      "name": "getUnlockedAccessoriesForAddress",
      "outputs": [
        {
          "internalType": "uint256[]",
          "name": "",
          "type": "uint256[]"
        }
      ],
      "stateMutability": "view",
      "type": "function"
    },
    {
      "inputs": [
        {
          "internalType": "address",
          "name": "_descriptorAddress",
          "type": "address"
        }
      ],
      "name": "initialize",
      "outputs": [],
      "stateMutability": "nonpayable",
      "type": "function"
    },
    {
      "inputs": [
        {
          "internalType": "address",
          "name": "owner",
          "type": "address"
        },
        {
          "internalType": "address",
          "name": "operator",
          "type": "address"
        }
      ],
      "name": "isApprovedForAll",
      "outputs": [
        {
          "internalType": "bool",
          "name": "",
          "type": "bool"
        }
      ],
      "stateMutability": "view",
      "type": "function"
    },
    {
      "inputs": [
        {
          "internalType": "address",
          "name": "mintTo",
          "type": "address"
        }
      ],
      "name": "mint",
      "outputs": [],
      "stateMutability": "nonpayable",
      "type": "function"
    },
    {
      "inputs": [],
      "name": "name",
      "outputs": [
        {
          "internalType": "string",
          "name": "",
          "type": "string"
        }
      ],
      "stateMutability": "view",
      "type": "function"
    },
    {
      "inputs": [],
      "name": "nonce",
      "outputs": [
        {
          "internalType": "uint256",
          "name": "",
          "type": "uint256"
        }
      ],
      "stateMutability": "view",
      "type": "function"
    },
    {
      "inputs": [],
      "name": "owner",
      "outputs": [
        {
          "internalType": "address",
          "name": "",
          "type": "address"
        }
      ],
      "stateMutability": "view",
      "type": "function"
    },
    {
      "inputs": [
        {
          "internalType": "uint256",
          "name": "tokenId",
          "type": "uint256"
        }
      ],
      "name": "ownerOf",
      "outputs": [
        {
          "internalType": "address",
          "name": "",
          "type": "address"
        }
      ],
      "stateMutability": "view",
      "type": "function"
    },
    {
      "inputs": [
        {
          "components": [
            {
              "internalType": "bool",
              "name": "isCategoryChange",
              "type": "bool"
            },
            {
              "internalType": "address",
              "name": "user",
              "type": "address"
            },
            {
              "internalType": "string",
              "name": "categoryId",
              "type": "string"
            },
            {
              "internalType": "uint256",
              "name": "accessoryId",
              "type": "uint256"
            },
            {
              "internalType": "string",
              "name": "ipfsLink",
              "type": "string"
            }
          ],
          "internalType": "struct IBackedCommunityTokenV1.CategoryOrAccessoryChange[]",
          "name": "changes",
          "type": "tuple[]"
        }
      ],
      "name": "relockAccessoryOrDecrementCategory",
      "outputs": [],
      "stateMutability": "nonpayable",
      "type": "function"
    },
    {
      "inputs": [
        {
          "internalType": "uint256",
          "name": "accessoryId",
          "type": "uint256"
        }
      ],
      "name": "removeAccessory",
      "outputs": [],
      "stateMutability": "nonpayable",
      "type": "function"
    },
    {
      "inputs": [],
      "name": "renounceOwnership",
      "outputs": [],
      "stateMutability": "nonpayable",
      "type": "function"
    },
    {
      "inputs": [
        {
          "internalType": "address",
          "name": "from",
          "type": "address"
        },
        {
          "internalType": "address",
          "name": "to",
          "type": "address"
        },
        {
          "internalType": "uint256",
          "name": "tokenId",
          "type": "uint256"
        }
      ],
      "name": "safeTransferFrom",
      "outputs": [],
      "stateMutability": "nonpayable",
      "type": "function"
    },
    {
      "inputs": [
        {
          "internalType": "address",
          "name": "from",
          "type": "address"
        },
        {
          "internalType": "address",
          "name": "to",
          "type": "address"
        },
        {
          "internalType": "uint256",
          "name": "tokenId",
          "type": "uint256"
        },
        {
          "internalType": "bytes",
          "name": "_data",
          "type": "bytes"
        }
      ],
      "name": "safeTransferFrom",
      "outputs": [],
      "stateMutability": "nonpayable",
      "type": "function"
    },
    {
      "inputs": [
        {
          "internalType": "address",
          "name": "operator",
          "type": "address"
        },
        {
          "internalType": "bool",
          "name": "approved",
          "type": "bool"
        }
      ],
      "name": "setApprovalForAll",
      "outputs": [],
      "stateMutability": "nonpayable",
      "type": "function"
    },
    {
      "inputs": [
        {
          "internalType": "address",
          "name": "addr",
          "type": "address"
        }
      ],
      "name": "setBunnyPFPContract",
      "outputs": [],
      "stateMutability": "nonpayable",
      "type": "function"
    },
    {
      "inputs": [
        {
          "internalType": "address",
          "name": "owner",
          "type": "address"
        },
        {
          "internalType": "string",
          "name": "svg",
          "type": "string"
        },
        {
          "internalType": "uint256",
          "name": "tokenId",
          "type": "uint256"
        }
      ],
      "name": "setBunnyPFPSVGFromL1",
      "outputs": [],
      "stateMutability": "nonpayable",
      "type": "function"
    },
    {
      "inputs": [
        {
          "internalType": "address",
          "name": "addr",
          "type": "address"
        }
      ],
      "name": "setDescriptorContract",
      "outputs": [],
      "stateMutability": "nonpayable",
      "type": "function"
    },
    {
      "inputs": [
        {
          "internalType": "uint256",
          "name": "accessoryId",
          "type": "uint256"
        }
      ],
      "name": "setEnabledAccessory",
      "outputs": [],
      "stateMutability": "nonpayable",
      "type": "function"
    },
    {
      "inputs": [
        {
          "internalType": "address",
          "name": "addr",
          "type": "address"
        }
      ],
      "name": "setOptimismCrossChainMessengerAddress",
      "outputs": [],
      "stateMutability": "nonpayable",
      "type": "function"
    },
    {
      "inputs": [
        {
          "internalType": "bytes4",
          "name": "interfaceId",
          "type": "bytes4"
        }
      ],
      "name": "supportsInterface",
      "outputs": [
        {
          "internalType": "bool",
          "name": "",
          "type": "bool"
        }
      ],
      "stateMutability": "view",
      "type": "function"
    },
    {
      "inputs": [],
      "name": "symbol",
      "outputs": [
        {
          "internalType": "string",
          "name": "",
          "type": "string"
        }
      ],
      "stateMutability": "view",
      "type": "function"
    },
    {
      "inputs": [
        {
          "internalType": "uint256",
          "name": "tokenId",
          "type": "uint256"
        }
      ],
      "name": "tokenURI",
      "outputs": [
        {
          "internalType": "string",
          "name": "",
          "type": "string"
        }
      ],
      "stateMutability": "view",
      "type": "function"
    },
    {
      "inputs": [],
      "name": "totalCategoryCount",
      "outputs": [
        {
          "internalType": "uint256",
          "name": "",
          "type": "uint256"
        }
      ],
      "stateMutability": "view",
      "type": "function"
    },
    {
      "inputs": [
        {
          "internalType": "address",
          "name": "from",
          "type": "address"
        },
        {
          "internalType": "address",
          "name": "to",
          "type": "address"
        },
        {
          "internalType": "uint256",
          "name": "tokenId",
          "type": "uint256"
        }
      ],
      "name": "transferFrom",
      "outputs": [],
      "stateMutability": "nonpayable",
      "type": "function"
    },
    {
      "inputs": [
        {
          "internalType": "address",
          "name": "newOwner",
          "type": "address"
        }
      ],
      "name": "transferOwnership",
      "outputs": [],
      "stateMutability": "nonpayable",
      "type": "function"
    },
    {
      "inputs": [
        {
          "components": [
            {
              "internalType": "bool",
              "name": "isCategoryChange",
              "type": "bool"
            },
            {
              "internalType": "address",
              "name": "user",
              "type": "address"
            },
            {
              "internalType": "string",
              "name": "categoryId",
              "type": "string"
            },
            {
              "internalType": "uint256",
              "name": "accessoryId",
              "type": "uint256"
            },
            {
              "internalType": "string",
              "name": "ipfsLink",
              "type": "string"
            }
          ],
          "internalType": "struct IBackedCommunityTokenV1.CategoryOrAccessoryChange[]",
          "name": "changes",
          "type": "tuple[]"
        }
      ],
      "name": "unlockAccessoryOrIncrementCategory",
      "outputs": [],
      "stateMutability": "nonpayable",
      "type": "function"
    }
  ],
  "bytecode": {
    "object": "0x608060405234801561001057600080fd5b50613356806100206000396000f3fe608060405234801561001057600080fd5b506004361061023d5760003560e01c80638da5cb5b1161013b578063cb19a1d6116100b8578063da2fd4cb1161007c578063da2fd4cb14610505578063db8a06cf14610541578063dfcf2cf814610563578063e985e9c514610576578063f2fde38b1461058957600080fd5b8063cb19a1d614610499578063cdb16e00146104ac578063d1c5df07146104bf578063d37825b2146104df578063d4f353c0146104f257600080fd5b8063b2b52ef1116100ff578063b2b52ef114610444578063b88d4fde1461044d578063c17c7faa14610460578063c4d66de814610473578063c87b56dd1461048657600080fd5b80638da5cb5b1461040757806395d89b4114610418578063a22cb46514610420578063aa416e5414610433578063affed0e01461043b57600080fd5b80632fdaa490116101c95780636352211e1161018d5780636352211e146103a65780636a627842146103b957806370a08231146103cc578063715018a6146103df5780637473660a146103e757600080fd5b80632fdaa4901461032c578063303e74df1461035a57806336d587bf1461036d57806342842e0e1461038057806345cb4e421461039357600080fd5b8063095ea7b311610210578063095ea7b3146102bf5780631ab87a44146102d257806323b872dd146102f35780632427061d146103065780632f2aa2101461031957600080fd5b806301ffc9a7146102425780630303348f1461026a57806306fdde031461027f578063081812fc14610294575b600080fd5b6102556102503660046126f9565b61059c565b60405190151581526020015b60405180910390f35b61027d61027836600461272b565b6105ee565b005b610287610643565b60405161026191906127a0565b6102a76102a23660046127b3565b6106d5565b6040516001600160a01b039091168152602001610261565b61027d6102cd3660046127cc565b61076a565b6102e56102e03660046127f8565b610880565b604051908152602001610261565b61027d610301366004612833565b610931565b61027d610314366004612874565b610962565b61027d6103273660046127b3565b610b27565b61025561033a3660046127cc565b600960209081526000928352604080842090915290825290205460ff1681565b6002546102a7906001600160a01b031681565b61027d61037b366004612a05565b610bf6565b61027d61038e366004612833565b610cb2565b61027d6103a1366004612a05565b610ccd565b6102a76103b43660046127b3565b610d85565b61027d6103c736600461272b565b610dfc565b6102e56103da36600461272b565b610e1d565b61027d610ea3565b6102e56103f536600461272b565b600a6020526000908152604090205481565b60a4546001600160a01b03166102a7565b610287610ed9565b61027d61042e366004612b55565b610ee8565b61027d610ef3565b6102e560005481565b6102e560035481565b61027d61045b366004612b8a565b610f1b565b6001546102a7906001600160a01b031681565b61027d61048136600461272b565b610f53565b6102876104943660046127b3565b61102a565b6102876104a736600461272b565b61113f565b61027d6104ba3660046127b3565b6111d9565b6104d26104cd36600461272b565b61120c565b6040516102619190612c0a565b61027d6104ed36600461272b565b6112cf565b61027d61050036600461272b565b61131b565b6102e5610513366004612c4e565b6004602090815260009283526040909220815180830184018051928152908401929093019190912091525481565b61055461054f3660046127b3565b611367565b60405161026193929190612c9e565b600b546102a7906001600160a01b031681565b610255610584366004612cd2565b61141c565b61027d61059736600461272b565b61144a565b60006001600160e01b031982166380ac58cd60e01b14806105cd57506001600160e01b03198216635b5e139f60e01b145b806105e857506301ffc9a760e01b6001600160e01b03198316145b92915050565b60a4546001600160a01b031633146106215760405162461bcd60e51b815260040161061890612d0b565b60405180910390fd5b600180546001600160a01b0319166001600160a01b0392909216919091179055565b60606072805461065290612d40565b80601f016020809104026020016040519081016040528092919081815260200182805461067e90612d40565b80156106cb5780601f106106a0576101008083540402835291602001916106cb565b820191906000526020600020905b8154815290600101906020018083116106ae57829003601f168201915b5050505050905090565b6000818152607460205260408120546001600160a01b031661074e5760405162461bcd60e51b815260206004820152602c60248201527f4552433732313a20617070726f76656420717565727920666f72206e6f6e657860448201526b34b9ba32b73a103a37b5b2b760a11b6064820152608401610618565b506000908152607660205260409020546001600160a01b031690565b600061077582610d85565b9050806001600160a01b0316836001600160a01b031614156107e35760405162461bcd60e51b815260206004820152602160248201527f4552433732313a20617070726f76616c20746f2063757272656e74206f776e656044820152603960f91b6064820152608401610618565b336001600160a01b03821614806107ff57506107ff813361141c565b6108715760405162461bcd60e51b815260206004820152603860248201527f4552433732313a20617070726f76652063616c6c6572206973206e6f74206f7760448201527f6e6572206e6f7220617070726f76656420666f7220616c6c00000000000000006064820152608401610618565b61087b83836114e2565b505050565b60a4546000906001600160a01b031633146108ad5760405162461bcd60e51b815260040161061890612d0b565b5060078054600101908190556108cb816108c684612d7b565b611550565b6108d8602083018361272b565b6001600160a01b0316817f1384d702228ebaf17be8c404a8106715f68a1c09f3944a997d13dd7838a12d6e6109106020860186612dfc565b866040013560405161092493929190612e4a565b60405180910390a3919050565b61093b33826115d1565b6109575760405162461bcd60e51b815260040161061890612e83565b61087b8383836116a8565b6001546001600160a01b031633146109e25760405162461bcd60e51b815260206004820152603d60248201527f4261636b6564436f6d6d756e697479546f6b656e56313a2063616c6c6572206d60448201527f7573742062652063726f737320646f6d61696e206d657373656e6765720000006064820152608401610618565b600b5460015460408051636e296e4560e01b815290516001600160a01b039384169390921691636e296e45916004808201926020929091908290030181865afa158015610a33573d6000803e3d6000fd5b505050506040513d601f19601f82011682018060405250810190610a579190612ed4565b6001600160a01b031614610ac75760405162461bcd60e51b815260206004820152603160248201527f4261636b6564436f6d6d756e697479546f6b656e56313a206f726967696e206d6044820152700757374206265204261636b65642050465607c1b6064820152608401610618565b6001600160a01b0384166000908152600c60205260409020610aea9084846125d6565b5060405181906001600160a01b038616907f636b0e6ea24f7b2a58c337ff69d8744756d9b166bb29fdb31b21cc126e535ad190600090a350505050565b336000818152600a602052604090205490610b42908361174f565b610bb45760405162461bcd60e51b815260206004820152603760248201527f4261636b6564436f6d6d756e697479546f6b656e56313a2075736572206e6f7460448201527f20656c696769626c6520666f72206163636573736f72790000000000000000006064820152608401610618565b336000818152600a6020526040808220859055518492849290917fea1b1f91e87d6596dd266ab28a1e2231755992988caaafc59ed42f2331d41e8c9190a45050565b60a4546001600160a01b03163314610c205760405162461bcd60e51b815260040161061890612d0b565b60005b8151811015610cae57818181518110610c3e57610c3e612ef1565b60200260200101516000015115610c7857610c73828281518110610c6457610c64612ef1565b602002602001015160016118bb565b610c9c565b610c9c828281518110610c8d57610c8d612ef1565b60200260200101516001611a4d565b80610ca681612f1d565b915050610c23565b5050565b61087b83838360405180602001604052806000815250610f1b565b60a4546001600160a01b03163314610cf75760405162461bcd60e51b815260040161061890612d0b565b60005b8151811015610cae57818181518110610d1557610d15612ef1565b60200260200101516000015115610d4f57610d4a828281518110610d3b57610d3b612ef1565b602002602001015160006118bb565b610d73565b610d73828281518110610d6457610d64612ef1565b60200260200101516000611a4d565b80610d7d81612f1d565b915050610cfa565b6000818152607460205260408120546001600160a01b0316806105e85760405162461bcd60e51b815260206004820152602960248201527f4552433732313a206f776e657220717565727920666f72206e6f6e657869737460448201526832b73a103a37b5b2b760b91b6064820152608401610618565b60008054610e1a9183919080610e1183612f1d565b91905055611c54565b50565b60006001600160a01b038216610e875760405162461bcd60e51b815260206004820152602960248201527f4552433732313a2061646472657373207a65726f206973206e6f7420612076616044820152683634b21037bbb732b960b91b6064820152608401610618565b506001600160a01b031660009081526075602052604090205490565b60a4546001600160a01b03163314610ecd5760405162461bcd60e51b815260040161061890612d0b565b610ed76000611c86565b565b60606073805461065290612d40565b610cae338383611cd8565b6040805160208082018084526000808452338152600c9092529290209051610e1a929061265a565b610f2533836115d1565b610f415760405162461bcd60e51b815260040161061890612e83565b610f4d84848484611da7565b50505050565b6000610f5f6001611dda565b90508015610f7757600d805461ff0019166101001790555b610fc66040518060400160405280600f81526020016e4261636b6564436f6d6d756e69747960881b81525060405180604001604052806006815260200165109050d2d15160d21b815250611e69565b600280546001600160a01b0319166001600160a01b0384161790558015610cae57600d805461ff0019169055604051600181527f7f26b83ff96e1f2b6a682f133852f6798a09c465da95921460cefb38474024989060200160405180910390a15050565b6040516331a9108f60e11b8152600481018290526060906000903090636352211e90602401602060405180830381865afa15801561106c573d6000803e3d6000fd5b505050506040513d601f19601f820116820180604052508101906110909190612ed4565b6002546001600160a01b038083166000818152600a602090815260408083205483526008825280832054938352600c90915290819020905163045b0e1b60e01b81529495509282169363045b0e1b936110f3938993889391169190600401612f38565b600060405180830381865afa158015611110573d6000803e3d6000fd5b505050506040513d6000823e601f3d908101601f191682016040526111389190810190613006565b9392505050565b600c602052600090815260409020805461115890612d40565b80601f016020809104026020016040519081016040528092919081815260200182805461118490612d40565b80156111d15780601f106111a6576101008083540402835291602001916111d1565b820191906000526020600020905b8154815290600101906020018083116111b457829003601f168201915b505050505081565b60a4546001600160a01b031633146112035760405162461bcd60e51b815260040161061890612d0b565b610e1a81611ea2565b6060600061121a6005611ead565b905060008167ffffffffffffffff811115611237576112376128ff565b604051908082528060200260200182016040528015611260578160200160208202803683370190505b50905060005b828110156112c7576112828561127d600584611eb7565b61174f565b61128d576000611298565b611298600582611eb7565b8282815181106112aa576112aa612ef1565b6020908102919091010152806112bf81612f1d565b915050611266565b509392505050565b60a4546001600160a01b031633146112f95760405162461bcd60e51b815260040161061890612d0b565b600280546001600160a01b0319166001600160a01b0392909216919091179055565b60a4546001600160a01b031633146113455760405162461bcd60e51b815260040161061890612d0b565b600b80546001600160a01b0319166001600160a01b0392909216919091179055565b600860205260009081526040902080546001820180546001600160a01b03909216929161139390612d40565b80601f01602080910402602001604051908101604052809291908181526020018280546113bf90612d40565b801561140c5780601f106113e15761010080835404028352916020019161140c565b820191906000526020600020905b8154815290600101906020018083116113ef57829003601f168201915b5050505050908060020154905083565b6001600160a01b03918216600090815260776020908152604080832093909416825291909152205460ff1690565b60a4546001600160a01b031633146114745760405162461bcd60e51b815260040161061890612d0b565b6001600160a01b0381166114d95760405162461bcd60e51b815260206004820152602660248201527f4f776e61626c653a206e6577206f776e657220697320746865207a65726f206160448201526564647265737360d01b6064820152608401610618565b610e1a81611c86565b600081815260766020526040902080546001600160a01b0319166001600160a01b038416908117909155819061151782610d85565b6001600160a01b03167f8c5be1e5ebec7d5bd14f71427d1e84f3dd0314c0f7b2291e5b200ac8c7c3b92560405160405180910390a45050565b6040805160608101825282516001600160a01b039081168252602080850151818401908152858501518486015260008781526008835294909420835181546001600160a01b031916931692909217825592518051929391926115b8926001850192019061265a565b506040820151816002015590505061087b600583611ec3565b6000818152607460205260408120546001600160a01b031661164a5760405162461bcd60e51b815260206004820152602c60248201527f4552433732313a206f70657261746f7220717565727920666f72206e6f6e657860448201526b34b9ba32b73a103a37b5b2b760a11b6064820152608401610618565b600061165583610d85565b9050806001600160a01b0316846001600160a01b0316148061167c575061167c818561141c565b806116a05750836001600160a01b0316611695846106d5565b6001600160a01b0316145b949350505050565b60a4546001600160a01b0316331461171c5760405162461bcd60e51b815260206004820152603160248201527f455243373231536f756c626f756e643a206f6e6c7920636f6e7472616374206f6044820152703bb732b91031b0b7103a3930b739b332b960791b6064820152608401610618565b600161172783610e1d565b106117445760405162461bcd60e51b81526004016106189061307d565b61087b838383611ecf565b60008161175e575060016105e8565b600082815260086020908152604080832081516060810190925280546001600160a01b03168252600181018054929391929184019161179c90612d40565b80601f01602080910402602001604051908101604052809291908181526020018280546117c890612d40565b80156118155780601f106117ea57610100808354040283529160200191611815565b820191906000526020600020905b8154815290600101906020018083116117f857829003601f168201915b5050505050815260200160028201548152505090506118338361206b565b156118665750506001600160a01b038216600090815260096020908152604080832084845290915290205460ff166105e8565b806040015160046000866001600160a01b03166001600160a01b0316815260200190815260200160002082602001516040516118a291906130c4565b90815260200160405180910390205410159150506105e8565b6020808301516001600160a01b031660009081526004909152604080822081850151915190916118ea916130c4565b908152602001604051809103902054905060008215611965576004600085602001516001600160a01b03166001600160a01b03168152602001908152602001600020846040015160405161193e91906130c4565b90815260200160405180910390206000815461195990612f1d565b918290555090506119c3565b6004600085602001516001600160a01b03166001600160a01b0316815260200190815260200160002084604001516040516119a091906130c4565b9081526020016040518091039020600081546119bb906130e0565b918290555090505b602080850151608086015160408088015190516001600160a01b038416947f9ef5bdac21c0b2ea1e3f6bb8f97d9da60f47f64a6b092f1e97f5f8f058bfbd729487928992611a189291869186918691016130f7565b60405160208183030381529060405280519060200120604051611a3f95949392919061312e565b60405180910390a250505050565b60608201516000908152600860205260409020546001600160a01b0316611acf5760405162461bcd60e51b815260206004820152603060248201527f4261636b6564436f6d6d756e697479546f6b656e56313a204163636573736f7260448201526f1e48191bd95cc81b9bdd08195e1a5cdd60821b6064820152608401610618565b611adc826060015161206b565b611b465760405162461bcd60e51b815260206004820152603560248201527f4261636b6564436f6d6d756e697479546f6b656e56313a204163636573736f726044820152741e481b5d5cdd0818994818591b5a5b8818985cd959605a1b6064820152608401610618565b8015611b84576020808301516001600160a01b031660009081526009825260408082206060860151835290925220805460ff19166001179055611bb5565b6020808301516001600160a01b031660009081526009825260408082206060860151835290925220805460ff191690555b606082015160208084015160808501516040516001600160a01b038316937f9585125add627de8c748eef8bbf87fd4d943068f750d41b4657804c42163b00f938792611c239288918591016001600160a01b0393909316835260208301919091521515604082015260600190565b60405160208183030381529060405280519060200120604051611c4893929190613171565b60405180910390a35050565b6001611c5f83610e1d565b10611c7c5760405162461bcd60e51b81526004016106189061307d565b610cae8282612140565b60a480546001600160a01b038381166001600160a01b0319831681179093556040519116919082907f8be0079c531659141344cd1fd0a4f28419497f9722a3daafe3b4186f6b6457e090600090a35050565b816001600160a01b0316836001600160a01b03161415611d3a5760405162461bcd60e51b815260206004820152601960248201527f4552433732313a20617070726f766520746f2063616c6c6572000000000000006044820152606401610618565b6001600160a01b03838116600081815260776020908152604080832094871680845294825291829020805460ff191686151590811790915591519182527f17307eab39ab6107e8899845ad3d59bd9653f200f220920489ca2b5937696c31910160405180910390a3505050565b611db28484846116a8565b611dbe84848484612282565b610f4d5760405162461bcd60e51b815260040161061890613196565b600d54600090610100900460ff1615611e23578160ff166001148015611dff5750303b155b611e1b5760405162461bcd60e51b8152600401610618906131e8565b506000919050565b600d5460ff808416911610611e4a5760405162461bcd60e51b8152600401610618906131e8565b50600d805460ff191660ff92909216919091179055600190565b919050565b600d54610100900460ff16611e905760405162461bcd60e51b815260040161061890613236565b611e9a8282612380565b610cae6123b1565b610cae6005826123e0565b60006105e8825490565b600061113883836123ec565b60006111388383612416565b826001600160a01b0316611ee282610d85565b6001600160a01b031614611f465760405162461bcd60e51b815260206004820152602560248201527f4552433732313a207472616e736665722066726f6d20696e636f72726563742060448201526437bbb732b960d91b6064820152608401610618565b6001600160a01b038216611fa85760405162461bcd60e51b8152602060048201526024808201527f4552433732313a207472616e7366657220746f20746865207a65726f206164646044820152637265737360e01b6064820152608401610618565b611fb36000826114e2565b6001600160a01b0383166000908152607560205260408120805460019290611fdc908490613281565b90915550506001600160a01b038216600090815260756020526040812080546001929061200a908490613298565b909155505060008181526074602052604080822080546001600160a01b0319166001600160a01b0386811691821790925591518493918716917fddf252ad1be2c89b69c2b068fc378daa952ba7f163c4a11628f55a4df523b3ef91a4505050565b600081815260086020908152604080832081516060810190925280546001600160a01b031682526001810180548594840191906120a790612d40565b80601f01602080910402602001604051908101604052809291908181526020018280546120d390612d40565b80156121205780601f106120f557610100808354040283529160200191612120565b820191906000526020600020905b81548152906001019060200180831161210357829003601f168201915b505050918352505060029190910154602091820152015151159392505050565b6001600160a01b0382166121965760405162461bcd60e51b815260206004820181905260248201527f4552433732313a206d696e7420746f20746865207a65726f20616464726573736044820152606401610618565b6000818152607460205260409020546001600160a01b0316156121fb5760405162461bcd60e51b815260206004820152601c60248201527f4552433732313a20746f6b656e20616c7265616479206d696e746564000000006044820152606401610618565b6001600160a01b0382166000908152607560205260408120805460019290612224908490613298565b909155505060008181526074602052604080822080546001600160a01b0319166001600160a01b03861690811790915590518392907fddf252ad1be2c89b69c2b068fc378daa952ba7f163c4a11628f55a4df523b3ef908290a45050565b60006001600160a01b0384163b1561237557604051630a85bd0160e11b81526001600160a01b0385169063150b7a02906122c69033908990889088906004016132b0565b6020604051808303816000875af1925050508015612301575060408051601f3d908101601f191682019092526122fe918101906132ed565b60015b61235b573d80801561232f576040519150601f19603f3d011682016040523d82523d6000602084013e612334565b606091505b5080516123535760405162461bcd60e51b815260040161061890613196565b805181602001fd5b6001600160e01b031916630a85bd0160e11b1490506116a0565b506001949350505050565b600d54610100900460ff166123a75760405162461bcd60e51b815260040161061890613236565b610cae8282612465565b600d54610100900460ff166123d85760405162461bcd60e51b815260040161061890613236565b610ed76124b3565b600061113883836124e3565b600082600001828154811061240357612403612ef1565b9060005260206000200154905092915050565b600081815260018301602052604081205461245d575081546001818101845560008481526020808220909301849055845484825282860190935260409020919091556105e8565b5060006105e8565b600d54610100900460ff1661248c5760405162461bcd60e51b815260040161061890613236565b815161249f90607290602085019061265a565b50805161087b90607390602084019061265a565b600d54610100900460ff166124da5760405162461bcd60e51b815260040161061890613236565b610ed733611c86565b600081815260018301602052604081205480156125cc576000612507600183613281565b855490915060009061251b90600190613281565b905081811461258057600086600001828154811061253b5761253b612ef1565b906000526020600020015490508087600001848154811061255e5761255e612ef1565b6000918252602080832090910192909255918252600188019052604090208390555b85548690806125915761259161330a565b6001900381819060005260206000200160009055905585600101600086815260200190815260200160002060009055600193505050506105e8565b60009150506105e8565b8280546125e290612d40565b90600052602060002090601f016020900481019282612604576000855561264a565b82601f1061261d5782800160ff1982351617855561264a565b8280016001018555821561264a579182015b8281111561264a57823582559160200191906001019061262f565b506126569291506126ce565b5090565b82805461266690612d40565b90600052602060002090601f016020900481019282612688576000855561264a565b82601f106126a157805160ff191683800117855561264a565b8280016001018555821561264a579182015b8281111561264a5782518255916020019190600101906126b3565b5b8082111561265657600081556001016126cf565b6001600160e01b031981168114610e1a57600080fd5b60006020828403121561270b57600080fd5b8135611138816126e3565b6001600160a01b0381168114610e1a57600080fd5b60006020828403121561273d57600080fd5b813561113881612716565b60005b8381101561276357818101518382015260200161274b565b83811115610f4d5750506000910152565b6000815180845261278c816020860160208601612748565b601f01601f19169290920160200192915050565b6020815260006111386020830184612774565b6000602082840312156127c557600080fd5b5035919050565b600080604083850312156127df57600080fd5b82356127ea81612716565b946020939093013593505050565b60006020828403121561280a57600080fd5b813567ffffffffffffffff81111561282157600080fd5b82016060818503121561113857600080fd5b60008060006060848603121561284857600080fd5b833561285381612716565b9250602084013561286381612716565b929592945050506040919091013590565b6000806000806060858703121561288a57600080fd5b843561289581612716565b9350602085013567ffffffffffffffff808211156128b257600080fd5b818701915087601f8301126128c657600080fd5b8135818111156128d557600080fd5b8860208285010111156128e757600080fd5b95986020929092019750949560400135945092505050565b634e487b7160e01b600052604160045260246000fd5b60405160a0810167ffffffffffffffff81118282101715612938576129386128ff565b60405290565b604051601f8201601f1916810167ffffffffffffffff81118282101715612967576129676128ff565b604052919050565b80358015158114611e6457600080fd5b600067ffffffffffffffff821115612999576129996128ff565b50601f01601f191660200190565b60006129ba6129b58461297f565b61293e565b90508281528383830111156129ce57600080fd5b828260208301376000602084830101529392505050565b600082601f8301126129f657600080fd5b611138838335602085016129a7565b60006020808385031215612a1857600080fd5b823567ffffffffffffffff80821115612a3057600080fd5b818501915085601f830112612a4457600080fd5b813581811115612a5657612a566128ff565b8060051b612a6585820161293e565b9182528381018501918581019089841115612a7f57600080fd5b86860192505b83831015612b4857823585811115612a9c57600080fd5b860160a0818c03601f19011215612ab35760008081fd5b612abb612915565b612ac689830161296f565b8152604080830135612ad781612716565b828b015260608381013589811115612aef5760008081fd5b612afd8f8d838801016129e5565b83850152506080915081840135818401525060a083013588811115612b225760008081fd5b612b308e8c838701016129e5565b91830191909152508352509186019190860190612a85565b9998505050505050505050565b60008060408385031215612b6857600080fd5b8235612b7381612716565b9150612b816020840161296f565b90509250929050565b60008060008060808587031215612ba057600080fd5b8435612bab81612716565b93506020850135612bbb81612716565b925060408501359150606085013567ffffffffffffffff811115612bde57600080fd5b8501601f81018713612bef57600080fd5b612bfe878235602084016129a7565b91505092959194509250565b6020808252825182820181905260009190848201906040850190845b81811015612c4257835183529284019291840191600101612c26565b50909695505050505050565b60008060408385031215612c6157600080fd5b8235612c6c81612716565b9150602083013567ffffffffffffffff811115612c8857600080fd5b612c94858286016129e5565b9150509250929050565b6001600160a01b0384168152606060208201819052600090612cc290830185612774565b9050826040830152949350505050565b60008060408385031215612ce557600080fd5b8235612cf081612716565b91506020830135612d0081612716565b809150509250929050565b6020808252818101527f4f776e61626c653a2063616c6c6572206973206e6f7420746865206f776e6572604082015260600190565b600181811c90821680612d5457607f821691505b60208210811415612d7557634e487b7160e01b600052602260045260246000fd5b50919050565b600060608236031215612d8d57600080fd5b6040516060810167ffffffffffffffff8282108183111715612db157612db16128ff565b8160405284359150612dc282612716565b90825260208401359080821115612dd857600080fd5b50612de5368286016129e5565b602083015250604092830135928101929092525090565b6000808335601e19843603018112612e1357600080fd5b83018035915067ffffffffffffffff821115612e2e57600080fd5b602001915036819003821315612e4357600080fd5b9250929050565b604081528260408201528284606083013760006060848301015260006060601f19601f8601168301019050826020830152949350505050565b60208082526031908201527f4552433732313a207472616e736665722063616c6c6572206973206e6f74206f6040820152701ddb995c881b9bdc88185c1c1c9bdd9959607a1b606082015260800190565b600060208284031215612ee657600080fd5b815161113881612716565b634e487b7160e01b600052603260045260246000fd5b634e487b7160e01b600052601160045260246000fd5b6000600019821415612f3157612f31612f07565b5060010190565b8481526001600160a01b038481166020808401919091529084166040830152608060608301528254600091908290600181811c9082811680612f7b57607f831692505b858310811415612f9957634e487b7160e01b85526022600452602485fd5b6080880183905260a08801818015612fb85760018114612fc957612ff4565b60ff19861682528782019650612ff4565b60008b81526020902060005b86811015612fee57815484820152908501908901612fd5565b83019750505b50949c9b505050505050505050505050565b60006020828403121561301857600080fd5b815167ffffffffffffffff81111561302f57600080fd5b8201601f8101841361304057600080fd5b805161304e6129b58261297f565b81815285602083850101111561306357600080fd5b613074826020830160208601612748565b95945050505050565b60208082526027908201527f455243373231536f756c626f756e643a2063616e6e6f74206f776e206d6f7265604082015266207468616e203160c81b606082015260800190565b600082516130d6818460208701612748565b9190910192915050565b6000816130ef576130ef612f07565b506000190190565b6001600160a01b038516815260806020820181905260009061311b90830186612774565b6040830194909452506060015292915050565b60a08152600061314160a0830188612774565b82810360208401526131538188612774565b60408401969096525050606081019290925260809091015292915050565b6060815260006131846060830186612774565b93151560208301525060400152919050565b60208082526032908201527f4552433732313a207472616e7366657220746f206e6f6e20455243373231526560408201527131b2b4bb32b91034b6b83632b6b2b73a32b960711b606082015260800190565b6020808252602e908201527f496e697469616c697a61626c653a20636f6e747261637420697320616c72656160408201526d191e481a5b9a5d1a585b1a5e995960921b606082015260800190565b6020808252602b908201527f496e697469616c697a61626c653a20636f6e7472616374206973206e6f74206960408201526a6e697469616c697a696e6760a81b606082015260800190565b60008282101561329357613293612f07565b500390565b600082198211156132ab576132ab612f07565b500190565b6001600160a01b03858116825284166020820152604081018390526080606082018190526000906132e390830184612774565b9695505050505050565b6000602082840312156132ff57600080fd5b8151611138816126e3565b634e487b7160e01b600052603160045260246000fdfea26469706673582212200a3af313bbed5b368fb0ea7d353c599835e1052e31d2c3e1316970056f4882a164736f6c634300080c0033",
    "linkReferences": {}
  },
  "methodIdentifiers": {
    "accessoryIdToAccessory(uint256)": "db8a06cf",
    "addAccessory((address,string,uint256))": "1ab87a44",
    "addressToAccessoryEnabled(address)": "7473660a",
    "addressToAccessoryUnlocked(address,uint256)": "2fdaa490",
    "addressToCategoryScore(address,string)": "da2fd4cb",
    "addressToPFPSVGLink(address)": "cb19a1d6",
    "approve(address,uint256)": "095ea7b3",
    "balanceOf(address)": "70a08231",
    "bunnyPFPContractAddress()": "dfcf2cf8",
    "cdmAddr()": "c17c7faa",
    "clearBunnyPFPLink()": "aa416e54",
    "descriptor()": "303e74df",
    "getApproved(uint256)": "081812fc",
    "getUnlockedAccessoriesForAddress(address)": "d1c5df07",
    "initialize(address)": "c4d66de8",
    "isApprovedForAll(address,address)": "e985e9c5",
    "mint(address)": "6a627842",
    "name()": "06fdde03",
    "nonce()": "affed0e0",
    "owner()": "8da5cb5b",
    "ownerOf(uint256)": "6352211e",
    "relockAccessoryOrDecrementCategory((bool,address,string,uint256,string)[])": "45cb4e42",
    "removeAccessory(uint256)": "cdb16e00",
    "renounceOwnership()": "715018a6",
    "safeTransferFrom(address,address,uint256)": "42842e0e",
    "safeTransferFrom(address,address,uint256,bytes)": "b88d4fde",
    "setApprovalForAll(address,bool)": "a22cb465",
    "setBunnyPFPContract(address)": "d4f353c0",
    "setBunnyPFPSVGFromL1(address,string,uint256)": "2427061d",
    "setDescriptorContract(address)": "d37825b2",
    "setEnabledAccessory(uint256)": "2f2aa210",
    "setOptimismCrossChainMessengerAddress(address)": "0303348f",
    "supportsInterface(bytes4)": "01ffc9a7",
    "symbol()": "95d89b41",
    "tokenURI(uint256)": "c87b56dd",
    "totalCategoryCount()": "b2b52ef1",
    "transferFrom(address,address,uint256)": "23b872dd",
    "transferOwnership(address)": "f2fde38b",
    "unlockAccessoryOrIncrementCategory((bool,address,string,uint256,string)[])": "36d587bf"
  },
  "id": 32
}