{
  "abi": [
    {
      "anonymous": false,
      "inputs": [
        {
          "indexed": true,
          "internalType": "uint256",
          "name": "accessoryId",
          "type": "uint256"
        },
        {
          "indexed": true,
          "internalType": "address",
          "name": "artContract",
          "type": "address"
        },
        {
          "indexed": false,
          "internalType": "string",
          "name": "xpCategory",
          "type": "string"
        },
        {
          "indexed": false,
          "internalType": "uint256",
          "name": "qualifyingXPScore",
          "type": "uint256"
        }
      ],
      "name": "AccessoryAdded",
      "type": "event"
    },
    {
      "anonymous": false,
      "inputs": [
        {
          "indexed": true,
          "internalType": "address",
          "name": "addr",
          "type": "address"
        },
        {
          "indexed": true,
          "internalType": "uint256",
          "name": "accessoryId",
          "type": "uint256"
        },
        {
          "indexed": false,
          "internalType": "string",
          "name": "ipfsLink",
          "type": "string"
        },
        {
          "indexed": false,
          "internalType": "bool",
          "name": "unlocked",
          "type": "bool"
        },
        {
          "indexed": false,
          "internalType": "bytes32",
          "name": "ipfsEntryHash",
          "type": "bytes32"
        }
      ],
      "name": "AccessoryLockChanged",
      "type": "event"
    },
    {
      "anonymous": false,
      "inputs": [
        {
          "indexed": true,
          "internalType": "uint256",
          "name": "accessoryId",
          "type": "uint256"
        }
      ],
      "name": "AccessoryRemoved",
      "type": "event"
    },
    {
      "anonymous": false,
      "inputs": [
        {
          "indexed": true,
          "internalType": "address",
          "name": "addr",
          "type": "address"
        },
        {
          "indexed": true,
          "internalType": "uint256",
          "name": "oldAccessory",
          "type": "uint256"
        },
        {
          "indexed": true,
          "internalType": "uint256",
          "name": "newAccessory",
          "type": "uint256"
        }
      ],
      "name": "AccessorySwapped",
      "type": "event"
    },
    {
      "anonymous": false,
      "inputs": [
        {
          "indexed": true,
          "internalType": "address",
          "name": "owner",
          "type": "address"
        },
        {
          "indexed": true,
          "internalType": "address",
          "name": "approved",
          "type": "address"
        },
        {
          "indexed": true,
          "internalType": "uint256",
          "name": "tokenId",
          "type": "uint256"
        }
      ],
      "name": "Approval",
      "type": "event"
    },
    {
      "anonymous": false,
      "inputs": [
        {
          "indexed": true,
          "internalType": "address",
          "name": "owner",
          "type": "address"
        },
        {
          "indexed": true,
          "internalType": "address",
          "name": "operator",
          "type": "address"
        },
        {
          "indexed": false,
          "internalType": "bool",
          "name": "approved",
          "type": "bool"
        }
      ],
      "name": "ApprovalForAll",
      "type": "event"
    },
    {
      "anonymous": false,
      "inputs": [
        {
          "indexed": true,
          "internalType": "address",
          "name": "owner",
          "type": "address"
        },
        {
          "indexed": true,
          "internalType": "uint256",
          "name": "tokenId",
          "type": "uint256"
        }
      ],
      "name": "BunnyPFPLinked",
      "type": "event"
    },
    {
      "anonymous": false,
      "inputs": [
        {
          "indexed": true,
          "internalType": "address",
          "name": "addr",
          "type": "address"
        },
        {
          "indexed": false,
          "internalType": "string",
          "name": "ipfsLink",
          "type": "string"
        },
        {
          "indexed": false,
          "internalType": "string",
          "name": "categoryId",
          "type": "string"
        },
        {
          "indexed": false,
          "internalType": "uint256",
          "name": "newScore",
          "type": "uint256"
        },
        {
          "indexed": false,
          "internalType": "uint256",
          "name": "oldScore",
          "type": "uint256"
        },
        {
          "indexed": false,
          "internalType": "bytes32",
          "name": "ipfsEntryHash",
          "type": "bytes32"
        }
      ],
      "name": "CategoryScoreChanged",
      "type": "event"
    },
    {
      "anonymous": false,
      "inputs": [
        {
          "indexed": false,
          "internalType": "uint8",
          "name": "version",
          "type": "uint8"
        }
      ],
      "name": "Initialized",
      "type": "event"
    },
    {
      "anonymous": false,
      "inputs": [
        {
          "indexed": true,
          "internalType": "address",
          "name": "previousOwner",
          "type": "address"
        },
        {
          "indexed": true,
          "internalType": "address",
          "name": "newOwner",
          "type": "address"
        }
      ],
      "name": "OwnershipTransferred",
      "type": "event"
    },
    {
      "anonymous": false,
      "inputs": [
        {
          "indexed": true,
          "internalType": "address",
          "name": "from",
          "type": "address"
        },
        {
          "indexed": true,
          "internalType": "address",
          "name": "to",
          "type": "address"
        },
        {
          "indexed": true,
          "internalType": "uint256",
          "name": "tokenId",
          "type": "uint256"
        }
      ],
      "name": "Transfer",
      "type": "event"
    },
    {
      "inputs": [
        {
          "internalType": "uint256",
          "name": "",
          "type": "uint256"
        }
      ],
      "name": "accessoryIdToAccessory",
      "outputs": [
        {
          "internalType": "address",
          "name": "artContract",
          "type": "address"
        },
        {
          "internalType": "string",
          "name": "xpCategory",
          "type": "string"
        },
        {
          "internalType": "uint256",
          "name": "qualifyingXPScore",
          "type": "uint256"
        }
      ],
      "stateMutability": "view",
      "type": "function"
    },
    {
      "inputs": [
        {
          "components": [
            {
              "internalType": "address",
              "name": "artContract",
              "type": "address"
            },
            {
              "internalType": "string",
              "name": "xpCategory",
              "type": "string"
            },
            {
              "internalType": "uint256",
              "name": "qualifyingXPScore",
              "type": "uint256"
            }
          ],
          "internalType": "struct IBackedCommunityTokenV1.Accessory",
          "name": "accessory",
          "type": "tuple"
        }
      ],
      "name": "addAccessory",
      "outputs": [
        {
          "internalType": "uint256",
          "name": "newAccessoryId",
          "type": "uint256"
        }
      ],
      "stateMutability": "nonpayable",
      "type": "function"
    },
    {
      "inputs": [
        {
          "internalType": "address",
          "name": "",
          "type": "address"
        }
      ],
      "name": "addressToAccessoryEnabled",
      "outputs": [
        {
          "internalType": "uint256",
          "name": "",
          "type": "uint256"
        }
      ],
      "stateMutability": "view",
      "type": "function"
    },
    {
      "inputs": [
        {
          "internalType": "address",
          "name": "",
          "type": "address"
        },
        {
          "internalType": "uint256",
          "name": "",
          "type": "uint256"
        }
      ],
      "name": "addressToAccessoryUnlocked",
      "outputs": [
        {
          "internalType": "bool",
          "name": "",
          "type": "bool"
        }
      ],
      "stateMutability": "view",
      "type": "function"
    },
    {
      "inputs": [
        {
          "internalType": "address",
          "name": "",
          "type": "address"
        },
        {
          "internalType": "string",
          "name": "",
          "type": "string"
        }
      ],
      "name": "addressToCategoryScore",
      "outputs": [
        {
          "internalType": "uint256",
          "name": "",
          "type": "uint256"
        }
      ],
      "stateMutability": "view",
      "type": "function"
    },
    {
      "inputs": [
        {
          "internalType": "address",
          "name": "",
          "type": "address"
        }
      ],
      "name": "addressToPFPSVGLink",
      "outputs": [
        {
          "internalType": "string",
          "name": "",
          "type": "string"
        }
      ],
      "stateMutability": "view",
      "type": "function"
    },
    {
      "inputs": [
        {
          "internalType": "address",
          "name": "to",
          "type": "address"
        },
        {
          "internalType": "uint256",
          "name": "tokenId",
          "type": "uint256"
        }
      ],
      "name": "approve",
      "outputs": [],
      "stateMutability": "nonpayable",
      "type": "function"
    },
    {
      "inputs": [
        {
          "internalType": "address",
          "name": "owner",
          "type": "address"
        }
      ],
      "name": "balanceOf",
      "outputs": [
        {
          "internalType": "uint256",
          "name": "",
          "type": "uint256"
        }
      ],
      "stateMutability": "view",
      "type": "function"
    },
    {
      "inputs": [],
      "name": "bunnyPFPContractAddress",
      "outputs": [
        {
          "internalType": "address",
          "name": "",
          "type": "address"
        }
      ],
      "stateMutability": "view",
      "type": "function"
    },
    {
      "inputs": [],
      "name": "cdmAddr",
      "outputs": [
        {
          "internalType": "address",
          "name": "",
          "type": "address"
        }
      ],
      "stateMutability": "view",
      "type": "function"
    },
    {
      "inputs": [
        {
          "components": [
            {
              "internalType": "bool",
              "name": "isCategoryChange",
              "type": "bool"
            },
            {
              "internalType": "address",
              "name": "user",
              "type": "address"
            },
            {
              "internalType": "string",
              "name": "categoryId",
              "type": "string"
            },
            {
              "internalType": "uint256",
              "name": "accessoryId",
              "type": "uint256"
            },
            {
              "internalType": "int256",
              "name": "value",
              "type": "int256"
            },
            {
              "internalType": "string",
              "name": "ipfsLink",
              "type": "string"
            }
          ],
          "internalType": "struct IBackedCommunityTokenV1.CategoryOrAccessoryChange[]",
          "name": "changes",
          "type": "tuple[]"
        }
      ],
      "name": "changeAccessoryLockOrCategoryScore",
      "outputs": [],
      "stateMutability": "nonpayable",
      "type": "function"
    },
    {
      "inputs": [],
      "name": "clearBunnyPFPLink",
      "outputs": [],
      "stateMutability": "nonpayable",
      "type": "function"
    },
    {
      "inputs": [],
      "name": "descriptor",
      "outputs": [
        {
          "internalType": "contract IBackedCommunityTokenDescriptorV1",
          "name": "",
          "type": "address"
        }
      ],
      "stateMutability": "view",
      "type": "function"
    },
    {
      "inputs": [
        {
          "internalType": "uint256",
          "name": "tokenId",
          "type": "uint256"
        }
      ],
      "name": "getApproved",
      "outputs": [
        {
          "internalType": "address",
          "name": "",
          "type": "address"
        }
      ],
      "stateMutability": "view",
      "type": "function"
    },
    {
      "inputs": [
        {
          "internalType": "address",
          "name": "user",
          "type": "address"
        }
      ],
      "name": "getUnlockedAccessoriesForAddress",
      "outputs": [
        {
          "internalType": "uint256[]",
          "name": "",
          "type": "uint256[]"
        }
      ],
      "stateMutability": "view",
      "type": "function"
    },
    {
      "inputs": [
        {
          "internalType": "address",
          "name": "_descriptorAddress",
          "type": "address"
        }
      ],
      "name": "initialize",
      "outputs": [],
      "stateMutability": "nonpayable",
      "type": "function"
    },
    {
      "inputs": [
        {
          "internalType": "address",
          "name": "owner",
          "type": "address"
        },
        {
          "internalType": "address",
          "name": "operator",
          "type": "address"
        }
      ],
      "name": "isApprovedForAll",
      "outputs": [
        {
          "internalType": "bool",
          "name": "",
          "type": "bool"
        }
      ],
      "stateMutability": "view",
      "type": "function"
    },
    {
      "inputs": [
        {
          "internalType": "address",
          "name": "mintTo",
          "type": "address"
        }
      ],
      "name": "mint",
      "outputs": [],
      "stateMutability": "nonpayable",
      "type": "function"
    },
    {
      "inputs": [],
      "name": "name",
      "outputs": [
        {
          "internalType": "string",
          "name": "",
          "type": "string"
        }
      ],
      "stateMutability": "view",
      "type": "function"
    },
    {
      "inputs": [],
      "name": "nonce",
      "outputs": [
        {
          "internalType": "uint256",
          "name": "",
          "type": "uint256"
        }
      ],
      "stateMutability": "view",
      "type": "function"
    },
    {
      "inputs": [],
      "name": "owner",
      "outputs": [
        {
          "internalType": "address",
          "name": "",
          "type": "address"
        }
      ],
      "stateMutability": "view",
      "type": "function"
    },
    {
      "inputs": [
        {
          "internalType": "uint256",
          "name": "tokenId",
          "type": "uint256"
        }
      ],
      "name": "ownerOf",
      "outputs": [
        {
          "internalType": "address",
          "name": "",
          "type": "address"
        }
      ],
      "stateMutability": "view",
      "type": "function"
    },
    {
      "inputs": [
        {
          "internalType": "uint256",
          "name": "accessoryId",
          "type": "uint256"
        }
      ],
      "name": "removeAccessory",
      "outputs": [],
      "stateMutability": "nonpayable",
      "type": "function"
    },
    {
      "inputs": [],
      "name": "renounceOwnership",
      "outputs": [],
      "stateMutability": "nonpayable",
      "type": "function"
    },
    {
      "inputs": [
        {
          "internalType": "address",
          "name": "from",
          "type": "address"
        },
        {
          "internalType": "address",
          "name": "to",
          "type": "address"
        },
        {
          "internalType": "uint256",
          "name": "tokenId",
          "type": "uint256"
        }
      ],
      "name": "safeTransferFrom",
      "outputs": [],
      "stateMutability": "nonpayable",
      "type": "function"
    },
    {
      "inputs": [
        {
          "internalType": "address",
          "name": "from",
          "type": "address"
        },
        {
          "internalType": "address",
          "name": "to",
          "type": "address"
        },
        {
          "internalType": "uint256",
          "name": "tokenId",
          "type": "uint256"
        },
        {
          "internalType": "bytes",
          "name": "_data",
          "type": "bytes"
        }
      ],
      "name": "safeTransferFrom",
      "outputs": [],
      "stateMutability": "nonpayable",
      "type": "function"
    },
    {
      "inputs": [
        {
          "internalType": "address",
          "name": "operator",
          "type": "address"
        },
        {
          "internalType": "bool",
          "name": "approved",
          "type": "bool"
        }
      ],
      "name": "setApprovalForAll",
      "outputs": [],
      "stateMutability": "nonpayable",
      "type": "function"
    },
    {
      "inputs": [
        {
          "internalType": "address",
          "name": "addr",
          "type": "address"
        }
      ],
      "name": "setBunnyPFPContract",
      "outputs": [],
      "stateMutability": "nonpayable",
      "type": "function"
    },
    {
      "inputs": [
        {
          "internalType": "address",
          "name": "owner",
          "type": "address"
        },
        {
          "internalType": "string",
          "name": "svg",
          "type": "string"
        },
        {
          "internalType": "uint256",
          "name": "tokenId",
          "type": "uint256"
        }
      ],
      "name": "setBunnyPFPSVGFromL1",
      "outputs": [],
      "stateMutability": "nonpayable",
      "type": "function"
    },
    {
      "inputs": [
        {
          "internalType": "address",
          "name": "addr",
          "type": "address"
        }
      ],
      "name": "setDescriptorContract",
      "outputs": [],
      "stateMutability": "nonpayable",
      "type": "function"
    },
    {
      "inputs": [
        {
          "internalType": "uint256",
          "name": "accessoryId",
          "type": "uint256"
        }
      ],
      "name": "setEnabledAccessory",
      "outputs": [],
      "stateMutability": "nonpayable",
      "type": "function"
    },
    {
      "inputs": [
        {
          "internalType": "address",
          "name": "addr",
          "type": "address"
        }
      ],
      "name": "setOptimismCrossChainMessengerAddress",
      "outputs": [],
      "stateMutability": "nonpayable",
      "type": "function"
    },
    {
      "inputs": [
        {
          "internalType": "bytes4",
          "name": "interfaceId",
          "type": "bytes4"
        }
      ],
      "name": "supportsInterface",
      "outputs": [
        {
          "internalType": "bool",
          "name": "",
          "type": "bool"
        }
      ],
      "stateMutability": "view",
      "type": "function"
    },
    {
      "inputs": [],
      "name": "symbol",
      "outputs": [
        {
          "internalType": "string",
          "name": "",
          "type": "string"
        }
      ],
      "stateMutability": "view",
      "type": "function"
    },
    {
      "inputs": [
        {
          "internalType": "uint256",
          "name": "tokenId",
          "type": "uint256"
        }
      ],
      "name": "tokenURI",
      "outputs": [
        {
          "internalType": "string",
          "name": "",
          "type": "string"
        }
      ],
      "stateMutability": "view",
      "type": "function"
    },
    {
      "inputs": [],
      "name": "totalCategoryCount",
      "outputs": [
        {
          "internalType": "uint256",
          "name": "",
          "type": "uint256"
        }
      ],
      "stateMutability": "view",
      "type": "function"
    },
    {
      "inputs": [
        {
          "internalType": "address",
          "name": "from",
          "type": "address"
        },
        {
          "internalType": "address",
          "name": "to",
          "type": "address"
        },
        {
          "internalType": "uint256",
          "name": "tokenId",
          "type": "uint256"
        }
      ],
      "name": "transferFrom",
      "outputs": [],
      "stateMutability": "nonpayable",
      "type": "function"
    },
    {
      "inputs": [
        {
          "internalType": "address",
          "name": "newOwner",
          "type": "address"
        }
      ],
      "name": "transferOwnership",
      "outputs": [],
      "stateMutability": "nonpayable",
      "type": "function"
    }
  ],
  "bytecode": {
    "object": "0x608060405234801561001057600080fd5b506132a3806100206000396000f3fe608060405234801561001057600080fd5b50600436106102325760003560e01c806395d89b4111610130578063cb19a1d6116100b8578063da2fd4cb1161007c578063da2fd4cb146104e7578063db8a06cf14610523578063dfcf2cf814610545578063e985e9c514610558578063f2fde38b1461056b57600080fd5b8063cb19a1d61461047b578063cdb16e001461048e578063d1c5df07146104a1578063d37825b2146104c1578063d4f353c0146104d457600080fd5b8063b2b52ef1116100ff578063b2b52ef114610426578063b88d4fde1461042f578063c17c7faa14610442578063c4d66de814610455578063c87b56dd1461046857600080fd5b806395d89b41146103fa578063a22cb46514610402578063aa416e5414610415578063affed0e01461041d57600080fd5b80632fdaa490116101be5780636e8b3b47116101825780636e8b3b471461039b57806370a08231146103ae578063715018a6146103c15780637473660a146103c95780638da5cb5b146103e957600080fd5b80632fdaa49014610321578063303e74df1461034f57806342842e0e146103625780636352211e146103755780636a6278421461038857600080fd5b8063095ea7b311610205578063095ea7b3146102b45780631ab87a44146102c757806323b872dd146102e85780632427061d146102fb5780632f2aa2101461030e57600080fd5b806301ffc9a7146102375780630303348f1461025f57806306fdde0314610274578063081812fc14610289575b600080fd5b61024a61024536600461268b565b61057e565b60405190151581526020015b60405180910390f35b61027261026d3660046126c8565b6105d0565b005b61027c610625565b604051610256919061273d565b61029c610297366004612750565b6106b7565b6040516001600160a01b039091168152602001610256565b6102726102c2366004612769565b61074c565b6102da6102d5366004612795565b610862565b604051908152602001610256565b6102726102f63660046127d0565b6109d3565b610272610309366004612811565b610a04565b61027261031c366004612750565b610bc9565b61024a61032f366004612769565b600960209081526000928352604080842090915290825290205460ff1681565b60025461029c906001600160a01b031681565b6102726103703660046127d0565b610c98565b61029c610383366004612750565b610cb3565b6102726103963660046126c8565b610d2a565b6102726103a93660046129a2565b610d4b565b6102da6103bc3660046126c8565b610e03565b610272610e89565b6102da6103d73660046126c8565b600a6020526000908152604090205481565b60a4546001600160a01b031661029c565b61027c610ebf565b610272610410366004612af9565b610ece565b610272610ed9565b6102da60005481565b6102da60035481565b61027261043d366004612b2e565b610f01565b60015461029c906001600160a01b031681565b6102726104633660046126c8565b610f39565b61027c610476366004612750565b611010565b61027c6104893660046126c8565b611125565b61027261049c366004612750565b6111bf565b6104b46104af3660046126c8565b611223565b6040516102569190612bae565b6102726104cf3660046126c8565b6112e6565b6102726104e23660046126c8565b611332565b6102da6104f5366004612bf2565b6004602090815260009283526040909220815180830184018051928152908401929093019190912091525481565b610536610531366004612750565b61137e565b60405161025693929190612c42565b600b5461029c906001600160a01b031681565b61024a610566366004612c76565b611433565b6102726105793660046126c8565b611461565b60006001600160e01b031982166380ac58cd60e01b14806105af57506001600160e01b03198216635b5e139f60e01b145b806105ca57506301ffc9a760e01b6001600160e01b03198316145b92915050565b60a4546001600160a01b031633146106035760405162461bcd60e51b81526004016105fa90612caf565b60405180910390fd5b600180546001600160a01b0319166001600160a01b0392909216919091179055565b60606072805461063490612ce4565b80601f016020809104026020016040519081016040528092919081815260200182805461066090612ce4565b80156106ad5780601f10610682576101008083540402835291602001916106ad565b820191906000526020600020905b81548152906001019060200180831161069057829003601f168201915b5050505050905090565b6000818152607460205260408120546001600160a01b03166107305760405162461bcd60e51b815260206004820152602c60248201527f4552433732313a20617070726f76656420717565727920666f72206e6f6e657860448201526b34b9ba32b73a103a37b5b2b760a11b60648201526084016105fa565b506000908152607660205260409020546001600160a01b031690565b600061075782610cb3565b9050806001600160a01b0316836001600160a01b031614156107c55760405162461bcd60e51b815260206004820152602160248201527f4552433732313a20617070726f76616c20746f2063757272656e74206f776e656044820152603960f91b60648201526084016105fa565b336001600160a01b03821614806107e157506107e18133611433565b6108535760405162461bcd60e51b815260206004820152603860248201527f4552433732313a20617070726f76652063616c6c6572206973206e6f74206f7760448201527f6e6572206e6f7220617070726f76656420666f7220616c6c000000000000000060648201526084016105fa565b61085d83836114f9565b505050565b60a4546000906001600160a01b0316331461088f5760405162461bcd60e51b81526004016105fa90612caf565b5060078054600101908190556040805160608101909152806108b460208501856126c8565b6001600160a01b031681526020018380602001906108d29190612d1f565b8080601f0160208091040260200160405190810160405280939291908181526020018383808284376000920182905250938552505050604085810135602093840152848252600883529020825181546001600160a01b0319166001600160a01b03909116178155828201518051919261095392600185019290910190612568565b506040820151816002015590505061096c600582611567565b5061097a60208301836126c8565b6001600160a01b0316817f1384d702228ebaf17be8c404a8106715f68a1c09f3944a997d13dd7838a12d6e6109b26020860186612d1f565b86604001356040516109c693929190612d6d565b60405180910390a3919050565b6109dd3382611573565b6109f95760405162461bcd60e51b81526004016105fa90612da6565b61085d83838361164a565b6001546001600160a01b03163314610a845760405162461bcd60e51b815260206004820152603d60248201527f4261636b6564436f6d6d756e697479546f6b656e56313a2063616c6c6572206d60448201527f7573742062652063726f737320646f6d61696e206d657373656e67657200000060648201526084016105fa565b600b5460015460408051636e296e4560e01b815290516001600160a01b039384169390921691636e296e45916004808201926020929091908290030181865afa158015610ad5573d6000803e3d6000fd5b505050506040513d601f19601f82011682018060405250810190610af99190612df7565b6001600160a01b031614610b695760405162461bcd60e51b815260206004820152603160248201527f4261636b6564436f6d6d756e697479546f6b656e56313a206f726967696e206d6044820152700757374206265204261636b65642050465607c1b60648201526084016105fa565b6001600160a01b0384166000908152600c60205260409020610b8c9084846125ec565b5060405181906001600160a01b038616907f636b0e6ea24f7b2a58c337ff69d8744756d9b166bb29fdb31b21cc126e535ad190600090a350505050565b336000818152600a602052604090205490610be490836116f1565b610c565760405162461bcd60e51b815260206004820152603760248201527f4261636b6564436f6d6d756e697479546f6b656e56313a2075736572206e6f7460448201527f20656c696769626c6520666f72206163636573736f727900000000000000000060648201526084016105fa565b336000818152600a6020526040808220859055518492849290917fea1b1f91e87d6596dd266ab28a1e2231755992988caaafc59ed42f2331d41e8c9190a45050565b61085d83838360405180602001604052806000815250610f01565b6000818152607460205260408120546001600160a01b0316806105ca5760405162461bcd60e51b815260206004820152602960248201527f4552433732313a206f776e657220717565727920666f72206e6f6e657869737460448201526832b73a103a37b5b2b760b91b60648201526084016105fa565b60008054610d489183919080610d3f83612e2a565b9190505561185d565b50565b60a4546001600160a01b03163314610d755760405162461bcd60e51b81526004016105fa90612caf565b60005b8151811015610dff57818181518110610d9357610d93612e45565b60200260200101516000015115610dcb57610dc6828281518110610db957610db9612e45565b602002602001015161188f565b610ded565b610ded828281518110610de057610de0612e45565b6020026020010151611a62565b80610df781612e2a565b915050610d78565b5050565b60006001600160a01b038216610e6d5760405162461bcd60e51b815260206004820152602960248201527f4552433732313a2061646472657373207a65726f206973206e6f7420612076616044820152683634b21037bbb732b960b91b60648201526084016105fa565b506001600160a01b031660009081526075602052604090205490565b60a4546001600160a01b03163314610eb35760405162461bcd60e51b81526004016105fa90612caf565b610ebd6000611c2f565b565b60606073805461063490612ce4565b610dff338383611c81565b6040805160208082018084526000808452338152600c9092529290209051610d489290612568565b610f0b3383611573565b610f275760405162461bcd60e51b81526004016105fa90612da6565b610f3384848484611d50565b50505050565b6000610f456001611d83565b90508015610f5d57600d805461ff0019166101001790555b610fac6040518060400160405280600f81526020016e4261636b6564436f6d6d756e69747960881b81525060405180604001604052806006815260200165109050d2d15160d21b815250611e12565b600280546001600160a01b0319166001600160a01b0384161790558015610dff57600d805461ff0019169055604051600181527f7f26b83ff96e1f2b6a682f133852f6798a09c465da95921460cefb38474024989060200160405180910390a15050565b6040516331a9108f60e11b8152600481018290526060906000903090636352211e90602401602060405180830381865afa158015611052573d6000803e3d6000fd5b505050506040513d601f19601f820116820180604052508101906110769190612df7565b6002546001600160a01b038083166000818152600a602090815260408083205483526008825280832054938352600c90915290819020905163045b0e1b60e01b81529495509282169363045b0e1b936110d9938993889391169190600401612e5b565b600060405180830381865afa1580156110f6573d6000803e3d6000fd5b505050506040513d6000823e601f3d908101601f1916820160405261111e9190810190612f29565b9392505050565b600c602052600090815260409020805461113e90612ce4565b80601f016020809104026020016040519081016040528092919081815260200182805461116a90612ce4565b80156111b75780601f1061118c576101008083540402835291602001916111b7565b820191906000526020600020905b81548152906001019060200180831161119a57829003601f168201915b505050505081565b60a4546001600160a01b031633146111e95760405162461bcd60e51b81526004016105fa90612caf565b6111f4600582611e4b565b5060405181907f5845360a59cc0a8e9af0431a2d71aac5647e34c91e50205d35e2ac656fa0f30a90600090a250565b606060006112316005611e57565b905060008167ffffffffffffffff81111561124e5761124e61289c565b604051908082528060200260200182016040528015611277578160200160208202803683370190505b50905060005b828110156112de5761129985611294600584611e61565b6116f1565b6112a45760006112af565b6112af600582611e61565b8282815181106112c1576112c1612e45565b6020908102919091010152806112d681612e2a565b91505061127d565b509392505050565b60a4546001600160a01b031633146113105760405162461bcd60e51b81526004016105fa90612caf565b600280546001600160a01b0319166001600160a01b0392909216919091179055565b60a4546001600160a01b0316331461135c5760405162461bcd60e51b81526004016105fa90612caf565b600b80546001600160a01b0319166001600160a01b0392909216919091179055565b600860205260009081526040902080546001820180546001600160a01b0390921692916113aa90612ce4565b80601f01602080910402602001604051908101604052809291908181526020018280546113d690612ce4565b80156114235780601f106113f857610100808354040283529160200191611423565b820191906000526020600020905b81548152906001019060200180831161140657829003601f168201915b5050505050908060020154905083565b6001600160a01b03918216600090815260776020908152604080832093909416825291909152205460ff1690565b60a4546001600160a01b0316331461148b5760405162461bcd60e51b81526004016105fa90612caf565b6001600160a01b0381166114f05760405162461bcd60e51b815260206004820152602660248201527f4f776e61626c653a206e6577206f776e657220697320746865207a65726f206160448201526564647265737360d01b60648201526084016105fa565b610d4881611c2f565b600081815260766020526040902080546001600160a01b0319166001600160a01b038416908117909155819061152e82610cb3565b6001600160a01b03167f8c5be1e5ebec7d5bd14f71427d1e84f3dd0314c0f7b2291e5b200ac8c7c3b92560405160405180910390a45050565b600061111e8383611e6d565b6000818152607460205260408120546001600160a01b03166115ec5760405162461bcd60e51b815260206004820152602c60248201527f4552433732313a206f70657261746f7220717565727920666f72206e6f6e657860448201526b34b9ba32b73a103a37b5b2b760a11b60648201526084016105fa565b60006115f783610cb3565b9050806001600160a01b0316846001600160a01b0316148061161e575061161e8185611433565b806116425750836001600160a01b0316611637846106b7565b6001600160a01b0316145b949350505050565b60a4546001600160a01b031633146116be5760405162461bcd60e51b815260206004820152603160248201527f455243373231536f756c626f756e643a206f6e6c7920636f6e7472616374206f6044820152703bb732b91031b0b7103a3930b739b332b960791b60648201526084016105fa565b60016116c983610e03565b106116e65760405162461bcd60e51b81526004016105fa90612fa0565b61085d838383611ebc565b600081611700575060016105ca565b600082815260086020908152604080832081516060810190925280546001600160a01b03168252600181018054929391929184019161173e90612ce4565b80601f016020809104026020016040519081016040528092919081815260200182805461176a90612ce4565b80156117b75780601f1061178c576101008083540402835291602001916117b7565b820191906000526020600020905b81548152906001019060200180831161179a57829003601f168201915b5050505050815260200160028201548152505090506117d583612058565b156118085750506001600160a01b038216600090815260096020908152604080832084845290915290205460ff166105ca565b806040015160046000866001600160a01b03166001600160a01b0316815260200190815260200160002082602001516040516118449190612fe7565b90815260200160405180910390205410159150506105ca565b600161186883610e03565b106118855760405162461bcd60e51b81526004016105fa90612fa0565b610dff828261212d565b6020808201516001600160a01b031660009081526004909152604080822081840151915190916118be91612fe7565b9081526020016040518091039020549050600082608001516004600085602001516001600160a01b03166001600160a01b0316815260200190815260200160002084604001516040516119119190612fe7565b90815260200160405180910390205461192a9190613003565b905060008112156119925760405162461bcd60e51b815260206004820152602c60248201527f4261636b6564436f6d6d756e697479546f6b656e56313a2058502063616e6e6f60448201526b07420676f2062656c6f7720360a41b60648201526084016105fa565b6020808401516001600160a01b03166000908152600490915260409081902081850151915183926119c291612fe7565b90815260200160405180910390208190555082602001516001600160a01b03167f9ef5bdac21c0b2ea1e3f6bb8f97d9da60f47f64a6b092f1e97f5f8f058bfbd728460a001518560400151848688602001518960400151888a604051602001611a2e9493929190613044565b60405160208183030381529060405280519060200120604051611a5595949392919061307b565b60405180910390a2505050565b60608101516000908152600860205260409020546001600160a01b0316611ae45760405162461bcd60e51b815260206004820152603060248201527f4261636b6564436f6d6d756e697479546f6b656e56313a204163636573736f7260448201526f1e48191bd95cc81b9bdd08195e1a5cdd60821b60648201526084016105fa565b611af18160600151612058565b611b5b5760405162461bcd60e51b815260206004820152603560248201527f4261636b6564436f6d6d756e697479546f6b656e56313a204163636573736f726044820152741e481b5d5cdd0818994818591b5a5b8818985cd959605a1b60648201526084016105fa565b608081015160001280611b6f576000611b72565b60015b602083810180516001600160a01b0390811660009081526009845260408082206060808a018051855291875292829020805460ff1916971515979097179096559451925160a08801518651919093169481018590529485018390528515159085015290927f9585125add627de8c748eef8bbf87fd4d943068f750d41b4657804c42163b00f9190859060800160405160208183030381529060405280519060200120604051611c23939291906130be565b60405180910390a35050565b60a480546001600160a01b038381166001600160a01b0319831681179093556040519116919082907f8be0079c531659141344cd1fd0a4f28419497f9722a3daafe3b4186f6b6457e090600090a35050565b816001600160a01b0316836001600160a01b03161415611ce35760405162461bcd60e51b815260206004820152601960248201527f4552433732313a20617070726f766520746f2063616c6c65720000000000000060448201526064016105fa565b6001600160a01b03838116600081815260776020908152604080832094871680845294825291829020805460ff191686151590811790915591519182527f17307eab39ab6107e8899845ad3d59bd9653f200f220920489ca2b5937696c31910160405180910390a3505050565b611d5b84848461164a565b611d678484848461226f565b610f335760405162461bcd60e51b81526004016105fa906130e3565b600d54600090610100900460ff1615611dcc578160ff166001148015611da85750303b155b611dc45760405162461bcd60e51b81526004016105fa90613135565b506000919050565b600d5460ff808416911610611df35760405162461bcd60e51b81526004016105fa90613135565b50600d805460ff191660ff92909216919091179055600190565b919050565b600d54610100900460ff16611e395760405162461bcd60e51b81526004016105fa90613183565b611e43828261236d565b610dff61239e565b600061111e83836123cd565b60006105ca825490565b600061111e83836124c0565b6000818152600183016020526040812054611eb4575081546001818101845560008481526020808220909301849055845484825282860190935260409020919091556105ca565b5060006105ca565b826001600160a01b0316611ecf82610cb3565b6001600160a01b031614611f335760405162461bcd60e51b815260206004820152602560248201527f4552433732313a207472616e736665722066726f6d20696e636f72726563742060448201526437bbb732b960d91b60648201526084016105fa565b6001600160a01b038216611f955760405162461bcd60e51b8152602060048201526024808201527f4552433732313a207472616e7366657220746f20746865207a65726f206164646044820152637265737360e01b60648201526084016105fa565b611fa06000826114f9565b6001600160a01b0383166000908152607560205260408120805460019290611fc99084906131ce565b90915550506001600160a01b0382166000908152607560205260408120805460019290611ff79084906131e5565b909155505060008181526074602052604080822080546001600160a01b0319166001600160a01b0386811691821790925591518493918716917fddf252ad1be2c89b69c2b068fc378daa952ba7f163c4a11628f55a4df523b3ef91a4505050565b600081815260086020908152604080832081516060810190925280546001600160a01b0316825260018101805485948401919061209490612ce4565b80601f01602080910402602001604051908101604052809291908181526020018280546120c090612ce4565b801561210d5780601f106120e25761010080835404028352916020019161210d565b820191906000526020600020905b8154815290600101906020018083116120f057829003601f168201915b505050918352505060029190910154602091820152015151159392505050565b6001600160a01b0382166121835760405162461bcd60e51b815260206004820181905260248201527f4552433732313a206d696e7420746f20746865207a65726f206164647265737360448201526064016105fa565b6000818152607460205260409020546001600160a01b0316156121e85760405162461bcd60e51b815260206004820152601c60248201527f4552433732313a20746f6b656e20616c7265616479206d696e7465640000000060448201526064016105fa565b6001600160a01b03821660009081526075602052604081208054600192906122119084906131e5565b909155505060008181526074602052604080822080546001600160a01b0319166001600160a01b03861690811790915590518392907fddf252ad1be2c89b69c2b068fc378daa952ba7f163c4a11628f55a4df523b3ef908290a45050565b60006001600160a01b0384163b1561236257604051630a85bd0160e11b81526001600160a01b0385169063150b7a02906122b39033908990889088906004016131fd565b6020604051808303816000875af19250505080156122ee575060408051601f3d908101601f191682019092526122eb9181019061323a565b60015b612348573d80801561231c576040519150601f19603f3d011682016040523d82523d6000602084013e612321565b606091505b5080516123405760405162461bcd60e51b81526004016105fa906130e3565b805181602001fd5b6001600160e01b031916630a85bd0160e11b149050611642565b506001949350505050565b600d54610100900460ff166123945760405162461bcd60e51b81526004016105fa90613183565b610dff82826124ea565b600d54610100900460ff166123c55760405162461bcd60e51b81526004016105fa90613183565b610ebd612538565b600081815260018301602052604081205480156124b65760006123f16001836131ce565b8554909150600090612405906001906131ce565b905081811461246a57600086600001828154811061242557612425612e45565b906000526020600020015490508087600001848154811061244857612448612e45565b6000918252602080832090910192909255918252600188019052604090208390555b855486908061247b5761247b613257565b6001900381819060005260206000200160009055905585600101600086815260200190815260200160002060009055600193505050506105ca565b60009150506105ca565b60008260000182815481106124d7576124d7612e45565b9060005260206000200154905092915050565b600d54610100900460ff166125115760405162461bcd60e51b81526004016105fa90613183565b8151612524906072906020850190612568565b50805161085d906073906020840190612568565b600d54610100900460ff1661255f5760405162461bcd60e51b81526004016105fa90613183565b610ebd33611c2f565b82805461257490612ce4565b90600052602060002090601f01602090048101928261259657600085556125dc565b82601f106125af57805160ff19168380011785556125dc565b828001600101855582156125dc579182015b828111156125dc5782518255916020019190600101906125c1565b506125e8929150612660565b5090565b8280546125f890612ce4565b90600052602060002090601f01602090048101928261261a57600085556125dc565b82601f106126335782800160ff198235161785556125dc565b828001600101855582156125dc579182015b828111156125dc578235825591602001919060010190612645565b5b808211156125e85760008155600101612661565b6001600160e01b031981168114610d4857600080fd5b60006020828403121561269d57600080fd5b813561111e81612675565b6001600160a01b0381168114610d4857600080fd5b8035611e0d816126a8565b6000602082840312156126da57600080fd5b813561111e816126a8565b60005b838110156127005781810151838201526020016126e8565b83811115610f335750506000910152565b600081518084526127298160208601602086016126e5565b601f01601f19169290920160200192915050565b60208152600061111e6020830184612711565b60006020828403121561276257600080fd5b5035919050565b6000806040838503121561277c57600080fd5b8235612787816126a8565b946020939093013593505050565b6000602082840312156127a757600080fd5b813567ffffffffffffffff8111156127be57600080fd5b82016060818503121561111e57600080fd5b6000806000606084860312156127e557600080fd5b83356127f0816126a8565b92506020840135612800816126a8565b929592945050506040919091013590565b6000806000806060858703121561282757600080fd5b8435612832816126a8565b9350602085013567ffffffffffffffff8082111561284f57600080fd5b818701915087601f83011261286357600080fd5b81358181111561287257600080fd5b88602082850101111561288457600080fd5b95986020929092019750949560400135945092505050565b634e487b7160e01b600052604160045260246000fd5b60405160c0810167ffffffffffffffff811182821017156128d5576128d561289c565b60405290565b604051601f8201601f1916810167ffffffffffffffff811182821017156129045761290461289c565b604052919050565b80358015158114611e0d57600080fd5b600067ffffffffffffffff8211156129365761293661289c565b50601f01601f191660200190565b60006129576129528461291c565b6128db565b905082815283838301111561296b57600080fd5b828260208301376000602084830101529392505050565b600082601f83011261299357600080fd5b61111e83833560208501612944565b600060208083850312156129b557600080fd5b823567ffffffffffffffff808211156129cd57600080fd5b818501915085601f8301126129e157600080fd5b8135818111156129f3576129f361289c565b8060051b612a028582016128db565b9182528381018501918581019089841115612a1c57600080fd5b86860192505b83831015612aec57823585811115612a3957600080fd5b860160c0818c03601f19011215612a505760008081fd5b612a586128b2565b612a6389830161290c565b81526040612a728184016126bd565b8a83015260608084013589811115612a8a5760008081fd5b612a988f8d83880101612982565b83850152506080915081840135818401525060a0808401358284015260c0840135915088821115612ac95760008081fd5b612ad78e8c84870101612982565b90830152508352509186019190860190612a22565b9998505050505050505050565b60008060408385031215612b0c57600080fd5b8235612b17816126a8565b9150612b256020840161290c565b90509250929050565b60008060008060808587031215612b4457600080fd5b8435612b4f816126a8565b93506020850135612b5f816126a8565b925060408501359150606085013567ffffffffffffffff811115612b8257600080fd5b8501601f81018713612b9357600080fd5b612ba287823560208401612944565b91505092959194509250565b6020808252825182820181905260009190848201906040850190845b81811015612be657835183529284019291840191600101612bca565b50909695505050505050565b60008060408385031215612c0557600080fd5b8235612c10816126a8565b9150602083013567ffffffffffffffff811115612c2c57600080fd5b612c3885828601612982565b9150509250929050565b6001600160a01b0384168152606060208201819052600090612c6690830185612711565b9050826040830152949350505050565b60008060408385031215612c8957600080fd5b8235612c94816126a8565b91506020830135612ca4816126a8565b809150509250929050565b6020808252818101527f4f776e61626c653a2063616c6c6572206973206e6f7420746865206f776e6572604082015260600190565b600181811c90821680612cf857607f821691505b60208210811415612d1957634e487b7160e01b600052602260045260246000fd5b50919050565b6000808335601e19843603018112612d3657600080fd5b83018035915067ffffffffffffffff821115612d5157600080fd5b602001915036819003821315612d6657600080fd5b9250929050565b604081528260408201528284606083013760006060848301015260006060601f19601f8601168301019050826020830152949350505050565b60208082526031908201527f4552433732313a207472616e736665722063616c6c6572206973206e6f74206f6040820152701ddb995c881b9bdc88185c1c1c9bdd9959607a1b606082015260800190565b600060208284031215612e0957600080fd5b815161111e816126a8565b634e487b7160e01b600052601160045260246000fd5b6000600019821415612e3e57612e3e612e14565b5060010190565b634e487b7160e01b600052603260045260246000fd5b8481526001600160a01b038481166020808401919091529084166040830152608060608301528254600091908290600181811c9082811680612e9e57607f831692505b858310811415612ebc57634e487b7160e01b85526022600452602485fd5b6080880183905260a08801818015612edb5760018114612eec57612f17565b60ff19861682528782019650612f17565b60008b81526020902060005b86811015612f1157815484820152908501908901612ef8565b83019750505b50949c9b505050505050505050505050565b600060208284031215612f3b57600080fd5b815167ffffffffffffffff811115612f5257600080fd5b8201601f81018413612f6357600080fd5b8051612f716129528261291c565b818152856020838501011115612f8657600080fd5b612f978260208301602086016126e5565b95945050505050565b60208082526027908201527f455243373231536f756c626f756e643a2063616e6e6f74206f776e206d6f7265604082015266207468616e203160c81b606082015260800190565b60008251612ff98184602087016126e5565b9190910192915050565b600080821280156001600160ff1b038490038513161561302557613025612e14565b600160ff1b839003841281161561303e5761303e612e14565b50500190565b6001600160a01b038516815260806020820181905260009061306890830186612711565b6040830194909452506060015292915050565b60a08152600061308e60a0830188612711565b82810360208401526130a08188612711565b60408401969096525050606081019290925260809091015292915050565b6060815260006130d16060830186612711565b93151560208301525060400152919050565b60208082526032908201527f4552433732313a207472616e7366657220746f206e6f6e20455243373231526560408201527131b2b4bb32b91034b6b83632b6b2b73a32b960711b606082015260800190565b6020808252602e908201527f496e697469616c697a61626c653a20636f6e747261637420697320616c72656160408201526d191e481a5b9a5d1a585b1a5e995960921b606082015260800190565b6020808252602b908201527f496e697469616c697a61626c653a20636f6e7472616374206973206e6f74206960408201526a6e697469616c697a696e6760a81b606082015260800190565b6000828210156131e0576131e0612e14565b500390565b600082198211156131f8576131f8612e14565b500190565b6001600160a01b038581168252841660208201526040810183905260806060820181905260009061323090830184612711565b9695505050505050565b60006020828403121561324c57600080fd5b815161111e81612675565b634e487b7160e01b600052603160045260246000fdfea2646970667358221220548e5e4d3649751af05cfe9f5ba053e3e343f26b98ae71d26555f3c637bdfa1c64736f6c634300080c0033",
    "linkReferences": {}
  },
  "methodIdentifiers": {
    "accessoryIdToAccessory(uint256)": "db8a06cf",
    "addAccessory((address,string,uint256))": "1ab87a44",
    "addressToAccessoryEnabled(address)": "7473660a",
    "addressToAccessoryUnlocked(address,uint256)": "2fdaa490",
    "addressToCategoryScore(address,string)": "da2fd4cb",
    "addressToPFPSVGLink(address)": "cb19a1d6",
    "approve(address,uint256)": "095ea7b3",
    "balanceOf(address)": "70a08231",
    "bunnyPFPContractAddress()": "dfcf2cf8",
    "cdmAddr()": "c17c7faa",
    "changeAccessoryLockOrCategoryScore((bool,address,string,uint256,int256,string)[])": "6e8b3b47",
    "clearBunnyPFPLink()": "aa416e54",
    "descriptor()": "303e74df",
    "getApproved(uint256)": "081812fc",
    "getUnlockedAccessoriesForAddress(address)": "d1c5df07",
    "initialize(address)": "c4d66de8",
    "isApprovedForAll(address,address)": "e985e9c5",
    "mint(address)": "6a627842",
    "name()": "06fdde03",
    "nonce()": "affed0e0",
    "owner()": "8da5cb5b",
    "ownerOf(uint256)": "6352211e",
    "removeAccessory(uint256)": "cdb16e00",
    "renounceOwnership()": "715018a6",
    "safeTransferFrom(address,address,uint256)": "42842e0e",
    "safeTransferFrom(address,address,uint256,bytes)": "b88d4fde",
    "setApprovalForAll(address,bool)": "a22cb465",
    "setBunnyPFPContract(address)": "d4f353c0",
    "setBunnyPFPSVGFromL1(address,string,uint256)": "2427061d",
    "setDescriptorContract(address)": "d37825b2",
    "setEnabledAccessory(uint256)": "2f2aa210",
    "setOptimismCrossChainMessengerAddress(address)": "0303348f",
    "supportsInterface(bytes4)": "01ffc9a7",
    "symbol()": "95d89b41",
    "tokenURI(uint256)": "c87b56dd",
    "totalCategoryCount()": "b2b52ef1",
    "transferFrom(address,address,uint256)": "23b872dd",
    "transferOwnership(address)": "f2fde38b"
  },
  "id": 38
}