{
  "abi": [
    {
      "anonymous": false,
      "inputs": [
        {
          "indexed": true,
          "internalType": "address",
          "name": "addr",
          "type": "address"
        },
        {
          "indexed": true,
          "internalType": "uint256",
          "name": "oldAccessory",
          "type": "uint256"
        },
        {
          "indexed": true,
          "internalType": "uint256",
          "name": "newAccessory",
          "type": "uint256"
        }
      ],
      "name": "AccessorySwapped",
      "type": "event"
    },
    {
      "anonymous": false,
      "inputs": [
        {
          "indexed": true,
          "internalType": "address",
          "name": "addr",
          "type": "address"
        },
        {
          "indexed": true,
          "internalType": "uint256",
          "name": "accessoryId",
          "type": "uint256"
        },
        {
          "indexed": true,
          "internalType": "string",
          "name": "ipfsLink",
          "type": "string"
        }
      ],
      "name": "AccessoryUnlocked",
      "type": "event"
    },
    {
      "anonymous": false,
      "inputs": [
        {
          "indexed": true,
          "internalType": "address",
          "name": "owner",
          "type": "address"
        },
        {
          "indexed": true,
          "internalType": "address",
          "name": "approved",
          "type": "address"
        },
        {
          "indexed": true,
          "internalType": "uint256",
          "name": "tokenId",
          "type": "uint256"
        }
      ],
      "name": "Approval",
      "type": "event"
    },
    {
      "anonymous": false,
      "inputs": [
        {
          "indexed": true,
          "internalType": "address",
          "name": "owner",
          "type": "address"
        },
        {
          "indexed": true,
          "internalType": "address",
          "name": "operator",
          "type": "address"
        },
        {
          "indexed": false,
          "internalType": "bool",
          "name": "approved",
          "type": "bool"
        }
      ],
      "name": "ApprovalForAll",
      "type": "event"
    },
    {
      "anonymous": false,
      "inputs": [
        {
          "indexed": true,
          "internalType": "address",
          "name": "addr",
          "type": "address"
        },
        {
          "indexed": true,
          "internalType": "uint256",
          "name": "categoryId",
          "type": "uint256"
        },
        {
          "indexed": true,
          "internalType": "string",
          "name": "ipfsLink",
          "type": "string"
        },
        {
          "indexed": false,
          "internalType": "uint256",
          "name": "newScore",
          "type": "uint256"
        }
      ],
      "name": "CategoryScoreChanged",
      "type": "event"
    },
    {
      "anonymous": false,
      "inputs": [
        {
          "indexed": false,
          "internalType": "uint8",
          "name": "version",
          "type": "uint8"
        }
      ],
      "name": "Initialized",
      "type": "event"
    },
    {
      "anonymous": false,
      "inputs": [
        {
          "indexed": true,
          "internalType": "address",
          "name": "previousOwner",
          "type": "address"
        },
        {
          "indexed": true,
          "internalType": "address",
          "name": "newOwner",
          "type": "address"
        }
      ],
      "name": "OwnershipTransferred",
      "type": "event"
    },
    {
      "anonymous": false,
      "inputs": [
        {
          "indexed": true,
          "internalType": "address",
          "name": "from",
          "type": "address"
        },
        {
          "indexed": true,
          "internalType": "address",
          "name": "to",
          "type": "address"
        },
        {
          "indexed": true,
          "internalType": "uint256",
          "name": "tokenId",
          "type": "uint256"
        }
      ],
      "name": "Transfer",
      "type": "event"
    },
    {
      "inputs": [
        {
          "internalType": "uint256",
          "name": "",
          "type": "uint256"
        }
      ],
      "name": "accessoryIdToAccessory",
      "outputs": [
        {
          "internalType": "string",
          "name": "name",
          "type": "string"
        },
        {
          "internalType": "bool",
          "name": "xpBased",
          "type": "bool"
        },
        {
          "internalType": "address",
          "name": "artContract",
          "type": "address"
        },
        {
          "internalType": "uint256",
          "name": "qualifyingXPScore",
          "type": "uint256"
        },
        {
          "internalType": "uint256",
          "name": "xpCategory",
          "type": "uint256"
        }
      ],
      "stateMutability": "view",
      "type": "function"
    },
    {
      "inputs": [
        {
          "internalType": "string",
          "name": "displayName",
          "type": "string"
        }
      ],
      "name": "addCategory",
      "outputs": [],
      "stateMutability": "nonpayable",
      "type": "function"
    },
    {
      "inputs": [
        {
          "components": [
            {
              "internalType": "string",
              "name": "name",
              "type": "string"
            },
            {
              "internalType": "bool",
              "name": "xpBased",
              "type": "bool"
            },
            {
              "internalType": "address",
              "name": "artContract",
              "type": "address"
            },
            {
              "internalType": "uint256",
              "name": "qualifyingXPScore",
              "type": "uint256"
            },
            {
              "internalType": "uint256",
              "name": "xpCategory",
              "type": "uint256"
            }
          ],
          "internalType": "struct IBackedCommunityTokenV1.Accessory",
          "name": "accessory",
          "type": "tuple"
        }
      ],
      "name": "addSpecialAccessory",
      "outputs": [],
      "stateMutability": "nonpayable",
      "type": "function"
    },
    {
      "inputs": [
        {
          "internalType": "address",
          "name": "",
          "type": "address"
        }
      ],
      "name": "addressToAccessoryEnabled",
      "outputs": [
        {
          "internalType": "uint256",
          "name": "",
          "type": "uint256"
        }
      ],
      "stateMutability": "view",
      "type": "function"
    },
    {
      "inputs": [
        {
          "internalType": "address",
          "name": "",
          "type": "address"
        },
        {
          "internalType": "uint256",
          "name": "",
          "type": "uint256"
        }
      ],
      "name": "addressToAccessoryUnlocked",
      "outputs": [
        {
          "internalType": "bool",
          "name": "",
          "type": "bool"
        }
      ],
      "stateMutability": "view",
      "type": "function"
    },
    {
      "inputs": [
        {
          "internalType": "address",
          "name": "",
          "type": "address"
        },
        {
          "internalType": "uint256",
          "name": "",
          "type": "uint256"
        }
      ],
      "name": "addressToCategoryScore",
      "outputs": [
        {
          "internalType": "uint256",
          "name": "",
          "type": "uint256"
        }
      ],
      "stateMutability": "view",
      "type": "function"
    },
    {
      "inputs": [
        {
          "internalType": "address",
          "name": "",
          "type": "address"
        }
      ],
      "name": "addressToPFPSVGLink",
      "outputs": [
        {
          "internalType": "string",
          "name": "",
          "type": "string"
        }
      ],
      "stateMutability": "view",
      "type": "function"
    },
    {
      "inputs": [
        {
          "internalType": "address",
          "name": "to",
          "type": "address"
        },
        {
          "internalType": "uint256",
          "name": "tokenId",
          "type": "uint256"
        }
      ],
      "name": "approve",
      "outputs": [],
      "stateMutability": "nonpayable",
      "type": "function"
    },
    {
      "inputs": [
        {
          "internalType": "address",
          "name": "owner",
          "type": "address"
        }
      ],
      "name": "balanceOf",
      "outputs": [
        {
          "internalType": "uint256",
          "name": "",
          "type": "uint256"
        }
      ],
      "stateMutability": "view",
      "type": "function"
    },
    {
      "inputs": [],
      "name": "bunnyPFPContractAddress",
      "outputs": [
        {
          "internalType": "address",
          "name": "",
          "type": "address"
        }
      ],
      "stateMutability": "view",
      "type": "function"
    },
    {
      "inputs": [
        {
          "internalType": "uint256",
          "name": "",
          "type": "uint256"
        }
      ],
      "name": "categoryIdToDisplayName",
      "outputs": [
        {
          "internalType": "string",
          "name": "",
          "type": "string"
        }
      ],
      "stateMutability": "view",
      "type": "function"
    },
    {
      "inputs": [],
      "name": "cdmAddr",
      "outputs": [
        {
          "internalType": "address",
          "name": "",
          "type": "address"
        }
      ],
      "stateMutability": "view",
      "type": "function"
    },
    {
      "inputs": [],
      "name": "clearBunnyPFPLink",
      "outputs": [],
      "stateMutability": "nonpayable",
      "type": "function"
    },
    {
      "inputs": [],
      "name": "descriptor",
      "outputs": [
        {
          "internalType": "contract IBackedCommunityTokenDescriptorV1",
          "name": "",
          "type": "address"
        }
      ],
      "stateMutability": "view",
      "type": "function"
    },
    {
      "inputs": [
        {
          "internalType": "uint256",
          "name": "tokenId",
          "type": "uint256"
        }
      ],
      "name": "getApproved",
      "outputs": [
        {
          "internalType": "address",
          "name": "",
          "type": "address"
        }
      ],
      "stateMutability": "view",
      "type": "function"
    },
    {
      "inputs": [
        {
          "internalType": "address",
          "name": "addr",
          "type": "address"
        }
      ],
      "name": "getUnlockedAccessoriesForAddress",
      "outputs": [
        {
          "internalType": "int256[]",
          "name": "",
          "type": "int256[]"
        }
      ],
      "stateMutability": "view",
      "type": "function"
    },
    {
      "inputs": [
        {
          "internalType": "address",
          "name": "_descriptorAddress",
          "type": "address"
        }
      ],
      "name": "initialize",
      "outputs": [],
      "stateMutability": "nonpayable",
      "type": "function"
    },
    {
      "inputs": [
        {
          "internalType": "address",
          "name": "owner",
          "type": "address"
        },
        {
          "internalType": "address",
          "name": "operator",
          "type": "address"
        }
      ],
      "name": "isApprovedForAll",
      "outputs": [
        {
          "internalType": "bool",
          "name": "",
          "type": "bool"
        }
      ],
      "stateMutability": "view",
      "type": "function"
    },
    {
      "inputs": [
        {
          "internalType": "address",
          "name": "mintTo",
          "type": "address"
        }
      ],
      "name": "mint",
      "outputs": [],
      "stateMutability": "nonpayable",
      "type": "function"
    },
    {
      "inputs": [],
      "name": "name",
      "outputs": [
        {
          "internalType": "string",
          "name": "",
          "type": "string"
        }
      ],
      "stateMutability": "view",
      "type": "function"
    },
    {
      "inputs": [],
      "name": "nonce",
      "outputs": [
        {
          "internalType": "uint256",
          "name": "",
          "type": "uint256"
        }
      ],
      "stateMutability": "view",
      "type": "function"
    },
    {
      "inputs": [
        {
          "internalType": "uint256",
          "name": "accessoryId",
          "type": "uint256"
        },
        {
          "components": [
            {
              "internalType": "string",
              "name": "name",
              "type": "string"
            },
            {
              "internalType": "bool",
              "name": "xpBased",
              "type": "bool"
            },
            {
              "internalType": "address",
              "name": "artContract",
              "type": "address"
            },
            {
              "internalType": "uint256",
              "name": "qualifyingXPScore",
              "type": "uint256"
            },
            {
              "internalType": "uint256",
              "name": "xpCategory",
              "type": "uint256"
            }
          ],
          "internalType": "struct IBackedCommunityTokenV1.Accessory",
          "name": "accessory",
          "type": "tuple"
        }
      ],
      "name": "overrideSpecialAccessory",
      "outputs": [],
      "stateMutability": "nonpayable",
      "type": "function"
    },
    {
      "inputs": [],
      "name": "owner",
      "outputs": [
        {
          "internalType": "address",
          "name": "",
          "type": "address"
        }
      ],
      "stateMutability": "view",
      "type": "function"
    },
    {
      "inputs": [
        {
          "internalType": "uint256",
          "name": "tokenId",
          "type": "uint256"
        }
      ],
      "name": "ownerOf",
      "outputs": [
        {
          "internalType": "address",
          "name": "",
          "type": "address"
        }
      ],
      "stateMutability": "view",
      "type": "function"
    },
    {
      "inputs": [],
      "name": "renounceOwnership",
      "outputs": [],
      "stateMutability": "nonpayable",
      "type": "function"
    },
    {
      "inputs": [
        {
          "internalType": "address",
          "name": "from",
          "type": "address"
        },
        {
          "internalType": "address",
          "name": "to",
          "type": "address"
        },
        {
          "internalType": "uint256",
          "name": "tokenId",
          "type": "uint256"
        }
      ],
      "name": "safeTransferFrom",
      "outputs": [],
      "stateMutability": "nonpayable",
      "type": "function"
    },
    {
      "inputs": [
        {
          "internalType": "address",
          "name": "from",
          "type": "address"
        },
        {
          "internalType": "address",
          "name": "to",
          "type": "address"
        },
        {
          "internalType": "uint256",
          "name": "tokenId",
          "type": "uint256"
        },
        {
          "internalType": "bytes",
          "name": "_data",
          "type": "bytes"
        }
      ],
      "name": "safeTransferFrom",
      "outputs": [],
      "stateMutability": "nonpayable",
      "type": "function"
    },
    {
      "inputs": [
        {
          "internalType": "address",
          "name": "operator",
          "type": "address"
        },
        {
          "internalType": "bool",
          "name": "approved",
          "type": "bool"
        }
      ],
      "name": "setApprovalForAll",
      "outputs": [],
      "stateMutability": "nonpayable",
      "type": "function"
    },
    {
      "inputs": [
        {
          "internalType": "address",
          "name": "addr",
          "type": "address"
        }
      ],
      "name": "setBunnyPFPContract",
      "outputs": [],
      "stateMutability": "nonpayable",
      "type": "function"
    },
    {
      "inputs": [
        {
          "internalType": "bytes",
          "name": "message",
          "type": "bytes"
        }
      ],
      "name": "setBunnyPFPSVGFromL1",
      "outputs": [],
      "stateMutability": "nonpayable",
      "type": "function"
    },
    {
      "inputs": [
        {
          "internalType": "address",
          "name": "addr",
          "type": "address"
        }
      ],
      "name": "setDescriptorContract",
      "outputs": [],
      "stateMutability": "nonpayable",
      "type": "function"
    },
    {
      "inputs": [
        {
          "internalType": "uint256",
          "name": "accessoryId",
          "type": "uint256"
        }
      ],
      "name": "setEnabledAccessory",
      "outputs": [],
      "stateMutability": "nonpayable",
      "type": "function"
    },
    {
      "inputs": [
        {
          "internalType": "address",
          "name": "addr",
          "type": "address"
        }
      ],
      "name": "setOptimismCrossChainMessengerAddress",
      "outputs": [],
      "stateMutability": "nonpayable",
      "type": "function"
    },
    {
      "inputs": [
        {
          "internalType": "bytes4",
          "name": "interfaceId",
          "type": "bytes4"
        }
      ],
      "name": "supportsInterface",
      "outputs": [
        {
          "internalType": "bool",
          "name": "",
          "type": "bool"
        }
      ],
      "stateMutability": "view",
      "type": "function"
    },
    {
      "inputs": [],
      "name": "symbol",
      "outputs": [
        {
          "internalType": "string",
          "name": "",
          "type": "string"
        }
      ],
      "stateMutability": "view",
      "type": "function"
    },
    {
      "inputs": [
        {
          "internalType": "uint256",
          "name": "tokenId",
          "type": "uint256"
        }
      ],
      "name": "tokenURI",
      "outputs": [
        {
          "internalType": "string",
          "name": "",
          "type": "string"
        }
      ],
      "stateMutability": "view",
      "type": "function"
    },
    {
      "inputs": [],
      "name": "totalCategoryCount",
      "outputs": [
        {
          "internalType": "uint256",
          "name": "",
          "type": "uint256"
        }
      ],
      "stateMutability": "view",
      "type": "function"
    },
    {
      "inputs": [],
      "name": "totalSpecialyAccessoryCount",
      "outputs": [
        {
          "internalType": "uint256",
          "name": "",
          "type": "uint256"
        }
      ],
      "stateMutability": "view",
      "type": "function"
    },
    {
      "inputs": [
        {
          "internalType": "address",
          "name": "from",
          "type": "address"
        },
        {
          "internalType": "address",
          "name": "to",
          "type": "address"
        },
        {
          "internalType": "uint256",
          "name": "tokenId",
          "type": "uint256"
        }
      ],
      "name": "transferFrom",
      "outputs": [],
      "stateMutability": "nonpayable",
      "type": "function"
    },
    {
      "inputs": [
        {
          "internalType": "address",
          "name": "newOwner",
          "type": "address"
        }
      ],
      "name": "transferOwnership",
      "outputs": [],
      "stateMutability": "nonpayable",
      "type": "function"
    },
    {
      "inputs": [
        {
          "components": [
            {
              "internalType": "bool",
              "name": "isCategoryChange",
              "type": "bool"
            },
            {
              "internalType": "address",
              "name": "addr",
              "type": "address"
            },
            {
              "internalType": "uint256",
              "name": "changeableId",
              "type": "uint256"
            },
            {
              "internalType": "string",
              "name": "ipfsLink",
              "type": "string"
            }
          ],
          "internalType": "struct IBackedCommunityTokenV1.CategoryOrAccessoryChange[]",
          "name": "changes",
          "type": "tuple[]"
        }
      ],
      "name": "unlockAccessoryOrIncrementCategory",
      "outputs": [],
      "stateMutability": "nonpayable",
      "type": "function"
    }
  ],
  "bytecode": {
    "object": "0x6080604052600160065534801561001557600080fd5b50612fd2806100256000396000f3fe608060405234801561001057600080fd5b50600436106102535760003560e01c80637473660a11610146578063c17c7faa116100c3578063d37825b211610087578063d37825b21461053c578063d4f353c01461054f578063db8a06cf14610562578063dfcf2cf814610586578063e985e9c514610599578063f2fde38b146105ac57600080fd5b8063c17c7faa146104d0578063c4d66de8146104e3578063c87b56dd146104f6578063cb19a1d614610509578063d1c5df071461051c57600080fd5b8063a22cb4651161010a578063a22cb46514610490578063aa416e54146104a3578063affed0e0146104ab578063b2b52ef1146104b4578063b88d4fde146104bd57600080fd5b80637473660a146104235780638da5cb5b14610443578063904b65d914610454578063957a27541461045d57806395d89b411461048857600080fd5b80632fdaa490116101d45780634c0332a5116101985780634c0332a5146103c15780636352211e146103d45780636a627842146103e757806370a08231146103fa578063715018a61461041b57600080fd5b80632fdaa49014610347578063303e74df146103755780633ed0b70e1461038857806342842e0e1461039b5780634b26bbff146103ae57600080fd5b80631050c3561161021b5780631050c356146102e85780631073ce33146102fb57806323b872dd1461030e5780632e0dcbf7146103215780632f2aa2101461033457600080fd5b806301ffc9a7146102585780630303348f1461028057806306fdde0314610295578063081812fc146102aa578063095ea7b3146102d5575b600080fd5b61026b610266366004612485565b6105bf565b60405190151581526020015b60405180910390f35b61029361028e3660046124be565b610611565b005b61029d610666565b6040516102779190612533565b6102bd6102b8366004612546565b6106f8565b6040516001600160a01b039091168152602001610277565b6102936102e336600461255f565b61078d565b6102936102f636600461268e565b6108a3565b610293610309366004612853565b61095b565b61029361031c366004612887565b610a67565b61029361032f3660046128c8565b610a98565b610293610342366004612546565b610afd565b61026b61035536600461255f565b600860209081526000928352604080842090915290825290205460ff1681565b6002546102bd906001600160a01b031681565b61029d610396366004612546565b610bcc565b6102936103a9366004612887565b610c66565b6102936103bc3660046128fc565b610c81565b6102936103cf366004612942565b610d68565b6102bd6103e2366004612546565b610f11565b6102936103f53660046124be565b610f88565b61040d6104083660046124be565b610fa9565b604051908152602001610277565b61029361102f565b61040d6104313660046124be565b60096020526000908152604090205481565b60a3546001600160a01b03166102bd565b61040d60065481565b61040d61046b36600461255f565b600560209081526000928352604080842090915290825290205481565b61029d611065565b61029361049e3660046129b3565b611074565b61029361107f565b61040d60005481565b61040d60035481565b6102936104cb3660046129e8565b6110a7565b6001546102bd906001600160a01b031681565b6102936104f13660046124be565b6110df565b61029d610504366004612546565b6111b6565b61029d6105173660046124be565b611381565b61052f61052a3660046124be565b61139a565b6040516102779190612a67565b61029361054a3660046124be565b61143f565b61029361055d3660046124be565b61148b565b610575610570366004612546565b6114d7565b604051610277959493929190612aab565b600a546102bd906001600160a01b031681565b61026b6105a7366004612aeb565b61159b565b6102936105ba3660046124be565b6115c9565b60006001600160e01b031982166380ac58cd60e01b14806105f057506001600160e01b03198216635b5e139f60e01b145b8061060b57506301ffc9a760e01b6001600160e01b03198316145b92915050565b60a3546001600160a01b031633146106445760405162461bcd60e51b815260040161063b90612b24565b60405180910390fd5b600180546001600160a01b0319166001600160a01b0392909216919091179055565b60606071805461067590612b59565b80601f01602080910402602001604051908101604052809291908181526020018280546106a190612b59565b80156106ee5780601f106106c3576101008083540402835291602001916106ee565b820191906000526020600020905b8154815290600101906020018083116106d157829003601f168201915b5050505050905090565b6000818152607360205260408120546001600160a01b03166107715760405162461bcd60e51b815260206004820152602c60248201527f4552433732313a20617070726f76656420717565727920666f72206e6f6e657860448201526b34b9ba32b73a103a37b5b2b760a11b606482015260840161063b565b506000908152607560205260409020546001600160a01b031690565b600061079882610f11565b9050806001600160a01b0316836001600160a01b031614156108065760405162461bcd60e51b815260206004820152602160248201527f4552433732313a20617070726f76616c20746f2063757272656e74206f776e656044820152603960f91b606482015260840161063b565b336001600160a01b03821614806108225750610822813361159b565b6108945760405162461bcd60e51b815260206004820152603860248201527f4552433732313a20617070726f76652063616c6c6572206973206e6f74206f7760448201527f6e6572206e6f7220617070726f76656420666f7220616c6c0000000000000000606482015260840161063b565b61089e8383611661565b505050565b60a3546001600160a01b031633146108cd5760405162461bcd60e51b815260040161063b90612b24565b60005b8151811015610957578181815181106108eb576108eb612b94565b602002602001015160000151156109235761091e82828151811061091157610911612b94565b60200260200101516116cf565b610945565b61094582828151811061093857610938612b94565b6020026020010151611776565b8061094f81612bc0565b9150506108d0565b5050565b60a3546001600160a01b031633146109855760405162461bcd60e51b815260040161063b90612b24565b6040518060a001604052808260000151815260200182602001511515815260200182604001516001600160a01b0316815260200182606001518152602001826080015181525060076000600660008154809291906109e290612bc0565b909155508152602080820192909252604001600020825180519192610a0c928492909101906123d6565b50602082015160018201805460408501516001600160a01b031661010002610100600160a81b0319931515939093166001600160a81b0319909116179190911790556060820151600282015560809091015160039091015550565b610a7133826119dd565b610a8d5760405162461bcd60e51b815260040161063b90612bdb565b61089e838383611ab3565b60a3546001600160a01b03163314610ac25760405162461bcd60e51b815260040161063b90612b24565b60038054829160049160009182610ad883612bc0565b91905055815260200190815260200160002090805190602001906109579291906123d6565b3360008181526009602052604090205490610b189083611b32565b610b8a5760405162461bcd60e51b815260206004820152603760248201527f4261636b6564436f6d6d756e697479546f6b656e56313a2075736572206e6f7460448201527f20656c696769626c6520666f72206163636573736f7279000000000000000000606482015260840161063b565b33600081815260096020526040808220859055518492849290917fea1b1f91e87d6596dd266ab28a1e2231755992988caaafc59ed42f2331d41e8c9190a45050565b60046020526000908152604090208054610be590612b59565b80601f0160208091040260200160405190810160405280929190818152602001828054610c1190612b59565b8015610c5e5780601f10610c3357610100808354040283529160200191610c5e565b820191906000526020600020905b815481529060010190602001808311610c4157829003601f168201915b505050505081565b61089e838383604051806020016040528060008152506110a7565b60a3546001600160a01b03163314610cab5760405162461bcd60e51b815260040161063b90612b24565b6040805160a08101825282518152602080840151151581830152838301516001600160a01b0316828401526060808501519083015260808085015190830152600085815260078252929092208151805192939192610d0c92849201906123d6565b50602082015160018201805460408501516001600160a01b031661010002610100600160a81b0319931515939093166001600160a81b031990911617919091179055606082015160028201556080909101516003909101555050565b600080610d7783850185612c2c565b60015491935091506001600160a01b03163314610dfc5760405162461bcd60e51b815260206004820152603d60248201527f4261636b6564436f6d6d756e697479546f6b656e56313a2063616c6c6572206d60448201527f7573742062652063726f737320646f6d61696e206d657373656e676572000000606482015260840161063b565b600a5460015460408051636e296e4560e01b815290516001600160a01b039384169390921691636e296e45916004808201926020929091908290030181865afa158015610e4d573d6000803e3d6000fd5b505050506040513d601f19601f82011682018060405250810190610e719190612c71565b6001600160a01b031614610ee15760405162461bcd60e51b815260206004820152603160248201527f4261636b6564436f6d6d756e697479546f6b656e56313a206f726967696e206d6044820152700757374206265204261636b65642050465607c1b606482015260840161063b565b6001600160a01b0382166000908152600b602090815260409091208251610f0a928401906123d6565b5050505050565b6000818152607360205260408120546001600160a01b03168061060b5760405162461bcd60e51b815260206004820152602960248201527f4552433732313a206f776e657220717565727920666f72206e6f6e657869737460448201526832b73a103a37b5b2b760b91b606482015260840161063b565b60008054610fa69183919080610f9d83612bc0565b91905055611c8e565b50565b60006001600160a01b0382166110135760405162461bcd60e51b815260206004820152602960248201527f4552433732313a2061646472657373207a65726f206973206e6f7420612076616044820152683634b21037bbb732b960b91b606482015260840161063b565b506001600160a01b031660009081526074602052604090205490565b60a3546001600160a01b031633146110595760405162461bcd60e51b815260040161063b90612b24565b6110636000611d00565b565b60606072805461067590612b59565b610957338383611d52565b6040805160208082018084526000808452338152600b9092529290209051610fa692906123d6565b6110b133836119dd565b6110cd5760405162461bcd60e51b815260040161063b90612bdb565b6110d984848484611e21565b50505050565b60006110eb6001611e54565b9050801561110357600c805461ff0019166101001790555b6111526040518060400160405280600f81526020016e4261636b6564436f6d6d756e69747960881b81525060405180604001604052806006815260200165109050d2d15160d21b815250611ee3565b600280546001600160a01b0319166001600160a01b038416179055801561095757600c805461ff0019169055604051600181527f7f26b83ff96e1f2b6a682f133852f6798a09c465da95921460cefb38474024989060200160405180910390a15050565b6040516331a9108f60e11b8152600481018290526060906000903090636352211e90602401602060405180830381865afa1580156111f8573d6000803e3d6000fd5b505050506040513d601f19601f8201168201806040525081019061121c9190612c71565b905060006003546001600160401b0381111561123a5761123a61258b565b604051908082528060200260200182016040528015611263578160200160208202803683370190505b50905060005b6003548110156112c8576001600160a01b038316600090815260056020908152604080832084845290915290205482518390839081106112ab576112ab612b94565b6020908102919091010152806112c081612bc0565b915050611269565b506002546001600160a01b0383811660008181526009602090815260408083205483526007825280832060010154938352600b90915290819020905163dc90d34360e01b81529383169363dc90d34393611334938a938993899361010090930490921691600401612c8e565b600060405180830381865afa158015611351573d6000803e3d6000fd5b505050506040513d6000823e601f3d908101601f191682016040526113799190810190612d96565b949350505050565b600b6020526000908152604090208054610be590612b59565b606060006006546001600160401b038111156113b8576113b861258b565b6040519080825280602002602001820160405280156113e1578160200160208202803683370190505b50905060005b600654811015611438576113fb8482611b32565b61140757600019611409565b805b82828151811061141b5761141b612b94565b60209081029190910101528061143081612bc0565b9150506113e7565b5092915050565b60a3546001600160a01b031633146114695760405162461bcd60e51b815260040161063b90612b24565b600280546001600160a01b0319166001600160a01b0392909216919091179055565b60a3546001600160a01b031633146114b55760405162461bcd60e51b815260040161063b90612b24565b600a80546001600160a01b0319166001600160a01b0392909216919091179055565b6007602052600090815260409020805481906114f290612b59565b80601f016020809104026020016040519081016040528092919081815260200182805461151e90612b59565b801561156b5780601f106115405761010080835404028352916020019161156b565b820191906000526020600020905b81548152906001019060200180831161154e57829003601f168201915b5050505060018301546002840154600390940154929360ff8216936101009092046001600160a01b031692509085565b6001600160a01b03918216600090815260766020908152604080832093909416825291909152205460ff1690565b60a3546001600160a01b031633146115f35760405162461bcd60e51b815260040161063b90612b24565b6001600160a01b0381166116585760405162461bcd60e51b815260206004820152602660248201527f4f776e61626c653a206e6577206f776e657220697320746865207a65726f206160448201526564647265737360d01b606482015260840161063b565b610fa681611d00565b600081815260756020526040902080546001600160a01b0319166001600160a01b038416908117909155819061169682610f11565b6001600160a01b03167f8c5be1e5ebec7d5bd14f71427d1e84f3dd0314c0f7b2291e5b200ac8c7c3b92560405160405180910390a45050565b6020808201516001600160a01b031660009081526005825260408082208185015183529092529081208054829061170590612bc0565b9182905550606083015160405191925061171e91612e0c565b6040518091039020826040015183602001516001600160a01b03167f4adfb6c8799106a05c87f98cd81c34d5636f2a657ab1d2b940cd96a643d91b4c8460405161176a91815260200190565b60405180910390a45050565b600060076000836040015181526020019081526020016000206040518060a00160405290816000820180546117aa90612b59565b80601f01602080910402602001604051908101604052809291908181526020018280546117d690612b59565b80156118235780601f106117f857610100808354040283529160200191611823565b820191906000526020600020905b81548152906001019060200180831161180657829003601f168201915b5050509183525050600182015460ff811615156020808401919091526101009091046001600160a01b0316604083015260028301546060830152600390920154608090910152810151909150156118da5760405162461bcd60e51b815260206004820152603560248201527f4261636b6564436f6d6d756e697479546f6b656e56313a204163636573736f726044820152741e481b5d5cdd0818994818591b5a5b8818985cd959605a1b606482015260840161063b565b60408101516001600160a01b031661194d5760405162461bcd60e51b815260206004820152603060248201527f4261636b6564436f6d6d756e697479546f6b656e56313a204163636573736f7260448201526f1e48191bd95cc81b9bdd08195e1a5cdd60821b606482015260840161063b565b6020808301516001600160a01b03166000908152600882526040808220818601518352909252819020805460ff19166001179055606083015190516119929190612e0c565b6040518091039020826040015183602001516001600160a01b03167f21d40621155f17d6d4e01f8387b7ac9f14f7b993868011846ad64e5ad770e46460405160405180910390a45050565b6000818152607360205260408120546001600160a01b0316611a565760405162461bcd60e51b815260206004820152602c60248201527f4552433732313a206f70657261746f7220717565727920666f72206e6f6e657860448201526b34b9ba32b73a103a37b5b2b760a11b606482015260840161063b565b6000611a6183610f11565b9050806001600160a01b0316846001600160a01b03161480611a885750611a88818561159b565b806113795750836001600160a01b0316611aa1846106f8565b6001600160a01b031614949350505050565b60a3546001600160a01b03163314611b275760405162461bcd60e51b815260206004820152603160248201527f455243373231536f756c626f756e643a206f6e6c7920636f6e7472616374206f6044820152703bb732b91031b0b7103a3930b739b332b960791b606482015260840161063b565b61089e838383611f1c565b600081815260076020526040808220815160a0810190925280548392919082908290611b5d90612b59565b80601f0160208091040260200160405190810160405280929190818152602001828054611b8990612b59565b8015611bd65780601f10611bab57610100808354040283529160200191611bd6565b820191906000526020600020905b815481529060010190602001808311611bb957829003601f168201915b5050509183525050600182015460ff811615156020808401919091526101009091046001600160a01b031660408301526002830154606083015260039092015460809091015281015190915015611c605760608101516001600160a01b0385166000908152600560209081526040808320608090950151835293905291909120541015905061060b565b50506001600160a01b038216600090815260086020908152604080832084845290915290205460ff1661060b565b6001611c9983610fa9565b10611cf65760405162461bcd60e51b815260206004820152602760248201527f455243373231536f756c626f756e643a2063616e6e6f74206f776e206d6f7265604482015266207468616e203160c81b606482015260840161063b565b61095782826120b8565b60a380546001600160a01b038381166001600160a01b0319831681179093556040519116919082907f8be0079c531659141344cd1fd0a4f28419497f9722a3daafe3b4186f6b6457e090600090a35050565b816001600160a01b0316836001600160a01b03161415611db45760405162461bcd60e51b815260206004820152601960248201527f4552433732313a20617070726f766520746f2063616c6c657200000000000000604482015260640161063b565b6001600160a01b03838116600081815260766020908152604080832094871680845294825291829020805460ff191686151590811790915591519182527f17307eab39ab6107e8899845ad3d59bd9653f200f220920489ca2b5937696c31910160405180910390a3505050565b611e2c848484611ab3565b611e38848484846121fa565b6110d95760405162461bcd60e51b815260040161063b90612e28565b600c54600090610100900460ff1615611e9d578160ff166001148015611e795750303b155b611e955760405162461bcd60e51b815260040161063b90612e7a565b506000919050565b600c5460ff808416911610611ec45760405162461bcd60e51b815260040161063b90612e7a565b50600c805460ff191660ff92909216919091179055600190565b919050565b600c54610100900460ff16611f0a5760405162461bcd60e51b815260040161063b90612ec8565b611f1482826122f8565b610957612329565b826001600160a01b0316611f2f82610f11565b6001600160a01b031614611f935760405162461bcd60e51b815260206004820152602560248201527f4552433732313a207472616e736665722066726f6d20696e636f72726563742060448201526437bbb732b960d91b606482015260840161063b565b6001600160a01b038216611ff55760405162461bcd60e51b8152602060048201526024808201527f4552433732313a207472616e7366657220746f20746865207a65726f206164646044820152637265737360e01b606482015260840161063b565b612000600082611661565b6001600160a01b0383166000908152607460205260408120805460019290612029908490612f13565b90915550506001600160a01b0382166000908152607460205260408120805460019290612057908490612f2a565b909155505060008181526073602052604080822080546001600160a01b0319166001600160a01b0386811691821790925591518493918716917fddf252ad1be2c89b69c2b068fc378daa952ba7f163c4a11628f55a4df523b3ef91a4505050565b6001600160a01b03821661210e5760405162461bcd60e51b815260206004820181905260248201527f4552433732313a206d696e7420746f20746865207a65726f2061646472657373604482015260640161063b565b6000818152607360205260409020546001600160a01b0316156121735760405162461bcd60e51b815260206004820152601c60248201527f4552433732313a20746f6b656e20616c7265616479206d696e74656400000000604482015260640161063b565b6001600160a01b038216600090815260746020526040812080546001929061219c908490612f2a565b909155505060008181526073602052604080822080546001600160a01b0319166001600160a01b03861690811790915590518392907fddf252ad1be2c89b69c2b068fc378daa952ba7f163c4a11628f55a4df523b3ef908290a45050565b60006001600160a01b0384163b156122ed57604051630a85bd0160e11b81526001600160a01b0385169063150b7a029061223e903390899088908890600401612f42565b6020604051808303816000875af1925050508015612279575060408051601f3d908101601f1916820190925261227691810190612f7f565b60015b6122d3573d8080156122a7576040519150601f19603f3d011682016040523d82523d6000602084013e6122ac565b606091505b5080516122cb5760405162461bcd60e51b815260040161063b90612e28565b805181602001fd5b6001600160e01b031916630a85bd0160e11b149050611379565b506001949350505050565b600c54610100900460ff1661231f5760405162461bcd60e51b815260040161063b90612ec8565b6109578282612358565b600c54610100900460ff166123505760405162461bcd60e51b815260040161063b90612ec8565b6110636123a6565b600c54610100900460ff1661237f5760405162461bcd60e51b815260040161063b90612ec8565b81516123929060719060208501906123d6565b50805161089e9060729060208401906123d6565b600c54610100900460ff166123cd5760405162461bcd60e51b815260040161063b90612ec8565b61106333611d00565b8280546123e290612b59565b90600052602060002090601f016020900481019282612404576000855561244a565b82601f1061241d57805160ff191683800117855561244a565b8280016001018555821561244a579182015b8281111561244a57825182559160200191906001019061242f565b5061245692915061245a565b5090565b5b80821115612456576000815560010161245b565b6001600160e01b031981168114610fa657600080fd5b60006020828403121561249757600080fd5b81356124a28161246f565b9392505050565b6001600160a01b0381168114610fa657600080fd5b6000602082840312156124d057600080fd5b81356124a2816124a9565b60005b838110156124f65781810151838201526020016124de565b838111156110d95750506000910152565b6000815180845261251f8160208601602086016124db565b601f01601f19169290920160200192915050565b6020815260006124a26020830184612507565b60006020828403121561255857600080fd5b5035919050565b6000806040838503121561257257600080fd5b823561257d816124a9565b946020939093013593505050565b634e487b7160e01b600052604160045260246000fd5b604051608081016001600160401b03811182821017156125c3576125c361258b565b60405290565b604051601f8201601f191681016001600160401b03811182821017156125f1576125f161258b565b604052919050565b80358015158114611ede57600080fd5b60006001600160401b038211156126225761262261258b565b50601f01601f191660200190565b600061264361263e84612609565b6125c9565b905082815283838301111561265757600080fd5b828260208301376000602084830101529392505050565b600082601f83011261267f57600080fd5b6124a283833560208501612630565b600060208083850312156126a157600080fd5b82356001600160401b03808211156126b857600080fd5b818501915085601f8301126126cc57600080fd5b8135818111156126de576126de61258b565b8060051b6126ed8582016125c9565b918252838101850191858101908984111561270757600080fd5b86860192505b838310156127a8578235858111156127255760008081fd5b86016080818c03601f190181131561273d5760008081fd5b6127456125a1565b6127508a84016125f9565b8152604080840135612761816124a9565b828c01526060848101358284015292840135928984111561278457600091508182fd5b6127928f8d8688010161266e565b908301525084525050918601919086019061270d565b9998505050505050505050565b600060a082840312156127c757600080fd5b60405160a081016001600160401b0382821081831117156127ea576127ea61258b565b81604052829350843591508082111561280257600080fd5b5061280f8582860161266e565b82525061281e602084016125f9565b60208201526040830135612831816124a9565b8060408301525060608301356060820152608083013560808201525092915050565b60006020828403121561286557600080fd5b81356001600160401b0381111561287b57600080fd5b611379848285016127b5565b60008060006060848603121561289c57600080fd5b83356128a7816124a9565b925060208401356128b7816124a9565b929592945050506040919091013590565b6000602082840312156128da57600080fd5b81356001600160401b038111156128f057600080fd5b6113798482850161266e565b6000806040838503121561290f57600080fd5b8235915060208301356001600160401b0381111561292c57600080fd5b612938858286016127b5565b9150509250929050565b6000806020838503121561295557600080fd5b82356001600160401b038082111561296c57600080fd5b818501915085601f83011261298057600080fd5b81358181111561298f57600080fd5b8660208285010111156129a157600080fd5b60209290920196919550909350505050565b600080604083850312156129c657600080fd5b82356129d1816124a9565b91506129df602084016125f9565b90509250929050565b600080600080608085870312156129fe57600080fd5b8435612a09816124a9565b93506020850135612a19816124a9565b92506040850135915060608501356001600160401b03811115612a3b57600080fd5b8501601f81018713612a4c57600080fd5b612a5b87823560208401612630565b91505092959194509250565b6020808252825182820181905260009190848201906040850190845b81811015612a9f57835183529284019291840191600101612a83565b50909695505050505050565b60a081526000612abe60a0830188612507565b9515156020830152506001600160a01b039390931660408401526060830191909152608090910152919050565b60008060408385031215612afe57600080fd5b8235612b09816124a9565b91506020830135612b19816124a9565b809150509250929050565b6020808252818101527f4f776e61626c653a2063616c6c6572206973206e6f7420746865206f776e6572604082015260600190565b600181811c90821680612b6d57607f821691505b60208210811415612b8e57634e487b7160e01b600052602260045260246000fd5b50919050565b634e487b7160e01b600052603260045260246000fd5b634e487b7160e01b600052601160045260246000fd5b6000600019821415612bd457612bd4612baa565b5060010190565b60208082526031908201527f4552433732313a207472616e736665722063616c6c6572206973206e6f74206f6040820152701ddb995c881b9bdc88185c1c1c9bdd9959607a1b606082015260800190565b60008060408385031215612c3f57600080fd5b8235612c4a816124a9565b915060208301356001600160401b03811115612c6557600080fd5b6129388582860161266e565b600060208284031215612c8357600080fd5b81516124a2816124a9565b600060a08201878352602060018060a01b038089168286015260a0604086015282885180855260c087019150838a01945060005b81811015612cde57855183529484019491840191600101612cc2565b50509087166060860152848103608086015285546000935090600182811c9080841680612d0c57607f831692505b858310811415612d2a57634e487b7160e01b87526022600452602487fd5b828452602084019350808015612d475760018114612d5857612d83565b60ff19861685528685019750612d83565b60008b81526020902060005b85811015612d7d57815487820152908401908801612d64565b86019850505b50959d9c50505050505050505050505050565b600060208284031215612da857600080fd5b81516001600160401b03811115612dbe57600080fd5b8201601f81018413612dcf57600080fd5b8051612ddd61263e82612609565b818152856020838501011115612df257600080fd5b612e038260208301602086016124db565b95945050505050565b60008251612e1e8184602087016124db565b9190910192915050565b60208082526032908201527f4552433732313a207472616e7366657220746f206e6f6e20455243373231526560408201527131b2b4bb32b91034b6b83632b6b2b73a32b960711b606082015260800190565b6020808252602e908201527f496e697469616c697a61626c653a20636f6e747261637420697320616c72656160408201526d191e481a5b9a5d1a585b1a5e995960921b606082015260800190565b6020808252602b908201527f496e697469616c697a61626c653a20636f6e7472616374206973206e6f74206960408201526a6e697469616c697a696e6760a81b606082015260800190565b600082821015612f2557612f25612baa565b500390565b60008219821115612f3d57612f3d612baa565b500190565b6001600160a01b0385811682528416602082015260408101839052608060608201819052600090612f7590830184612507565b9695505050505050565b600060208284031215612f9157600080fd5b81516124a28161246f56fea2646970667358221220a3e48ad07bcc215858d8860af77db3885959ad42b5359b0ae3c0fa4b74c5d64764736f6c634300080c0033",
    "linkReferences": {}
  },
  "methodIdentifiers": {
    "accessoryIdToAccessory(uint256)": "db8a06cf",
    "addCategory(string)": "2e0dcbf7",
    "addSpecialAccessory((string,bool,address,uint256,uint256))": "1073ce33",
    "addressToAccessoryEnabled(address)": "7473660a",
    "addressToAccessoryUnlocked(address,uint256)": "2fdaa490",
    "addressToCategoryScore(address,uint256)": "957a2754",
    "addressToPFPSVGLink(address)": "cb19a1d6",
    "approve(address,uint256)": "095ea7b3",
    "balanceOf(address)": "70a08231",
    "bunnyPFPContractAddress()": "dfcf2cf8",
    "categoryIdToDisplayName(uint256)": "3ed0b70e",
    "cdmAddr()": "c17c7faa",
    "clearBunnyPFPLink()": "aa416e54",
    "descriptor()": "303e74df",
    "getApproved(uint256)": "081812fc",
    "getUnlockedAccessoriesForAddress(address)": "d1c5df07",
    "initialize(address)": "c4d66de8",
    "isApprovedForAll(address,address)": "e985e9c5",
    "mint(address)": "6a627842",
    "name()": "06fdde03",
    "nonce()": "affed0e0",
    "overrideSpecialAccessory(uint256,(string,bool,address,uint256,uint256))": "4b26bbff",
    "owner()": "8da5cb5b",
    "ownerOf(uint256)": "6352211e",
    "renounceOwnership()": "715018a6",
    "safeTransferFrom(address,address,uint256)": "42842e0e",
    "safeTransferFrom(address,address,uint256,bytes)": "b88d4fde",
    "setApprovalForAll(address,bool)": "a22cb465",
    "setBunnyPFPContract(address)": "d4f353c0",
    "setBunnyPFPSVGFromL1(bytes)": "4c0332a5",
    "setDescriptorContract(address)": "d37825b2",
    "setEnabledAccessory(uint256)": "2f2aa210",
    "setOptimismCrossChainMessengerAddress(address)": "0303348f",
    "supportsInterface(bytes4)": "01ffc9a7",
    "symbol()": "95d89b41",
    "tokenURI(uint256)": "c87b56dd",
    "totalCategoryCount()": "b2b52ef1",
    "totalSpecialyAccessoryCount()": "904b65d9",
    "transferFrom(address,address,uint256)": "23b872dd",
    "transferOwnership(address)": "f2fde38b",
    "unlockAccessoryOrIncrementCategory((bool,address,uint256,string)[])": "1050c356"
  },
  "id": 31
}