{
  "abi": [
    {
      "anonymous": false,
      "inputs": [
        {
          "indexed": true,
          "internalType": "address",
          "name": "addr",
          "type": "address"
        },
        {
          "indexed": true,
          "internalType": "uint256",
          "name": "oldAccessory",
          "type": "uint256"
        },
        {
          "indexed": true,
          "internalType": "uint256",
          "name": "newAccessory",
          "type": "uint256"
        }
      ],
      "name": "AccessorySwapped",
      "type": "event"
    },
    {
      "anonymous": false,
      "inputs": [
        {
          "indexed": true,
          "internalType": "address",
          "name": "addr",
          "type": "address"
        },
        {
          "indexed": true,
          "internalType": "uint256",
          "name": "accessoryId",
          "type": "uint256"
        },
        {
          "indexed": true,
          "internalType": "string",
          "name": "ipfsLink",
          "type": "string"
        }
      ],
      "name": "AccessoryUnlocked",
      "type": "event"
    },
    {
      "anonymous": false,
      "inputs": [
        {
          "indexed": true,
          "internalType": "address",
          "name": "owner",
          "type": "address"
        },
        {
          "indexed": true,
          "internalType": "address",
          "name": "approved",
          "type": "address"
        },
        {
          "indexed": true,
          "internalType": "uint256",
          "name": "tokenId",
          "type": "uint256"
        }
      ],
      "name": "Approval",
      "type": "event"
    },
    {
      "anonymous": false,
      "inputs": [
        {
          "indexed": true,
          "internalType": "address",
          "name": "owner",
          "type": "address"
        },
        {
          "indexed": true,
          "internalType": "address",
          "name": "operator",
          "type": "address"
        },
        {
          "indexed": false,
          "internalType": "bool",
          "name": "approved",
          "type": "bool"
        }
      ],
      "name": "ApprovalForAll",
      "type": "event"
    },
    {
      "anonymous": false,
      "inputs": [
        {
          "indexed": true,
          "internalType": "address",
          "name": "addr",
          "type": "address"
        },
        {
          "indexed": true,
          "internalType": "uint256",
          "name": "categoryId",
          "type": "uint256"
        },
        {
          "indexed": true,
          "internalType": "string",
          "name": "ipfsLink",
          "type": "string"
        },
        {
          "indexed": false,
          "internalType": "uint256",
          "name": "newScore",
          "type": "uint256"
        }
      ],
      "name": "CategoryScoreChanged",
      "type": "event"
    },
    {
      "anonymous": false,
      "inputs": [
        {
          "indexed": false,
          "internalType": "uint8",
          "name": "version",
          "type": "uint8"
        }
      ],
      "name": "Initialized",
      "type": "event"
    },
    {
      "anonymous": false,
      "inputs": [
        {
          "indexed": true,
          "internalType": "address",
          "name": "previousOwner",
          "type": "address"
        },
        {
          "indexed": true,
          "internalType": "address",
          "name": "newOwner",
          "type": "address"
        }
      ],
      "name": "OwnershipTransferred",
      "type": "event"
    },
    {
      "anonymous": false,
      "inputs": [
        {
          "indexed": true,
          "internalType": "address",
          "name": "from",
          "type": "address"
        },
        {
          "indexed": true,
          "internalType": "address",
          "name": "to",
          "type": "address"
        },
        {
          "indexed": true,
          "internalType": "uint256",
          "name": "tokenId",
          "type": "uint256"
        }
      ],
      "name": "Transfer",
      "type": "event"
    },
    {
      "inputs": [
        {
          "internalType": "uint256",
          "name": "",
          "type": "uint256"
        }
      ],
      "name": "accessoryIdToAccessory",
      "outputs": [
        {
          "internalType": "string",
          "name": "name",
          "type": "string"
        },
        {
          "internalType": "bool",
          "name": "xpBased",
          "type": "bool"
        },
        {
          "internalType": "address",
          "name": "artContract",
          "type": "address"
        },
        {
          "internalType": "uint256",
          "name": "qualifyingXPScore",
          "type": "uint256"
        },
        {
          "internalType": "uint256",
          "name": "xpCategory",
          "type": "uint256"
        }
      ],
      "stateMutability": "view",
      "type": "function"
    },
    {
      "inputs": [
        {
          "internalType": "string",
          "name": "displayName",
          "type": "string"
        }
      ],
      "name": "addCategory",
      "outputs": [],
      "stateMutability": "nonpayable",
      "type": "function"
    },
    {
      "inputs": [
        {
          "components": [
            {
              "internalType": "string",
              "name": "name",
              "type": "string"
            },
            {
              "internalType": "bool",
              "name": "xpBased",
              "type": "bool"
            },
            {
              "internalType": "address",
              "name": "artContract",
              "type": "address"
            },
            {
              "internalType": "uint256",
              "name": "qualifyingXPScore",
              "type": "uint256"
            },
            {
              "internalType": "uint256",
              "name": "xpCategory",
              "type": "uint256"
            }
          ],
          "internalType": "struct IBackedCommunityTokenV1.Accessory",
          "name": "accessory",
          "type": "tuple"
        }
      ],
      "name": "addSpecialAccessory",
      "outputs": [],
      "stateMutability": "nonpayable",
      "type": "function"
    },
    {
      "inputs": [
        {
          "internalType": "address",
          "name": "",
          "type": "address"
        }
      ],
      "name": "addressToAccessoryEnabled",
      "outputs": [
        {
          "internalType": "uint256",
          "name": "",
          "type": "uint256"
        }
      ],
      "stateMutability": "view",
      "type": "function"
    },
    {
      "inputs": [
        {
          "internalType": "address",
          "name": "",
          "type": "address"
        },
        {
          "internalType": "uint256",
          "name": "",
          "type": "uint256"
        }
      ],
      "name": "addressToAccessoryUnlocked",
      "outputs": [
        {
          "internalType": "bool",
          "name": "",
          "type": "bool"
        }
      ],
      "stateMutability": "view",
      "type": "function"
    },
    {
      "inputs": [
        {
          "internalType": "address",
          "name": "",
          "type": "address"
        },
        {
          "internalType": "uint256",
          "name": "",
          "type": "uint256"
        }
      ],
      "name": "addressToCategoryScore",
      "outputs": [
        {
          "internalType": "uint256",
          "name": "",
          "type": "uint256"
        }
      ],
      "stateMutability": "view",
      "type": "function"
    },
    {
      "inputs": [
        {
          "internalType": "address",
          "name": "",
          "type": "address"
        }
      ],
      "name": "addressToPFPSVGLink",
      "outputs": [
        {
          "internalType": "string",
          "name": "",
          "type": "string"
        }
      ],
      "stateMutability": "view",
      "type": "function"
    },
    {
      "inputs": [],
      "name": "admin",
      "outputs": [
        {
          "internalType": "address",
          "name": "",
          "type": "address"
        }
      ],
      "stateMutability": "view",
      "type": "function"
    },
    {
      "inputs": [
        {
          "internalType": "address",
          "name": "to",
          "type": "address"
        },
        {
          "internalType": "uint256",
          "name": "tokenId",
          "type": "uint256"
        }
      ],
      "name": "approve",
      "outputs": [],
      "stateMutability": "nonpayable",
      "type": "function"
    },
    {
      "inputs": [
        {
          "internalType": "address",
          "name": "owner",
          "type": "address"
        }
      ],
      "name": "balanceOf",
      "outputs": [
        {
          "internalType": "uint256",
          "name": "",
          "type": "uint256"
        }
      ],
      "stateMutability": "view",
      "type": "function"
    },
    {
      "inputs": [],
      "name": "bunnyPFPContractAddress",
      "outputs": [
        {
          "internalType": "address",
          "name": "",
          "type": "address"
        }
      ],
      "stateMutability": "view",
      "type": "function"
    },
    {
      "inputs": [
        {
          "internalType": "uint256",
          "name": "",
          "type": "uint256"
        }
      ],
      "name": "categoryIdToDisplayName",
      "outputs": [
        {
          "internalType": "string",
          "name": "",
          "type": "string"
        }
      ],
      "stateMutability": "view",
      "type": "function"
    },
    {
      "inputs": [],
      "name": "cdmAddr",
      "outputs": [
        {
          "internalType": "address",
          "name": "",
          "type": "address"
        }
      ],
      "stateMutability": "view",
      "type": "function"
    },
    {
      "inputs": [],
      "name": "clearBunnyPFPLink",
      "outputs": [],
      "stateMutability": "nonpayable",
      "type": "function"
    },
    {
      "inputs": [],
      "name": "descriptor",
      "outputs": [
        {
          "internalType": "contract IBackedCommunityTokenDescriptorV1",
          "name": "",
          "type": "address"
        }
      ],
      "stateMutability": "view",
      "type": "function"
    },
    {
      "inputs": [
        {
          "internalType": "uint256",
          "name": "tokenId",
          "type": "uint256"
        }
      ],
      "name": "getApproved",
      "outputs": [
        {
          "internalType": "address",
          "name": "",
          "type": "address"
        }
      ],
      "stateMutability": "view",
      "type": "function"
    },
    {
      "inputs": [
        {
          "internalType": "address",
          "name": "addr",
          "type": "address"
        }
      ],
      "name": "getUnlockedAccessoriesForAddress",
      "outputs": [
        {
          "internalType": "int256[]",
          "name": "",
          "type": "int256[]"
        }
      ],
      "stateMutability": "view",
      "type": "function"
    },
    {
      "inputs": [
        {
          "internalType": "address",
          "name": "_descriptorAddress",
          "type": "address"
        }
      ],
      "name": "initialize",
      "outputs": [],
      "stateMutability": "nonpayable",
      "type": "function"
    },
    {
      "inputs": [
        {
          "internalType": "address",
          "name": "owner",
          "type": "address"
        },
        {
          "internalType": "address",
          "name": "operator",
          "type": "address"
        }
      ],
      "name": "isApprovedForAll",
      "outputs": [
        {
          "internalType": "bool",
          "name": "",
          "type": "bool"
        }
      ],
      "stateMutability": "view",
      "type": "function"
    },
    {
      "inputs": [
        {
          "internalType": "address",
          "name": "mintTo",
          "type": "address"
        }
      ],
      "name": "mint",
      "outputs": [],
      "stateMutability": "nonpayable",
      "type": "function"
    },
    {
      "inputs": [],
      "name": "name",
      "outputs": [
        {
          "internalType": "string",
          "name": "",
          "type": "string"
        }
      ],
      "stateMutability": "view",
      "type": "function"
    },
    {
      "inputs": [],
      "name": "nonce",
      "outputs": [
        {
          "internalType": "uint256",
          "name": "",
          "type": "uint256"
        }
      ],
      "stateMutability": "view",
      "type": "function"
    },
    {
      "inputs": [],
      "name": "owner",
      "outputs": [
        {
          "internalType": "address",
          "name": "",
          "type": "address"
        }
      ],
      "stateMutability": "view",
      "type": "function"
    },
    {
      "inputs": [
        {
          "internalType": "uint256",
          "name": "tokenId",
          "type": "uint256"
        }
      ],
      "name": "ownerOf",
      "outputs": [
        {
          "internalType": "address",
          "name": "",
          "type": "address"
        }
      ],
      "stateMutability": "view",
      "type": "function"
    },
    {
      "inputs": [],
      "name": "renounceOwnership",
      "outputs": [],
      "stateMutability": "nonpayable",
      "type": "function"
    },
    {
      "inputs": [
        {
          "internalType": "address",
          "name": "from",
          "type": "address"
        },
        {
          "internalType": "address",
          "name": "to",
          "type": "address"
        },
        {
          "internalType": "uint256",
          "name": "tokenId",
          "type": "uint256"
        }
      ],
      "name": "safeTransferFrom",
      "outputs": [],
      "stateMutability": "nonpayable",
      "type": "function"
    },
    {
      "inputs": [
        {
          "internalType": "address",
          "name": "from",
          "type": "address"
        },
        {
          "internalType": "address",
          "name": "to",
          "type": "address"
        },
        {
          "internalType": "uint256",
          "name": "tokenId",
          "type": "uint256"
        },
        {
          "internalType": "bytes",
          "name": "_data",
          "type": "bytes"
        }
      ],
      "name": "safeTransferFrom",
      "outputs": [],
      "stateMutability": "nonpayable",
      "type": "function"
    },
    {
      "inputs": [
        {
          "internalType": "address",
          "name": "operator",
          "type": "address"
        },
        {
          "internalType": "bool",
          "name": "approved",
          "type": "bool"
        }
      ],
      "name": "setApprovalForAll",
      "outputs": [],
      "stateMutability": "nonpayable",
      "type": "function"
    },
    {
      "inputs": [
        {
          "internalType": "address",
          "name": "addr",
          "type": "address"
        }
      ],
      "name": "setBunnyPFPContract",
      "outputs": [],
      "stateMutability": "nonpayable",
      "type": "function"
    },
    {
      "inputs": [
        {
          "internalType": "bytes",
          "name": "message",
          "type": "bytes"
        }
      ],
      "name": "setBunnyPFPTokenApproval",
      "outputs": [],
      "stateMutability": "nonpayable",
      "type": "function"
    },
    {
      "inputs": [
        {
          "internalType": "address",
          "name": "addr",
          "type": "address"
        }
      ],
      "name": "setDescriptorContract",
      "outputs": [],
      "stateMutability": "nonpayable",
      "type": "function"
    },
    {
      "inputs": [
        {
          "internalType": "uint256",
          "name": "accessoryId",
          "type": "uint256"
        }
      ],
      "name": "setEnabledAccessory",
      "outputs": [],
      "stateMutability": "nonpayable",
      "type": "function"
    },
    {
      "inputs": [
        {
          "internalType": "bytes4",
          "name": "interfaceId",
          "type": "bytes4"
        }
      ],
      "name": "supportsInterface",
      "outputs": [
        {
          "internalType": "bool",
          "name": "",
          "type": "bool"
        }
      ],
      "stateMutability": "view",
      "type": "function"
    },
    {
      "inputs": [],
      "name": "symbol",
      "outputs": [
        {
          "internalType": "string",
          "name": "",
          "type": "string"
        }
      ],
      "stateMutability": "view",
      "type": "function"
    },
    {
      "inputs": [
        {
          "internalType": "uint256",
          "name": "tokenId",
          "type": "uint256"
        }
      ],
      "name": "tokenURI",
      "outputs": [
        {
          "internalType": "string",
          "name": "",
          "type": "string"
        }
      ],
      "stateMutability": "view",
      "type": "function"
    },
    {
      "inputs": [],
      "name": "totalCategoryCount",
      "outputs": [
        {
          "internalType": "uint256",
          "name": "",
          "type": "uint256"
        }
      ],
      "stateMutability": "view",
      "type": "function"
    },
    {
      "inputs": [],
      "name": "totalSpecialyAccessoryCount",
      "outputs": [
        {
          "internalType": "uint256",
          "name": "",
          "type": "uint256"
        }
      ],
      "stateMutability": "view",
      "type": "function"
    },
    {
      "inputs": [
        {
          "internalType": "address",
          "name": "from",
          "type": "address"
        },
        {
          "internalType": "address",
          "name": "to",
          "type": "address"
        },
        {
          "internalType": "uint256",
          "name": "tokenId",
          "type": "uint256"
        }
      ],
      "name": "transferFrom",
      "outputs": [],
      "stateMutability": "nonpayable",
      "type": "function"
    },
    {
      "inputs": [
        {
          "internalType": "address",
          "name": "newOwner",
          "type": "address"
        }
      ],
      "name": "transferOwnership",
      "outputs": [],
      "stateMutability": "nonpayable",
      "type": "function"
    },
    {
      "inputs": [
        {
          "components": [
            {
              "internalType": "bool",
              "name": "isCategoryChange",
              "type": "bool"
            },
            {
              "internalType": "address",
              "name": "addr",
              "type": "address"
            },
            {
              "internalType": "uint256",
              "name": "changeableId",
              "type": "uint256"
            },
            {
              "internalType": "string",
              "name": "ipfsLink",
              "type": "string"
            }
          ],
          "internalType": "struct IBackedCommunityTokenV1.CategoryOrAccessoryChange[]",
          "name": "changes",
          "type": "tuple[]"
        }
      ],
      "name": "unlockAccessoryOrIncrementCategory",
      "outputs": [],
      "stateMutability": "nonpayable",
      "type": "function"
    }
  ],
  "bytecode": {
    "object": "0x608060405234801561001057600080fd5b50612ea8806100206000396000f3fe608060405234801561001057600080fd5b50600436106102485760003560e01c8063957a27541161013b578063c87b56dd116100b8578063db8a06cf1161007c578063db8a06cf14610531578063dfcf2cf814610555578063e985e9c514610568578063f2fde38b146105a4578063f851a440146105b757600080fd5b8063c87b56dd146104c5578063cb19a1d6146104d8578063d1c5df07146104eb578063d37825b21461050b578063d4f353c01461051e57600080fd5b8063affed0e0116100ff578063affed0e01461047a578063b2b52ef114610483578063b88d4fde1461048c578063c17c7faa1461049f578063c4d66de8146104b257600080fd5b8063957a27541461041957806395d89b411461044457806399d04bb01461044c578063a22cb4651461045f578063aa416e541461047257600080fd5b8063303e74df116101c957806370a082311161018d57806370a08231146103b6578063715018a6146103d75780637473660a146103df5780638da5cb5b146103ff578063904b65d91461041057600080fd5b8063303e74df146103575780633ed0b70e1461036a57806342842e0e1461037d5780636352211e146103905780636a627842146103a357600080fd5b80631073ce33116102105780631073ce33146102dd57806323b872dd146102f05780632e0dcbf7146103035780632f2aa210146103165780632fdaa4901461032957600080fd5b806301ffc9a71461024d57806306fdde0314610275578063081812fc1461028a578063095ea7b3146102b55780631050c356146102ca575b600080fd5b61026061025b366004612469565b6105ca565b60405190151581526020015b60405180910390f35b61027d61061c565b60405161026c91906124e5565b61029d6102983660046124f8565b6106ae565b6040516001600160a01b03909116815260200161026c565b6102c86102c3366004612526565b610748565b005b6102c86102d8366004612677565b61085e565b6102c86102eb36600461279e565b610916565b6102c86102fe366004612848565b610a22565b6102c8610311366004612889565b610a53565b6102c86103243660046124f8565b610ab8565b610260610337366004612526565b600960209081526000928352604080842090915290825290205460ff1681565b60035461029d906001600160a01b031681565b61027d6103783660046124f8565b610d0c565b6102c861038b366004612848565b610da6565b61029d61039e3660046124f8565b610dc1565b6102c86103b13660046128bd565b610e38565b6103c96103c43660046128bd565b610e59565b60405190815260200161026c565b6102c8610edf565b6103c96103ed3660046128bd565b600a6020526000908152604090205481565b60a4546001600160a01b031661029d565b6103c960075481565b6103c9610427366004612526565b600660209081526000928352604080842090915290825290205481565b61027d610f15565b6102c861045a3660046128da565b610f24565b6102c861046d36600461294b565b6110cd565b6102c86110d8565b6103c960005481565b6103c960045481565b6102c861049a366004612980565b611100565b60025461029d906001600160a01b031681565b6102c86104c03660046128bd565b611138565b61027d6104d33660046124f8565b61120f565b61027d6104e63660046128bd565b6113ce565b6104fe6104f93660046128bd565b6113e7565b60405161026c91906129ff565b6102c86105193660046128bd565b6115fd565b6102c861052c3660046128bd565b611649565b61054461053f3660046124f8565b611695565b60405161026c959493929190612a43565b600b5461029d906001600160a01b031681565b610260610576366004612a83565b6001600160a01b03918216600090815260776020908152604080832093909416825291909152205460ff1690565b6102c86105b23660046128bd565b611759565b60015461029d906001600160a01b031681565b60006001600160e01b031982166380ac58cd60e01b14806105fb57506001600160e01b03198216635b5e139f60e01b145b8061061657506301ffc9a760e01b6001600160e01b03198316145b92915050565b60606072805461062b90612abc565b80601f016020809104026020016040519081016040528092919081815260200182805461065790612abc565b80156106a45780601f10610679576101008083540402835291602001916106a4565b820191906000526020600020905b81548152906001019060200180831161068757829003601f168201915b5050505050905090565b6000818152607460205260408120546001600160a01b031661072c5760405162461bcd60e51b815260206004820152602c60248201527f4552433732313a20617070726f76656420717565727920666f72206e6f6e657860448201526b34b9ba32b73a103a37b5b2b760a11b60648201526084015b60405180910390fd5b506000908152607660205260409020546001600160a01b031690565b600061075382610dc1565b9050806001600160a01b0316836001600160a01b031614156107c15760405162461bcd60e51b815260206004820152602160248201527f4552433732313a20617070726f76616c20746f2063757272656e74206f776e656044820152603960f91b6064820152608401610723565b336001600160a01b03821614806107dd57506107dd8133610576565b61084f5760405162461bcd60e51b815260206004820152603860248201527f4552433732313a20617070726f76652063616c6c6572206973206e6f74206f7760448201527f6e6572206e6f7220617070726f76656420666f7220616c6c00000000000000006064820152608401610723565b61085983836117f1565b505050565b60a4546001600160a01b031633146108885760405162461bcd60e51b815260040161072390612af7565b60005b8151811015610912578181815181106108a6576108a6612b2c565b602002602001015160000151156108de576108d98282815181106108cc576108cc612b2c565b602002602001015161185f565b610900565b6109008282815181106108f3576108f3612b2c565b6020026020010151611906565b8061090a81612b58565b91505061088b565b5050565b60a4546001600160a01b031633146109405760405162461bcd60e51b815260040161072390612af7565b6040518060a001604052808260000151815260200182602001511515815260200182604001516001600160a01b03168152602001826060015181526020018260800151815250600860006007600081548092919061099d90612b58565b9091555081526020808201929092526040016000208251805191926109c7928492909101906123ba565b50602082015160018201805460408501516001600160a01b031661010002610100600160a81b0319931515939093166001600160a81b0319909116179190911790556060820151600282015560809091015160039091015550565b610a2c3382611b6d565b610a485760405162461bcd60e51b815260040161072390612b73565b610859838383611c63565b60a4546001600160a01b03163314610a7d5760405162461bcd60e51b815260040161072390612af7565b60048054829160059160009182610a9383612b58565b91905055815260200190815260200160002090805190602001906109129291906123ba565b336000908152600a60209081526040808320548484526008909252808320815160a08101909252805492939282908290610af190612abc565b80601f0160208091040260200160405190810160405280929190818152602001828054610b1d90612abc565b8015610b6a5780601f10610b3f57610100808354040283529160200191610b6a565b820191906000526020600020905b815481529060010190602001808311610b4d57829003601f168201915b5050509183525050600182015460ff811615156020808401919091526101009091046001600160a01b031660408301526002830154606083015260039092015460809091015281015190915015610c48576060810151336000908152600660209081526040808320608086015184529091529020541015610c435760405162461bcd60e51b815260206004820152602d60248201527f4261636b6564436f6d6d756e697479546f6b656e56313a207573657220646f6560448201526c73206e6f74207175616c69667960981b6064820152608401610723565b610cc9565b33600090815260096020908152604080832086845290915290205460ff16610cc95760405162461bcd60e51b815260206004820152602e60248201527f4261636b6564436f6d6d756e697479546f6b656e56313a206163636573736f7260448201526d1e481b9bdd081d5b9b1bd8dad95960921b6064820152608401610723565b336000818152600a6020526040808220869055518592859290917fea1b1f91e87d6596dd266ab28a1e2231755992988caaafc59ed42f2331d41e8c9190a4505050565b60056020526000908152604090208054610d2590612abc565b80601f0160208091040260200160405190810160405280929190818152602001828054610d5190612abc565b8015610d9e5780601f10610d7357610100808354040283529160200191610d9e565b820191906000526020600020905b815481529060010190602001808311610d8157829003601f168201915b505050505081565b61085983838360405180602001604052806000815250611100565b6000818152607460205260408120546001600160a01b0316806106165760405162461bcd60e51b815260206004820152602960248201527f4552433732313a206f776e657220717565727920666f72206e6f6e657869737460448201526832b73a103a37b5b2b760b91b6064820152608401610723565b60008054610e569183919080610e4d83612b58565b91905055611ce2565b50565b60006001600160a01b038216610ec35760405162461bcd60e51b815260206004820152602960248201527f4552433732313a2061646472657373207a65726f206973206e6f7420612076616044820152683634b21037bbb732b960b91b6064820152608401610723565b506001600160a01b031660009081526075602052604090205490565b60a4546001600160a01b03163314610f095760405162461bcd60e51b815260040161072390612af7565b610f136000611d54565b565b60606073805461062b90612abc565b600080610f3383850185612bc4565b60025491935091506001600160a01b03163314610fb85760405162461bcd60e51b815260206004820152603d60248201527f4261636b6564436f6d6d756e697479546f6b656e56313a2063616c6c6572206d60448201527f7573742062652063726f737320646f6d61696e206d657373656e6765720000006064820152608401610723565b600b5460025460408051636e296e4560e01b815290516001600160a01b039384169390921691636e296e45916004808201926020929091908290030181865afa158015611009573d6000803e3d6000fd5b505050506040513d601f19601f8201168201806040525081019061102d9190612c13565b6001600160a01b03161461109d5760405162461bcd60e51b815260206004820152603160248201527f4261636b6564436f6d6d756e697479546f6b656e56313a206f726967696e206d6044820152700757374206265204261636b65642050465607c1b6064820152608401610723565b6001600160a01b0382166000908152600c6020908152604090912082516110c6928401906123ba565b5050505050565b610912338383611da6565b6040805160208082018084526000808452338152600c9092529290209051610e5692906123ba565b61110a3383611b6d565b6111265760405162461bcd60e51b815260040161072390612b73565b61113284848484611e75565b50505050565b60006111446001611ea8565b9050801561115c57600d805461ff0019166101001790555b6111ab6040518060400160405280600f81526020016e4261636b6564436f6d6d756e69747960881b81525060405180604001604052806006815260200165109050d2d15160d21b815250611f37565b600380546001600160a01b0319166001600160a01b038416179055801561091257600d805461ff0019169055604051600181527f7f26b83ff96e1f2b6a682f133852f6798a09c465da95921460cefb38474024989060200160405180910390a15050565b6040516331a9108f60e11b8152600481018290526060906000903090636352211e90602401602060405180830381865afa158015611251573d6000803e3d6000fd5b505050506040513d601f19601f820116820180604052508101906112759190612c13565b905060006004546001600160401b0381111561129357611293612552565b6040519080825280602002602001820160405280156112bc578160200160208202803683370190505b50905060005b600454811015611321576001600160a01b0383166000908152600660209081526040808320848452909152902054825183908390811061130457611304612b2c565b60209081029190910101528061131981612b58565b9150506112c2565b506003546001600160a01b038381166000908152600a6020908152604080832054835260089091529081902060010154905163bd18ec6160e01b81529282169263bd18ec6192611381928792879261010090920490911690600401612c30565b600060405180830381865afa15801561139e573d6000803e3d6000fd5b505050506040513d6000823e601f3d908101601f191682016040526113c69190810190612c95565b949350505050565b600c6020526000908152604090208054610d2590612abc565b606060006007546001600160401b0381111561140557611405612552565b60405190808252806020026020018201604052801561142e578160200160208202803683370190505b50905060005b6007548110156115f657600081815260086020526040808220815160a0810190925280548290829061146590612abc565b80601f016020809104026020016040519081016040528092919081815260200182805461149190612abc565b80156114de5780601f106114b3576101008083540402835291602001916114de565b820191906000526020600020905b8154815290600101906020018083116114c157829003601f168201915b5050509183525050600182015460ff811615156020808401919091526101009091046001600160a01b03166040830152600283015460608301526003909201546080909101528101519091501561158f5760608101516001600160a01b038616600090815260066020908152604080832060808601518452909152902054101561156a5760001961156c565b815b83838151811061157e5761157e612b2c565b6020026020010181815250506115e3565b6001600160a01b038516600090815260096020908152604080832085845290915290205460ff166115c2576000196115c4565b815b8383815181106115d6576115d6612b2c565b6020026020010181815250505b50806115ee81612b58565b915050611434565b5092915050565b60a4546001600160a01b031633146116275760405162461bcd60e51b815260040161072390612af7565b600380546001600160a01b0319166001600160a01b0392909216919091179055565b60a4546001600160a01b031633146116735760405162461bcd60e51b815260040161072390612af7565b600b80546001600160a01b0319166001600160a01b0392909216919091179055565b6008602052600090815260409020805481906116b090612abc565b80601f01602080910402602001604051908101604052809291908181526020018280546116dc90612abc565b80156117295780601f106116fe57610100808354040283529160200191611729565b820191906000526020600020905b81548152906001019060200180831161170c57829003601f168201915b5050505060018301546002840154600390940154929360ff8216936101009092046001600160a01b031692509085565b60a4546001600160a01b031633146117835760405162461bcd60e51b815260040161072390612af7565b6001600160a01b0381166117e85760405162461bcd60e51b815260206004820152602660248201527f4f776e61626c653a206e6577206f776e657220697320746865207a65726f206160448201526564647265737360d01b6064820152608401610723565b610e5681611d54565b600081815260766020526040902080546001600160a01b0319166001600160a01b038416908117909155819061182682610dc1565b6001600160a01b03167f8c5be1e5ebec7d5bd14f71427d1e84f3dd0314c0f7b2291e5b200ac8c7c3b92560405160405180910390a45050565b6020808201516001600160a01b031660009081526006825260408082208185015183529092529081208054829061189590612b58565b918290555060608301516040519192506118ae91612d0b565b6040518091039020826040015183602001516001600160a01b03167f4adfb6c8799106a05c87f98cd81c34d5636f2a657ab1d2b940cd96a643d91b4c846040516118fa91815260200190565b60405180910390a45050565b600060086000836040015181526020019081526020016000206040518060a001604052908160008201805461193a90612abc565b80601f016020809104026020016040519081016040528092919081815260200182805461196690612abc565b80156119b35780601f10611988576101008083540402835291602001916119b3565b820191906000526020600020905b81548152906001019060200180831161199657829003601f168201915b5050509183525050600182015460ff811615156020808401919091526101009091046001600160a01b031660408301526002830154606083015260039092015460809091015281015190915015611a6a5760405162461bcd60e51b815260206004820152603560248201527f4261636b6564436f6d6d756e697479546f6b656e56313a204163636573736f726044820152741e481b5d5cdd0818994818591b5a5b8818985cd959605a1b6064820152608401610723565b60408101516001600160a01b0316611add5760405162461bcd60e51b815260206004820152603060248201527f4261636b6564436f6d6d756e697479546f6b656e56313a204163636573736f7260448201526f1e48191bd95cc81b9bdd08195e1a5cdd60821b6064820152608401610723565b6020808301516001600160a01b03166000908152600982526040808220818601518352909252819020805460ff1916600117905560608301519051611b229190612d0b565b6040518091039020826040015183602001516001600160a01b03167f21d40621155f17d6d4e01f8387b7ac9f14f7b993868011846ad64e5ad770e46460405160405180910390a45050565b6000818152607460205260408120546001600160a01b0316611be65760405162461bcd60e51b815260206004820152602c60248201527f4552433732313a206f70657261746f7220717565727920666f72206e6f6e657860448201526b34b9ba32b73a103a37b5b2b760a11b6064820152608401610723565b6000611bf183610dc1565b9050806001600160a01b0316846001600160a01b03161480611c3857506001600160a01b0380821660009081526077602090815260408083209388168352929052205460ff165b806113c65750836001600160a01b0316611c51846106ae565b6001600160a01b031614949350505050565b60a4546001600160a01b03163314611cd75760405162461bcd60e51b815260206004820152603160248201527f455243373231536f756c626f756e643a206f6e6c7920636f6e7472616374206f6044820152703bb732b91031b0b7103a3930b739b332b960791b6064820152608401610723565b610859838383611f68565b6001611ced83610e59565b10611d4a5760405162461bcd60e51b815260206004820152602760248201527f455243373231536f756c626f756e643a2063616e6e6f74206f776e206d6f7265604482015266207468616e203160c81b6064820152608401610723565b6109128282612104565b60a480546001600160a01b038381166001600160a01b0319831681179093556040519116919082907f8be0079c531659141344cd1fd0a4f28419497f9722a3daafe3b4186f6b6457e090600090a35050565b816001600160a01b0316836001600160a01b03161415611e085760405162461bcd60e51b815260206004820152601960248201527f4552433732313a20617070726f766520746f2063616c6c6572000000000000006044820152606401610723565b6001600160a01b03838116600081815260776020908152604080832094871680845294825291829020805460ff191686151590811790915591519182527f17307eab39ab6107e8899845ad3d59bd9653f200f220920489ca2b5937696c31910160405180910390a3505050565b611e80848484611c63565b611e8c84848484612246565b6111325760405162461bcd60e51b815260040161072390612d27565b600d54600090610100900460ff1615611ef1578160ff166001148015611ecd5750303b155b611ee95760405162461bcd60e51b815260040161072390612d79565b506000919050565b600d5460ff808416911610611f185760405162461bcd60e51b815260040161072390612d79565b50600d805460ff191660ff92909216919091179055600190565b919050565b600d54610100900460ff16611f5e5760405162461bcd60e51b815260040161072390612dc7565b6109128282612344565b826001600160a01b0316611f7b82610dc1565b6001600160a01b031614611fdf5760405162461bcd60e51b815260206004820152602560248201527f4552433732313a207472616e736665722066726f6d20696e636f72726563742060448201526437bbb732b960d91b6064820152608401610723565b6001600160a01b0382166120415760405162461bcd60e51b8152602060048201526024808201527f4552433732313a207472616e7366657220746f20746865207a65726f206164646044820152637265737360e01b6064820152608401610723565b61204c6000826117f1565b6001600160a01b0383166000908152607560205260408120805460019290612075908490612e12565b90915550506001600160a01b03821660009081526075602052604081208054600192906120a3908490612e29565b909155505060008181526074602052604080822080546001600160a01b0319166001600160a01b0386811691821790925591518493918716917fddf252ad1be2c89b69c2b068fc378daa952ba7f163c4a11628f55a4df523b3ef91a4505050565b6001600160a01b03821661215a5760405162461bcd60e51b815260206004820181905260248201527f4552433732313a206d696e7420746f20746865207a65726f20616464726573736044820152606401610723565b6000818152607460205260409020546001600160a01b0316156121bf5760405162461bcd60e51b815260206004820152601c60248201527f4552433732313a20746f6b656e20616c7265616479206d696e746564000000006044820152606401610723565b6001600160a01b03821660009081526075602052604081208054600192906121e8908490612e29565b909155505060008181526074602052604080822080546001600160a01b0319166001600160a01b03861690811790915590518392907fddf252ad1be2c89b69c2b068fc378daa952ba7f163c4a11628f55a4df523b3ef908290a45050565b60006001600160a01b0384163b1561233957604051630a85bd0160e11b81526001600160a01b0385169063150b7a029061228a903390899088908890600401612e41565b6020604051808303816000875af19250505080156122c5575060408051601f3d908101601f191682019092526122c291810190612e7e565b60015b61231f573d8080156122f3576040519150601f19603f3d011682016040523d82523d6000602084013e6122f8565b606091505b5080516123175760405162461bcd60e51b815260040161072390612d27565b805181602001fd5b6001600160e01b031916630a85bd0160e11b1490506113c6565b506001949350505050565b600d54610100900460ff1661236b5760405162461bcd60e51b815260040161072390612dc7565b6109128282600d54610100900460ff166123975760405162461bcd60e51b815260040161072390612dc7565b81516123aa9060729060208501906123ba565b5080516108599060739060208401905b8280546123c690612abc565b90600052602060002090601f0160209004810192826123e8576000855561242e565b82601f1061240157805160ff191683800117855561242e565b8280016001018555821561242e579182015b8281111561242e578251825591602001919060010190612413565b5061243a92915061243e565b5090565b5b8082111561243a576000815560010161243f565b6001600160e01b031981168114610e5657600080fd5b60006020828403121561247b57600080fd5b813561248681612453565b9392505050565b60005b838110156124a8578181015183820152602001612490565b838111156111325750506000910152565b600081518084526124d181602086016020860161248d565b601f01601f19169290920160200192915050565b60208152600061248660208301846124b9565b60006020828403121561250a57600080fd5b5035919050565b6001600160a01b0381168114610e5657600080fd5b6000806040838503121561253957600080fd5b823561254481612511565b946020939093013593505050565b634e487b7160e01b600052604160045260246000fd5b604051608081016001600160401b038111828210171561258a5761258a612552565b60405290565b60405160a081016001600160401b038111828210171561258a5761258a612552565b604051601f8201601f191681016001600160401b03811182821017156125da576125da612552565b604052919050565b80358015158114611f3257600080fd5b60006001600160401b0382111561260b5761260b612552565b50601f01601f191660200190565b600061262c612627846125f2565b6125b2565b905082815283838301111561264057600080fd5b828260208301376000602084830101529392505050565b600082601f83011261266857600080fd5b61248683833560208501612619565b6000602080838503121561268a57600080fd5b82356001600160401b03808211156126a157600080fd5b818501915085601f8301126126b557600080fd5b8135818111156126c7576126c7612552565b8060051b6126d68582016125b2565b91825283810185019185810190898411156126f057600080fd5b86860192505b838310156127915782358581111561270e5760008081fd5b86016080818c03601f19018113156127265760008081fd5b61272e612568565b6127398a84016125e2565b815260408084013561274a81612511565b828c01526060848101358284015292840135928984111561276d57600091508182fd5b61277b8f8d86880101612657565b90830152508452505091860191908601906126f6565b9998505050505050505050565b6000602082840312156127b057600080fd5b81356001600160401b03808211156127c757600080fd5b9083019060a082860312156127db57600080fd5b6127e3612590565b8235828111156127f257600080fd5b6127fe87828601612657565b82525061280d602084016125e2565b60208201526040830135915061282282612511565b816040820152606083013560608201526080830135608082015280935050505092915050565b60008060006060848603121561285d57600080fd5b833561286881612511565b9250602084013561287881612511565b929592945050506040919091013590565b60006020828403121561289b57600080fd5b81356001600160401b038111156128b157600080fd5b6113c684828501612657565b6000602082840312156128cf57600080fd5b813561248681612511565b600080602083850312156128ed57600080fd5b82356001600160401b038082111561290457600080fd5b818501915085601f83011261291857600080fd5b81358181111561292757600080fd5b86602082850101111561293957600080fd5b60209290920196919550909350505050565b6000806040838503121561295e57600080fd5b823561296981612511565b9150612977602084016125e2565b90509250929050565b6000806000806080858703121561299657600080fd5b84356129a181612511565b935060208501356129b181612511565b92506040850135915060608501356001600160401b038111156129d357600080fd5b8501601f810187136129e457600080fd5b6129f387823560208401612619565b91505092959194509250565b6020808252825182820181905260009190848201906040850190845b81811015612a3757835183529284019291840191600101612a1b565b50909695505050505050565b60a081526000612a5660a08301886124b9565b9515156020830152506001600160a01b039390931660408401526060830191909152608090910152919050565b60008060408385031215612a9657600080fd5b8235612aa181612511565b91506020830135612ab181612511565b809150509250929050565b600181811c90821680612ad057607f821691505b60208210811415612af157634e487b7160e01b600052602260045260246000fd5b50919050565b6020808252818101527f4f776e61626c653a2063616c6c6572206973206e6f7420746865206f776e6572604082015260600190565b634e487b7160e01b600052603260045260246000fd5b634e487b7160e01b600052601160045260246000fd5b6000600019821415612b6c57612b6c612b42565b5060010190565b60208082526031908201527f4552433732313a207472616e736665722063616c6c6572206973206e6f74206f6040820152701ddb995c881b9bdc88185c1c1c9bdd9959607a1b606082015260800190565b60008060408385031215612bd757600080fd5b8235612be281612511565b915060208301356001600160401b03811115612bfd57600080fd5b612c0985828601612657565b9150509250929050565b600060208284031215612c2557600080fd5b815161248681612511565b6001600160a01b038481168252606060208084018290528551918401829052600092868201929091906080860190855b81811015612c7c57855183529483019491830191600101612c60565b5050809450505080851660408501525050949350505050565b600060208284031215612ca757600080fd5b81516001600160401b03811115612cbd57600080fd5b8201601f81018413612cce57600080fd5b8051612cdc612627826125f2565b818152856020838501011115612cf157600080fd5b612d0282602083016020860161248d565b95945050505050565b60008251612d1d81846020870161248d565b9190910192915050565b60208082526032908201527f4552433732313a207472616e7366657220746f206e6f6e20455243373231526560408201527131b2b4bb32b91034b6b83632b6b2b73a32b960711b606082015260800190565b6020808252602e908201527f496e697469616c697a61626c653a20636f6e747261637420697320616c72656160408201526d191e481a5b9a5d1a585b1a5e995960921b606082015260800190565b6020808252602b908201527f496e697469616c697a61626c653a20636f6e7472616374206973206e6f74206960408201526a6e697469616c697a696e6760a81b606082015260800190565b600082821015612e2457612e24612b42565b500390565b60008219821115612e3c57612e3c612b42565b500190565b6001600160a01b0385811682528416602082015260408101839052608060608201819052600090612e74908301846124b9565b9695505050505050565b600060208284031215612e9057600080fd5b81516124868161245356fea164736f6c634300080c000a",
    "linkReferences": {}
  }
}