{
  "abi": [
    {
      "anonymous": false,
      "inputs": [
        {
          "indexed": true,
          "internalType": "address",
          "name": "addr",
          "type": "address"
        },
        {
          "indexed": true,
          "internalType": "uint256",
          "name": "oldAccessory",
          "type": "uint256"
        },
        {
          "indexed": true,
          "internalType": "uint256",
          "name": "newAccessory",
          "type": "uint256"
        }
      ],
      "name": "AccessorySwapped",
      "type": "event"
    },
    {
      "anonymous": false,
      "inputs": [
        {
          "indexed": true,
          "internalType": "address",
          "name": "addr",
          "type": "address"
        },
        {
          "indexed": true,
          "internalType": "uint256",
          "name": "accessoryId",
          "type": "uint256"
        },
        {
          "indexed": true,
          "internalType": "string",
          "name": "ipfsLink",
          "type": "string"
        }
      ],
      "name": "AccessoryUnlocked",
      "type": "event"
    },
    {
      "anonymous": false,
      "inputs": [
        {
          "indexed": true,
          "internalType": "address",
          "name": "owner",
          "type": "address"
        },
        {
          "indexed": true,
          "internalType": "address",
          "name": "approved",
          "type": "address"
        },
        {
          "indexed": true,
          "internalType": "uint256",
          "name": "tokenId",
          "type": "uint256"
        }
      ],
      "name": "Approval",
      "type": "event"
    },
    {
      "anonymous": false,
      "inputs": [
        {
          "indexed": true,
          "internalType": "address",
          "name": "owner",
          "type": "address"
        },
        {
          "indexed": true,
          "internalType": "address",
          "name": "operator",
          "type": "address"
        },
        {
          "indexed": false,
          "internalType": "bool",
          "name": "approved",
          "type": "bool"
        }
      ],
      "name": "ApprovalForAll",
      "type": "event"
    },
    {
      "anonymous": false,
      "inputs": [
        {
          "indexed": true,
          "internalType": "address",
          "name": "addr",
          "type": "address"
        },
        {
          "indexed": true,
          "internalType": "uint256",
          "name": "categoryId",
          "type": "uint256"
        },
        {
          "indexed": true,
          "internalType": "string",
          "name": "ipfsLink",
          "type": "string"
        },
        {
          "indexed": false,
          "internalType": "uint256",
          "name": "newScore",
          "type": "uint256"
        }
      ],
      "name": "CategoryScoreChanged",
      "type": "event"
    },
    {
      "anonymous": false,
      "inputs": [
        {
          "indexed": false,
          "internalType": "uint8",
          "name": "version",
          "type": "uint8"
        }
      ],
      "name": "Initialized",
      "type": "event"
    },
    {
      "anonymous": false,
      "inputs": [
        {
          "indexed": true,
          "internalType": "address",
          "name": "previousOwner",
          "type": "address"
        },
        {
          "indexed": true,
          "internalType": "address",
          "name": "newOwner",
          "type": "address"
        }
      ],
      "name": "OwnershipTransferred",
      "type": "event"
    },
    {
      "anonymous": false,
      "inputs": [
        {
          "indexed": true,
          "internalType": "address",
          "name": "from",
          "type": "address"
        },
        {
          "indexed": true,
          "internalType": "address",
          "name": "to",
          "type": "address"
        },
        {
          "indexed": true,
          "internalType": "uint256",
          "name": "tokenId",
          "type": "uint256"
        }
      ],
      "name": "Transfer",
      "type": "event"
    },
    {
      "inputs": [
        {
          "internalType": "uint256",
          "name": "",
          "type": "uint256"
        }
      ],
      "name": "accessoryIdToAccessory",
      "outputs": [
        {
          "internalType": "string",
          "name": "name",
          "type": "string"
        },
        {
          "internalType": "bool",
          "name": "xpBased",
          "type": "bool"
        },
        {
          "internalType": "address",
          "name": "artContract",
          "type": "address"
        },
        {
          "internalType": "uint256",
          "name": "qualifyingXPScore",
          "type": "uint256"
        },
        {
          "internalType": "uint256",
          "name": "xpCategory",
          "type": "uint256"
        }
      ],
      "stateMutability": "view",
      "type": "function"
    },
    {
      "inputs": [
        {
          "internalType": "string",
          "name": "displayName",
          "type": "string"
        }
      ],
      "name": "addCategory",
      "outputs": [],
      "stateMutability": "nonpayable",
      "type": "function"
    },
    {
      "inputs": [
        {
          "components": [
            {
              "internalType": "string",
              "name": "name",
              "type": "string"
            },
            {
              "internalType": "bool",
              "name": "xpBased",
              "type": "bool"
            },
            {
              "internalType": "address",
              "name": "artContract",
              "type": "address"
            },
            {
              "internalType": "uint256",
              "name": "qualifyingXPScore",
              "type": "uint256"
            },
            {
              "internalType": "uint256",
              "name": "xpCategory",
              "type": "uint256"
            }
          ],
          "internalType": "struct IBackedCommunityTokenV1.Accessory",
          "name": "accessory",
          "type": "tuple"
        }
      ],
      "name": "addSpecialAccessory",
      "outputs": [],
      "stateMutability": "nonpayable",
      "type": "function"
    },
    {
      "inputs": [
        {
          "internalType": "address",
          "name": "",
          "type": "address"
        }
      ],
      "name": "addressToAccessoryEnabled",
      "outputs": [
        {
          "internalType": "uint256",
          "name": "",
          "type": "uint256"
        }
      ],
      "stateMutability": "view",
      "type": "function"
    },
    {
      "inputs": [
        {
          "internalType": "address",
          "name": "",
          "type": "address"
        },
        {
          "internalType": "uint256",
          "name": "",
          "type": "uint256"
        }
      ],
      "name": "addressToAccessoryUnlocked",
      "outputs": [
        {
          "internalType": "bool",
          "name": "",
          "type": "bool"
        }
      ],
      "stateMutability": "view",
      "type": "function"
    },
    {
      "inputs": [
        {
          "internalType": "address",
          "name": "",
          "type": "address"
        },
        {
          "internalType": "uint256",
          "name": "",
          "type": "uint256"
        }
      ],
      "name": "addressToCategoryScore",
      "outputs": [
        {
          "internalType": "uint256",
          "name": "",
          "type": "uint256"
        }
      ],
      "stateMutability": "view",
      "type": "function"
    },
    {
      "inputs": [
        {
          "internalType": "address",
          "name": "",
          "type": "address"
        }
      ],
      "name": "addressToPFPSVGLink",
      "outputs": [
        {
          "internalType": "string",
          "name": "",
          "type": "string"
        }
      ],
      "stateMutability": "view",
      "type": "function"
    },
    {
      "inputs": [
        {
          "internalType": "address",
          "name": "to",
          "type": "address"
        },
        {
          "internalType": "uint256",
          "name": "tokenId",
          "type": "uint256"
        }
      ],
      "name": "approve",
      "outputs": [],
      "stateMutability": "nonpayable",
      "type": "function"
    },
    {
      "inputs": [
        {
          "internalType": "address",
          "name": "owner",
          "type": "address"
        }
      ],
      "name": "balanceOf",
      "outputs": [
        {
          "internalType": "uint256",
          "name": "",
          "type": "uint256"
        }
      ],
      "stateMutability": "view",
      "type": "function"
    },
    {
      "inputs": [],
      "name": "bunnyPFPContractAddress",
      "outputs": [
        {
          "internalType": "address",
          "name": "",
          "type": "address"
        }
      ],
      "stateMutability": "view",
      "type": "function"
    },
    {
      "inputs": [
        {
          "internalType": "uint256",
          "name": "",
          "type": "uint256"
        }
      ],
      "name": "categoryIdToDisplayName",
      "outputs": [
        {
          "internalType": "string",
          "name": "",
          "type": "string"
        }
      ],
      "stateMutability": "view",
      "type": "function"
    },
    {
      "inputs": [],
      "name": "cdmAddr",
      "outputs": [
        {
          "internalType": "address",
          "name": "",
          "type": "address"
        }
      ],
      "stateMutability": "view",
      "type": "function"
    },
    {
      "inputs": [],
      "name": "clearBunnyPFPLink",
      "outputs": [],
      "stateMutability": "nonpayable",
      "type": "function"
    },
    {
      "inputs": [],
      "name": "descriptor",
      "outputs": [
        {
          "internalType": "contract IBackedCommunityTokenDescriptorV1",
          "name": "",
          "type": "address"
        }
      ],
      "stateMutability": "view",
      "type": "function"
    },
    {
      "inputs": [
        {
          "internalType": "uint256",
          "name": "tokenId",
          "type": "uint256"
        }
      ],
      "name": "getApproved",
      "outputs": [
        {
          "internalType": "address",
          "name": "",
          "type": "address"
        }
      ],
      "stateMutability": "view",
      "type": "function"
    },
    {
      "inputs": [
        {
          "internalType": "address",
          "name": "addr",
          "type": "address"
        }
      ],
      "name": "getUnlockedAccessoriesForAddress",
      "outputs": [
        {
          "internalType": "int256[]",
          "name": "",
          "type": "int256[]"
        }
      ],
      "stateMutability": "view",
      "type": "function"
    },
    {
      "inputs": [
        {
          "internalType": "address",
          "name": "_descriptorAddress",
          "type": "address"
        }
      ],
      "name": "initialize",
      "outputs": [],
      "stateMutability": "nonpayable",
      "type": "function"
    },
    {
      "inputs": [
        {
          "internalType": "address",
          "name": "owner",
          "type": "address"
        },
        {
          "internalType": "address",
          "name": "operator",
          "type": "address"
        }
      ],
      "name": "isApprovedForAll",
      "outputs": [
        {
          "internalType": "bool",
          "name": "",
          "type": "bool"
        }
      ],
      "stateMutability": "view",
      "type": "function"
    },
    {
      "inputs": [
        {
          "internalType": "address",
          "name": "mintTo",
          "type": "address"
        }
      ],
      "name": "mint",
      "outputs": [],
      "stateMutability": "nonpayable",
      "type": "function"
    },
    {
      "inputs": [],
      "name": "name",
      "outputs": [
        {
          "internalType": "string",
          "name": "",
          "type": "string"
        }
      ],
      "stateMutability": "view",
      "type": "function"
    },
    {
      "inputs": [],
      "name": "nonce",
      "outputs": [
        {
          "internalType": "uint256",
          "name": "",
          "type": "uint256"
        }
      ],
      "stateMutability": "view",
      "type": "function"
    },
    {
      "inputs": [],
      "name": "owner",
      "outputs": [
        {
          "internalType": "address",
          "name": "",
          "type": "address"
        }
      ],
      "stateMutability": "view",
      "type": "function"
    },
    {
      "inputs": [
        {
          "internalType": "uint256",
          "name": "tokenId",
          "type": "uint256"
        }
      ],
      "name": "ownerOf",
      "outputs": [
        {
          "internalType": "address",
          "name": "",
          "type": "address"
        }
      ],
      "stateMutability": "view",
      "type": "function"
    },
    {
      "inputs": [],
      "name": "renounceOwnership",
      "outputs": [],
      "stateMutability": "nonpayable",
      "type": "function"
    },
    {
      "inputs": [
        {
          "internalType": "address",
          "name": "from",
          "type": "address"
        },
        {
          "internalType": "address",
          "name": "to",
          "type": "address"
        },
        {
          "internalType": "uint256",
          "name": "tokenId",
          "type": "uint256"
        }
      ],
      "name": "safeTransferFrom",
      "outputs": [],
      "stateMutability": "nonpayable",
      "type": "function"
    },
    {
      "inputs": [
        {
          "internalType": "address",
          "name": "from",
          "type": "address"
        },
        {
          "internalType": "address",
          "name": "to",
          "type": "address"
        },
        {
          "internalType": "uint256",
          "name": "tokenId",
          "type": "uint256"
        },
        {
          "internalType": "bytes",
          "name": "_data",
          "type": "bytes"
        }
      ],
      "name": "safeTransferFrom",
      "outputs": [],
      "stateMutability": "nonpayable",
      "type": "function"
    },
    {
      "inputs": [
        {
          "internalType": "address",
          "name": "operator",
          "type": "address"
        },
        {
          "internalType": "bool",
          "name": "approved",
          "type": "bool"
        }
      ],
      "name": "setApprovalForAll",
      "outputs": [],
      "stateMutability": "nonpayable",
      "type": "function"
    },
    {
      "inputs": [
        {
          "internalType": "address",
          "name": "addr",
          "type": "address"
        }
      ],
      "name": "setBunnyPFPContract",
      "outputs": [],
      "stateMutability": "nonpayable",
      "type": "function"
    },
    {
      "inputs": [
        {
          "internalType": "bytes",
          "name": "message",
          "type": "bytes"
        }
      ],
      "name": "setBunnyPFPSVGFromL1",
      "outputs": [],
      "stateMutability": "nonpayable",
      "type": "function"
    },
    {
      "inputs": [
        {
          "internalType": "address",
          "name": "addr",
          "type": "address"
        }
      ],
      "name": "setDescriptorContract",
      "outputs": [],
      "stateMutability": "nonpayable",
      "type": "function"
    },
    {
      "inputs": [
        {
          "internalType": "uint256",
          "name": "accessoryId",
          "type": "uint256"
        }
      ],
      "name": "setEnabledAccessory",
      "outputs": [],
      "stateMutability": "nonpayable",
      "type": "function"
    },
    {
      "inputs": [
        {
          "internalType": "address",
          "name": "addr",
          "type": "address"
        }
      ],
      "name": "setOptimismCrossChainMessengerAddress",
      "outputs": [],
      "stateMutability": "nonpayable",
      "type": "function"
    },
    {
      "inputs": [
        {
          "internalType": "bytes4",
          "name": "interfaceId",
          "type": "bytes4"
        }
      ],
      "name": "supportsInterface",
      "outputs": [
        {
          "internalType": "bool",
          "name": "",
          "type": "bool"
        }
      ],
      "stateMutability": "view",
      "type": "function"
    },
    {
      "inputs": [],
      "name": "symbol",
      "outputs": [
        {
          "internalType": "string",
          "name": "",
          "type": "string"
        }
      ],
      "stateMutability": "view",
      "type": "function"
    },
    {
      "inputs": [
        {
          "internalType": "uint256",
          "name": "tokenId",
          "type": "uint256"
        }
      ],
      "name": "tokenURI",
      "outputs": [
        {
          "internalType": "string",
          "name": "",
          "type": "string"
        }
      ],
      "stateMutability": "view",
      "type": "function"
    },
    {
      "inputs": [],
      "name": "totalCategoryCount",
      "outputs": [
        {
          "internalType": "uint256",
          "name": "",
          "type": "uint256"
        }
      ],
      "stateMutability": "view",
      "type": "function"
    },
    {
      "inputs": [],
      "name": "totalSpecialyAccessoryCount",
      "outputs": [
        {
          "internalType": "uint256",
          "name": "",
          "type": "uint256"
        }
      ],
      "stateMutability": "view",
      "type": "function"
    },
    {
      "inputs": [
        {
          "internalType": "address",
          "name": "from",
          "type": "address"
        },
        {
          "internalType": "address",
          "name": "to",
          "type": "address"
        },
        {
          "internalType": "uint256",
          "name": "tokenId",
          "type": "uint256"
        }
      ],
      "name": "transferFrom",
      "outputs": [],
      "stateMutability": "nonpayable",
      "type": "function"
    },
    {
      "inputs": [
        {
          "internalType": "address",
          "name": "newOwner",
          "type": "address"
        }
      ],
      "name": "transferOwnership",
      "outputs": [],
      "stateMutability": "nonpayable",
      "type": "function"
    },
    {
      "inputs": [
        {
          "components": [
            {
              "internalType": "bool",
              "name": "isCategoryChange",
              "type": "bool"
            },
            {
              "internalType": "address",
              "name": "addr",
              "type": "address"
            },
            {
              "internalType": "uint256",
              "name": "changeableId",
              "type": "uint256"
            },
            {
              "internalType": "string",
              "name": "ipfsLink",
              "type": "string"
            }
          ],
          "internalType": "struct IBackedCommunityTokenV1.CategoryOrAccessoryChange[]",
          "name": "changes",
          "type": "tuple[]"
        }
      ],
      "name": "unlockAccessoryOrIncrementCategory",
      "outputs": [],
      "stateMutability": "nonpayable",
      "type": "function"
    }
  ],
  "bytecode": {
    "object": "0x608060405234801561001057600080fd5b50613049806100206000396000f3fe608060405234801561001057600080fd5b50600436106102485760003560e01c80638da5cb5b1161013b578063c4d66de8116100b8578063d4f353c01161007c578063d4f353c014610531578063db8a06cf14610544578063dfcf2cf814610568578063e985e9c51461057b578063f2fde38b146105b757600080fd5b8063c4d66de8146104c5578063c87b56dd146104d8578063cb19a1d6146104eb578063d1c5df07146104fe578063d37825b21461051e57600080fd5b8063aa416e54116100ff578063aa416e5414610485578063affed0e01461048d578063b2b52ef114610496578063b88d4fde1461049f578063c17c7faa146104b257600080fd5b80638da5cb5b14610425578063904b65d914610436578063957a27541461043f57806395d89b411461046a578063a22cb4651461047257600080fd5b80632fdaa490116101c95780636352211e1161018d5780636352211e146103b65780636a627842146103c957806370a08231146103dc578063715018a6146103fd5780637473660a1461040557600080fd5b80632fdaa4901461033c578063303e74df1461036a5780633ed0b70e1461037d57806342842e0e146103905780634c0332a5146103a357600080fd5b80631050c356116102105780631050c356146102dd5780631073ce33146102f057806323b872dd146103035780632e0dcbf7146103165780632f2aa2101461032957600080fd5b806301ffc9a71461024d5780630303348f1461027557806306fdde031461028a578063081812fc1461029f578063095ea7b3146102ca575b600080fd5b61026061025b36600461253e565b6105ca565b60405190151581526020015b60405180910390f35b610288610283366004612577565b61061c565b005b610292610671565b60405161026c91906125ec565b6102b26102ad3660046125ff565b610703565b6040516001600160a01b03909116815260200161026c565b6102886102d8366004612618565b610798565b6102886102eb366004612769565b6108ae565b6102886102fe366004612890565b610966565b61028861031136600461293a565b610a72565b61028861032436600461297b565b610aa3565b6102886103373660046125ff565b610b08565b61026061034a366004612618565b600860209081526000928352604080842090915290825290205460ff1681565b6002546102b2906001600160a01b031681565b61029261038b3660046125ff565b610d65565b61028861039e36600461293a565b610dff565b6102886103b13660046129af565b610e1a565b6102b26103c43660046125ff565b610fc3565b6102886103d7366004612577565b61103a565b6103ef6103ea366004612577565b61105b565b60405190815260200161026c565b6102886110e1565b6103ef610413366004612577565b60096020526000908152604090205481565b60a3546001600160a01b03166102b2565b6103ef60065481565b6103ef61044d366004612618565b600560209081526000928352604080842090915290825290205481565b610292611117565b610288610480366004612a20565b611126565b610288611131565b6103ef60005481565b6103ef60035481565b6102886104ad366004612a55565b611159565b6001546102b2906001600160a01b031681565b6102886104d3366004612577565b611191565b6102926104e63660046125ff565b611268565b6102926104f9366004612577565b611433565b61051161050c366004612577565b61144c565b60405161026c9190612ad4565b61028861052c366004612577565b611662565b61028861053f366004612577565b6116ae565b6105576105523660046125ff565b6116fa565b60405161026c959493929190612b18565b600a546102b2906001600160a01b031681565b610260610589366004612b58565b6001600160a01b03918216600090815260766020908152604080832093909416825291909152205460ff1690565b6102886105c5366004612577565b6117be565b60006001600160e01b031982166380ac58cd60e01b14806105fb57506001600160e01b03198216635b5e139f60e01b145b8061061657506301ffc9a760e01b6001600160e01b03198316145b92915050565b60a3546001600160a01b0316331461064f5760405162461bcd60e51b815260040161064690612b91565b60405180910390fd5b600180546001600160a01b0319166001600160a01b0392909216919091179055565b60606071805461068090612bc6565b80601f01602080910402602001604051908101604052809291908181526020018280546106ac90612bc6565b80156106f95780601f106106ce576101008083540402835291602001916106f9565b820191906000526020600020905b8154815290600101906020018083116106dc57829003601f168201915b5050505050905090565b6000818152607360205260408120546001600160a01b031661077c5760405162461bcd60e51b815260206004820152602c60248201527f4552433732313a20617070726f76656420717565727920666f72206e6f6e657860448201526b34b9ba32b73a103a37b5b2b760a11b6064820152608401610646565b506000908152607560205260409020546001600160a01b031690565b60006107a382610fc3565b9050806001600160a01b0316836001600160a01b031614156108115760405162461bcd60e51b815260206004820152602160248201527f4552433732313a20617070726f76616c20746f2063757272656e74206f776e656044820152603960f91b6064820152608401610646565b336001600160a01b038216148061082d575061082d8133610589565b61089f5760405162461bcd60e51b815260206004820152603860248201527f4552433732313a20617070726f76652063616c6c6572206973206e6f74206f7760448201527f6e6572206e6f7220617070726f76656420666f7220616c6c00000000000000006064820152608401610646565b6108a98383611856565b505050565b60a3546001600160a01b031633146108d85760405162461bcd60e51b815260040161064690612b91565b60005b8151811015610962578181815181106108f6576108f6612c01565b6020026020010151600001511561092e5761092982828151811061091c5761091c612c01565b60200260200101516118c4565b610950565b61095082828151811061094357610943612c01565b602002602001015161196b565b8061095a81612c2d565b9150506108db565b5050565b60a3546001600160a01b031633146109905760405162461bcd60e51b815260040161064690612b91565b6040518060a001604052808260000151815260200182602001511515815260200182604001516001600160a01b0316815260200182606001518152602001826080015181525060076000600660008154809291906109ed90612c2d565b909155508152602080820192909252604001600020825180519192610a179284929091019061248f565b50602082015160018201805460408501516001600160a01b031661010002610100600160a81b0319931515939093166001600160a81b0319909116179190911790556060820151600282015560809091015160039091015550565b610a7c3382611bd2565b610a985760405162461bcd60e51b815260040161064690612c48565b6108a9838383611cc8565b60a3546001600160a01b03163314610acd5760405162461bcd60e51b815260040161064690612b91565b60038054829160049160009182610ae383612c2d565b919050558152602001908152602001600020908051906020019061096292919061248f565b336000908152600960209081526040808320548484526007909252808320815160a08101909252805492939282908290610b4190612bc6565b80601f0160208091040260200160405190810160405280929190818152602001828054610b6d90612bc6565b8015610bba5780601f10610b8f57610100808354040283529160200191610bba565b820191906000526020600020905b815481529060010190602001808311610b9d57829003601f168201915b5050509183525050600182015460ff811615156020808401919091526101009091046001600160a01b031660408301526002830154606083015260039092015460809091015281015190915015610c98576060810151336000908152600560209081526040808320608086015184529091529020541015610c935760405162461bcd60e51b815260206004820152602d60248201527f4261636b6564436f6d6d756e697479546f6b656e56313a207573657220646f6560448201526c73206e6f74207175616c69667960981b6064820152608401610646565b610d22565b33600090815260086020908152604080832086845290915290205460ff1680610cbf575082155b610d225760405162461bcd60e51b815260206004820152602e60248201527f4261636b6564436f6d6d756e697479546f6b656e56313a206163636573736f7260448201526d1e481b9bdd081d5b9b1bd8dad95960921b6064820152608401610646565b33600081815260096020526040808220869055518592859290917fea1b1f91e87d6596dd266ab28a1e2231755992988caaafc59ed42f2331d41e8c9190a4505050565b60046020526000908152604090208054610d7e90612bc6565b80601f0160208091040260200160405190810160405280929190818152602001828054610daa90612bc6565b8015610df75780601f10610dcc57610100808354040283529160200191610df7565b820191906000526020600020905b815481529060010190602001808311610dda57829003601f168201915b505050505081565b6108a983838360405180602001604052806000815250611159565b600080610e2983850185612c99565b60015491935091506001600160a01b03163314610eae5760405162461bcd60e51b815260206004820152603d60248201527f4261636b6564436f6d6d756e697479546f6b656e56313a2063616c6c6572206d60448201527f7573742062652063726f737320646f6d61696e206d657373656e6765720000006064820152608401610646565b600a5460015460408051636e296e4560e01b815290516001600160a01b039384169390921691636e296e45916004808201926020929091908290030181865afa158015610eff573d6000803e3d6000fd5b505050506040513d601f19601f82011682018060405250810190610f239190612ce8565b6001600160a01b031614610f935760405162461bcd60e51b815260206004820152603160248201527f4261636b6564436f6d6d756e697479546f6b656e56313a206f726967696e206d6044820152700757374206265204261636b65642050465607c1b6064820152608401610646565b6001600160a01b0382166000908152600b602090815260409091208251610fbc9284019061248f565b5050505050565b6000818152607360205260408120546001600160a01b0316806106165760405162461bcd60e51b815260206004820152602960248201527f4552433732313a206f776e657220717565727920666f72206e6f6e657869737460448201526832b73a103a37b5b2b760b91b6064820152608401610646565b60008054611058918391908061104f83612c2d565b91905055611d47565b50565b60006001600160a01b0382166110c55760405162461bcd60e51b815260206004820152602960248201527f4552433732313a2061646472657373207a65726f206973206e6f7420612076616044820152683634b21037bbb732b960b91b6064820152608401610646565b506001600160a01b031660009081526074602052604090205490565b60a3546001600160a01b0316331461110b5760405162461bcd60e51b815260040161064690612b91565b6111156000611db9565b565b60606072805461068090612bc6565b610962338383611e0b565b6040805160208082018084526000808452338152600b9092529290209051611058929061248f565b6111633383611bd2565b61117f5760405162461bcd60e51b815260040161064690612c48565b61118b84848484611eda565b50505050565b600061119d6001611f0d565b905080156111b557600c805461ff0019166101001790555b6112046040518060400160405280600f81526020016e4261636b6564436f6d6d756e69747960881b81525060405180604001604052806006815260200165109050d2d15160d21b815250611f9c565b600280546001600160a01b0319166001600160a01b038416179055801561096257600c805461ff0019169055604051600181527f7f26b83ff96e1f2b6a682f133852f6798a09c465da95921460cefb38474024989060200160405180910390a15050565b6040516331a9108f60e11b8152600481018290526060906000903090636352211e90602401602060405180830381865afa1580156112aa573d6000803e3d6000fd5b505050506040513d601f19601f820116820180604052508101906112ce9190612ce8565b905060006003546001600160401b038111156112ec576112ec612644565b604051908082528060200260200182016040528015611315578160200160208202803683370190505b50905060005b60035481101561137a576001600160a01b0383166000908152600560209081526040808320848452909152902054825183908390811061135d5761135d612c01565b60209081029190910101528061137281612c2d565b91505061131b565b506002546001600160a01b0383811660008181526009602090815260408083205483526007825280832060010154938352600b90915290819020905163dc90d34360e01b81529383169363dc90d343936113e6938a938993899361010090930490921691600401612d05565b600060405180830381865afa158015611403573d6000803e3d6000fd5b505050506040513d6000823e601f3d908101601f1916820160405261142b9190810190612e0d565b949350505050565b600b6020526000908152604090208054610d7e90612bc6565b606060006006546001600160401b0381111561146a5761146a612644565b604051908082528060200260200182016040528015611493578160200160208202803683370190505b50905060005b60065481101561165b57600081815260076020526040808220815160a081019092528054829082906114ca90612bc6565b80601f01602080910402602001604051908101604052809291908181526020018280546114f690612bc6565b80156115435780601f1061151857610100808354040283529160200191611543565b820191906000526020600020905b81548152906001019060200180831161152657829003601f168201915b5050509183525050600182015460ff811615156020808401919091526101009091046001600160a01b0316604083015260028301546060830152600390920154608090910152810151909150156115f45760608101516001600160a01b03861660009081526005602090815260408083206080860151845290915290205410156115cf576000196115d1565b815b8383815181106115e3576115e3612c01565b602002602001018181525050611648565b6001600160a01b038516600090815260086020908152604080832085845290915290205460ff1661162757600019611629565b815b83838151811061163b5761163b612c01565b6020026020010181815250505b508061165381612c2d565b915050611499565b5092915050565b60a3546001600160a01b0316331461168c5760405162461bcd60e51b815260040161064690612b91565b600280546001600160a01b0319166001600160a01b0392909216919091179055565b60a3546001600160a01b031633146116d85760405162461bcd60e51b815260040161064690612b91565b600a80546001600160a01b0319166001600160a01b0392909216919091179055565b60076020526000908152604090208054819061171590612bc6565b80601f016020809104026020016040519081016040528092919081815260200182805461174190612bc6565b801561178e5780601f106117635761010080835404028352916020019161178e565b820191906000526020600020905b81548152906001019060200180831161177157829003601f168201915b5050505060018301546002840154600390940154929360ff8216936101009092046001600160a01b031692509085565b60a3546001600160a01b031633146117e85760405162461bcd60e51b815260040161064690612b91565b6001600160a01b03811661184d5760405162461bcd60e51b815260206004820152602660248201527f4f776e61626c653a206e6577206f776e657220697320746865207a65726f206160448201526564647265737360d01b6064820152608401610646565b61105881611db9565b600081815260756020526040902080546001600160a01b0319166001600160a01b038416908117909155819061188b82610fc3565b6001600160a01b03167f8c5be1e5ebec7d5bd14f71427d1e84f3dd0314c0f7b2291e5b200ac8c7c3b92560405160405180910390a45050565b6020808201516001600160a01b03166000908152600582526040808220818501518352909252908120805482906118fa90612c2d565b9182905550606083015160405191925061191391612e83565b6040518091039020826040015183602001516001600160a01b03167f4adfb6c8799106a05c87f98cd81c34d5636f2a657ab1d2b940cd96a643d91b4c8460405161195f91815260200190565b60405180910390a45050565b600060076000836040015181526020019081526020016000206040518060a001604052908160008201805461199f90612bc6565b80601f01602080910402602001604051908101604052809291908181526020018280546119cb90612bc6565b8015611a185780601f106119ed57610100808354040283529160200191611a18565b820191906000526020600020905b8154815290600101906020018083116119fb57829003601f168201915b5050509183525050600182015460ff811615156020808401919091526101009091046001600160a01b031660408301526002830154606083015260039092015460809091015281015190915015611acf5760405162461bcd60e51b815260206004820152603560248201527f4261636b6564436f6d6d756e697479546f6b656e56313a204163636573736f726044820152741e481b5d5cdd0818994818591b5a5b8818985cd959605a1b6064820152608401610646565b60408101516001600160a01b0316611b425760405162461bcd60e51b815260206004820152603060248201527f4261636b6564436f6d6d756e697479546f6b656e56313a204163636573736f7260448201526f1e48191bd95cc81b9bdd08195e1a5cdd60821b6064820152608401610646565b6020808301516001600160a01b03166000908152600882526040808220818601518352909252819020805460ff1916600117905560608301519051611b879190612e83565b6040518091039020826040015183602001516001600160a01b03167f21d40621155f17d6d4e01f8387b7ac9f14f7b993868011846ad64e5ad770e46460405160405180910390a45050565b6000818152607360205260408120546001600160a01b0316611c4b5760405162461bcd60e51b815260206004820152602c60248201527f4552433732313a206f70657261746f7220717565727920666f72206e6f6e657860448201526b34b9ba32b73a103a37b5b2b760a11b6064820152608401610646565b6000611c5683610fc3565b9050806001600160a01b0316846001600160a01b03161480611c9d57506001600160a01b0380821660009081526076602090815260408083209388168352929052205460ff165b8061142b5750836001600160a01b0316611cb684610703565b6001600160a01b031614949350505050565b60a3546001600160a01b03163314611d3c5760405162461bcd60e51b815260206004820152603160248201527f455243373231536f756c626f756e643a206f6e6c7920636f6e7472616374206f6044820152703bb732b91031b0b7103a3930b739b332b960791b6064820152608401610646565b6108a9838383611fd5565b6001611d528361105b565b10611daf5760405162461bcd60e51b815260206004820152602760248201527f455243373231536f756c626f756e643a2063616e6e6f74206f776e206d6f7265604482015266207468616e203160c81b6064820152608401610646565b6109628282612171565b60a380546001600160a01b038381166001600160a01b0319831681179093556040519116919082907f8be0079c531659141344cd1fd0a4f28419497f9722a3daafe3b4186f6b6457e090600090a35050565b816001600160a01b0316836001600160a01b03161415611e6d5760405162461bcd60e51b815260206004820152601960248201527f4552433732313a20617070726f766520746f2063616c6c6572000000000000006044820152606401610646565b6001600160a01b03838116600081815260766020908152604080832094871680845294825291829020805460ff191686151590811790915591519182527f17307eab39ab6107e8899845ad3d59bd9653f200f220920489ca2b5937696c31910160405180910390a3505050565b611ee5848484611cc8565b611ef1848484846122b3565b61118b5760405162461bcd60e51b815260040161064690612e9f565b600c54600090610100900460ff1615611f56578160ff166001148015611f325750303b155b611f4e5760405162461bcd60e51b815260040161064690612ef1565b506000919050565b600c5460ff808416911610611f7d5760405162461bcd60e51b815260040161064690612ef1565b50600c805460ff191660ff92909216919091179055600190565b919050565b600c54610100900460ff16611fc35760405162461bcd60e51b815260040161064690612f3f565b611fcd82826123b1565b6109626123e2565b826001600160a01b0316611fe882610fc3565b6001600160a01b03161461204c5760405162461bcd60e51b815260206004820152602560248201527f4552433732313a207472616e736665722066726f6d20696e636f72726563742060448201526437bbb732b960d91b6064820152608401610646565b6001600160a01b0382166120ae5760405162461bcd60e51b8152602060048201526024808201527f4552433732313a207472616e7366657220746f20746865207a65726f206164646044820152637265737360e01b6064820152608401610646565b6120b9600082611856565b6001600160a01b03831660009081526074602052604081208054600192906120e2908490612f8a565b90915550506001600160a01b0382166000908152607460205260408120805460019290612110908490612fa1565b909155505060008181526073602052604080822080546001600160a01b0319166001600160a01b0386811691821790925591518493918716917fddf252ad1be2c89b69c2b068fc378daa952ba7f163c4a11628f55a4df523b3ef91a4505050565b6001600160a01b0382166121c75760405162461bcd60e51b815260206004820181905260248201527f4552433732313a206d696e7420746f20746865207a65726f20616464726573736044820152606401610646565b6000818152607360205260409020546001600160a01b03161561222c5760405162461bcd60e51b815260206004820152601c60248201527f4552433732313a20746f6b656e20616c7265616479206d696e746564000000006044820152606401610646565b6001600160a01b0382166000908152607460205260408120805460019290612255908490612fa1565b909155505060008181526073602052604080822080546001600160a01b0319166001600160a01b03861690811790915590518392907fddf252ad1be2c89b69c2b068fc378daa952ba7f163c4a11628f55a4df523b3ef908290a45050565b60006001600160a01b0384163b156123a657604051630a85bd0160e11b81526001600160a01b0385169063150b7a02906122f7903390899088908890600401612fb9565b6020604051808303816000875af1925050508015612332575060408051601f3d908101601f1916820190925261232f91810190612ff6565b60015b61238c573d808015612360576040519150601f19603f3d011682016040523d82523d6000602084013e612365565b606091505b5080516123845760405162461bcd60e51b815260040161064690612e9f565b805181602001fd5b6001600160e01b031916630a85bd0160e11b14905061142b565b506001949350505050565b600c54610100900460ff166123d85760405162461bcd60e51b815260040161064690612f3f565b6109628282612411565b600c54610100900460ff166124095760405162461bcd60e51b815260040161064690612f3f565b61111561245f565b600c54610100900460ff166124385760405162461bcd60e51b815260040161064690612f3f565b815161244b90607190602085019061248f565b5080516108a990607290602084019061248f565b600c54610100900460ff166124865760405162461bcd60e51b815260040161064690612f3f565b61111533611db9565b82805461249b90612bc6565b90600052602060002090601f0160209004810192826124bd5760008555612503565b82601f106124d657805160ff1916838001178555612503565b82800160010185558215612503579182015b828111156125035782518255916020019190600101906124e8565b5061250f929150612513565b5090565b5b8082111561250f5760008155600101612514565b6001600160e01b03198116811461105857600080fd5b60006020828403121561255057600080fd5b813561255b81612528565b9392505050565b6001600160a01b038116811461105857600080fd5b60006020828403121561258957600080fd5b813561255b81612562565b60005b838110156125af578181015183820152602001612597565b8381111561118b5750506000910152565b600081518084526125d8816020860160208601612594565b601f01601f19169290920160200192915050565b60208152600061255b60208301846125c0565b60006020828403121561261157600080fd5b5035919050565b6000806040838503121561262b57600080fd5b823561263681612562565b946020939093013593505050565b634e487b7160e01b600052604160045260246000fd5b604051608081016001600160401b038111828210171561267c5761267c612644565b60405290565b60405160a081016001600160401b038111828210171561267c5761267c612644565b604051601f8201601f191681016001600160401b03811182821017156126cc576126cc612644565b604052919050565b80358015158114611f9757600080fd5b60006001600160401b038211156126fd576126fd612644565b50601f01601f191660200190565b600061271e612719846126e4565b6126a4565b905082815283838301111561273257600080fd5b828260208301376000602084830101529392505050565b600082601f83011261275a57600080fd5b61255b8383356020850161270b565b6000602080838503121561277c57600080fd5b82356001600160401b038082111561279357600080fd5b818501915085601f8301126127a757600080fd5b8135818111156127b9576127b9612644565b8060051b6127c88582016126a4565b91825283810185019185810190898411156127e257600080fd5b86860192505b83831015612883578235858111156128005760008081fd5b86016080818c03601f19018113156128185760008081fd5b61282061265a565b61282b8a84016126d4565b815260408084013561283c81612562565b828c01526060848101358284015292840135928984111561285f57600091508182fd5b61286d8f8d86880101612749565b90830152508452505091860191908601906127e8565b9998505050505050505050565b6000602082840312156128a257600080fd5b81356001600160401b03808211156128b957600080fd5b9083019060a082860312156128cd57600080fd5b6128d5612682565b8235828111156128e457600080fd5b6128f087828601612749565b8252506128ff602084016126d4565b60208201526040830135915061291482612562565b816040820152606083013560608201526080830135608082015280935050505092915050565b60008060006060848603121561294f57600080fd5b833561295a81612562565b9250602084013561296a81612562565b929592945050506040919091013590565b60006020828403121561298d57600080fd5b81356001600160401b038111156129a357600080fd5b61142b84828501612749565b600080602083850312156129c257600080fd5b82356001600160401b03808211156129d957600080fd5b818501915085601f8301126129ed57600080fd5b8135818111156129fc57600080fd5b866020828501011115612a0e57600080fd5b60209290920196919550909350505050565b60008060408385031215612a3357600080fd5b8235612a3e81612562565b9150612a4c602084016126d4565b90509250929050565b60008060008060808587031215612a6b57600080fd5b8435612a7681612562565b93506020850135612a8681612562565b92506040850135915060608501356001600160401b03811115612aa857600080fd5b8501601f81018713612ab957600080fd5b612ac88782356020840161270b565b91505092959194509250565b6020808252825182820181905260009190848201906040850190845b81811015612b0c57835183529284019291840191600101612af0565b50909695505050505050565b60a081526000612b2b60a08301886125c0565b9515156020830152506001600160a01b039390931660408401526060830191909152608090910152919050565b60008060408385031215612b6b57600080fd5b8235612b7681612562565b91506020830135612b8681612562565b809150509250929050565b6020808252818101527f4f776e61626c653a2063616c6c6572206973206e6f7420746865206f776e6572604082015260600190565b600181811c90821680612bda57607f821691505b60208210811415612bfb57634e487b7160e01b600052602260045260246000fd5b50919050565b634e487b7160e01b600052603260045260246000fd5b634e487b7160e01b600052601160045260246000fd5b6000600019821415612c4157612c41612c17565b5060010190565b60208082526031908201527f4552433732313a207472616e736665722063616c6c6572206973206e6f74206f6040820152701ddb995c881b9bdc88185c1c1c9bdd9959607a1b606082015260800190565b60008060408385031215612cac57600080fd5b8235612cb781612562565b915060208301356001600160401b03811115612cd257600080fd5b612cde85828601612749565b9150509250929050565b600060208284031215612cfa57600080fd5b815161255b81612562565b600060a08201878352602060018060a01b038089168286015260a0604086015282885180855260c087019150838a01945060005b81811015612d5557855183529484019491840191600101612d39565b50509087166060860152848103608086015285546000935090600182811c9080841680612d8357607f831692505b858310811415612da157634e487b7160e01b87526022600452602487fd5b828452602084019350808015612dbe5760018114612dcf57612dfa565b60ff19861685528685019750612dfa565b60008b81526020902060005b85811015612df457815487820152908401908801612ddb565b86019850505b50959d9c50505050505050505050505050565b600060208284031215612e1f57600080fd5b81516001600160401b03811115612e3557600080fd5b8201601f81018413612e4657600080fd5b8051612e54612719826126e4565b818152856020838501011115612e6957600080fd5b612e7a826020830160208601612594565b95945050505050565b60008251612e95818460208701612594565b9190910192915050565b60208082526032908201527f4552433732313a207472616e7366657220746f206e6f6e20455243373231526560408201527131b2b4bb32b91034b6b83632b6b2b73a32b960711b606082015260800190565b6020808252602e908201527f496e697469616c697a61626c653a20636f6e747261637420697320616c72656160408201526d191e481a5b9a5d1a585b1a5e995960921b606082015260800190565b6020808252602b908201527f496e697469616c697a61626c653a20636f6e7472616374206973206e6f74206960408201526a6e697469616c697a696e6760a81b606082015260800190565b600082821015612f9c57612f9c612c17565b500390565b60008219821115612fb457612fb4612c17565b500190565b6001600160a01b0385811682528416602082015260408101839052608060608201819052600090612fec908301846125c0565b9695505050505050565b60006020828403121561300857600080fd5b815161255b8161252856fea264697066735822122047cb6f6dcaa116af6ce3efb2d07dd61d607d2f38d4e047da87b3b312f6b2c86364736f6c634300080c0033",
    "linkReferences": {}
  },
  "methodIdentifiers": {
    "accessoryIdToAccessory(uint256)": "db8a06cf",
    "addCategory(string)": "2e0dcbf7",
    "addSpecialAccessory((string,bool,address,uint256,uint256))": "1073ce33",
    "addressToAccessoryEnabled(address)": "7473660a",
    "addressToAccessoryUnlocked(address,uint256)": "2fdaa490",
    "addressToCategoryScore(address,uint256)": "957a2754",
    "addressToPFPSVGLink(address)": "cb19a1d6",
    "approve(address,uint256)": "095ea7b3",
    "balanceOf(address)": "70a08231",
    "bunnyPFPContractAddress()": "dfcf2cf8",
    "categoryIdToDisplayName(uint256)": "3ed0b70e",
    "cdmAddr()": "c17c7faa",
    "clearBunnyPFPLink()": "aa416e54",
    "descriptor()": "303e74df",
    "getApproved(uint256)": "081812fc",
    "getUnlockedAccessoriesForAddress(address)": "d1c5df07",
    "initialize(address)": "c4d66de8",
    "isApprovedForAll(address,address)": "e985e9c5",
    "mint(address)": "6a627842",
    "name()": "06fdde03",
    "nonce()": "affed0e0",
    "owner()": "8da5cb5b",
    "ownerOf(uint256)": "6352211e",
    "renounceOwnership()": "715018a6",
    "safeTransferFrom(address,address,uint256)": "42842e0e",
    "safeTransferFrom(address,address,uint256,bytes)": "b88d4fde",
    "setApprovalForAll(address,bool)": "a22cb465",
    "setBunnyPFPContract(address)": "d4f353c0",
    "setBunnyPFPSVGFromL1(bytes)": "4c0332a5",
    "setDescriptorContract(address)": "d37825b2",
    "setEnabledAccessory(uint256)": "2f2aa210",
    "setOptimismCrossChainMessengerAddress(address)": "0303348f",
    "supportsInterface(bytes4)": "01ffc9a7",
    "symbol()": "95d89b41",
    "tokenURI(uint256)": "c87b56dd",
    "totalCategoryCount()": "b2b52ef1",
    "totalSpecialyAccessoryCount()": "904b65d9",
    "transferFrom(address,address,uint256)": "23b872dd",
    "transferOwnership(address)": "f2fde38b",
    "unlockAccessoryOrIncrementCategory((bool,address,uint256,string)[])": "1050c356"
  },
  "id": 37
}