{
  "abi": [
    {
      "anonymous": false,
      "inputs": [
        {
          "indexed": true,
          "internalType": "address",
          "name": "addr",
          "type": "address"
        },
        {
          "indexed": true,
          "internalType": "uint256",
          "name": "oldAccessory",
          "type": "uint256"
        },
        {
          "indexed": true,
          "internalType": "uint256",
          "name": "newAccessory",
          "type": "uint256"
        }
      ],
      "name": "AccessorySwapped",
      "type": "event"
    },
    {
      "anonymous": false,
      "inputs": [
        {
          "indexed": true,
          "internalType": "address",
          "name": "addr",
          "type": "address"
        },
        {
          "indexed": true,
          "internalType": "uint256",
          "name": "accessoryId",
          "type": "uint256"
        },
        {
          "indexed": true,
          "internalType": "string",
          "name": "ipfsLink",
          "type": "string"
        }
      ],
      "name": "AccessoryUnlocked",
      "type": "event"
    },
    {
      "anonymous": false,
      "inputs": [
        {
          "indexed": true,
          "internalType": "address",
          "name": "owner",
          "type": "address"
        },
        {
          "indexed": true,
          "internalType": "address",
          "name": "approved",
          "type": "address"
        },
        {
          "indexed": true,
          "internalType": "uint256",
          "name": "tokenId",
          "type": "uint256"
        }
      ],
      "name": "Approval",
      "type": "event"
    },
    {
      "anonymous": false,
      "inputs": [
        {
          "indexed": true,
          "internalType": "address",
          "name": "owner",
          "type": "address"
        },
        {
          "indexed": true,
          "internalType": "address",
          "name": "operator",
          "type": "address"
        },
        {
          "indexed": false,
          "internalType": "bool",
          "name": "approved",
          "type": "bool"
        }
      ],
      "name": "ApprovalForAll",
      "type": "event"
    },
    {
      "anonymous": false,
      "inputs": [
        {
          "indexed": true,
          "internalType": "address",
          "name": "addr",
          "type": "address"
        },
        {
          "indexed": true,
          "internalType": "uint256",
          "name": "categoryId",
          "type": "uint256"
        },
        {
          "indexed": true,
          "internalType": "string",
          "name": "ipfsLink",
          "type": "string"
        },
        {
          "indexed": false,
          "internalType": "uint256",
          "name": "newScore",
          "type": "uint256"
        }
      ],
      "name": "CategoryScoreChanged",
      "type": "event"
    },
    {
      "anonymous": false,
      "inputs": [
        {
          "indexed": false,
          "internalType": "uint8",
          "name": "version",
          "type": "uint8"
        }
      ],
      "name": "Initialized",
      "type": "event"
    },
    {
      "anonymous": false,
      "inputs": [
        {
          "indexed": true,
          "internalType": "address",
          "name": "previousOwner",
          "type": "address"
        },
        {
          "indexed": true,
          "internalType": "address",
          "name": "newOwner",
          "type": "address"
        }
      ],
      "name": "OwnershipTransferred",
      "type": "event"
    },
    {
      "anonymous": false,
      "inputs": [
        {
          "indexed": true,
          "internalType": "address",
          "name": "from",
          "type": "address"
        },
        {
          "indexed": true,
          "internalType": "address",
          "name": "to",
          "type": "address"
        },
        {
          "indexed": true,
          "internalType": "uint256",
          "name": "tokenId",
          "type": "uint256"
        }
      ],
      "name": "Transfer",
      "type": "event"
    },
    {
      "inputs": [
        {
          "internalType": "uint256",
          "name": "",
          "type": "uint256"
        }
      ],
      "name": "accessoryIdToAccessory",
      "outputs": [
        {
          "internalType": "string",
          "name": "name",
          "type": "string"
        },
        {
          "internalType": "bool",
          "name": "xpBased",
          "type": "bool"
        },
        {
          "internalType": "address",
          "name": "artContract",
          "type": "address"
        },
        {
          "internalType": "uint256",
          "name": "qualifyingXPScore",
          "type": "uint256"
        },
        {
          "internalType": "uint256",
          "name": "xpCategory",
          "type": "uint256"
        }
      ],
      "stateMutability": "view",
      "type": "function"
    },
    {
      "inputs": [
        {
          "internalType": "string",
          "name": "displayName",
          "type": "string"
        }
      ],
      "name": "addCategory",
      "outputs": [],
      "stateMutability": "nonpayable",
      "type": "function"
    },
    {
      "inputs": [
        {
          "components": [
            {
              "internalType": "string",
              "name": "name",
              "type": "string"
            },
            {
              "internalType": "bool",
              "name": "xpBased",
              "type": "bool"
            },
            {
              "internalType": "address",
              "name": "artContract",
              "type": "address"
            },
            {
              "internalType": "uint256",
              "name": "qualifyingXPScore",
              "type": "uint256"
            },
            {
              "internalType": "uint256",
              "name": "xpCategory",
              "type": "uint256"
            }
          ],
          "internalType": "struct IBackedCommunityTokenV1.Accessory",
          "name": "accessory",
          "type": "tuple"
        }
      ],
      "name": "addSpecialAccessory",
      "outputs": [],
      "stateMutability": "nonpayable",
      "type": "function"
    },
    {
      "inputs": [
        {
          "internalType": "address",
          "name": "",
          "type": "address"
        }
      ],
      "name": "addressToAccessoryEnabled",
      "outputs": [
        {
          "internalType": "uint256",
          "name": "",
          "type": "uint256"
        }
      ],
      "stateMutability": "view",
      "type": "function"
    },
    {
      "inputs": [
        {
          "internalType": "address",
          "name": "",
          "type": "address"
        },
        {
          "internalType": "uint256",
          "name": "",
          "type": "uint256"
        }
      ],
      "name": "addressToAccessoryUnlocked",
      "outputs": [
        {
          "internalType": "bool",
          "name": "",
          "type": "bool"
        }
      ],
      "stateMutability": "view",
      "type": "function"
    },
    {
      "inputs": [
        {
          "internalType": "address",
          "name": "",
          "type": "address"
        },
        {
          "internalType": "uint256",
          "name": "",
          "type": "uint256"
        }
      ],
      "name": "addressToCategoryScore",
      "outputs": [
        {
          "internalType": "uint256",
          "name": "",
          "type": "uint256"
        }
      ],
      "stateMutability": "view",
      "type": "function"
    },
    {
      "inputs": [
        {
          "internalType": "address",
          "name": "",
          "type": "address"
        }
      ],
      "name": "addressToPFPTokenIdLink",
      "outputs": [
        {
          "internalType": "uint256",
          "name": "",
          "type": "uint256"
        }
      ],
      "stateMutability": "view",
      "type": "function"
    },
    {
      "inputs": [],
      "name": "admin",
      "outputs": [
        {
          "internalType": "address",
          "name": "",
          "type": "address"
        }
      ],
      "stateMutability": "view",
      "type": "function"
    },
    {
      "inputs": [
        {
          "internalType": "address",
          "name": "to",
          "type": "address"
        },
        {
          "internalType": "uint256",
          "name": "tokenId",
          "type": "uint256"
        }
      ],
      "name": "approve",
      "outputs": [],
      "stateMutability": "nonpayable",
      "type": "function"
    },
    {
      "inputs": [
        {
          "internalType": "address",
          "name": "owner",
          "type": "address"
        }
      ],
      "name": "balanceOf",
      "outputs": [
        {
          "internalType": "uint256",
          "name": "",
          "type": "uint256"
        }
      ],
      "stateMutability": "view",
      "type": "function"
    },
    {
      "inputs": [],
      "name": "bunnyPFPContractAddress",
      "outputs": [
        {
          "internalType": "address",
          "name": "",
          "type": "address"
        }
      ],
      "stateMutability": "view",
      "type": "function"
    },
    {
      "inputs": [
        {
          "internalType": "uint256",
          "name": "",
          "type": "uint256"
        }
      ],
      "name": "categoryIdToDisplayName",
      "outputs": [
        {
          "internalType": "string",
          "name": "",
          "type": "string"
        }
      ],
      "stateMutability": "view",
      "type": "function"
    },
    {
      "inputs": [],
      "name": "descriptor",
      "outputs": [
        {
          "internalType": "contract IBackedCommunityTokenDescriptorV1",
          "name": "",
          "type": "address"
        }
      ],
      "stateMutability": "view",
      "type": "function"
    },
    {
      "inputs": [
        {
          "internalType": "uint256",
          "name": "tokenId",
          "type": "uint256"
        }
      ],
      "name": "getApproved",
      "outputs": [
        {
          "internalType": "address",
          "name": "",
          "type": "address"
        }
      ],
      "stateMutability": "view",
      "type": "function"
    },
    {
      "inputs": [
        {
          "internalType": "address",
          "name": "addr",
          "type": "address"
        }
      ],
      "name": "getUnlockedAccessoriesForAddress",
      "outputs": [
        {
          "internalType": "int256[]",
          "name": "",
          "type": "int256[]"
        }
      ],
      "stateMutability": "view",
      "type": "function"
    },
    {
      "inputs": [
        {
          "components": [
            {
              "internalType": "address",
              "name": "addr",
              "type": "address"
            },
            {
              "internalType": "uint256",
              "name": "categoryId",
              "type": "uint256"
            },
            {
              "internalType": "string",
              "name": "ipfsLink",
              "type": "string"
            }
          ],
          "internalType": "struct IBackedCommunityTokenV1.CategoryScoreChange[]",
          "name": "changes",
          "type": "tuple[]"
        }
      ],
      "name": "incrementCategoryScores",
      "outputs": [],
      "stateMutability": "nonpayable",
      "type": "function"
    },
    {
      "inputs": [
        {
          "internalType": "address",
          "name": "_descriptorAddress",
          "type": "address"
        }
      ],
      "name": "initialize",
      "outputs": [],
      "stateMutability": "nonpayable",
      "type": "function"
    },
    {
      "inputs": [
        {
          "internalType": "address",
          "name": "owner",
          "type": "address"
        },
        {
          "internalType": "address",
          "name": "operator",
          "type": "address"
        }
      ],
      "name": "isApprovedForAll",
      "outputs": [
        {
          "internalType": "bool",
          "name": "",
          "type": "bool"
        }
      ],
      "stateMutability": "view",
      "type": "function"
    },
    {
      "inputs": [
        {
          "internalType": "uint256",
          "name": "tokenId",
          "type": "uint256"
        }
      ],
      "name": "linkBunnyPFP",
      "outputs": [],
      "stateMutability": "nonpayable",
      "type": "function"
    },
    {
      "inputs": [
        {
          "internalType": "address",
          "name": "mintTo",
          "type": "address"
        }
      ],
      "name": "mint",
      "outputs": [],
      "stateMutability": "nonpayable",
      "type": "function"
    },
    {
      "inputs": [],
      "name": "name",
      "outputs": [
        {
          "internalType": "string",
          "name": "",
          "type": "string"
        }
      ],
      "stateMutability": "view",
      "type": "function"
    },
    {
      "inputs": [],
      "name": "nonce",
      "outputs": [
        {
          "internalType": "uint256",
          "name": "",
          "type": "uint256"
        }
      ],
      "stateMutability": "view",
      "type": "function"
    },
    {
      "inputs": [],
      "name": "owner",
      "outputs": [
        {
          "internalType": "address",
          "name": "",
          "type": "address"
        }
      ],
      "stateMutability": "view",
      "type": "function"
    },
    {
      "inputs": [
        {
          "internalType": "uint256",
          "name": "tokenId",
          "type": "uint256"
        }
      ],
      "name": "ownerOf",
      "outputs": [
        {
          "internalType": "address",
          "name": "",
          "type": "address"
        }
      ],
      "stateMutability": "view",
      "type": "function"
    },
    {
      "inputs": [],
      "name": "renounceOwnership",
      "outputs": [],
      "stateMutability": "nonpayable",
      "type": "function"
    },
    {
      "inputs": [
        {
          "internalType": "address",
          "name": "from",
          "type": "address"
        },
        {
          "internalType": "address",
          "name": "to",
          "type": "address"
        },
        {
          "internalType": "uint256",
          "name": "tokenId",
          "type": "uint256"
        }
      ],
      "name": "safeTransferFrom",
      "outputs": [],
      "stateMutability": "nonpayable",
      "type": "function"
    },
    {
      "inputs": [
        {
          "internalType": "address",
          "name": "from",
          "type": "address"
        },
        {
          "internalType": "address",
          "name": "to",
          "type": "address"
        },
        {
          "internalType": "uint256",
          "name": "tokenId",
          "type": "uint256"
        },
        {
          "internalType": "bytes",
          "name": "_data",
          "type": "bytes"
        }
      ],
      "name": "safeTransferFrom",
      "outputs": [],
      "stateMutability": "nonpayable",
      "type": "function"
    },
    {
      "inputs": [
        {
          "internalType": "address",
          "name": "operator",
          "type": "address"
        },
        {
          "internalType": "bool",
          "name": "approved",
          "type": "bool"
        }
      ],
      "name": "setApprovalForAll",
      "outputs": [],
      "stateMutability": "nonpayable",
      "type": "function"
    },
    {
      "inputs": [
        {
          "internalType": "address",
          "name": "addr",
          "type": "address"
        }
      ],
      "name": "setBunnyPFPContract",
      "outputs": [],
      "stateMutability": "nonpayable",
      "type": "function"
    },
    {
      "inputs": [
        {
          "internalType": "address",
          "name": "addr",
          "type": "address"
        }
      ],
      "name": "setDescriptorContract",
      "outputs": [],
      "stateMutability": "nonpayable",
      "type": "function"
    },
    {
      "inputs": [
        {
          "internalType": "uint256",
          "name": "accessoryId",
          "type": "uint256"
        }
      ],
      "name": "setEnabledAccessory",
      "outputs": [],
      "stateMutability": "nonpayable",
      "type": "function"
    },
    {
      "inputs": [
        {
          "internalType": "bytes4",
          "name": "interfaceId",
          "type": "bytes4"
        }
      ],
      "name": "supportsInterface",
      "outputs": [
        {
          "internalType": "bool",
          "name": "",
          "type": "bool"
        }
      ],
      "stateMutability": "view",
      "type": "function"
    },
    {
      "inputs": [],
      "name": "symbol",
      "outputs": [
        {
          "internalType": "string",
          "name": "",
          "type": "string"
        }
      ],
      "stateMutability": "view",
      "type": "function"
    },
    {
      "inputs": [
        {
          "internalType": "uint256",
          "name": "tokenId",
          "type": "uint256"
        }
      ],
      "name": "tokenURI",
      "outputs": [
        {
          "internalType": "string",
          "name": "",
          "type": "string"
        }
      ],
      "stateMutability": "view",
      "type": "function"
    },
    {
      "inputs": [],
      "name": "totalCategoryCount",
      "outputs": [
        {
          "internalType": "uint256",
          "name": "",
          "type": "uint256"
        }
      ],
      "stateMutability": "view",
      "type": "function"
    },
    {
      "inputs": [],
      "name": "totalSpecialyAccessoryCount",
      "outputs": [
        {
          "internalType": "uint256",
          "name": "",
          "type": "uint256"
        }
      ],
      "stateMutability": "view",
      "type": "function"
    },
    {
      "inputs": [
        {
          "internalType": "address",
          "name": "from",
          "type": "address"
        },
        {
          "internalType": "address",
          "name": "to",
          "type": "address"
        },
        {
          "internalType": "uint256",
          "name": "tokenId",
          "type": "uint256"
        }
      ],
      "name": "transferFrom",
      "outputs": [],
      "stateMutability": "nonpayable",
      "type": "function"
    },
    {
      "inputs": [
        {
          "internalType": "address",
          "name": "newOwner",
          "type": "address"
        }
      ],
      "name": "transferOwnership",
      "outputs": [],
      "stateMutability": "nonpayable",
      "type": "function"
    },
    {
      "inputs": [
        {
          "components": [
            {
              "internalType": "address",
              "name": "addr",
              "type": "address"
            },
            {
              "internalType": "uint256",
              "name": "accessoryId",
              "type": "uint256"
            },
            {
              "internalType": "string",
              "name": "ipfsLink",
              "type": "string"
            }
          ],
          "internalType": "struct IBackedCommunityTokenV1.AccessoryUnlockChange[]",
          "name": "changes",
          "type": "tuple[]"
        }
      ],
      "name": "unlockAccessories",
      "outputs": [],
      "stateMutability": "nonpayable",
      "type": "function"
    }
  ],
  "bytecode": {
    "object": "0x608060405234801561001057600080fd5b50612c7a806100206000396000f3fe608060405234801561001057600080fd5b506004361061023d5760003560e01c80637473660a1161013b578063c4d66de8116100b8578063db8a06cf1161007c578063db8a06cf1461052b578063dfcf2cf81461054f578063e985e9c514610562578063f2fde38b1461059e578063f851a440146105b157600080fd5b8063c4d66de8146104bf578063c87b56dd146104d2578063d1c5df07146104e5578063d37825b214610505578063d4f353c01461051857600080fd5b806395d89b41116100ff57806395d89b411461047f578063a22cb46514610487578063affed0e01461049a578063b2b52ef1146104a3578063b88d4fde146104ac57600080fd5b80637473660a146103fa5780637a0c81af1461041a5780638da5cb5b1461043a578063904b65d91461044b578063957a27541461045457600080fd5b80632e0dcbf7116101c957806342842e0e1161018d57806342842e0e146103985780636352211e146103ab5780636a627842146103be57806370a08231146103d1578063715018a6146103f257600080fd5b80632e0dcbf71461031e5780632f2aa210146103315780632fdaa49014610344578063303e74df146103725780633ed0b70e1461038557600080fd5b8063095ea7b311610210578063095ea7b3146102bf5780630b2ba226146102d25780631073ce33146102e55780631e06bb26146102f857806323b872dd1461030b57600080fd5b806301ffc9a7146102425780630557cfef1461026a57806306fdde031461027f578063081812fc14610294575b600080fd5b61025561025036600461230a565b6105c4565b60405190151581526020015b60405180910390f35b61027d61027836600461232e565b610616565b005b610287610709565b604051610261919061239f565b6102a76102a236600461232e565b61079b565b6040516001600160a01b039091168152602001610261565b61027d6102cd3660046123c7565b610830565b61027d6102e03660046125d3565b610946565b61027d6102f336600461262c565b6109b4565b61027d6103063660046125d3565b610ac0565b61027d6103193660046126d7565b610b2a565b61027d61032c366004612718565b610b5b565b61027d61033f36600461232e565b610bc0565b6102556103523660046123c7565b600860209081526000928352604080842090915290825290205460ff1681565b6002546102a7906001600160a01b031681565b61028761039336600461232e565b610e14565b61027d6103a63660046126d7565b610eae565b6102a76103b936600461232e565b610ec9565b61027d6103cc36600461274d565b610f40565b6103e46103df36600461274d565b610f61565b604051908152602001610261565b61027d610fe7565b6103e461040836600461274d565b60096020526000908152604090205481565b6103e461042836600461274d565b600b6020526000908152604090205481565b60a3546001600160a01b03166102a7565b6103e460065481565b6103e46104623660046123c7565b600560209081526000928352604080842090915290825290205481565b61028761101d565b61027d61049536600461276a565b61102c565b6103e460005481565b6103e460035481565b61027d6104ba36600461279f565b611037565b61027d6104cd36600461274d565b61106f565b6102876104e036600461232e565b611146565b6104f86104f336600461274d565b611306565b604051610261919061281f565b61027d61051336600461274d565b61151d565b61027d61052636600461274d565b611569565b61053e61053936600461232e565b6115b5565b604051610261959493929190612863565b600a546102a7906001600160a01b031681565b6102556105703660046128a3565b6001600160a01b03918216600090815260766020908152604080832093909416825291909152205460ff1690565b61027d6105ac36600461274d565b611679565b6001546102a7906001600160a01b031681565b60006001600160e01b031982166380ac58cd60e01b14806105f557506001600160e01b03198216635b5e139f60e01b145b8061061057506301ffc9a760e01b6001600160e01b03198316145b92915050565b600a546040516331a9108f60e11b81526004810183905233916001600160a01b031690636352211e90602401602060405180830381865afa15801561065f573d6000803e3d6000fd5b505050506040513d601f19601f8201168201806040525081019061068391906128dc565b6001600160a01b0316146106f75760405162461bcd60e51b815260206004820152603060248201527f4261636b6564436f6d6d756e697479546f6b656e56313a206e6f74206f776e6560448201526f1c881bd988141194081d1bdad95b925960821b60648201526084015b60405180910390fd5b336000908152600b6020526040902055565b606060718054610718906128f9565b80601f0160208091040260200160405190810160405280929190818152602001828054610744906128f9565b80156107915780601f1061076657610100808354040283529160200191610791565b820191906000526020600020905b81548152906001019060200180831161077457829003601f168201915b5050505050905090565b6000818152607360205260408120546001600160a01b03166108145760405162461bcd60e51b815260206004820152602c60248201527f4552433732313a20617070726f76656420717565727920666f72206e6f6e657860448201526b34b9ba32b73a103a37b5b2b760a11b60648201526084016106ee565b506000908152607560205260409020546001600160a01b031690565b600061083b82610ec9565b9050806001600160a01b0316836001600160a01b031614156108a95760405162461bcd60e51b815260206004820152602160248201527f4552433732313a20617070726f76616c20746f2063757272656e74206f776e656044820152603960f91b60648201526084016106ee565b336001600160a01b03821614806108c557506108c58133610570565b6109375760405162461bcd60e51b815260206004820152603860248201527f4552433732313a20617070726f76652063616c6c6572206973206e6f74206f7760448201527f6e6572206e6f7220617070726f76656420666f7220616c6c000000000000000060648201526084016106ee565b6109418383611711565b505050565b60a3546001600160a01b031633146109705760405162461bcd60e51b81526004016106ee90612934565b60005b81518110156109b05761099e82828151811061099157610991612969565b602002602001015161177f565b806109a881612995565b915050610973565b5050565b60a3546001600160a01b031633146109de5760405162461bcd60e51b81526004016106ee90612934565b6040518060a001604052808260000151815260200182602001511515815260200182604001516001600160a01b031681526020018260600151815260200182608001518152506007600060066000815480929190610a3b90612995565b909155508152602080820192909252604001600020825180519192610a659284929091019061225b565b50602082015160018201805460408501516001600160a01b031661010002610100600160a81b0319931515939093166001600160a81b0319909116179190911790556060820151600282015560809091015160039091015550565b60a3546001600160a01b03163314610aea5760405162461bcd60e51b81526004016106ee90612934565b60005b81518110156109b057610b18828281518110610b0b57610b0b612969565b6020026020010151611825565b80610b2281612995565b915050610aed565b610b343382611a0e565b610b505760405162461bcd60e51b81526004016106ee906129b0565b610941838383611b04565b60a3546001600160a01b03163314610b855760405162461bcd60e51b81526004016106ee90612934565b60038054829160049160009182610b9b83612995565b91905055815260200190815260200160002090805190602001906109b092919061225b565b336000908152600960209081526040808320548484526007909252808320815160a08101909252805492939282908290610bf9906128f9565b80601f0160208091040260200160405190810160405280929190818152602001828054610c25906128f9565b8015610c725780601f10610c4757610100808354040283529160200191610c72565b820191906000526020600020905b815481529060010190602001808311610c5557829003601f168201915b5050509183525050600182015460ff811615156020808401919091526101009091046001600160a01b031660408301526002830154606083015260039092015460809091015281015190915015610d50576060810151336000908152600560209081526040808320608086015184529091529020541015610d4b5760405162461bcd60e51b815260206004820152602d60248201527f4261636b6564436f6d6d756e697479546f6b656e56313a207573657220646f6560448201526c73206e6f74207175616c69667960981b60648201526084016106ee565b610dd1565b33600090815260086020908152604080832086845290915290205460ff16610dd15760405162461bcd60e51b815260206004820152602e60248201527f4261636b6564436f6d6d756e697479546f6b656e56313a206163636573736f7260448201526d1e481b9bdd081d5b9b1bd8dad95960921b60648201526084016106ee565b33600081815260096020526040808220869055518592859290917fea1b1f91e87d6596dd266ab28a1e2231755992988caaafc59ed42f2331d41e8c9190a4505050565b60046020526000908152604090208054610e2d906128f9565b80601f0160208091040260200160405190810160405280929190818152602001828054610e59906128f9565b8015610ea65780601f10610e7b57610100808354040283529160200191610ea6565b820191906000526020600020905b815481529060010190602001808311610e8957829003601f168201915b505050505081565b61094183838360405180602001604052806000815250611037565b6000818152607360205260408120546001600160a01b0316806106105760405162461bcd60e51b815260206004820152602960248201527f4552433732313a206f776e657220717565727920666f72206e6f6e657869737460448201526832b73a103a37b5b2b760b91b60648201526084016106ee565b60008054610f5e9183919080610f5583612995565b91905055611b83565b50565b60006001600160a01b038216610fcb5760405162461bcd60e51b815260206004820152602960248201527f4552433732313a2061646472657373207a65726f206973206e6f7420612076616044820152683634b21037bbb732b960b91b60648201526084016106ee565b506001600160a01b031660009081526074602052604090205490565b60a3546001600160a01b031633146110115760405162461bcd60e51b81526004016106ee90612934565b61101b6000611bf5565b565b606060728054610718906128f9565b6109b0338383611c47565b6110413383611a0e565b61105d5760405162461bcd60e51b81526004016106ee906129b0565b61106984848484611d16565b50505050565b600061107b6001611d49565b9050801561109357600c805461ff0019166101001790555b6110e26040518060400160405280600f81526020016e4261636b6564436f6d6d756e69747960881b81525060405180604001604052806006815260200165109050d2d15160d21b815250611dd8565b600280546001600160a01b0319166001600160a01b03841617905580156109b057600c805461ff0019169055604051600181527f7f26b83ff96e1f2b6a682f133852f6798a09c465da95921460cefb38474024989060200160405180910390a15050565b6040516331a9108f60e11b8152600481018290526060906000903090636352211e90602401602060405180830381865afa158015611188573d6000803e3d6000fd5b505050506040513d601f19601f820116820180604052508101906111ac91906128dc565b9050600060035467ffffffffffffffff8111156111cb576111cb6123f3565b6040519080825280602002602001820160405280156111f4578160200160208202803683370190505b50905060005b600354811015611259576001600160a01b0383166000908152600560209081526040808320848452909152902054825183908390811061123c5761123c612969565b60209081029190910101528061125181612995565b9150506111fa565b506002546001600160a01b03838116600090815260096020908152604080832054835260079091529081902060010154905163bd18ec6160e01b81529282169263bd18ec61926112b9928792879261010090920490911690600401612a01565b600060405180830381865afa1580156112d6573d6000803e3d6000fd5b505050506040513d6000823e601f3d908101601f191682016040526112fe9190810190612a66565b949350505050565b6060600060065467ffffffffffffffff811115611325576113256123f3565b60405190808252806020026020018201604052801561134e578160200160208202803683370190505b50905060005b60065481101561151657600081815260076020526040808220815160a08101909252805482908290611385906128f9565b80601f01602080910402602001604051908101604052809291908181526020018280546113b1906128f9565b80156113fe5780601f106113d3576101008083540402835291602001916113fe565b820191906000526020600020905b8154815290600101906020018083116113e157829003601f168201915b5050509183525050600182015460ff811615156020808401919091526101009091046001600160a01b0316604083015260028301546060830152600390920154608090910152810151909150156114af5760608101516001600160a01b038616600090815260056020908152604080832060808601518452909152902054101561148a5760001961148c565b815b83838151811061149e5761149e612969565b602002602001018181525050611503565b6001600160a01b038516600090815260086020908152604080832085845290915290205460ff166114e2576000196114e4565b815b8383815181106114f6576114f6612969565b6020026020010181815250505b508061150e81612995565b915050611354565b5092915050565b60a3546001600160a01b031633146115475760405162461bcd60e51b81526004016106ee90612934565b600280546001600160a01b0319166001600160a01b0392909216919091179055565b60a3546001600160a01b031633146115935760405162461bcd60e51b81526004016106ee90612934565b600a80546001600160a01b0319166001600160a01b0392909216919091179055565b6007602052600090815260409020805481906115d0906128f9565b80601f01602080910402602001604051908101604052809291908181526020018280546115fc906128f9565b80156116495780601f1061161e57610100808354040283529160200191611649565b820191906000526020600020905b81548152906001019060200180831161162c57829003601f168201915b5050505060018301546002840154600390940154929360ff8216936101009092046001600160a01b031692509085565b60a3546001600160a01b031633146116a35760405162461bcd60e51b81526004016106ee90612934565b6001600160a01b0381166117085760405162461bcd60e51b815260206004820152602660248201527f4f776e61626c653a206e6577206f776e657220697320746865207a65726f206160448201526564647265737360d01b60648201526084016106ee565b610f5e81611bf5565b600081815260756020526040902080546001600160a01b0319166001600160a01b038416908117909155819061174682610ec9565b6001600160a01b03167f8c5be1e5ebec7d5bd14f71427d1e84f3dd0314c0f7b2291e5b200ac8c7c3b92560405160405180910390a45050565b80516001600160a01b031660009081526005602090815260408083208285015184529091528120805482906117b390612995565b919050819055905081604001516040516117cd9190612add565b6040518091039020826020015183600001516001600160a01b03167f4adfb6c8799106a05c87f98cd81c34d5636f2a657ab1d2b940cd96a643d91b4c8460405161181991815260200190565b60405180910390a45050565b602080820151600090815260079091526040808220815160a08101909252805482908290611852906128f9565b80601f016020809104026020016040519081016040528092919081815260200182805461187e906128f9565b80156118cb5780601f106118a0576101008083540402835291602001916118cb565b820191906000526020600020905b8154815290600101906020018083116118ae57829003601f168201915b5050509183525050600182015460ff811615156020808401919091526101009091046001600160a01b0316604083015260028301546060830152600390920154608090910152810151909150156119825760405162461bcd60e51b815260206004820152603560248201527f4261636b6564436f6d6d756e697479546f6b656e56313a204163636573736f726044820152741e481b5d5cdd0818994818591b5a5b8818985cd959605a1b60648201526084016106ee565b81516001600160a01b0316600090815260086020908152604080832082860151845290915290819020805460ff191660011790558083015190516119c69190612add565b60405190819003812060208401518451919290916001600160a01b0316907f21d40621155f17d6d4e01f8387b7ac9f14f7b993868011846ad64e5ad770e46490600090a45050565b6000818152607360205260408120546001600160a01b0316611a875760405162461bcd60e51b815260206004820152602c60248201527f4552433732313a206f70657261746f7220717565727920666f72206e6f6e657860448201526b34b9ba32b73a103a37b5b2b760a11b60648201526084016106ee565b6000611a9283610ec9565b9050806001600160a01b0316846001600160a01b03161480611ad957506001600160a01b0380821660009081526076602090815260408083209388168352929052205460ff165b806112fe5750836001600160a01b0316611af28461079b565b6001600160a01b031614949350505050565b60a3546001600160a01b03163314611b785760405162461bcd60e51b815260206004820152603160248201527f455243373231536f756c626f756e643a206f6e6c7920636f6e7472616374206f6044820152703bb732b91031b0b7103a3930b739b332b960791b60648201526084016106ee565b610941838383611e09565b6001611b8e83610f61565b10611beb5760405162461bcd60e51b815260206004820152602760248201527f455243373231536f756c626f756e643a2063616e6e6f74206f776e206d6f7265604482015266207468616e203160c81b60648201526084016106ee565b6109b08282611fa5565b60a380546001600160a01b038381166001600160a01b0319831681179093556040519116919082907f8be0079c531659141344cd1fd0a4f28419497f9722a3daafe3b4186f6b6457e090600090a35050565b816001600160a01b0316836001600160a01b03161415611ca95760405162461bcd60e51b815260206004820152601960248201527f4552433732313a20617070726f766520746f2063616c6c65720000000000000060448201526064016106ee565b6001600160a01b03838116600081815260766020908152604080832094871680845294825291829020805460ff191686151590811790915591519182527f17307eab39ab6107e8899845ad3d59bd9653f200f220920489ca2b5937696c31910160405180910390a3505050565b611d21848484611b04565b611d2d848484846120e7565b6110695760405162461bcd60e51b81526004016106ee90612af9565b600c54600090610100900460ff1615611d92578160ff166001148015611d6e5750303b155b611d8a5760405162461bcd60e51b81526004016106ee90612b4b565b506000919050565b600c5460ff808416911610611db95760405162461bcd60e51b81526004016106ee90612b4b565b50600c805460ff191660ff92909216919091179055600190565b919050565b600c54610100900460ff16611dff5760405162461bcd60e51b81526004016106ee90612b99565b6109b082826121e5565b826001600160a01b0316611e1c82610ec9565b6001600160a01b031614611e805760405162461bcd60e51b815260206004820152602560248201527f4552433732313a207472616e736665722066726f6d20696e636f72726563742060448201526437bbb732b960d91b60648201526084016106ee565b6001600160a01b038216611ee25760405162461bcd60e51b8152602060048201526024808201527f4552433732313a207472616e7366657220746f20746865207a65726f206164646044820152637265737360e01b60648201526084016106ee565b611eed600082611711565b6001600160a01b0383166000908152607460205260408120805460019290611f16908490612be4565b90915550506001600160a01b0382166000908152607460205260408120805460019290611f44908490612bfb565b909155505060008181526073602052604080822080546001600160a01b0319166001600160a01b0386811691821790925591518493918716917fddf252ad1be2c89b69c2b068fc378daa952ba7f163c4a11628f55a4df523b3ef91a4505050565b6001600160a01b038216611ffb5760405162461bcd60e51b815260206004820181905260248201527f4552433732313a206d696e7420746f20746865207a65726f206164647265737360448201526064016106ee565b6000818152607360205260409020546001600160a01b0316156120605760405162461bcd60e51b815260206004820152601c60248201527f4552433732313a20746f6b656e20616c7265616479206d696e7465640000000060448201526064016106ee565b6001600160a01b0382166000908152607460205260408120805460019290612089908490612bfb565b909155505060008181526073602052604080822080546001600160a01b0319166001600160a01b03861690811790915590518392907fddf252ad1be2c89b69c2b068fc378daa952ba7f163c4a11628f55a4df523b3ef908290a45050565b60006001600160a01b0384163b156121da57604051630a85bd0160e11b81526001600160a01b0385169063150b7a029061212b903390899088908890600401612c13565b6020604051808303816000875af1925050508015612166575060408051601f3d908101601f1916820190925261216391810190612c50565b60015b6121c0573d808015612194576040519150601f19603f3d011682016040523d82523d6000602084013e612199565b606091505b5080516121b85760405162461bcd60e51b81526004016106ee90612af9565b805181602001fd5b6001600160e01b031916630a85bd0160e11b1490506112fe565b506001949350505050565b600c54610100900460ff1661220c5760405162461bcd60e51b81526004016106ee90612b99565b6109b08282600c54610100900460ff166122385760405162461bcd60e51b81526004016106ee90612b99565b815161224b90607190602085019061225b565b5080516109419060729060208401905b828054612267906128f9565b90600052602060002090601f01602090048101928261228957600085556122cf565b82601f106122a257805160ff19168380011785556122cf565b828001600101855582156122cf579182015b828111156122cf5782518255916020019190600101906122b4565b506122db9291506122df565b5090565b5b808211156122db57600081556001016122e0565b6001600160e01b031981168114610f5e57600080fd5b60006020828403121561231c57600080fd5b8135612327816122f4565b9392505050565b60006020828403121561234057600080fd5b5035919050565b60005b8381101561236257818101518382015260200161234a565b838111156110695750506000910152565b6000815180845261238b816020860160208601612347565b601f01601f19169290920160200192915050565b6020815260006123276020830184612373565b6001600160a01b0381168114610f5e57600080fd5b600080604083850312156123da57600080fd5b82356123e5816123b2565b946020939093013593505050565b634e487b7160e01b600052604160045260246000fd5b60405160a0810167ffffffffffffffff8111828210171561242c5761242c6123f3565b60405290565b604051601f8201601f1916810167ffffffffffffffff8111828210171561245b5761245b6123f3565b604052919050565b600067ffffffffffffffff82111561247d5761247d6123f3565b50601f01601f191660200190565b600061249e61249984612463565b612432565b90508281528383830111156124b257600080fd5b828260208301376000602084830101529392505050565b600082601f8301126124da57600080fd5b6123278383356020850161248b565b600067ffffffffffffffff80841115612504576125046123f3565b8360051b6020612515818301612432565b8681529350908401908084018783111561252e57600080fd5b855b838110156125c7578035858111156125485760008081fd5b87016060818b0381131561255c5760008081fd5b60408051918201918883118184101715612578576125786123f3565b918152823591612587836123b2565b91825282860135868301528083013591888311156125a55760008081fd5b6125b18d8486016124c9565b9181019190915284525050908201908201612530565b50505050509392505050565b6000602082840312156125e557600080fd5b813567ffffffffffffffff8111156125fc57600080fd5b8201601f8101841361260d57600080fd5b6112fe848235602084016124e9565b80358015158114611dd357600080fd5b60006020828403121561263e57600080fd5b813567ffffffffffffffff8082111561265657600080fd5b9083019060a0828603121561266a57600080fd5b612672612409565b82358281111561268157600080fd5b61268d878286016124c9565b82525061269c6020840161261c565b6020820152604083013591506126b1826123b2565b816040820152606083013560608201526080830135608082015280935050505092915050565b6000806000606084860312156126ec57600080fd5b83356126f7816123b2565b92506020840135612707816123b2565b929592945050506040919091013590565b60006020828403121561272a57600080fd5b813567ffffffffffffffff81111561274157600080fd5b6112fe848285016124c9565b60006020828403121561275f57600080fd5b8135612327816123b2565b6000806040838503121561277d57600080fd5b8235612788816123b2565b91506127966020840161261c565b90509250929050565b600080600080608085870312156127b557600080fd5b84356127c0816123b2565b935060208501356127d0816123b2565b925060408501359150606085013567ffffffffffffffff8111156127f357600080fd5b8501601f8101871361280457600080fd5b6128138782356020840161248b565b91505092959194509250565b6020808252825182820181905260009190848201906040850190845b818110156128575783518352928401929184019160010161283b565b50909695505050505050565b60a08152600061287660a0830188612373565b9515156020830152506001600160a01b039390931660408401526060830191909152608090910152919050565b600080604083850312156128b657600080fd5b82356128c1816123b2565b915060208301356128d1816123b2565b809150509250929050565b6000602082840312156128ee57600080fd5b8151612327816123b2565b600181811c9082168061290d57607f821691505b6020821081141561292e57634e487b7160e01b600052602260045260246000fd5b50919050565b6020808252818101527f4f776e61626c653a2063616c6c6572206973206e6f7420746865206f776e6572604082015260600190565b634e487b7160e01b600052603260045260246000fd5b634e487b7160e01b600052601160045260246000fd5b60006000198214156129a9576129a961297f565b5060010190565b60208082526031908201527f4552433732313a207472616e736665722063616c6c6572206973206e6f74206f6040820152701ddb995c881b9bdc88185c1c1c9bdd9959607a1b606082015260800190565b6001600160a01b038481168252606060208084018290528551918401829052600092868201929091906080860190855b81811015612a4d57855183529483019491830191600101612a31565b5050809450505080851660408501525050949350505050565b600060208284031215612a7857600080fd5b815167ffffffffffffffff811115612a8f57600080fd5b8201601f81018413612aa057600080fd5b8051612aae61249982612463565b818152856020838501011115612ac357600080fd5b612ad4826020830160208601612347565b95945050505050565b60008251612aef818460208701612347565b9190910192915050565b60208082526032908201527f4552433732313a207472616e7366657220746f206e6f6e20455243373231526560408201527131b2b4bb32b91034b6b83632b6b2b73a32b960711b606082015260800190565b6020808252602e908201527f496e697469616c697a61626c653a20636f6e747261637420697320616c72656160408201526d191e481a5b9a5d1a585b1a5e995960921b606082015260800190565b6020808252602b908201527f496e697469616c697a61626c653a20636f6e7472616374206973206e6f74206960408201526a6e697469616c697a696e6760a81b606082015260800190565b600082821015612bf657612bf661297f565b500390565b60008219821115612c0e57612c0e61297f565b500190565b6001600160a01b0385811682528416602082015260408101839052608060608201819052600090612c4690830184612373565b9695505050505050565b600060208284031215612c6257600080fd5b8151612327816122f456fea164736f6c634300080c000a",
    "linkReferences": {}
  }
}