{
  "abi": [
    {
      "anonymous": false,
      "inputs": [
        {
          "indexed": true,
          "internalType": "address",
          "name": "addr",
          "type": "address"
        },
        {
          "indexed": true,
          "internalType": "uint256",
          "name": "oldAccessory",
          "type": "uint256"
        },
        {
          "indexed": true,
          "internalType": "uint256",
          "name": "newAccessory",
          "type": "uint256"
        }
      ],
      "name": "AccessorySwapped",
      "type": "event"
    },
    {
      "anonymous": false,
      "inputs": [
        {
          "indexed": true,
          "internalType": "address",
          "name": "addr",
          "type": "address"
        },
        {
          "indexed": true,
          "internalType": "uint256",
          "name": "accessoryId",
          "type": "uint256"
        },
        {
          "indexed": true,
          "internalType": "string",
          "name": "ipfsLink",
          "type": "string"
        }
      ],
      "name": "AccessoryUnlocked",
      "type": "event"
    },
    {
      "anonymous": false,
      "inputs": [
        {
          "indexed": true,
          "internalType": "address",
          "name": "owner",
          "type": "address"
        },
        {
          "indexed": true,
          "internalType": "address",
          "name": "approved",
          "type": "address"
        },
        {
          "indexed": true,
          "internalType": "uint256",
          "name": "tokenId",
          "type": "uint256"
        }
      ],
      "name": "Approval",
      "type": "event"
    },
    {
      "anonymous": false,
      "inputs": [
        {
          "indexed": true,
          "internalType": "address",
          "name": "owner",
          "type": "address"
        },
        {
          "indexed": true,
          "internalType": "address",
          "name": "operator",
          "type": "address"
        },
        {
          "indexed": false,
          "internalType": "bool",
          "name": "approved",
          "type": "bool"
        }
      ],
      "name": "ApprovalForAll",
      "type": "event"
    },
    {
      "anonymous": false,
      "inputs": [
        {
          "indexed": true,
          "internalType": "address",
          "name": "addr",
          "type": "address"
        },
        {
          "indexed": true,
          "internalType": "uint256",
          "name": "categoryId",
          "type": "uint256"
        },
        {
          "indexed": true,
          "internalType": "string",
          "name": "ipfsLink",
          "type": "string"
        },
        {
          "indexed": false,
          "internalType": "uint256",
          "name": "newScore",
          "type": "uint256"
        }
      ],
      "name": "CategoryScoreChanged",
      "type": "event"
    },
    {
      "anonymous": false,
      "inputs": [
        {
          "indexed": false,
          "internalType": "uint8",
          "name": "version",
          "type": "uint8"
        }
      ],
      "name": "Initialized",
      "type": "event"
    },
    {
      "anonymous": false,
      "inputs": [
        {
          "indexed": true,
          "internalType": "address",
          "name": "previousOwner",
          "type": "address"
        },
        {
          "indexed": true,
          "internalType": "address",
          "name": "newOwner",
          "type": "address"
        }
      ],
      "name": "OwnershipTransferred",
      "type": "event"
    },
    {
      "anonymous": false,
      "inputs": [
        {
          "indexed": true,
          "internalType": "address",
          "name": "from",
          "type": "address"
        },
        {
          "indexed": true,
          "internalType": "address",
          "name": "to",
          "type": "address"
        },
        {
          "indexed": true,
          "internalType": "uint256",
          "name": "tokenId",
          "type": "uint256"
        }
      ],
      "name": "Transfer",
      "type": "event"
    },
    {
      "inputs": [
        {
          "internalType": "uint256",
          "name": "",
          "type": "uint256"
        }
      ],
      "name": "accessoryIdToAccessory",
      "outputs": [
        {
          "internalType": "string",
          "name": "name",
          "type": "string"
        },
        {
          "internalType": "bool",
          "name": "xpBased",
          "type": "bool"
        },
        {
          "internalType": "address",
          "name": "artContract",
          "type": "address"
        },
        {
          "internalType": "uint256",
          "name": "qualifyingXPScore",
          "type": "uint256"
        },
        {
          "internalType": "uint256",
          "name": "xpCategory",
          "type": "uint256"
        }
      ],
      "stateMutability": "view",
      "type": "function"
    },
    {
      "inputs": [
        {
          "internalType": "string",
          "name": "displayName",
          "type": "string"
        }
      ],
      "name": "addCategory",
      "outputs": [],
      "stateMutability": "nonpayable",
      "type": "function"
    },
    {
      "inputs": [
        {
          "components": [
            {
              "internalType": "string",
              "name": "name",
              "type": "string"
            },
            {
              "internalType": "bool",
              "name": "xpBased",
              "type": "bool"
            },
            {
              "internalType": "address",
              "name": "artContract",
              "type": "address"
            },
            {
              "internalType": "uint256",
              "name": "qualifyingXPScore",
              "type": "uint256"
            },
            {
              "internalType": "uint256",
              "name": "xpCategory",
              "type": "uint256"
            }
          ],
          "internalType": "struct IBackedCommunityTokenV1.Accessory",
          "name": "accessory",
          "type": "tuple"
        }
      ],
      "name": "addSpecialAccessory",
      "outputs": [],
      "stateMutability": "nonpayable",
      "type": "function"
    },
    {
      "inputs": [
        {
          "internalType": "address",
          "name": "",
          "type": "address"
        }
      ],
      "name": "addressToAccessoryEnabled",
      "outputs": [
        {
          "internalType": "uint256",
          "name": "",
          "type": "uint256"
        }
      ],
      "stateMutability": "view",
      "type": "function"
    },
    {
      "inputs": [
        {
          "internalType": "address",
          "name": "",
          "type": "address"
        },
        {
          "internalType": "uint256",
          "name": "",
          "type": "uint256"
        }
      ],
      "name": "addressToAccessoryUnlocked",
      "outputs": [
        {
          "internalType": "bool",
          "name": "",
          "type": "bool"
        }
      ],
      "stateMutability": "view",
      "type": "function"
    },
    {
      "inputs": [
        {
          "internalType": "address",
          "name": "",
          "type": "address"
        },
        {
          "internalType": "uint256",
          "name": "",
          "type": "uint256"
        }
      ],
      "name": "addressToCategoryScore",
      "outputs": [
        {
          "internalType": "uint256",
          "name": "",
          "type": "uint256"
        }
      ],
      "stateMutability": "view",
      "type": "function"
    },
    {
      "inputs": [
        {
          "internalType": "address",
          "name": "",
          "type": "address"
        }
      ],
      "name": "addressToPFPSVGLink",
      "outputs": [
        {
          "internalType": "string",
          "name": "",
          "type": "string"
        }
      ],
      "stateMutability": "view",
      "type": "function"
    },
    {
      "inputs": [],
      "name": "admin",
      "outputs": [
        {
          "internalType": "address",
          "name": "",
          "type": "address"
        }
      ],
      "stateMutability": "view",
      "type": "function"
    },
    {
      "inputs": [
        {
          "internalType": "address",
          "name": "to",
          "type": "address"
        },
        {
          "internalType": "uint256",
          "name": "tokenId",
          "type": "uint256"
        }
      ],
      "name": "approve",
      "outputs": [],
      "stateMutability": "nonpayable",
      "type": "function"
    },
    {
      "inputs": [
        {
          "internalType": "address",
          "name": "owner",
          "type": "address"
        }
      ],
      "name": "balanceOf",
      "outputs": [
        {
          "internalType": "uint256",
          "name": "",
          "type": "uint256"
        }
      ],
      "stateMutability": "view",
      "type": "function"
    },
    {
      "inputs": [],
      "name": "bunnyPFPContractAddress",
      "outputs": [
        {
          "internalType": "address",
          "name": "",
          "type": "address"
        }
      ],
      "stateMutability": "view",
      "type": "function"
    },
    {
      "inputs": [
        {
          "internalType": "uint256",
          "name": "",
          "type": "uint256"
        }
      ],
      "name": "categoryIdToDisplayName",
      "outputs": [
        {
          "internalType": "string",
          "name": "",
          "type": "string"
        }
      ],
      "stateMutability": "view",
      "type": "function"
    },
    {
      "inputs": [],
      "name": "cdmAddr",
      "outputs": [
        {
          "internalType": "address",
          "name": "",
          "type": "address"
        }
      ],
      "stateMutability": "view",
      "type": "function"
    },
    {
      "inputs": [],
      "name": "clearBunnyPFPLink",
      "outputs": [],
      "stateMutability": "nonpayable",
      "type": "function"
    },
    {
      "inputs": [],
      "name": "descriptor",
      "outputs": [
        {
          "internalType": "contract IBackedCommunityTokenDescriptorV1",
          "name": "",
          "type": "address"
        }
      ],
      "stateMutability": "view",
      "type": "function"
    },
    {
      "inputs": [
        {
          "internalType": "uint256",
          "name": "tokenId",
          "type": "uint256"
        }
      ],
      "name": "getApproved",
      "outputs": [
        {
          "internalType": "address",
          "name": "",
          "type": "address"
        }
      ],
      "stateMutability": "view",
      "type": "function"
    },
    {
      "inputs": [
        {
          "internalType": "address",
          "name": "addr",
          "type": "address"
        }
      ],
      "name": "getUnlockedAccessoriesForAddress",
      "outputs": [
        {
          "internalType": "int256[]",
          "name": "",
          "type": "int256[]"
        }
      ],
      "stateMutability": "view",
      "type": "function"
    },
    {
      "inputs": [
        {
          "internalType": "address",
          "name": "_descriptorAddress",
          "type": "address"
        }
      ],
      "name": "initialize",
      "outputs": [],
      "stateMutability": "nonpayable",
      "type": "function"
    },
    {
      "inputs": [
        {
          "internalType": "address",
          "name": "owner",
          "type": "address"
        },
        {
          "internalType": "address",
          "name": "operator",
          "type": "address"
        }
      ],
      "name": "isApprovedForAll",
      "outputs": [
        {
          "internalType": "bool",
          "name": "",
          "type": "bool"
        }
      ],
      "stateMutability": "view",
      "type": "function"
    },
    {
      "inputs": [
        {
          "internalType": "address",
          "name": "mintTo",
          "type": "address"
        }
      ],
      "name": "mint",
      "outputs": [],
      "stateMutability": "nonpayable",
      "type": "function"
    },
    {
      "inputs": [],
      "name": "name",
      "outputs": [
        {
          "internalType": "string",
          "name": "",
          "type": "string"
        }
      ],
      "stateMutability": "view",
      "type": "function"
    },
    {
      "inputs": [],
      "name": "nonce",
      "outputs": [
        {
          "internalType": "uint256",
          "name": "",
          "type": "uint256"
        }
      ],
      "stateMutability": "view",
      "type": "function"
    },
    {
      "inputs": [],
      "name": "owner",
      "outputs": [
        {
          "internalType": "address",
          "name": "",
          "type": "address"
        }
      ],
      "stateMutability": "view",
      "type": "function"
    },
    {
      "inputs": [
        {
          "internalType": "uint256",
          "name": "tokenId",
          "type": "uint256"
        }
      ],
      "name": "ownerOf",
      "outputs": [
        {
          "internalType": "address",
          "name": "",
          "type": "address"
        }
      ],
      "stateMutability": "view",
      "type": "function"
    },
    {
      "inputs": [],
      "name": "renounceOwnership",
      "outputs": [],
      "stateMutability": "nonpayable",
      "type": "function"
    },
    {
      "inputs": [
        {
          "internalType": "address",
          "name": "from",
          "type": "address"
        },
        {
          "internalType": "address",
          "name": "to",
          "type": "address"
        },
        {
          "internalType": "uint256",
          "name": "tokenId",
          "type": "uint256"
        }
      ],
      "name": "safeTransferFrom",
      "outputs": [],
      "stateMutability": "nonpayable",
      "type": "function"
    },
    {
      "inputs": [
        {
          "internalType": "address",
          "name": "from",
          "type": "address"
        },
        {
          "internalType": "address",
          "name": "to",
          "type": "address"
        },
        {
          "internalType": "uint256",
          "name": "tokenId",
          "type": "uint256"
        },
        {
          "internalType": "bytes",
          "name": "_data",
          "type": "bytes"
        }
      ],
      "name": "safeTransferFrom",
      "outputs": [],
      "stateMutability": "nonpayable",
      "type": "function"
    },
    {
      "inputs": [
        {
          "internalType": "address",
          "name": "operator",
          "type": "address"
        },
        {
          "internalType": "bool",
          "name": "approved",
          "type": "bool"
        }
      ],
      "name": "setApprovalForAll",
      "outputs": [],
      "stateMutability": "nonpayable",
      "type": "function"
    },
    {
      "inputs": [
        {
          "internalType": "address",
          "name": "addr",
          "type": "address"
        }
      ],
      "name": "setBunnyPFPContract",
      "outputs": [],
      "stateMutability": "nonpayable",
      "type": "function"
    },
    {
      "inputs": [
        {
          "internalType": "bytes",
          "name": "message",
          "type": "bytes"
        }
      ],
      "name": "setBunnyPFPSVGFromL1",
      "outputs": [],
      "stateMutability": "nonpayable",
      "type": "function"
    },
    {
      "inputs": [
        {
          "internalType": "address",
          "name": "addr",
          "type": "address"
        }
      ],
      "name": "setDescriptorContract",
      "outputs": [],
      "stateMutability": "nonpayable",
      "type": "function"
    },
    {
      "inputs": [
        {
          "internalType": "uint256",
          "name": "accessoryId",
          "type": "uint256"
        }
      ],
      "name": "setEnabledAccessory",
      "outputs": [],
      "stateMutability": "nonpayable",
      "type": "function"
    },
    {
      "inputs": [
        {
          "internalType": "address",
          "name": "addr",
          "type": "address"
        }
      ],
      "name": "setOptimismCrossChainMessengerAddress",
      "outputs": [],
      "stateMutability": "nonpayable",
      "type": "function"
    },
    {
      "inputs": [
        {
          "internalType": "bytes4",
          "name": "interfaceId",
          "type": "bytes4"
        }
      ],
      "name": "supportsInterface",
      "outputs": [
        {
          "internalType": "bool",
          "name": "",
          "type": "bool"
        }
      ],
      "stateMutability": "view",
      "type": "function"
    },
    {
      "inputs": [],
      "name": "symbol",
      "outputs": [
        {
          "internalType": "string",
          "name": "",
          "type": "string"
        }
      ],
      "stateMutability": "view",
      "type": "function"
    },
    {
      "inputs": [
        {
          "internalType": "uint256",
          "name": "tokenId",
          "type": "uint256"
        }
      ],
      "name": "tokenURI",
      "outputs": [
        {
          "internalType": "string",
          "name": "",
          "type": "string"
        }
      ],
      "stateMutability": "view",
      "type": "function"
    },
    {
      "inputs": [],
      "name": "totalCategoryCount",
      "outputs": [
        {
          "internalType": "uint256",
          "name": "",
          "type": "uint256"
        }
      ],
      "stateMutability": "view",
      "type": "function"
    },
    {
      "inputs": [],
      "name": "totalSpecialyAccessoryCount",
      "outputs": [
        {
          "internalType": "uint256",
          "name": "",
          "type": "uint256"
        }
      ],
      "stateMutability": "view",
      "type": "function"
    },
    {
      "inputs": [
        {
          "internalType": "address",
          "name": "from",
          "type": "address"
        },
        {
          "internalType": "address",
          "name": "to",
          "type": "address"
        },
        {
          "internalType": "uint256",
          "name": "tokenId",
          "type": "uint256"
        }
      ],
      "name": "transferFrom",
      "outputs": [],
      "stateMutability": "nonpayable",
      "type": "function"
    },
    {
      "inputs": [
        {
          "internalType": "address",
          "name": "newOwner",
          "type": "address"
        }
      ],
      "name": "transferOwnership",
      "outputs": [],
      "stateMutability": "nonpayable",
      "type": "function"
    },
    {
      "inputs": [
        {
          "components": [
            {
              "internalType": "bool",
              "name": "isCategoryChange",
              "type": "bool"
            },
            {
              "internalType": "address",
              "name": "addr",
              "type": "address"
            },
            {
              "internalType": "uint256",
              "name": "changeableId",
              "type": "uint256"
            },
            {
              "internalType": "string",
              "name": "ipfsLink",
              "type": "string"
            }
          ],
          "internalType": "struct IBackedCommunityTokenV1.CategoryOrAccessoryChange[]",
          "name": "changes",
          "type": "tuple[]"
        }
      ],
      "name": "unlockAccessoryOrIncrementCategory",
      "outputs": [],
      "stateMutability": "nonpayable",
      "type": "function"
    }
  ],
  "bytecode": {
    "object": "0x608060405234801561001057600080fd5b50612f16806100206000396000f3fe608060405234801561001057600080fd5b50600436106102535760003560e01c80638da5cb5b11610146578063c4d66de8116100c3578063d4f353c011610087578063d4f353c01461053c578063db8a06cf1461054f578063dfcf2cf814610573578063e985e9c514610586578063f2fde38b146105c2578063f851a440146105d557600080fd5b8063c4d66de8146104d0578063c87b56dd146104e3578063cb19a1d6146104f6578063d1c5df0714610509578063d37825b21461052957600080fd5b8063aa416e541161010a578063aa416e5414610490578063affed0e014610498578063b2b52ef1146104a1578063b88d4fde146104aa578063c17c7faa146104bd57600080fd5b80638da5cb5b14610430578063904b65d914610441578063957a27541461044a57806395d89b4114610475578063a22cb4651461047d57600080fd5b80632fdaa490116101d45780636352211e116101985780636352211e146103c15780636a627842146103d457806370a08231146103e7578063715018a6146104085780637473660a1461041057600080fd5b80632fdaa49014610347578063303e74df146103755780633ed0b70e1461038857806342842e0e1461039b5780634c0332a5146103ae57600080fd5b80631050c3561161021b5780631050c356146102e85780631073ce33146102fb57806323b872dd1461030e5780632e0dcbf7146103215780632f2aa2101461033457600080fd5b806301ffc9a7146102585780630303348f1461028057806306fdde0314610295578063081812fc146102aa578063095ea7b3146102d5575b600080fd5b61026b6102663660046124d7565b6105e8565b60405190151581526020015b60405180910390f35b61029361028e366004612510565b61063a565b005b61029d61068f565b6040516102779190612585565b6102bd6102b8366004612598565b610721565b6040516001600160a01b039091168152602001610277565b6102936102e33660046125b1565b6107b6565b6102936102f6366004612702565b6108cc565b610293610309366004612829565b610984565b61029361031c3660046128d3565b610a90565b61029361032f366004612914565b610ac1565b610293610342366004612598565b610b26565b61026b6103553660046125b1565b600960209081526000928352604080842090915290825290205460ff1681565b6003546102bd906001600160a01b031681565b61029d610396366004612598565b610d7a565b6102936103a93660046128d3565b610e14565b6102936103bc366004612948565b610e2f565b6102bd6103cf366004612598565b610fd8565b6102936103e2366004612510565b61104f565b6103fa6103f5366004612510565b611070565b604051908152602001610277565b6102936110f6565b6103fa61041e366004612510565b600a6020526000908152604090205481565b60a4546001600160a01b03166102bd565b6103fa60075481565b6103fa6104583660046125b1565b600660209081526000928352604080842090915290825290205481565b61029d61112c565b61029361048b3660046129b9565b61113b565b610293611146565b6103fa60005481565b6103fa60045481565b6102936104b83660046129ee565b61116e565b6002546102bd906001600160a01b031681565b6102936104de366004612510565b6111a6565b61029d6104f1366004612598565b61127d565b61029d610504366004612510565b61143c565b61051c610517366004612510565b611455565b6040516102779190612a6d565b610293610537366004612510565b61166b565b61029361054a366004612510565b6116b7565b61056261055d366004612598565b611703565b604051610277959493929190612ab1565b600b546102bd906001600160a01b031681565b61026b610594366004612af1565b6001600160a01b03918216600090815260776020908152604080832093909416825291909152205460ff1690565b6102936105d0366004612510565b6117c7565b6001546102bd906001600160a01b031681565b60006001600160e01b031982166380ac58cd60e01b148061061957506001600160e01b03198216635b5e139f60e01b145b8061063457506301ffc9a760e01b6001600160e01b03198316145b92915050565b60a4546001600160a01b0316331461066d5760405162461bcd60e51b815260040161066490612b2a565b60405180910390fd5b600280546001600160a01b0319166001600160a01b0392909216919091179055565b60606072805461069e90612b5f565b80601f01602080910402602001604051908101604052809291908181526020018280546106ca90612b5f565b80156107175780601f106106ec57610100808354040283529160200191610717565b820191906000526020600020905b8154815290600101906020018083116106fa57829003601f168201915b5050505050905090565b6000818152607460205260408120546001600160a01b031661079a5760405162461bcd60e51b815260206004820152602c60248201527f4552433732313a20617070726f76656420717565727920666f72206e6f6e657860448201526b34b9ba32b73a103a37b5b2b760a11b6064820152608401610664565b506000908152607660205260409020546001600160a01b031690565b60006107c182610fd8565b9050806001600160a01b0316836001600160a01b0316141561082f5760405162461bcd60e51b815260206004820152602160248201527f4552433732313a20617070726f76616c20746f2063757272656e74206f776e656044820152603960f91b6064820152608401610664565b336001600160a01b038216148061084b575061084b8133610594565b6108bd5760405162461bcd60e51b815260206004820152603860248201527f4552433732313a20617070726f76652063616c6c6572206973206e6f74206f7760448201527f6e6572206e6f7220617070726f76656420666f7220616c6c00000000000000006064820152608401610664565b6108c7838361185f565b505050565b60a4546001600160a01b031633146108f65760405162461bcd60e51b815260040161066490612b2a565b60005b81518110156109805781818151811061091457610914612b9a565b6020026020010151600001511561094c5761094782828151811061093a5761093a612b9a565b60200260200101516118cd565b61096e565b61096e82828151811061096157610961612b9a565b6020026020010151611974565b8061097881612bc6565b9150506108f9565b5050565b60a4546001600160a01b031633146109ae5760405162461bcd60e51b815260040161066490612b2a565b6040518060a001604052808260000151815260200182602001511515815260200182604001516001600160a01b031681526020018260600151815260200182608001518152506008600060076000815480929190610a0b90612bc6565b909155508152602080820192909252604001600020825180519192610a3592849290910190612428565b50602082015160018201805460408501516001600160a01b031661010002610100600160a81b0319931515939093166001600160a81b0319909116179190911790556060820151600282015560809091015160039091015550565b610a9a3382611bdb565b610ab65760405162461bcd60e51b815260040161066490612be1565b6108c7838383611cd1565b60a4546001600160a01b03163314610aeb5760405162461bcd60e51b815260040161066490612b2a565b60048054829160059160009182610b0183612bc6565b9190505581526020019081526020016000209080519060200190610980929190612428565b336000908152600a60209081526040808320548484526008909252808320815160a08101909252805492939282908290610b5f90612b5f565b80601f0160208091040260200160405190810160405280929190818152602001828054610b8b90612b5f565b8015610bd85780601f10610bad57610100808354040283529160200191610bd8565b820191906000526020600020905b815481529060010190602001808311610bbb57829003601f168201915b5050509183525050600182015460ff811615156020808401919091526101009091046001600160a01b031660408301526002830154606083015260039092015460809091015281015190915015610cb6576060810151336000908152600660209081526040808320608086015184529091529020541015610cb15760405162461bcd60e51b815260206004820152602d60248201527f4261636b6564436f6d6d756e697479546f6b656e56313a207573657220646f6560448201526c73206e6f74207175616c69667960981b6064820152608401610664565b610d37565b33600090815260096020908152604080832086845290915290205460ff16610d375760405162461bcd60e51b815260206004820152602e60248201527f4261636b6564436f6d6d756e697479546f6b656e56313a206163636573736f7260448201526d1e481b9bdd081d5b9b1bd8dad95960921b6064820152608401610664565b336000818152600a6020526040808220869055518592859290917fea1b1f91e87d6596dd266ab28a1e2231755992988caaafc59ed42f2331d41e8c9190a4505050565b60056020526000908152604090208054610d9390612b5f565b80601f0160208091040260200160405190810160405280929190818152602001828054610dbf90612b5f565b8015610e0c5780601f10610de157610100808354040283529160200191610e0c565b820191906000526020600020905b815481529060010190602001808311610def57829003601f168201915b505050505081565b6108c78383836040518060200160405280600081525061116e565b600080610e3e83850185612c32565b60025491935091506001600160a01b03163314610ec35760405162461bcd60e51b815260206004820152603d60248201527f4261636b6564436f6d6d756e697479546f6b656e56313a2063616c6c6572206d60448201527f7573742062652063726f737320646f6d61696e206d657373656e6765720000006064820152608401610664565b600b5460025460408051636e296e4560e01b815290516001600160a01b039384169390921691636e296e45916004808201926020929091908290030181865afa158015610f14573d6000803e3d6000fd5b505050506040513d601f19601f82011682018060405250810190610f389190612c81565b6001600160a01b031614610fa85760405162461bcd60e51b815260206004820152603160248201527f4261636b6564436f6d6d756e697479546f6b656e56313a206f726967696e206d6044820152700757374206265204261636b65642050465607c1b6064820152608401610664565b6001600160a01b0382166000908152600c602090815260409091208251610fd192840190612428565b5050505050565b6000818152607460205260408120546001600160a01b0316806106345760405162461bcd60e51b815260206004820152602960248201527f4552433732313a206f776e657220717565727920666f72206e6f6e657869737460448201526832b73a103a37b5b2b760b91b6064820152608401610664565b6000805461106d918391908061106483612bc6565b91905055611d50565b50565b60006001600160a01b0382166110da5760405162461bcd60e51b815260206004820152602960248201527f4552433732313a2061646472657373207a65726f206973206e6f7420612076616044820152683634b21037bbb732b960b91b6064820152608401610664565b506001600160a01b031660009081526075602052604090205490565b60a4546001600160a01b031633146111205760405162461bcd60e51b815260040161066490612b2a565b61112a6000611dc2565b565b60606073805461069e90612b5f565b610980338383611e14565b6040805160208082018084526000808452338152600c909252929020905161106d9290612428565b6111783383611bdb565b6111945760405162461bcd60e51b815260040161066490612be1565b6111a084848484611ee3565b50505050565b60006111b26001611f16565b905080156111ca57600d805461ff0019166101001790555b6112196040518060400160405280600f81526020016e4261636b6564436f6d6d756e69747960881b81525060405180604001604052806006815260200165109050d2d15160d21b815250611fa5565b600380546001600160a01b0319166001600160a01b038416179055801561098057600d805461ff0019169055604051600181527f7f26b83ff96e1f2b6a682f133852f6798a09c465da95921460cefb38474024989060200160405180910390a15050565b6040516331a9108f60e11b8152600481018290526060906000903090636352211e90602401602060405180830381865afa1580156112bf573d6000803e3d6000fd5b505050506040513d601f19601f820116820180604052508101906112e39190612c81565b905060006004546001600160401b03811115611301576113016125dd565b60405190808252806020026020018201604052801561132a578160200160208202803683370190505b50905060005b60045481101561138f576001600160a01b0383166000908152600660209081526040808320848452909152902054825183908390811061137257611372612b9a565b60209081029190910101528061138781612bc6565b915050611330565b506003546001600160a01b038381166000908152600a6020908152604080832054835260089091529081902060010154905163bd18ec6160e01b81529282169263bd18ec61926113ef928792879261010090920490911690600401612c9e565b600060405180830381865afa15801561140c573d6000803e3d6000fd5b505050506040513d6000823e601f3d908101601f191682016040526114349190810190612d03565b949350505050565b600c6020526000908152604090208054610d9390612b5f565b606060006007546001600160401b03811115611473576114736125dd565b60405190808252806020026020018201604052801561149c578160200160208202803683370190505b50905060005b60075481101561166457600081815260086020526040808220815160a081019092528054829082906114d390612b5f565b80601f01602080910402602001604051908101604052809291908181526020018280546114ff90612b5f565b801561154c5780601f106115215761010080835404028352916020019161154c565b820191906000526020600020905b81548152906001019060200180831161152f57829003601f168201915b5050509183525050600182015460ff811615156020808401919091526101009091046001600160a01b0316604083015260028301546060830152600390920154608090910152810151909150156115fd5760608101516001600160a01b03861660009081526006602090815260408083206080860151845290915290205410156115d8576000196115da565b815b8383815181106115ec576115ec612b9a565b602002602001018181525050611651565b6001600160a01b038516600090815260096020908152604080832085845290915290205460ff1661163057600019611632565b815b83838151811061164457611644612b9a565b6020026020010181815250505b508061165c81612bc6565b9150506114a2565b5092915050565b60a4546001600160a01b031633146116955760405162461bcd60e51b815260040161066490612b2a565b600380546001600160a01b0319166001600160a01b0392909216919091179055565b60a4546001600160a01b031633146116e15760405162461bcd60e51b815260040161066490612b2a565b600b80546001600160a01b0319166001600160a01b0392909216919091179055565b60086020526000908152604090208054819061171e90612b5f565b80601f016020809104026020016040519081016040528092919081815260200182805461174a90612b5f565b80156117975780601f1061176c57610100808354040283529160200191611797565b820191906000526020600020905b81548152906001019060200180831161177a57829003601f168201915b5050505060018301546002840154600390940154929360ff8216936101009092046001600160a01b031692509085565b60a4546001600160a01b031633146117f15760405162461bcd60e51b815260040161066490612b2a565b6001600160a01b0381166118565760405162461bcd60e51b815260206004820152602660248201527f4f776e61626c653a206e6577206f776e657220697320746865207a65726f206160448201526564647265737360d01b6064820152608401610664565b61106d81611dc2565b600081815260766020526040902080546001600160a01b0319166001600160a01b038416908117909155819061189482610fd8565b6001600160a01b03167f8c5be1e5ebec7d5bd14f71427d1e84f3dd0314c0f7b2291e5b200ac8c7c3b92560405160405180910390a45050565b6020808201516001600160a01b031660009081526006825260408082208185015183529092529081208054829061190390612bc6565b9182905550606083015160405191925061191c91612d79565b6040518091039020826040015183602001516001600160a01b03167f4adfb6c8799106a05c87f98cd81c34d5636f2a657ab1d2b940cd96a643d91b4c8460405161196891815260200190565b60405180910390a45050565b600060086000836040015181526020019081526020016000206040518060a00160405290816000820180546119a890612b5f565b80601f01602080910402602001604051908101604052809291908181526020018280546119d490612b5f565b8015611a215780601f106119f657610100808354040283529160200191611a21565b820191906000526020600020905b815481529060010190602001808311611a0457829003601f168201915b5050509183525050600182015460ff811615156020808401919091526101009091046001600160a01b031660408301526002830154606083015260039092015460809091015281015190915015611ad85760405162461bcd60e51b815260206004820152603560248201527f4261636b6564436f6d6d756e697479546f6b656e56313a204163636573736f726044820152741e481b5d5cdd0818994818591b5a5b8818985cd959605a1b6064820152608401610664565b60408101516001600160a01b0316611b4b5760405162461bcd60e51b815260206004820152603060248201527f4261636b6564436f6d6d756e697479546f6b656e56313a204163636573736f7260448201526f1e48191bd95cc81b9bdd08195e1a5cdd60821b6064820152608401610664565b6020808301516001600160a01b03166000908152600982526040808220818601518352909252819020805460ff1916600117905560608301519051611b909190612d79565b6040518091039020826040015183602001516001600160a01b03167f21d40621155f17d6d4e01f8387b7ac9f14f7b993868011846ad64e5ad770e46460405160405180910390a45050565b6000818152607460205260408120546001600160a01b0316611c545760405162461bcd60e51b815260206004820152602c60248201527f4552433732313a206f70657261746f7220717565727920666f72206e6f6e657860448201526b34b9ba32b73a103a37b5b2b760a11b6064820152608401610664565b6000611c5f83610fd8565b9050806001600160a01b0316846001600160a01b03161480611ca657506001600160a01b0380821660009081526077602090815260408083209388168352929052205460ff165b806114345750836001600160a01b0316611cbf84610721565b6001600160a01b031614949350505050565b60a4546001600160a01b03163314611d455760405162461bcd60e51b815260206004820152603160248201527f455243373231536f756c626f756e643a206f6e6c7920636f6e7472616374206f6044820152703bb732b91031b0b7103a3930b739b332b960791b6064820152608401610664565b6108c7838383611fd6565b6001611d5b83611070565b10611db85760405162461bcd60e51b815260206004820152602760248201527f455243373231536f756c626f756e643a2063616e6e6f74206f776e206d6f7265604482015266207468616e203160c81b6064820152608401610664565b6109808282612172565b60a480546001600160a01b038381166001600160a01b0319831681179093556040519116919082907f8be0079c531659141344cd1fd0a4f28419497f9722a3daafe3b4186f6b6457e090600090a35050565b816001600160a01b0316836001600160a01b03161415611e765760405162461bcd60e51b815260206004820152601960248201527f4552433732313a20617070726f766520746f2063616c6c6572000000000000006044820152606401610664565b6001600160a01b03838116600081815260776020908152604080832094871680845294825291829020805460ff191686151590811790915591519182527f17307eab39ab6107e8899845ad3d59bd9653f200f220920489ca2b5937696c31910160405180910390a3505050565b611eee848484611cd1565b611efa848484846122b4565b6111a05760405162461bcd60e51b815260040161066490612d95565b600d54600090610100900460ff1615611f5f578160ff166001148015611f3b5750303b155b611f575760405162461bcd60e51b815260040161066490612de7565b506000919050565b600d5460ff808416911610611f865760405162461bcd60e51b815260040161066490612de7565b50600d805460ff191660ff92909216919091179055600190565b919050565b600d54610100900460ff16611fcc5760405162461bcd60e51b815260040161066490612e35565b61098082826123b2565b826001600160a01b0316611fe982610fd8565b6001600160a01b03161461204d5760405162461bcd60e51b815260206004820152602560248201527f4552433732313a207472616e736665722066726f6d20696e636f72726563742060448201526437bbb732b960d91b6064820152608401610664565b6001600160a01b0382166120af5760405162461bcd60e51b8152602060048201526024808201527f4552433732313a207472616e7366657220746f20746865207a65726f206164646044820152637265737360e01b6064820152608401610664565b6120ba60008261185f565b6001600160a01b03831660009081526075602052604081208054600192906120e3908490612e80565b90915550506001600160a01b0382166000908152607560205260408120805460019290612111908490612e97565b909155505060008181526074602052604080822080546001600160a01b0319166001600160a01b0386811691821790925591518493918716917fddf252ad1be2c89b69c2b068fc378daa952ba7f163c4a11628f55a4df523b3ef91a4505050565b6001600160a01b0382166121c85760405162461bcd60e51b815260206004820181905260248201527f4552433732313a206d696e7420746f20746865207a65726f20616464726573736044820152606401610664565b6000818152607460205260409020546001600160a01b03161561222d5760405162461bcd60e51b815260206004820152601c60248201527f4552433732313a20746f6b656e20616c7265616479206d696e746564000000006044820152606401610664565b6001600160a01b0382166000908152607560205260408120805460019290612256908490612e97565b909155505060008181526074602052604080822080546001600160a01b0319166001600160a01b03861690811790915590518392907fddf252ad1be2c89b69c2b068fc378daa952ba7f163c4a11628f55a4df523b3ef908290a45050565b60006001600160a01b0384163b156123a757604051630a85bd0160e11b81526001600160a01b0385169063150b7a02906122f8903390899088908890600401612eaf565b6020604051808303816000875af1925050508015612333575060408051601f3d908101601f1916820190925261233091810190612eec565b60015b61238d573d808015612361576040519150601f19603f3d011682016040523d82523d6000602084013e612366565b606091505b5080516123855760405162461bcd60e51b815260040161066490612d95565b805181602001fd5b6001600160e01b031916630a85bd0160e11b149050611434565b506001949350505050565b600d54610100900460ff166123d95760405162461bcd60e51b815260040161066490612e35565b6109808282600d54610100900460ff166124055760405162461bcd60e51b815260040161066490612e35565b8151612418906072906020850190612428565b5080516108c79060739060208401905b82805461243490612b5f565b90600052602060002090601f016020900481019282612456576000855561249c565b82601f1061246f57805160ff191683800117855561249c565b8280016001018555821561249c579182015b8281111561249c578251825591602001919060010190612481565b506124a89291506124ac565b5090565b5b808211156124a857600081556001016124ad565b6001600160e01b03198116811461106d57600080fd5b6000602082840312156124e957600080fd5b81356124f4816124c1565b9392505050565b6001600160a01b038116811461106d57600080fd5b60006020828403121561252257600080fd5b81356124f4816124fb565b60005b83811015612548578181015183820152602001612530565b838111156111a05750506000910152565b6000815180845261257181602086016020860161252d565b601f01601f19169290920160200192915050565b6020815260006124f46020830184612559565b6000602082840312156125aa57600080fd5b5035919050565b600080604083850312156125c457600080fd5b82356125cf816124fb565b946020939093013593505050565b634e487b7160e01b600052604160045260246000fd5b604051608081016001600160401b0381118282101715612615576126156125dd565b60405290565b60405160a081016001600160401b0381118282101715612615576126156125dd565b604051601f8201601f191681016001600160401b0381118282101715612665576126656125dd565b604052919050565b80358015158114611fa057600080fd5b60006001600160401b03821115612696576126966125dd565b50601f01601f191660200190565b60006126b76126b28461267d565b61263d565b90508281528383830111156126cb57600080fd5b828260208301376000602084830101529392505050565b600082601f8301126126f357600080fd5b6124f4838335602085016126a4565b6000602080838503121561271557600080fd5b82356001600160401b038082111561272c57600080fd5b818501915085601f83011261274057600080fd5b813581811115612752576127526125dd565b8060051b61276185820161263d565b918252838101850191858101908984111561277b57600080fd5b86860192505b8383101561281c578235858111156127995760008081fd5b86016080818c03601f19018113156127b15760008081fd5b6127b96125f3565b6127c48a840161266d565b81526040808401356127d5816124fb565b828c0152606084810135828401529284013592898411156127f857600091508182fd5b6128068f8d868801016126e2565b9083015250845250509186019190860190612781565b9998505050505050505050565b60006020828403121561283b57600080fd5b81356001600160401b038082111561285257600080fd5b9083019060a0828603121561286657600080fd5b61286e61261b565b82358281111561287d57600080fd5b612889878286016126e2565b8252506128986020840161266d565b6020820152604083013591506128ad826124fb565b816040820152606083013560608201526080830135608082015280935050505092915050565b6000806000606084860312156128e857600080fd5b83356128f3816124fb565b92506020840135612903816124fb565b929592945050506040919091013590565b60006020828403121561292657600080fd5b81356001600160401b0381111561293c57600080fd5b611434848285016126e2565b6000806020838503121561295b57600080fd5b82356001600160401b038082111561297257600080fd5b818501915085601f83011261298657600080fd5b81358181111561299557600080fd5b8660208285010111156129a757600080fd5b60209290920196919550909350505050565b600080604083850312156129cc57600080fd5b82356129d7816124fb565b91506129e56020840161266d565b90509250929050565b60008060008060808587031215612a0457600080fd5b8435612a0f816124fb565b93506020850135612a1f816124fb565b92506040850135915060608501356001600160401b03811115612a4157600080fd5b8501601f81018713612a5257600080fd5b612a61878235602084016126a4565b91505092959194509250565b6020808252825182820181905260009190848201906040850190845b81811015612aa557835183529284019291840191600101612a89565b50909695505050505050565b60a081526000612ac460a0830188612559565b9515156020830152506001600160a01b039390931660408401526060830191909152608090910152919050565b60008060408385031215612b0457600080fd5b8235612b0f816124fb565b91506020830135612b1f816124fb565b809150509250929050565b6020808252818101527f4f776e61626c653a2063616c6c6572206973206e6f7420746865206f776e6572604082015260600190565b600181811c90821680612b7357607f821691505b60208210811415612b9457634e487b7160e01b600052602260045260246000fd5b50919050565b634e487b7160e01b600052603260045260246000fd5b634e487b7160e01b600052601160045260246000fd5b6000600019821415612bda57612bda612bb0565b5060010190565b60208082526031908201527f4552433732313a207472616e736665722063616c6c6572206973206e6f74206f6040820152701ddb995c881b9bdc88185c1c1c9bdd9959607a1b606082015260800190565b60008060408385031215612c4557600080fd5b8235612c50816124fb565b915060208301356001600160401b03811115612c6b57600080fd5b612c77858286016126e2565b9150509250929050565b600060208284031215612c9357600080fd5b81516124f4816124fb565b6001600160a01b038481168252606060208084018290528551918401829052600092868201929091906080860190855b81811015612cea57855183529483019491830191600101612cce565b5050809450505080851660408501525050949350505050565b600060208284031215612d1557600080fd5b81516001600160401b03811115612d2b57600080fd5b8201601f81018413612d3c57600080fd5b8051612d4a6126b28261267d565b818152856020838501011115612d5f57600080fd5b612d7082602083016020860161252d565b95945050505050565b60008251612d8b81846020870161252d565b9190910192915050565b60208082526032908201527f4552433732313a207472616e7366657220746f206e6f6e20455243373231526560408201527131b2b4bb32b91034b6b83632b6b2b73a32b960711b606082015260800190565b6020808252602e908201527f496e697469616c697a61626c653a20636f6e747261637420697320616c72656160408201526d191e481a5b9a5d1a585b1a5e995960921b606082015260800190565b6020808252602b908201527f496e697469616c697a61626c653a20636f6e7472616374206973206e6f74206960408201526a6e697469616c697a696e6760a81b606082015260800190565b600082821015612e9257612e92612bb0565b500390565b60008219821115612eaa57612eaa612bb0565b500190565b6001600160a01b0385811682528416602082015260408101839052608060608201819052600090612ee290830184612559565b9695505050505050565b600060208284031215612efe57600080fd5b81516124f4816124c156fea164736f6c634300080c000a",
    "linkReferences": {}
  }
}