{
  "abi": [
    {
      "anonymous": false,
      "inputs": [
        {
          "indexed": true,
          "internalType": "address",
          "name": "addr",
          "type": "address"
        },
        {
          "indexed": true,
          "internalType": "uint256",
          "name": "oldAccessory",
          "type": "uint256"
        },
        {
          "indexed": true,
          "internalType": "uint256",
          "name": "newAccessory",
          "type": "uint256"
        }
      ],
      "name": "AccessorySwapped",
      "type": "event"
    },
    {
      "anonymous": false,
      "inputs": [
        {
          "indexed": true,
          "internalType": "address",
          "name": "addr",
          "type": "address"
        },
        {
          "indexed": true,
          "internalType": "uint256",
          "name": "accessoryId",
          "type": "uint256"
        },
        {
          "indexed": true,
          "internalType": "string",
          "name": "ipfsLink",
          "type": "string"
        }
      ],
      "name": "AccessoryUnlocked",
      "type": "event"
    },
    {
      "anonymous": false,
      "inputs": [
        {
          "indexed": true,
          "internalType": "address",
          "name": "owner",
          "type": "address"
        },
        {
          "indexed": true,
          "internalType": "address",
          "name": "approved",
          "type": "address"
        },
        {
          "indexed": true,
          "internalType": "uint256",
          "name": "tokenId",
          "type": "uint256"
        }
      ],
      "name": "Approval",
      "type": "event"
    },
    {
      "anonymous": false,
      "inputs": [
        {
          "indexed": true,
          "internalType": "address",
          "name": "owner",
          "type": "address"
        },
        {
          "indexed": true,
          "internalType": "address",
          "name": "operator",
          "type": "address"
        },
        {
          "indexed": false,
          "internalType": "bool",
          "name": "approved",
          "type": "bool"
        }
      ],
      "name": "ApprovalForAll",
      "type": "event"
    },
    {
      "anonymous": false,
      "inputs": [
        {
          "indexed": true,
          "internalType": "address",
          "name": "addr",
          "type": "address"
        },
        {
          "indexed": true,
          "internalType": "uint256",
          "name": "categoryId",
          "type": "uint256"
        },
        {
          "indexed": true,
          "internalType": "string",
          "name": "ipfsLink",
          "type": "string"
        },
        {
          "indexed": false,
          "internalType": "uint256",
          "name": "newScore",
          "type": "uint256"
        }
      ],
      "name": "CategoryScoreChanged",
      "type": "event"
    },
    {
      "anonymous": false,
      "inputs": [
        {
          "indexed": false,
          "internalType": "uint8",
          "name": "version",
          "type": "uint8"
        }
      ],
      "name": "Initialized",
      "type": "event"
    },
    {
      "anonymous": false,
      "inputs": [
        {
          "indexed": true,
          "internalType": "address",
          "name": "previousOwner",
          "type": "address"
        },
        {
          "indexed": true,
          "internalType": "address",
          "name": "newOwner",
          "type": "address"
        }
      ],
      "name": "OwnershipTransferred",
      "type": "event"
    },
    {
      "anonymous": false,
      "inputs": [
        {
          "indexed": true,
          "internalType": "address",
          "name": "from",
          "type": "address"
        },
        {
          "indexed": true,
          "internalType": "address",
          "name": "to",
          "type": "address"
        },
        {
          "indexed": true,
          "internalType": "uint256",
          "name": "tokenId",
          "type": "uint256"
        }
      ],
      "name": "Transfer",
      "type": "event"
    },
    {
      "inputs": [
        {
          "internalType": "uint256",
          "name": "",
          "type": "uint256"
        }
      ],
      "name": "accessoryIdToAccessory",
      "outputs": [
        {
          "internalType": "string",
          "name": "name",
          "type": "string"
        },
        {
          "internalType": "bool",
          "name": "xpBased",
          "type": "bool"
        },
        {
          "internalType": "address",
          "name": "artContract",
          "type": "address"
        },
        {
          "internalType": "uint256",
          "name": "qualifyingXPScore",
          "type": "uint256"
        },
        {
          "internalType": "uint256",
          "name": "xpCategory",
          "type": "uint256"
        }
      ],
      "stateMutability": "view",
      "type": "function"
    },
    {
      "inputs": [
        {
          "internalType": "string",
          "name": "displayName",
          "type": "string"
        }
      ],
      "name": "addCategory",
      "outputs": [],
      "stateMutability": "nonpayable",
      "type": "function"
    },
    {
      "inputs": [
        {
          "components": [
            {
              "internalType": "string",
              "name": "name",
              "type": "string"
            },
            {
              "internalType": "bool",
              "name": "xpBased",
              "type": "bool"
            },
            {
              "internalType": "address",
              "name": "artContract",
              "type": "address"
            },
            {
              "internalType": "uint256",
              "name": "qualifyingXPScore",
              "type": "uint256"
            },
            {
              "internalType": "uint256",
              "name": "xpCategory",
              "type": "uint256"
            }
          ],
          "internalType": "struct IBackedCommunityTokenV1.Accessory",
          "name": "accessory",
          "type": "tuple"
        }
      ],
      "name": "addSpecialAccessory",
      "outputs": [],
      "stateMutability": "nonpayable",
      "type": "function"
    },
    {
      "inputs": [
        {
          "internalType": "address",
          "name": "",
          "type": "address"
        }
      ],
      "name": "addressToAccessoryEnabled",
      "outputs": [
        {
          "internalType": "uint256",
          "name": "",
          "type": "uint256"
        }
      ],
      "stateMutability": "view",
      "type": "function"
    },
    {
      "inputs": [
        {
          "internalType": "address",
          "name": "",
          "type": "address"
        },
        {
          "internalType": "uint256",
          "name": "",
          "type": "uint256"
        }
      ],
      "name": "addressToAccessoryUnlocked",
      "outputs": [
        {
          "internalType": "bool",
          "name": "",
          "type": "bool"
        }
      ],
      "stateMutability": "view",
      "type": "function"
    },
    {
      "inputs": [
        {
          "internalType": "address",
          "name": "",
          "type": "address"
        },
        {
          "internalType": "uint256",
          "name": "",
          "type": "uint256"
        }
      ],
      "name": "addressToCategoryScore",
      "outputs": [
        {
          "internalType": "uint256",
          "name": "",
          "type": "uint256"
        }
      ],
      "stateMutability": "view",
      "type": "function"
    },
    {
      "inputs": [
        {
          "internalType": "address",
          "name": "",
          "type": "address"
        }
      ],
      "name": "addressToPFPTokenIdLink",
      "outputs": [
        {
          "internalType": "uint256",
          "name": "",
          "type": "uint256"
        }
      ],
      "stateMutability": "view",
      "type": "function"
    },
    {
      "inputs": [],
      "name": "admin",
      "outputs": [
        {
          "internalType": "address",
          "name": "",
          "type": "address"
        }
      ],
      "stateMutability": "view",
      "type": "function"
    },
    {
      "inputs": [
        {
          "internalType": "address",
          "name": "to",
          "type": "address"
        },
        {
          "internalType": "uint256",
          "name": "tokenId",
          "type": "uint256"
        }
      ],
      "name": "approve",
      "outputs": [],
      "stateMutability": "nonpayable",
      "type": "function"
    },
    {
      "inputs": [
        {
          "internalType": "address",
          "name": "owner",
          "type": "address"
        }
      ],
      "name": "balanceOf",
      "outputs": [
        {
          "internalType": "uint256",
          "name": "",
          "type": "uint256"
        }
      ],
      "stateMutability": "view",
      "type": "function"
    },
    {
      "inputs": [],
      "name": "bunnyPFPContractAddress",
      "outputs": [
        {
          "internalType": "address",
          "name": "",
          "type": "address"
        }
      ],
      "stateMutability": "view",
      "type": "function"
    },
    {
      "inputs": [
        {
          "internalType": "uint256",
          "name": "",
          "type": "uint256"
        }
      ],
      "name": "categoryIdToDisplayName",
      "outputs": [
        {
          "internalType": "string",
          "name": "",
          "type": "string"
        }
      ],
      "stateMutability": "view",
      "type": "function"
    },
    {
      "inputs": [],
      "name": "descriptor",
      "outputs": [
        {
          "internalType": "contract IBackedCommunityTokenDescriptorV1",
          "name": "",
          "type": "address"
        }
      ],
      "stateMutability": "view",
      "type": "function"
    },
    {
      "inputs": [
        {
          "internalType": "uint256",
          "name": "tokenId",
          "type": "uint256"
        }
      ],
      "name": "getApproved",
      "outputs": [
        {
          "internalType": "address",
          "name": "",
          "type": "address"
        }
      ],
      "stateMutability": "view",
      "type": "function"
    },
    {
      "inputs": [
        {
          "internalType": "address",
          "name": "addr",
          "type": "address"
        }
      ],
      "name": "getUnlockedAccessoriesForAddress",
      "outputs": [
        {
          "internalType": "int256[]",
          "name": "",
          "type": "int256[]"
        }
      ],
      "stateMutability": "view",
      "type": "function"
    },
    {
      "inputs": [
        {
          "internalType": "address",
          "name": "_descriptorAddress",
          "type": "address"
        }
      ],
      "name": "initialize",
      "outputs": [],
      "stateMutability": "nonpayable",
      "type": "function"
    },
    {
      "inputs": [
        {
          "internalType": "address",
          "name": "owner",
          "type": "address"
        },
        {
          "internalType": "address",
          "name": "operator",
          "type": "address"
        }
      ],
      "name": "isApprovedForAll",
      "outputs": [
        {
          "internalType": "bool",
          "name": "",
          "type": "bool"
        }
      ],
      "stateMutability": "view",
      "type": "function"
    },
    {
      "inputs": [
        {
          "internalType": "uint256",
          "name": "tokenId",
          "type": "uint256"
        }
      ],
      "name": "linkBunnyPFP",
      "outputs": [],
      "stateMutability": "nonpayable",
      "type": "function"
    },
    {
      "inputs": [
        {
          "internalType": "address",
          "name": "mintTo",
          "type": "address"
        }
      ],
      "name": "mint",
      "outputs": [],
      "stateMutability": "nonpayable",
      "type": "function"
    },
    {
      "inputs": [],
      "name": "name",
      "outputs": [
        {
          "internalType": "string",
          "name": "",
          "type": "string"
        }
      ],
      "stateMutability": "view",
      "type": "function"
    },
    {
      "inputs": [],
      "name": "nonce",
      "outputs": [
        {
          "internalType": "uint256",
          "name": "",
          "type": "uint256"
        }
      ],
      "stateMutability": "view",
      "type": "function"
    },
    {
      "inputs": [],
      "name": "owner",
      "outputs": [
        {
          "internalType": "address",
          "name": "",
          "type": "address"
        }
      ],
      "stateMutability": "view",
      "type": "function"
    },
    {
      "inputs": [
        {
          "internalType": "uint256",
          "name": "tokenId",
          "type": "uint256"
        }
      ],
      "name": "ownerOf",
      "outputs": [
        {
          "internalType": "address",
          "name": "",
          "type": "address"
        }
      ],
      "stateMutability": "view",
      "type": "function"
    },
    {
      "inputs": [],
      "name": "renounceOwnership",
      "outputs": [],
      "stateMutability": "nonpayable",
      "type": "function"
    },
    {
      "inputs": [
        {
          "internalType": "address",
          "name": "from",
          "type": "address"
        },
        {
          "internalType": "address",
          "name": "to",
          "type": "address"
        },
        {
          "internalType": "uint256",
          "name": "tokenId",
          "type": "uint256"
        }
      ],
      "name": "safeTransferFrom",
      "outputs": [],
      "stateMutability": "nonpayable",
      "type": "function"
    },
    {
      "inputs": [
        {
          "internalType": "address",
          "name": "from",
          "type": "address"
        },
        {
          "internalType": "address",
          "name": "to",
          "type": "address"
        },
        {
          "internalType": "uint256",
          "name": "tokenId",
          "type": "uint256"
        },
        {
          "internalType": "bytes",
          "name": "_data",
          "type": "bytes"
        }
      ],
      "name": "safeTransferFrom",
      "outputs": [],
      "stateMutability": "nonpayable",
      "type": "function"
    },
    {
      "inputs": [
        {
          "internalType": "address",
          "name": "operator",
          "type": "address"
        },
        {
          "internalType": "bool",
          "name": "approved",
          "type": "bool"
        }
      ],
      "name": "setApprovalForAll",
      "outputs": [],
      "stateMutability": "nonpayable",
      "type": "function"
    },
    {
      "inputs": [
        {
          "internalType": "address",
          "name": "addr",
          "type": "address"
        }
      ],
      "name": "setBunnyPFPContract",
      "outputs": [],
      "stateMutability": "nonpayable",
      "type": "function"
    },
    {
      "inputs": [
        {
          "internalType": "address",
          "name": "addr",
          "type": "address"
        }
      ],
      "name": "setDescriptorContract",
      "outputs": [],
      "stateMutability": "nonpayable",
      "type": "function"
    },
    {
      "inputs": [
        {
          "internalType": "uint256",
          "name": "accessoryId",
          "type": "uint256"
        }
      ],
      "name": "setEnabledAccessory",
      "outputs": [],
      "stateMutability": "nonpayable",
      "type": "function"
    },
    {
      "inputs": [
        {
          "internalType": "bytes4",
          "name": "interfaceId",
          "type": "bytes4"
        }
      ],
      "name": "supportsInterface",
      "outputs": [
        {
          "internalType": "bool",
          "name": "",
          "type": "bool"
        }
      ],
      "stateMutability": "view",
      "type": "function"
    },
    {
      "inputs": [],
      "name": "symbol",
      "outputs": [
        {
          "internalType": "string",
          "name": "",
          "type": "string"
        }
      ],
      "stateMutability": "view",
      "type": "function"
    },
    {
      "inputs": [
        {
          "internalType": "uint256",
          "name": "tokenId",
          "type": "uint256"
        }
      ],
      "name": "tokenURI",
      "outputs": [
        {
          "internalType": "string",
          "name": "",
          "type": "string"
        }
      ],
      "stateMutability": "view",
      "type": "function"
    },
    {
      "inputs": [],
      "name": "totalCategoryCount",
      "outputs": [
        {
          "internalType": "uint256",
          "name": "",
          "type": "uint256"
        }
      ],
      "stateMutability": "view",
      "type": "function"
    },
    {
      "inputs": [],
      "name": "totalSpecialyAccessoryCount",
      "outputs": [
        {
          "internalType": "uint256",
          "name": "",
          "type": "uint256"
        }
      ],
      "stateMutability": "view",
      "type": "function"
    },
    {
      "inputs": [
        {
          "internalType": "address",
          "name": "from",
          "type": "address"
        },
        {
          "internalType": "address",
          "name": "to",
          "type": "address"
        },
        {
          "internalType": "uint256",
          "name": "tokenId",
          "type": "uint256"
        }
      ],
      "name": "transferFrom",
      "outputs": [],
      "stateMutability": "nonpayable",
      "type": "function"
    },
    {
      "inputs": [
        {
          "internalType": "address",
          "name": "newOwner",
          "type": "address"
        }
      ],
      "name": "transferOwnership",
      "outputs": [],
      "stateMutability": "nonpayable",
      "type": "function"
    },
    {
      "inputs": [
        {
          "components": [
            {
              "internalType": "bool",
              "name": "isCategoryChange",
              "type": "bool"
            },
            {
              "internalType": "address",
              "name": "addr",
              "type": "address"
            },
            {
              "internalType": "uint256",
              "name": "changeableId",
              "type": "uint256"
            },
            {
              "internalType": "string",
              "name": "ipfsLink",
              "type": "string"
            }
          ],
          "internalType": "struct IBackedCommunityTokenV1.CategoryOrAccessoryChange[]",
          "name": "changes",
          "type": "tuple[]"
        }
      ],
      "name": "unlockAccessoryOrIncrementCategory",
      "outputs": [],
      "stateMutability": "nonpayable",
      "type": "function"
    }
  ],
  "bytecode": {
    "object": "0x608060405234801561001057600080fd5b50612c60806100206000396000f3fe608060405234801561001057600080fd5b50600436106102325760003560e01c80637a0c81af11610130578063c4d66de8116100b8578063db8a06cf1161007c578063db8a06cf1461050d578063dfcf2cf814610531578063e985e9c514610544578063f2fde38b14610580578063f851a4401461059357600080fd5b8063c4d66de8146104a1578063c87b56dd146104b4578063d1c5df07146104c7578063d37825b2146104e7578063d4f353c0146104fa57600080fd5b806395d89b41116100ff57806395d89b4114610461578063a22cb46514610469578063affed0e01461047c578063b2b52ef114610485578063b88d4fde1461048e57600080fd5b80637a0c81af146103fc5780638da5cb5b1461041c578063904b65d91461042d578063957a27541461043657600080fd5b80632f2aa210116101be5780636352211e116101825780636352211e1461038d5780636a627842146103a057806370a08231146103b3578063715018a6146103d45780637473660a146103dc57600080fd5b80632f2aa210146103135780632fdaa49014610326578063303e74df146103545780633ed0b70e1461036757806342842e0e1461037a57600080fd5b8063095ea7b311610205578063095ea7b3146102b45780631050c356146102c75780631073ce33146102da57806323b872dd146102ed5780632e0dcbf71461030057600080fd5b806301ffc9a7146102375780630557cfef1461025f57806306fdde0314610274578063081812fc14610289575b600080fd5b61024a6102453660046122d8565b6105a6565b60405190151581526020015b60405180910390f35b61027261026d3660046122fc565b6105f8565b005b61027c6106eb565b604051610256919061236d565b61029c6102973660046122fc565b61077d565b6040516001600160a01b039091168152602001610256565b6102726102c2366004612395565b610812565b6102726102d53660046124ea565b610928565b6102726102e8366004612612565b6109e0565b6102726102fb3660046126bd565b610aec565b61027261030e3660046126fe565b610b1d565b6102726103213660046122fc565b610b82565b61024a610334366004612395565b600860209081526000928352604080842090915290825290205460ff1681565b60025461029c906001600160a01b031681565b61027c6103753660046122fc565b610dd6565b6102726103883660046126bd565b610e70565b61029c61039b3660046122fc565b610e8b565b6102726103ae366004612733565b610f02565b6103c66103c1366004612733565b610f23565b604051908152602001610256565b610272610fa9565b6103c66103ea366004612733565b60096020526000908152604090205481565b6103c661040a366004612733565b600b6020526000908152604090205481565b60a3546001600160a01b031661029c565b6103c660065481565b6103c6610444366004612395565b600560209081526000928352604080842090915290825290205481565b61027c610fdf565b610272610477366004612750565b610fee565b6103c660005481565b6103c660035481565b61027261049c366004612785565b610ff9565b6102726104af366004612733565b611031565b61027c6104c23660046122fc565b611108565b6104da6104d5366004612733565b6112c8565b6040516102569190612805565b6102726104f5366004612733565b6114df565b610272610508366004612733565b61152b565b61052061051b3660046122fc565b611577565b604051610256959493929190612849565b600a5461029c906001600160a01b031681565b61024a610552366004612889565b6001600160a01b03918216600090815260766020908152604080832093909416825291909152205460ff1690565b61027261058e366004612733565b61163b565b60015461029c906001600160a01b031681565b60006001600160e01b031982166380ac58cd60e01b14806105d757506001600160e01b03198216635b5e139f60e01b145b806105f257506301ffc9a760e01b6001600160e01b03198316145b92915050565b600a546040516331a9108f60e11b81526004810183905233916001600160a01b031690636352211e90602401602060405180830381865afa158015610641573d6000803e3d6000fd5b505050506040513d601f19601f8201168201806040525081019061066591906128c2565b6001600160a01b0316146106d95760405162461bcd60e51b815260206004820152603060248201527f4261636b6564436f6d6d756e697479546f6b656e56313a206e6f74206f776e6560448201526f1c881bd988141194081d1bdad95b925960821b60648201526084015b60405180910390fd5b336000908152600b6020526040902055565b6060607180546106fa906128df565b80601f0160208091040260200160405190810160405280929190818152602001828054610726906128df565b80156107735780601f1061074857610100808354040283529160200191610773565b820191906000526020600020905b81548152906001019060200180831161075657829003601f168201915b5050505050905090565b6000818152607360205260408120546001600160a01b03166107f65760405162461bcd60e51b815260206004820152602c60248201527f4552433732313a20617070726f76656420717565727920666f72206e6f6e657860448201526b34b9ba32b73a103a37b5b2b760a11b60648201526084016106d0565b506000908152607560205260409020546001600160a01b031690565b600061081d82610e8b565b9050806001600160a01b0316836001600160a01b0316141561088b5760405162461bcd60e51b815260206004820152602160248201527f4552433732313a20617070726f76616c20746f2063757272656e74206f776e656044820152603960f91b60648201526084016106d0565b336001600160a01b03821614806108a757506108a78133610552565b6109195760405162461bcd60e51b815260206004820152603860248201527f4552433732313a20617070726f76652063616c6c6572206973206e6f74206f7760448201527f6e6572206e6f7220617070726f76656420666f7220616c6c000000000000000060648201526084016106d0565b61092383836116d3565b505050565b60a3546001600160a01b031633146109525760405162461bcd60e51b81526004016106d09061291a565b60005b81518110156109dc578181815181106109705761097061294f565b602002602001015160000151156109a8576109a38282815181106109965761099661294f565b6020026020010151611741565b6109ca565b6109ca8282815181106109bd576109bd61294f565b60200260200101516117e8565b806109d48161297b565b915050610955565b5050565b60a3546001600160a01b03163314610a0a5760405162461bcd60e51b81526004016106d09061291a565b6040518060a001604052808260000151815260200182602001511515815260200182604001516001600160a01b031681526020018260600151815260200182608001518152506007600060066000815480929190610a679061297b565b909155508152602080820192909252604001600020825180519192610a9192849290910190612229565b50602082015160018201805460408501516001600160a01b031661010002610100600160a81b0319931515939093166001600160a81b0319909116179190911790556060820151600282015560809091015160039091015550565b610af633826119dc565b610b125760405162461bcd60e51b81526004016106d090612996565b610923838383611ad2565b60a3546001600160a01b03163314610b475760405162461bcd60e51b81526004016106d09061291a565b60038054829160049160009182610b5d8361297b565b91905055815260200190815260200160002090805190602001906109dc929190612229565b336000908152600960209081526040808320548484526007909252808320815160a08101909252805492939282908290610bbb906128df565b80601f0160208091040260200160405190810160405280929190818152602001828054610be7906128df565b8015610c345780601f10610c0957610100808354040283529160200191610c34565b820191906000526020600020905b815481529060010190602001808311610c1757829003601f168201915b5050509183525050600182015460ff811615156020808401919091526101009091046001600160a01b031660408301526002830154606083015260039092015460809091015281015190915015610d12576060810151336000908152600560209081526040808320608086015184529091529020541015610d0d5760405162461bcd60e51b815260206004820152602d60248201527f4261636b6564436f6d6d756e697479546f6b656e56313a207573657220646f6560448201526c73206e6f74207175616c69667960981b60648201526084016106d0565b610d93565b33600090815260086020908152604080832086845290915290205460ff16610d935760405162461bcd60e51b815260206004820152602e60248201527f4261636b6564436f6d6d756e697479546f6b656e56313a206163636573736f7260448201526d1e481b9bdd081d5b9b1bd8dad95960921b60648201526084016106d0565b33600081815260096020526040808220869055518592859290917fea1b1f91e87d6596dd266ab28a1e2231755992988caaafc59ed42f2331d41e8c9190a4505050565b60046020526000908152604090208054610def906128df565b80601f0160208091040260200160405190810160405280929190818152602001828054610e1b906128df565b8015610e685780601f10610e3d57610100808354040283529160200191610e68565b820191906000526020600020905b815481529060010190602001808311610e4b57829003601f168201915b505050505081565b61092383838360405180602001604052806000815250610ff9565b6000818152607360205260408120546001600160a01b0316806105f25760405162461bcd60e51b815260206004820152602960248201527f4552433732313a206f776e657220717565727920666f72206e6f6e657869737460448201526832b73a103a37b5b2b760b91b60648201526084016106d0565b60008054610f209183919080610f178361297b565b91905055611b51565b50565b60006001600160a01b038216610f8d5760405162461bcd60e51b815260206004820152602960248201527f4552433732313a2061646472657373207a65726f206973206e6f7420612076616044820152683634b21037bbb732b960b91b60648201526084016106d0565b506001600160a01b031660009081526074602052604090205490565b60a3546001600160a01b03163314610fd35760405162461bcd60e51b81526004016106d09061291a565b610fdd6000611bc3565b565b6060607280546106fa906128df565b6109dc338383611c15565b61100333836119dc565b61101f5760405162461bcd60e51b81526004016106d090612996565b61102b84848484611ce4565b50505050565b600061103d6001611d17565b9050801561105557600c805461ff0019166101001790555b6110a46040518060400160405280600f81526020016e4261636b6564436f6d6d756e69747960881b81525060405180604001604052806006815260200165109050d2d15160d21b815250611da6565b600280546001600160a01b0319166001600160a01b03841617905580156109dc57600c805461ff0019169055604051600181527f7f26b83ff96e1f2b6a682f133852f6798a09c465da95921460cefb38474024989060200160405180910390a15050565b6040516331a9108f60e11b8152600481018290526060906000903090636352211e90602401602060405180830381865afa15801561114a573d6000803e3d6000fd5b505050506040513d601f19601f8201168201806040525081019061116e91906128c2565b9050600060035467ffffffffffffffff81111561118d5761118d6123c1565b6040519080825280602002602001820160405280156111b6578160200160208202803683370190505b50905060005b60035481101561121b576001600160a01b038316600090815260056020908152604080832084845290915290205482518390839081106111fe576111fe61294f565b6020908102919091010152806112138161297b565b9150506111bc565b506002546001600160a01b03838116600090815260096020908152604080832054835260079091529081902060010154905163bd18ec6160e01b81529282169263bd18ec619261127b9287928792610100909204909116906004016129e7565b600060405180830381865afa158015611298573d6000803e3d6000fd5b505050506040513d6000823e601f3d908101601f191682016040526112c09190810190612a4c565b949350505050565b6060600060065467ffffffffffffffff8111156112e7576112e76123c1565b604051908082528060200260200182016040528015611310578160200160208202803683370190505b50905060005b6006548110156114d857600081815260076020526040808220815160a08101909252805482908290611347906128df565b80601f0160208091040260200160405190810160405280929190818152602001828054611373906128df565b80156113c05780601f10611395576101008083540402835291602001916113c0565b820191906000526020600020905b8154815290600101906020018083116113a357829003601f168201915b5050509183525050600182015460ff811615156020808401919091526101009091046001600160a01b0316604083015260028301546060830152600390920154608090910152810151909150156114715760608101516001600160a01b038616600090815260056020908152604080832060808601518452909152902054101561144c5760001961144e565b815b8383815181106114605761146061294f565b6020026020010181815250506114c5565b6001600160a01b038516600090815260086020908152604080832085845290915290205460ff166114a4576000196114a6565b815b8383815181106114b8576114b861294f565b6020026020010181815250505b50806114d08161297b565b915050611316565b5092915050565b60a3546001600160a01b031633146115095760405162461bcd60e51b81526004016106d09061291a565b600280546001600160a01b0319166001600160a01b0392909216919091179055565b60a3546001600160a01b031633146115555760405162461bcd60e51b81526004016106d09061291a565b600a80546001600160a01b0319166001600160a01b0392909216919091179055565b600760205260009081526040902080548190611592906128df565b80601f01602080910402602001604051908101604052809291908181526020018280546115be906128df565b801561160b5780601f106115e05761010080835404028352916020019161160b565b820191906000526020600020905b8154815290600101906020018083116115ee57829003601f168201915b5050505060018301546002840154600390940154929360ff8216936101009092046001600160a01b031692509085565b60a3546001600160a01b031633146116655760405162461bcd60e51b81526004016106d09061291a565b6001600160a01b0381166116ca5760405162461bcd60e51b815260206004820152602660248201527f4f776e61626c653a206e6577206f776e657220697320746865207a65726f206160448201526564647265737360d01b60648201526084016106d0565b610f2081611bc3565b600081815260756020526040902080546001600160a01b0319166001600160a01b038416908117909155819061170882610e8b565b6001600160a01b03167f8c5be1e5ebec7d5bd14f71427d1e84f3dd0314c0f7b2291e5b200ac8c7c3b92560405160405180910390a45050565b6020808201516001600160a01b03166000908152600582526040808220818501518352909252908120805482906117779061297b565b9182905550606083015160405191925061179091612ac3565b6040518091039020826040015183602001516001600160a01b03167f4adfb6c8799106a05c87f98cd81c34d5636f2a657ab1d2b940cd96a643d91b4c846040516117dc91815260200190565b60405180910390a45050565b600060076000836040015181526020019081526020016000206040518060a001604052908160008201805461181c906128df565b80601f0160208091040260200160405190810160405280929190818152602001828054611848906128df565b80156118955780601f1061186a57610100808354040283529160200191611895565b820191906000526020600020905b81548152906001019060200180831161187857829003601f168201915b5050509183525050600182015460ff811615156020808401919091526101009091046001600160a01b03166040830152600283015460608301526003909201546080909101528101519091501561194c5760405162461bcd60e51b815260206004820152603560248201527f4261636b6564436f6d6d756e697479546f6b656e56313a204163636573736f726044820152741e481b5d5cdd0818994818591b5a5b8818985cd959605a1b60648201526084016106d0565b6020808301516001600160a01b03166000908152600882526040808220818601518352909252819020805460ff19166001179055606083015190516119919190612ac3565b6040518091039020826040015183602001516001600160a01b03167f21d40621155f17d6d4e01f8387b7ac9f14f7b993868011846ad64e5ad770e46460405160405180910390a45050565b6000818152607360205260408120546001600160a01b0316611a555760405162461bcd60e51b815260206004820152602c60248201527f4552433732313a206f70657261746f7220717565727920666f72206e6f6e657860448201526b34b9ba32b73a103a37b5b2b760a11b60648201526084016106d0565b6000611a6083610e8b565b9050806001600160a01b0316846001600160a01b03161480611aa757506001600160a01b0380821660009081526076602090815260408083209388168352929052205460ff165b806112c05750836001600160a01b0316611ac08461077d565b6001600160a01b031614949350505050565b60a3546001600160a01b03163314611b465760405162461bcd60e51b815260206004820152603160248201527f455243373231536f756c626f756e643a206f6e6c7920636f6e7472616374206f6044820152703bb732b91031b0b7103a3930b739b332b960791b60648201526084016106d0565b610923838383611dd7565b6001611b5c83610f23565b10611bb95760405162461bcd60e51b815260206004820152602760248201527f455243373231536f756c626f756e643a2063616e6e6f74206f776e206d6f7265604482015266207468616e203160c81b60648201526084016106d0565b6109dc8282611f73565b60a380546001600160a01b038381166001600160a01b0319831681179093556040519116919082907f8be0079c531659141344cd1fd0a4f28419497f9722a3daafe3b4186f6b6457e090600090a35050565b816001600160a01b0316836001600160a01b03161415611c775760405162461bcd60e51b815260206004820152601960248201527f4552433732313a20617070726f766520746f2063616c6c65720000000000000060448201526064016106d0565b6001600160a01b03838116600081815260766020908152604080832094871680845294825291829020805460ff191686151590811790915591519182527f17307eab39ab6107e8899845ad3d59bd9653f200f220920489ca2b5937696c31910160405180910390a3505050565b611cef848484611ad2565b611cfb848484846120b5565b61102b5760405162461bcd60e51b81526004016106d090612adf565b600c54600090610100900460ff1615611d60578160ff166001148015611d3c5750303b155b611d585760405162461bcd60e51b81526004016106d090612b31565b506000919050565b600c5460ff808416911610611d875760405162461bcd60e51b81526004016106d090612b31565b50600c805460ff191660ff92909216919091179055600190565b919050565b600c54610100900460ff16611dcd5760405162461bcd60e51b81526004016106d090612b7f565b6109dc82826121b3565b826001600160a01b0316611dea82610e8b565b6001600160a01b031614611e4e5760405162461bcd60e51b815260206004820152602560248201527f4552433732313a207472616e736665722066726f6d20696e636f72726563742060448201526437bbb732b960d91b60648201526084016106d0565b6001600160a01b038216611eb05760405162461bcd60e51b8152602060048201526024808201527f4552433732313a207472616e7366657220746f20746865207a65726f206164646044820152637265737360e01b60648201526084016106d0565b611ebb6000826116d3565b6001600160a01b0383166000908152607460205260408120805460019290611ee4908490612bca565b90915550506001600160a01b0382166000908152607460205260408120805460019290611f12908490612be1565b909155505060008181526073602052604080822080546001600160a01b0319166001600160a01b0386811691821790925591518493918716917fddf252ad1be2c89b69c2b068fc378daa952ba7f163c4a11628f55a4df523b3ef91a4505050565b6001600160a01b038216611fc95760405162461bcd60e51b815260206004820181905260248201527f4552433732313a206d696e7420746f20746865207a65726f206164647265737360448201526064016106d0565b6000818152607360205260409020546001600160a01b03161561202e5760405162461bcd60e51b815260206004820152601c60248201527f4552433732313a20746f6b656e20616c7265616479206d696e7465640000000060448201526064016106d0565b6001600160a01b0382166000908152607460205260408120805460019290612057908490612be1565b909155505060008181526073602052604080822080546001600160a01b0319166001600160a01b03861690811790915590518392907fddf252ad1be2c89b69c2b068fc378daa952ba7f163c4a11628f55a4df523b3ef908290a45050565b60006001600160a01b0384163b156121a857604051630a85bd0160e11b81526001600160a01b0385169063150b7a02906120f9903390899088908890600401612bf9565b6020604051808303816000875af1925050508015612134575060408051601f3d908101601f1916820190925261213191810190612c36565b60015b61218e573d808015612162576040519150601f19603f3d011682016040523d82523d6000602084013e612167565b606091505b5080516121865760405162461bcd60e51b81526004016106d090612adf565b805181602001fd5b6001600160e01b031916630a85bd0160e11b1490506112c0565b506001949350505050565b600c54610100900460ff166121da5760405162461bcd60e51b81526004016106d090612b7f565b6109dc8282600c54610100900460ff166122065760405162461bcd60e51b81526004016106d090612b7f565b8151612219906071906020850190612229565b5080516109239060729060208401905b828054612235906128df565b90600052602060002090601f016020900481019282612257576000855561229d565b82601f1061227057805160ff191683800117855561229d565b8280016001018555821561229d579182015b8281111561229d578251825591602001919060010190612282565b506122a99291506122ad565b5090565b5b808211156122a957600081556001016122ae565b6001600160e01b031981168114610f2057600080fd5b6000602082840312156122ea57600080fd5b81356122f5816122c2565b9392505050565b60006020828403121561230e57600080fd5b5035919050565b60005b83811015612330578181015183820152602001612318565b8381111561102b5750506000910152565b60008151808452612359816020860160208601612315565b601f01601f19169290920160200192915050565b6020815260006122f56020830184612341565b6001600160a01b0381168114610f2057600080fd5b600080604083850312156123a857600080fd5b82356123b381612380565b946020939093013593505050565b634e487b7160e01b600052604160045260246000fd5b6040516080810167ffffffffffffffff811182821017156123fa576123fa6123c1565b60405290565b60405160a0810167ffffffffffffffff811182821017156123fa576123fa6123c1565b604051601f8201601f1916810167ffffffffffffffff8111828210171561244c5761244c6123c1565b604052919050565b80358015158114611da157600080fd5b600067ffffffffffffffff82111561247e5761247e6123c1565b50601f01601f191660200190565b600061249f61249a84612464565b612423565b90508281528383830111156124b357600080fd5b828260208301376000602084830101529392505050565b600082601f8301126124db57600080fd5b6122f58383356020850161248c565b600060208083850312156124fd57600080fd5b823567ffffffffffffffff8082111561251557600080fd5b818501915085601f83011261252957600080fd5b81358181111561253b5761253b6123c1565b8060051b61254a858201612423565b918252838101850191858101908984111561256457600080fd5b86860192505b83831015612605578235858111156125825760008081fd5b86016080818c03601f190181131561259a5760008081fd5b6125a26123d7565b6125ad8a8401612454565b81526040808401356125be81612380565b828c0152606084810135828401529284013592898411156125e157600091508182fd5b6125ef8f8d868801016124ca565b908301525084525050918601919086019061256a565b9998505050505050505050565b60006020828403121561262457600080fd5b813567ffffffffffffffff8082111561263c57600080fd5b9083019060a0828603121561265057600080fd5b612658612400565b82358281111561266757600080fd5b612673878286016124ca565b82525061268260208401612454565b60208201526040830135915061269782612380565b816040820152606083013560608201526080830135608082015280935050505092915050565b6000806000606084860312156126d257600080fd5b83356126dd81612380565b925060208401356126ed81612380565b929592945050506040919091013590565b60006020828403121561271057600080fd5b813567ffffffffffffffff81111561272757600080fd5b6112c0848285016124ca565b60006020828403121561274557600080fd5b81356122f581612380565b6000806040838503121561276357600080fd5b823561276e81612380565b915061277c60208401612454565b90509250929050565b6000806000806080858703121561279b57600080fd5b84356127a681612380565b935060208501356127b681612380565b925060408501359150606085013567ffffffffffffffff8111156127d957600080fd5b8501601f810187136127ea57600080fd5b6127f98782356020840161248c565b91505092959194509250565b6020808252825182820181905260009190848201906040850190845b8181101561283d57835183529284019291840191600101612821565b50909695505050505050565b60a08152600061285c60a0830188612341565b9515156020830152506001600160a01b039390931660408401526060830191909152608090910152919050565b6000806040838503121561289c57600080fd5b82356128a781612380565b915060208301356128b781612380565b809150509250929050565b6000602082840312156128d457600080fd5b81516122f581612380565b600181811c908216806128f357607f821691505b6020821081141561291457634e487b7160e01b600052602260045260246000fd5b50919050565b6020808252818101527f4f776e61626c653a2063616c6c6572206973206e6f7420746865206f776e6572604082015260600190565b634e487b7160e01b600052603260045260246000fd5b634e487b7160e01b600052601160045260246000fd5b600060001982141561298f5761298f612965565b5060010190565b60208082526031908201527f4552433732313a207472616e736665722063616c6c6572206973206e6f74206f6040820152701ddb995c881b9bdc88185c1c1c9bdd9959607a1b606082015260800190565b6001600160a01b038481168252606060208084018290528551918401829052600092868201929091906080860190855b81811015612a3357855183529483019491830191600101612a17565b5050809450505080851660408501525050949350505050565b600060208284031215612a5e57600080fd5b815167ffffffffffffffff811115612a7557600080fd5b8201601f81018413612a8657600080fd5b8051612a9461249a82612464565b818152856020838501011115612aa957600080fd5b612aba826020830160208601612315565b95945050505050565b60008251612ad5818460208701612315565b9190910192915050565b60208082526032908201527f4552433732313a207472616e7366657220746f206e6f6e20455243373231526560408201527131b2b4bb32b91034b6b83632b6b2b73a32b960711b606082015260800190565b6020808252602e908201527f496e697469616c697a61626c653a20636f6e747261637420697320616c72656160408201526d191e481a5b9a5d1a585b1a5e995960921b606082015260800190565b6020808252602b908201527f496e697469616c697a61626c653a20636f6e7472616374206973206e6f74206960408201526a6e697469616c697a696e6760a81b606082015260800190565b600082821015612bdc57612bdc612965565b500390565b60008219821115612bf457612bf4612965565b500190565b6001600160a01b0385811682528416602082015260408101839052608060608201819052600090612c2c90830184612341565b9695505050505050565b600060208284031215612c4857600080fd5b81516122f5816122c256fea164736f6c634300080c000a",
    "linkReferences": {}
  }
}