{
  "abi": [
    {
      "anonymous": false,
      "inputs": [
        {
          "indexed": true,
          "internalType": "address",
          "name": "addr",
          "type": "address"
        },
        {
          "indexed": true,
          "internalType": "address",
          "name": "accessory",
          "type": "address"
        },
        {
          "indexed": true,
          "internalType": "string",
          "name": "ipfsLink",
          "type": "string"
        },
        {
          "indexed": false,
          "internalType": "bool",
          "name": "unlocked",
          "type": "bool"
        },
        {
          "indexed": false,
          "internalType": "string",
          "name": "ipfsEntryHash",
          "type": "string"
        }
      ],
      "name": "AccessoryLockChanged",
      "type": "event"
    },
    {
      "anonymous": false,
      "inputs": [
        {
          "indexed": true,
          "internalType": "address",
          "name": "addr",
          "type": "address"
        },
        {
          "indexed": true,
          "internalType": "address",
          "name": "oldAccessory",
          "type": "address"
        },
        {
          "indexed": true,
          "internalType": "address",
          "name": "newAccessory",
          "type": "address"
        }
      ],
      "name": "AccessorySwapped",
      "type": "event"
    },
    {
      "anonymous": false,
      "inputs": [
        {
          "indexed": true,
          "internalType": "address",
          "name": "owner",
          "type": "address"
        },
        {
          "indexed": true,
          "internalType": "address",
          "name": "approved",
          "type": "address"
        },
        {
          "indexed": true,
          "internalType": "uint256",
          "name": "tokenId",
          "type": "uint256"
        }
      ],
      "name": "Approval",
      "type": "event"
    },
    {
      "anonymous": false,
      "inputs": [
        {
          "indexed": true,
          "internalType": "address",
          "name": "owner",
          "type": "address"
        },
        {
          "indexed": true,
          "internalType": "address",
          "name": "operator",
          "type": "address"
        },
        {
          "indexed": false,
          "internalType": "bool",
          "name": "approved",
          "type": "bool"
        }
      ],
      "name": "ApprovalForAll",
      "type": "event"
    },
    {
      "anonymous": false,
      "inputs": [
        {
          "indexed": true,
          "internalType": "address",
          "name": "addr",
          "type": "address"
        },
        {
          "indexed": true,
          "internalType": "string",
          "name": "categoryId",
          "type": "string"
        },
        {
          "indexed": true,
          "internalType": "string",
          "name": "ipfsLink",
          "type": "string"
        },
        {
          "indexed": false,
          "internalType": "uint256",
          "name": "newScore",
          "type": "uint256"
        },
        {
          "indexed": false,
          "internalType": "uint256",
          "name": "oldScore",
          "type": "uint256"
        },
        {
          "indexed": false,
          "internalType": "string",
          "name": "ipfsEntryHash",
          "type": "string"
        }
      ],
      "name": "CategoryScoreChanged",
      "type": "event"
    },
    {
      "anonymous": false,
      "inputs": [
        {
          "indexed": false,
          "internalType": "uint8",
          "name": "version",
          "type": "uint8"
        }
      ],
      "name": "Initialized",
      "type": "event"
    },
    {
      "anonymous": false,
      "inputs": [
        {
          "indexed": true,
          "internalType": "address",
          "name": "previousOwner",
          "type": "address"
        },
        {
          "indexed": true,
          "internalType": "address",
          "name": "newOwner",
          "type": "address"
        }
      ],
      "name": "OwnershipTransferred",
      "type": "event"
    },
    {
      "anonymous": false,
      "inputs": [
        {
          "indexed": true,
          "internalType": "address",
          "name": "from",
          "type": "address"
        },
        {
          "indexed": true,
          "internalType": "address",
          "name": "to",
          "type": "address"
        },
        {
          "indexed": true,
          "internalType": "uint256",
          "name": "tokenId",
          "type": "uint256"
        }
      ],
      "name": "Transfer",
      "type": "event"
    },
    {
      "inputs": [
        {
          "internalType": "address",
          "name": "accessory",
          "type": "address"
        }
      ],
      "name": "addAccessory",
      "outputs": [],
      "stateMutability": "nonpayable",
      "type": "function"
    },
    {
      "inputs": [
        {
          "internalType": "address",
          "name": "",
          "type": "address"
        }
      ],
      "name": "addressToAccessoryEnabled",
      "outputs": [
        {
          "internalType": "address",
          "name": "",
          "type": "address"
        }
      ],
      "stateMutability": "view",
      "type": "function"
    },
    {
      "inputs": [
        {
          "internalType": "address",
          "name": "",
          "type": "address"
        },
        {
          "internalType": "address",
          "name": "",
          "type": "address"
        }
      ],
      "name": "addressToAccessoryUnlocked",
      "outputs": [
        {
          "internalType": "bool",
          "name": "",
          "type": "bool"
        }
      ],
      "stateMutability": "view",
      "type": "function"
    },
    {
      "inputs": [
        {
          "internalType": "address",
          "name": "",
          "type": "address"
        },
        {
          "internalType": "string",
          "name": "",
          "type": "string"
        }
      ],
      "name": "addressToCategoryScore",
      "outputs": [
        {
          "internalType": "uint256",
          "name": "",
          "type": "uint256"
        }
      ],
      "stateMutability": "view",
      "type": "function"
    },
    {
      "inputs": [
        {
          "internalType": "address",
          "name": "",
          "type": "address"
        }
      ],
      "name": "addressToPFPSVGLink",
      "outputs": [
        {
          "internalType": "string",
          "name": "",
          "type": "string"
        }
      ],
      "stateMutability": "view",
      "type": "function"
    },
    {
      "inputs": [
        {
          "internalType": "address",
          "name": "to",
          "type": "address"
        },
        {
          "internalType": "uint256",
          "name": "tokenId",
          "type": "uint256"
        }
      ],
      "name": "approve",
      "outputs": [],
      "stateMutability": "nonpayable",
      "type": "function"
    },
    {
      "inputs": [
        {
          "internalType": "address",
          "name": "owner",
          "type": "address"
        }
      ],
      "name": "balanceOf",
      "outputs": [
        {
          "internalType": "uint256",
          "name": "",
          "type": "uint256"
        }
      ],
      "stateMutability": "view",
      "type": "function"
    },
    {
      "inputs": [],
      "name": "bunnyPFPContractAddress",
      "outputs": [
        {
          "internalType": "address",
          "name": "",
          "type": "address"
        }
      ],
      "stateMutability": "view",
      "type": "function"
    },
    {
      "inputs": [],
      "name": "cdmAddr",
      "outputs": [
        {
          "internalType": "address",
          "name": "",
          "type": "address"
        }
      ],
      "stateMutability": "view",
      "type": "function"
    },
    {
      "inputs": [],
      "name": "clearBunnyPFPLink",
      "outputs": [],
      "stateMutability": "nonpayable",
      "type": "function"
    },
    {
      "inputs": [],
      "name": "descriptor",
      "outputs": [
        {
          "internalType": "contract IBackedCommunityTokenDescriptorV1",
          "name": "",
          "type": "address"
        }
      ],
      "stateMutability": "view",
      "type": "function"
    },
    {
      "inputs": [
        {
          "internalType": "uint256",
          "name": "tokenId",
          "type": "uint256"
        }
      ],
      "name": "getApproved",
      "outputs": [
        {
          "internalType": "address",
          "name": "",
          "type": "address"
        }
      ],
      "stateMutability": "view",
      "type": "function"
    },
    {
      "inputs": [
        {
          "internalType": "address",
          "name": "user",
          "type": "address"
        }
      ],
      "name": "getUnlockedAccessoriesForAddress",
      "outputs": [
        {
          "internalType": "address[]",
          "name": "",
          "type": "address[]"
        }
      ],
      "stateMutability": "view",
      "type": "function"
    },
    {
      "inputs": [
        {
          "internalType": "address",
          "name": "_descriptorAddress",
          "type": "address"
        }
      ],
      "name": "initialize",
      "outputs": [],
      "stateMutability": "nonpayable",
      "type": "function"
    },
    {
      "inputs": [
        {
          "internalType": "address",
          "name": "owner",
          "type": "address"
        },
        {
          "internalType": "address",
          "name": "operator",
          "type": "address"
        }
      ],
      "name": "isApprovedForAll",
      "outputs": [
        {
          "internalType": "bool",
          "name": "",
          "type": "bool"
        }
      ],
      "stateMutability": "view",
      "type": "function"
    },
    {
      "inputs": [
        {
          "internalType": "address",
          "name": "mintTo",
          "type": "address"
        }
      ],
      "name": "mint",
      "outputs": [],
      "stateMutability": "nonpayable",
      "type": "function"
    },
    {
      "inputs": [],
      "name": "name",
      "outputs": [
        {
          "internalType": "string",
          "name": "",
          "type": "string"
        }
      ],
      "stateMutability": "view",
      "type": "function"
    },
    {
      "inputs": [],
      "name": "nonce",
      "outputs": [
        {
          "internalType": "uint256",
          "name": "",
          "type": "uint256"
        }
      ],
      "stateMutability": "view",
      "type": "function"
    },
    {
      "inputs": [
        {
          "internalType": "address",
          "name": "oldAccessory",
          "type": "address"
        },
        {
          "internalType": "address",
          "name": "newAccessory",
          "type": "address"
        }
      ],
      "name": "overrideSpecialAccessory",
      "outputs": [],
      "stateMutability": "nonpayable",
      "type": "function"
    },
    {
      "inputs": [],
      "name": "owner",
      "outputs": [
        {
          "internalType": "address",
          "name": "",
          "type": "address"
        }
      ],
      "stateMutability": "view",
      "type": "function"
    },
    {
      "inputs": [
        {
          "internalType": "uint256",
          "name": "tokenId",
          "type": "uint256"
        }
      ],
      "name": "ownerOf",
      "outputs": [
        {
          "internalType": "address",
          "name": "",
          "type": "address"
        }
      ],
      "stateMutability": "view",
      "type": "function"
    },
    {
      "inputs": [
        {
          "components": [
            {
              "internalType": "bool",
              "name": "isCategoryChange",
              "type": "bool"
            },
            {
              "internalType": "address",
              "name": "user",
              "type": "address"
            },
            {
              "internalType": "string",
              "name": "categoryId",
              "type": "string"
            },
            {
              "internalType": "address",
              "name": "accessoryId",
              "type": "address"
            },
            {
              "internalType": "string",
              "name": "ipfsLink",
              "type": "string"
            }
          ],
          "internalType": "struct IBackedCommunityTokenV1.CategoryOrAccessoryChange[]",
          "name": "changes",
          "type": "tuple[]"
        }
      ],
      "name": "relockAccessoryOrDecrementCategory",
      "outputs": [],
      "stateMutability": "nonpayable",
      "type": "function"
    },
    {
      "inputs": [
        {
          "internalType": "address",
          "name": "accessory",
          "type": "address"
        }
      ],
      "name": "removeAccessory",
      "outputs": [],
      "stateMutability": "nonpayable",
      "type": "function"
    },
    {
      "inputs": [],
      "name": "renounceOwnership",
      "outputs": [],
      "stateMutability": "nonpayable",
      "type": "function"
    },
    {
      "inputs": [
        {
          "internalType": "address",
          "name": "from",
          "type": "address"
        },
        {
          "internalType": "address",
          "name": "to",
          "type": "address"
        },
        {
          "internalType": "uint256",
          "name": "tokenId",
          "type": "uint256"
        }
      ],
      "name": "safeTransferFrom",
      "outputs": [],
      "stateMutability": "nonpayable",
      "type": "function"
    },
    {
      "inputs": [
        {
          "internalType": "address",
          "name": "from",
          "type": "address"
        },
        {
          "internalType": "address",
          "name": "to",
          "type": "address"
        },
        {
          "internalType": "uint256",
          "name": "tokenId",
          "type": "uint256"
        },
        {
          "internalType": "bytes",
          "name": "_data",
          "type": "bytes"
        }
      ],
      "name": "safeTransferFrom",
      "outputs": [],
      "stateMutability": "nonpayable",
      "type": "function"
    },
    {
      "inputs": [
        {
          "internalType": "address",
          "name": "operator",
          "type": "address"
        },
        {
          "internalType": "bool",
          "name": "approved",
          "type": "bool"
        }
      ],
      "name": "setApprovalForAll",
      "outputs": [],
      "stateMutability": "nonpayable",
      "type": "function"
    },
    {
      "inputs": [
        {
          "internalType": "address",
          "name": "addr",
          "type": "address"
        }
      ],
      "name": "setBunnyPFPContract",
      "outputs": [],
      "stateMutability": "nonpayable",
      "type": "function"
    },
    {
      "inputs": [
        {
          "internalType": "bytes",
          "name": "message",
          "type": "bytes"
        }
      ],
      "name": "setBunnyPFPSVGFromL1",
      "outputs": [],
      "stateMutability": "nonpayable",
      "type": "function"
    },
    {
      "inputs": [
        {
          "internalType": "address",
          "name": "addr",
          "type": "address"
        }
      ],
      "name": "setDescriptorContract",
      "outputs": [],
      "stateMutability": "nonpayable",
      "type": "function"
    },
    {
      "inputs": [
        {
          "internalType": "address",
          "name": "accessory",
          "type": "address"
        }
      ],
      "name": "setEnabledAccessory",
      "outputs": [],
      "stateMutability": "nonpayable",
      "type": "function"
    },
    {
      "inputs": [
        {
          "internalType": "address",
          "name": "addr",
          "type": "address"
        }
      ],
      "name": "setOptimismCrossChainMessengerAddress",
      "outputs": [],
      "stateMutability": "nonpayable",
      "type": "function"
    },
    {
      "inputs": [
        {
          "internalType": "bytes4",
          "name": "interfaceId",
          "type": "bytes4"
        }
      ],
      "name": "supportsInterface",
      "outputs": [
        {
          "internalType": "bool",
          "name": "",
          "type": "bool"
        }
      ],
      "stateMutability": "view",
      "type": "function"
    },
    {
      "inputs": [],
      "name": "symbol",
      "outputs": [
        {
          "internalType": "string",
          "name": "",
          "type": "string"
        }
      ],
      "stateMutability": "view",
      "type": "function"
    },
    {
      "inputs": [
        {
          "internalType": "uint256",
          "name": "tokenId",
          "type": "uint256"
        }
      ],
      "name": "tokenURI",
      "outputs": [
        {
          "internalType": "string",
          "name": "",
          "type": "string"
        }
      ],
      "stateMutability": "view",
      "type": "function"
    },
    {
      "inputs": [],
      "name": "totalCategoryCount",
      "outputs": [
        {
          "internalType": "uint256",
          "name": "",
          "type": "uint256"
        }
      ],
      "stateMutability": "view",
      "type": "function"
    },
    {
      "inputs": [
        {
          "internalType": "address",
          "name": "from",
          "type": "address"
        },
        {
          "internalType": "address",
          "name": "to",
          "type": "address"
        },
        {
          "internalType": "uint256",
          "name": "tokenId",
          "type": "uint256"
        }
      ],
      "name": "transferFrom",
      "outputs": [],
      "stateMutability": "nonpayable",
      "type": "function"
    },
    {
      "inputs": [
        {
          "internalType": "address",
          "name": "newOwner",
          "type": "address"
        }
      ],
      "name": "transferOwnership",
      "outputs": [],
      "stateMutability": "nonpayable",
      "type": "function"
    },
    {
      "inputs": [
        {
          "components": [
            {
              "internalType": "bool",
              "name": "isCategoryChange",
              "type": "bool"
            },
            {
              "internalType": "address",
              "name": "user",
              "type": "address"
            },
            {
              "internalType": "string",
              "name": "categoryId",
              "type": "string"
            },
            {
              "internalType": "address",
              "name": "accessoryId",
              "type": "address"
            },
            {
              "internalType": "string",
              "name": "ipfsLink",
              "type": "string"
            }
          ],
          "internalType": "struct IBackedCommunityTokenV1.CategoryOrAccessoryChange[]",
          "name": "changes",
          "type": "tuple[]"
        }
      ],
      "name": "unlockAccessoryOrIncrementCategory",
      "outputs": [],
      "stateMutability": "nonpayable",
      "type": "function"
    }
  ],
  "bytecode": {
    "object": "0x608060405234801561001057600080fd5b50612f6e806100206000396000f3fe608060405234801561001057600080fd5b506004361061023d5760003560e01c8063948f5d251161013b578063c4d66de8116100b8578063d4f353c01161007c578063d4f353c01461050e578063da2fd4cb14610521578063dfcf2cf81461055d578063e985e9c514610570578063f2fde38b1461058357600080fd5b8063c4d66de8146104a2578063c87b56dd146104b5578063cb19a1d6146104c8578063d1c5df07146104db578063d37825b2146104fb57600080fd5b8063b2b52ef1116100ff578063b2b52ef11461044d578063b88d4fde14610456578063bbe31dc714610469578063befbf7de1461047c578063c17c7faa1461048f57600080fd5b8063948f5d251461040e57806395d89b4114610421578063a22cb46514610429578063aa416e541461043c578063affed0e01461044457600080fd5b806342842e0e116101c957806370a082311161018d57806370a0823114610398578063715018a6146103b95780637473660a146103c15780638da5cb5b146103ea5780639129fa06146103fb57600080fd5b806342842e0e1461031e5780634c0332a5146103315780635c78ea6f146103445780636352211e146103725780636a6278421461038557600080fd5b8063081812fc11610210578063081812fc146102a7578063095ea7b3146102d257806323b872dd146102e5578063303e74df146102f8578063344936711461030b57600080fd5b806301ffc9a7146102425780630303348f1461026a578063057bbfee1461027f57806306fdde0314610292575b600080fd5b6102556102503660046124ec565b610596565b60405190151581526020015b60405180910390f35b61027d61027836600461251e565b6105e8565b005b61027d61028d36600461251e565b61063d565b61029a610673565b6040516102619190612593565b6102ba6102b53660046125a6565b610705565b6040516001600160a01b039091168152602001610261565b61027d6102e03660046125bf565b61079a565b61027d6102f33660046125eb565b6108b0565b6002546102ba906001600160a01b031681565b61027d610319366004612732565b6108e1565b61027d61032c3660046125eb565b61099d565b61027d61033f36600461288a565b6109b8565b6102556103523660046128fc565b600760209081526000928352604080842090915290825290205460ff1681565b6102ba6103803660046125a6565b610b61565b61027d61039336600461251e565b610bd8565b6103ab6103a636600461251e565b610bf6565b604051908152602001610261565b61027d610c7c565b6102ba6103cf36600461251e565b6008602052600090815260409020546001600160a01b031681565b60a2546001600160a01b03166102ba565b61027d6104093660046128fc565b610cb2565b61027d61041c36600461251e565b610cee565b61029a610de3565b61027d610437366004612935565b610df2565b61027d610dfd565b6103ab60005481565b6103ab60035481565b61027d61046436600461296a565b610e25565b61027d610477366004612732565b610e5d565b61027d61048a36600461251e565b610f15565b6001546102ba906001600160a01b031681565b61027d6104b036600461251e565b610f48565b61029a6104c33660046125a6565b61101f565b61029a6104d636600461251e565b611128565b6104ee6104e936600461251e565b6111c2565b60405161026191906129ea565b61027d61050936600461251e565b611292565b61027d61051c36600461251e565b6112de565b6103ab61052f366004612a37565b6004602090815260009283526040909220815180830184018051928152908401929093019190912091525481565b6009546102ba906001600160a01b031681565b61025561057e3660046128fc565b61132a565b61027d61059136600461251e565b611358565b60006001600160e01b031982166380ac58cd60e01b14806105c757506001600160e01b03198216635b5e139f60e01b145b806105e257506301ffc9a760e01b6001600160e01b03198316145b92915050565b60a2546001600160a01b0316331461061b5760405162461bcd60e51b815260040161061290612a87565b60405180910390fd5b600180546001600160a01b0319166001600160a01b0392909216919091179055565b60a2546001600160a01b031633146106675760405162461bcd60e51b815260040161061290612a87565b610670816113f0565b50565b60606070805461068290612abc565b80601f01602080910402602001604051908101604052809291908181526020018280546106ae90612abc565b80156106fb5780601f106106d0576101008083540402835291602001916106fb565b820191906000526020600020905b8154815290600101906020018083116106de57829003601f168201915b5050505050905090565b6000818152607260205260408120546001600160a01b031661077e5760405162461bcd60e51b815260206004820152602c60248201527f4552433732313a20617070726f76656420717565727920666f72206e6f6e657860448201526b34b9ba32b73a103a37b5b2b760a11b6064820152608401610612565b506000908152607460205260409020546001600160a01b031690565b60006107a582610b61565b9050806001600160a01b0316836001600160a01b031614156108135760405162461bcd60e51b815260206004820152602160248201527f4552433732313a20617070726f76616c20746f2063757272656e74206f776e656044820152603960f91b6064820152608401610612565b336001600160a01b038216148061082f575061082f813361132a565b6108a15760405162461bcd60e51b815260206004820152603860248201527f4552433732313a20617070726f76652063616c6c6572206973206e6f74206f7760448201527f6e6572206e6f7220617070726f76656420666f7220616c6c00000000000000006064820152608401610612565b6108ab83836113fb565b505050565b6108ba3382611469565b6108d65760405162461bcd60e51b815260040161061290612af7565b6108ab838383611540565b60a2546001600160a01b0316331461090b5760405162461bcd60e51b815260040161061290612a87565b60005b81518110156109995781818151811061092957610929612b48565b602002602001015160000151156109635761095e82828151811061094f5761094f612b48565b602002602001015160016115bf565b610987565b61098782828151811061097857610978612b48565b60200260200101516001611775565b8061099181612b74565b91505061090e565b5050565b6108ab83838360405180602001604052806000815250610e25565b6000806109c783850185612a37565b60015491935091506001600160a01b03163314610a4c5760405162461bcd60e51b815260206004820152603d60248201527f4261636b6564436f6d6d756e697479546f6b656e56313a2063616c6c6572206d60448201527f7573742062652063726f737320646f6d61696e206d657373656e6765720000006064820152608401610612565b60095460015460408051636e296e4560e01b815290516001600160a01b039384169390921691636e296e45916004808201926020929091908290030181865afa158015610a9d573d6000803e3d6000fd5b505050506040513d601f19601f82011682018060405250810190610ac19190612b8f565b6001600160a01b031614610b315760405162461bcd60e51b815260206004820152603160248201527f4261636b6564436f6d6d756e697479546f6b656e56313a206f726967696e206d6044820152700757374206265204261636b65642050465607c1b6064820152608401610612565b6001600160a01b0382166000908152600a602090815260409091208251610b5a9284019061243d565b5050505050565b6000818152607260205260408120546001600160a01b0316806105e25760405162461bcd60e51b815260206004820152602960248201527f4552433732313a206f776e657220717565727920666f72206e6f6e657869737460448201526832b73a103a37b5b2b760b91b6064820152608401610612565b600080546106709183919080610bed83612b74565b91905055611978565b60006001600160a01b038216610c605760405162461bcd60e51b815260206004820152602960248201527f4552433732313a2061646472657373207a65726f206973206e6f7420612076616044820152683634b21037bbb732b960b91b6064820152608401610612565b506001600160a01b031660009081526073602052604090205490565b60a2546001600160a01b03163314610ca65760405162461bcd60e51b815260040161061290612a87565b610cb060006119ea565b565b60a2546001600160a01b03163314610cdc5760405162461bcd60e51b815260040161061290612a87565b610ce582611a3c565b610999816113f0565b336000818152600860205260409020546001600160a01b031690610d129083611a47565b610d845760405162461bcd60e51b815260206004820152603760248201527f4261636b6564436f6d6d756e697479546f6b656e56313a2075736572206e6f7460448201527f20656c696769626c6520666f72206163636573736f72790000000000000000006064820152608401610612565b3360008181526008602052604080822080546001600160a01b0319166001600160a01b03878116918217909255915191939085169290917f71b8fdcd9c592fb82eb9e8b57fa1cd9eb855d80852ccade6cc37e537b4dcca829190a45050565b60606071805461068290612abc565b610999338383611b98565b6040805160208082018084526000808452338152600a9092529290209051610670929061243d565b610e2f3383611469565b610e4b5760405162461bcd60e51b815260040161061290612af7565b610e5784848484611c67565b50505050565b60a2546001600160a01b03163314610e875760405162461bcd60e51b815260040161061290612a87565b60005b815181101561099957818181518110610ea557610ea5612b48565b60200260200101516000015115610edf57610eda828281518110610ecb57610ecb612b48565b602002602001015160006115bf565b610f03565b610f03828281518110610ef457610ef4612b48565b60200260200101516000611775565b80610f0d81612b74565b915050610e8a565b60a2546001600160a01b03163314610f3f5760405162461bcd60e51b815260040161061290612a87565b61067081611a3c565b6000610f546001611c9a565b90508015610f6c57600b805461ff0019166101001790555b610fbb6040518060400160405280600f81526020016e4261636b6564436f6d6d756e69747960881b81525060405180604001604052806006815260200165109050d2d15160d21b815250611d29565b600280546001600160a01b0319166001600160a01b038416179055801561099957600b805461ff0019169055604051600181527f7f26b83ff96e1f2b6a682f133852f6798a09c465da95921460cefb38474024989060200160405180910390a15050565b6040516331a9108f60e11b8152600481018290526060906000903090636352211e90602401602060405180830381865afa158015611061573d6000803e3d6000fd5b505050506040513d601f19601f820116820180604052508101906110859190612b8f565b6002546001600160a01b03808316600090815260086020908152604080832054600a90925291829020915163045b0e1b60e01b81529495509282169363045b0e1b936110dc93899388939290911691600401612bac565b600060405180830381865afa1580156110f9573d6000803e3d6000fd5b505050506040513d6000823e601f3d908101601f191682016040526111219190810190612c7a565b9392505050565b600a602052600090815260409020805461114190612abc565b80601f016020809104026020016040519081016040528092919081815260200182805461116d90612abc565b80156111ba5780601f1061118f576101008083540402835291602001916111ba565b820191906000526020600020905b81548152906001019060200180831161119d57829003601f168201915b505050505081565b606060006111d06005611d62565b905060008167ffffffffffffffff8111156111ed576111ed61262c565b604051908082528060200260200182016040528015611216578160200160208202803683370190505b50905060005b8281101561128a5761123885611233600584611d6c565b611a47565b61124357600061124e565b61124e600582611d6c565b82828151811061126057611260612b48565b6001600160a01b03909216602092830291909101909101528061128281612b74565b91505061121c565b509392505050565b60a2546001600160a01b031633146112bc5760405162461bcd60e51b815260040161061290612a87565b600280546001600160a01b0319166001600160a01b0392909216919091179055565b60a2546001600160a01b031633146113085760405162461bcd60e51b815260040161061290612a87565b600980546001600160a01b0319166001600160a01b0392909216919091179055565b6001600160a01b03918216600090815260756020908152604080832093909416825291909152205460ff1690565b60a2546001600160a01b031633146113825760405162461bcd60e51b815260040161061290612a87565b6001600160a01b0381166113e75760405162461bcd60e51b815260206004820152602660248201527f4f776e61626c653a206e6577206f776e657220697320746865207a65726f206160448201526564647265737360d01b6064820152608401610612565b610670816119ea565b610999600582611d78565b600081815260746020526040902080546001600160a01b0319166001600160a01b038416908117909155819061143082610b61565b6001600160a01b03167f8c5be1e5ebec7d5bd14f71427d1e84f3dd0314c0f7b2291e5b200ac8c7c3b92560405160405180910390a45050565b6000818152607260205260408120546001600160a01b03166114e25760405162461bcd60e51b815260206004820152602c60248201527f4552433732313a206f70657261746f7220717565727920666f72206e6f6e657860448201526b34b9ba32b73a103a37b5b2b760a11b6064820152608401610612565b60006114ed83610b61565b9050806001600160a01b0316846001600160a01b031614806115145750611514818561132a565b806115385750836001600160a01b031661152d84610705565b6001600160a01b0316145b949350505050565b60a2546001600160a01b031633146115b45760405162461bcd60e51b815260206004820152603160248201527f455243373231536f756c626f756e643a206f6e6c7920636f6e7472616374206f6044820152703bb732b91031b0b7103a3930b739b332b960791b6064820152608401610612565b6108ab838383611d8d565b6020808301516001600160a01b031660009081526004909152604080822081850151915190916115ee91612cf1565b908152602001604051809103902054905060008215611669576004600085602001516001600160a01b03166001600160a01b0316815260200190815260200160002084604001516040516116429190612cf1565b90815260200160405180910390206000815461165d90612b74565b918290555090506116c7565b6004600085602001516001600160a01b03166001600160a01b0316815260200190815260200160002084604001516040516116a49190612cf1565b9081526020016040518091039020600081546116bf90612d0d565b918290555090505b83608001516040516116d99190612cf1565b604051809103902084604001516040516116f39190612cf1565b604051809103902085602001516001600160a01b03167fb84a4b0c1b52bd1daf85d1ffc7b0ad396e75fbb70175158c8109612603369f73848689602001518a60400151888a60405160200161174b9493929190612d24565b60408051601f1981840301815290829052611767939291612d5b565b60405180910390a450505050565b60608201516001600160a01b03166117e85760405162461bcd60e51b815260206004820152603060248201527f4261636b6564436f6d6d756e697479546f6b656e56313a204163636573736f7260448201526f1e48191bd95cc81b9bdd08195e1a5cdd60821b6064820152608401610612565b6117f58260600151611f29565b61185f5760405162461bcd60e51b815260206004820152603560248201527f4261636b6564436f6d6d756e697479546f6b656e56313a204163636573736f726044820152741e481b5d5cdd0818994818591b5a5b8818985cd959605a1b6064820152608401610612565b80156118a4576020808301516001600160a01b03908116600090815260078352604080822060608701519093168252919092529020805460ff191660011790556118dc565b6020808301516001600160a01b03908116600090815260078352604080822060608701519093168252919092529020805460ff191690555b81608001516040516118ee9190612cf1565b604080519182900382206060808601516020808801516001600160a01b039081169187018290529091169385018490528515159185019190915290927ff5fc3073f1b26a540d751586ef389ec26be100d5c421ae6cab34ce8589af557c90859060800160408051601f198184030181529082905261196c9291612d7a565b60405180910390a45050565b600161198383610bf6565b106119e05760405162461bcd60e51b815260206004820152602760248201527f455243373231536f756c626f756e643a2063616e6e6f74206f776e206d6f7265604482015266207468616e203160c81b6064820152608401610612565b6109998282611f9e565b60a280546001600160a01b038381166001600160a01b0319831681179093556040519116919082907f8be0079c531659141344cd1fd0a4f28419497f9722a3daafe3b4186f6b6457e090600090a35050565b6109996005826120e0565b6000611a5282611f29565b15611a8657506001600160a01b0380831660009081526007602090815260408083209385168352929052205460ff166105e2565b816001600160a01b03166314f569986040518163ffffffff1660e01b8152600401602060405180830381865afa158015611ac4573d6000803e3d6000fd5b505050506040513d601f19601f82011682018060405250810190611ae89190612d95565b60046000856001600160a01b03166001600160a01b03168152602001908152602001600020836001600160a01b0316631f110f146040518163ffffffff1660e01b8152600401600060405180830381865afa158015611b4b573d6000803e3d6000fd5b505050506040513d6000823e601f3d908101601f19168201604052611b739190810190612c7a565b604051611b809190612cf1565b908152602001604051809103902054101590506105e2565b816001600160a01b0316836001600160a01b03161415611bfa5760405162461bcd60e51b815260206004820152601960248201527f4552433732313a20617070726f766520746f2063616c6c6572000000000000006044820152606401610612565b6001600160a01b03838116600081815260756020908152604080832094871680845294825291829020805460ff191686151590811790915591519182527f17307eab39ab6107e8899845ad3d59bd9653f200f220920489ca2b5937696c31910160405180910390a3505050565b611c72848484611540565b611c7e848484846120f5565b610e575760405162461bcd60e51b815260040161061290612dae565b600b54600090610100900460ff1615611ce3578160ff166001148015611cbf5750303b155b611cdb5760405162461bcd60e51b815260040161061290612e00565b506000919050565b600b5460ff808416911610611d0a5760405162461bcd60e51b815260040161061290612e00565b50600b805460ff191660ff92909216919091179055600190565b919050565b600b54610100900460ff16611d505760405162461bcd60e51b815260040161061290612e4e565b611d5a82826121f3565b610999612224565b60006105e2825490565b60006111218383612253565b6000611121836001600160a01b03841661227d565b826001600160a01b0316611da082610b61565b6001600160a01b031614611e045760405162461bcd60e51b815260206004820152602560248201527f4552433732313a207472616e736665722066726f6d20696e636f72726563742060448201526437bbb732b960d91b6064820152608401610612565b6001600160a01b038216611e665760405162461bcd60e51b8152602060048201526024808201527f4552433732313a207472616e7366657220746f20746865207a65726f206164646044820152637265737360e01b6064820152608401610612565b611e716000826113fb565b6001600160a01b0383166000908152607360205260408120805460019290611e9a908490612e99565b90915550506001600160a01b0382166000908152607360205260408120805460019290611ec8908490612eb0565b909155505060008181526072602052604080822080546001600160a01b0319166001600160a01b0386811691821790925591518493918716917fddf252ad1be2c89b69c2b068fc378daa952ba7f163c4a11628f55a4df523b3ef91a4505050565b600080829050806001600160a01b0316631f110f146040518163ffffffff1660e01b8152600401600060405180830381865afa158015611f6d573d6000803e3d6000fd5b505050506040513d6000823e601f3d908101601f19168201604052611f959190810190612c7a565b51159392505050565b6001600160a01b038216611ff45760405162461bcd60e51b815260206004820181905260248201527f4552433732313a206d696e7420746f20746865207a65726f20616464726573736044820152606401610612565b6000818152607260205260409020546001600160a01b0316156120595760405162461bcd60e51b815260206004820152601c60248201527f4552433732313a20746f6b656e20616c7265616479206d696e746564000000006044820152606401610612565b6001600160a01b0382166000908152607360205260408120805460019290612082908490612eb0565b909155505060008181526072602052604080822080546001600160a01b0319166001600160a01b03861690811790915590518392907fddf252ad1be2c89b69c2b068fc378daa952ba7f163c4a11628f55a4df523b3ef908290a45050565b6000611121836001600160a01b0384166122cc565b60006001600160a01b0384163b156121e857604051630a85bd0160e11b81526001600160a01b0385169063150b7a0290612139903390899088908890600401612ec8565b6020604051808303816000875af1925050508015612174575060408051601f3d908101601f1916820190925261217191810190612f05565b60015b6121ce573d8080156121a2576040519150601f19603f3d011682016040523d82523d6000602084013e6121a7565b606091505b5080516121c65760405162461bcd60e51b815260040161061290612dae565b805181602001fd5b6001600160e01b031916630a85bd0160e11b149050611538565b506001949350505050565b600b54610100900460ff1661221a5760405162461bcd60e51b815260040161061290612e4e565b61099982826123bf565b600b54610100900460ff1661224b5760405162461bcd60e51b815260040161061290612e4e565b610cb061240d565b600082600001828154811061226a5761226a612b48565b9060005260206000200154905092915050565b60008181526001830160205260408120546122c4575081546001818101845560008481526020808220909301849055845484825282860190935260409020919091556105e2565b5060006105e2565b600081815260018301602052604081205480156123b55760006122f0600183612e99565b855490915060009061230490600190612e99565b905081811461236957600086600001828154811061232457612324612b48565b906000526020600020015490508087600001848154811061234757612347612b48565b6000918252602080832090910192909255918252600188019052604090208390555b855486908061237a5761237a612f22565b6001900381819060005260206000200160009055905585600101600086815260200190815260200160002060009055600193505050506105e2565b60009150506105e2565b600b54610100900460ff166123e65760405162461bcd60e51b815260040161061290612e4e565b81516123f990607090602085019061243d565b5080516108ab90607190602084019061243d565b600b54610100900460ff166124345760405162461bcd60e51b815260040161061290612e4e565b610cb0336119ea565b82805461244990612abc565b90600052602060002090601f01602090048101928261246b57600085556124b1565b82601f1061248457805160ff19168380011785556124b1565b828001600101855582156124b1579182015b828111156124b1578251825591602001919060010190612496565b506124bd9291506124c1565b5090565b5b808211156124bd57600081556001016124c2565b6001600160e01b03198116811461067057600080fd5b6000602082840312156124fe57600080fd5b8135611121816124d6565b6001600160a01b038116811461067057600080fd5b60006020828403121561253057600080fd5b813561112181612509565b60005b8381101561255657818101518382015260200161253e565b83811115610e575750506000910152565b6000815180845261257f81602086016020860161253b565b601f01601f19169290920160200192915050565b6020815260006111216020830184612567565b6000602082840312156125b857600080fd5b5035919050565b600080604083850312156125d257600080fd5b82356125dd81612509565b946020939093013593505050565b60008060006060848603121561260057600080fd5b833561260b81612509565b9250602084013561261b81612509565b929592945050506040919091013590565b634e487b7160e01b600052604160045260246000fd5b60405160a0810167ffffffffffffffff811182821017156126655761266561262c565b60405290565b604051601f8201601f1916810167ffffffffffffffff811182821017156126945761269461262c565b604052919050565b80358015158114611d2457600080fd5b600067ffffffffffffffff8211156126c6576126c661262c565b50601f01601f191660200190565b60006126e76126e2846126ac565b61266b565b90508281528383830111156126fb57600080fd5b828260208301376000602084830101529392505050565b600082601f83011261272357600080fd5b611121838335602085016126d4565b6000602080838503121561274557600080fd5b823567ffffffffffffffff8082111561275d57600080fd5b818501915085601f83011261277157600080fd5b8135818111156127835761278361262c565b8060051b61279285820161266b565b91825283810185019185810190898411156127ac57600080fd5b86860192505b8383101561287d578235858111156127c957600080fd5b860160a0818c03601f190112156127e05760008081fd5b6127e8612642565b6127f389830161269c565b815260408083013561280481612509565b828b01526060838101358981111561281c5760008081fd5b61282a8f8d83880101612712565b8385015250608091508184013561284081612509565b9083015260a0830135888111156128575760008081fd5b6128658e8c83870101612712565b918301919091525083525091860191908601906127b2565b9998505050505050505050565b6000806020838503121561289d57600080fd5b823567ffffffffffffffff808211156128b557600080fd5b818501915085601f8301126128c957600080fd5b8135818111156128d857600080fd5b8660208285010111156128ea57600080fd5b60209290920196919550909350505050565b6000806040838503121561290f57600080fd5b823561291a81612509565b9150602083013561292a81612509565b809150509250929050565b6000806040838503121561294857600080fd5b823561295381612509565b91506129616020840161269c565b90509250929050565b6000806000806080858703121561298057600080fd5b843561298b81612509565b9350602085013561299b81612509565b925060408501359150606085013567ffffffffffffffff8111156129be57600080fd5b8501601f810187136129cf57600080fd5b6129de878235602084016126d4565b91505092959194509250565b6020808252825182820181905260009190848201906040850190845b81811015612a2b5783516001600160a01b031683529284019291840191600101612a06565b50909695505050505050565b60008060408385031215612a4a57600080fd5b8235612a5581612509565b9150602083013567ffffffffffffffff811115612a7157600080fd5b612a7d85828601612712565b9150509250929050565b6020808252818101527f4f776e61626c653a2063616c6c6572206973206e6f7420746865206f776e6572604082015260600190565b600181811c90821680612ad057607f821691505b60208210811415612af157634e487b7160e01b600052602260045260246000fd5b50919050565b60208082526031908201527f4552433732313a207472616e736665722063616c6c6572206973206e6f74206f6040820152701ddb995c881b9bdc88185c1c1c9bdd9959607a1b606082015260800190565b634e487b7160e01b600052603260045260246000fd5b634e487b7160e01b600052601160045260246000fd5b6000600019821415612b8857612b88612b5e565b5060010190565b600060208284031215612ba157600080fd5b815161112181612509565b8481526001600160a01b038481166020808401919091529084166040830152608060608301528254600091908290600181811c9082811680612bef57607f831692505b858310811415612c0d57634e487b7160e01b85526022600452602485fd5b6080880183905260a08801818015612c2c5760018114612c3d57612c68565b60ff19861682528782019650612c68565b60008b81526020902060005b86811015612c6257815484820152908501908901612c49565b83019750505b50949c9b505050505050505050505050565b600060208284031215612c8c57600080fd5b815167ffffffffffffffff811115612ca357600080fd5b8201601f81018413612cb457600080fd5b8051612cc26126e2826126ac565b818152856020838501011115612cd757600080fd5b612ce882602083016020860161253b565b95945050505050565b60008251612d0381846020870161253b565b9190910192915050565b600081612d1c57612d1c612b5e565b506000190190565b6001600160a01b0385168152608060208201819052600090612d4890830186612567565b6040830194909452506060015292915050565b838152826020820152606060408201526000612ce86060830184612567565b82151581526040602082015260006115386040830184612567565b600060208284031215612da757600080fd5b5051919050565b60208082526032908201527f4552433732313a207472616e7366657220746f206e6f6e20455243373231526560408201527131b2b4bb32b91034b6b83632b6b2b73a32b960711b606082015260800190565b6020808252602e908201527f496e697469616c697a61626c653a20636f6e747261637420697320616c72656160408201526d191e481a5b9a5d1a585b1a5e995960921b606082015260800190565b6020808252602b908201527f496e697469616c697a61626c653a20636f6e7472616374206973206e6f74206960408201526a6e697469616c697a696e6760a81b606082015260800190565b600082821015612eab57612eab612b5e565b500390565b60008219821115612ec357612ec3612b5e565b500190565b6001600160a01b0385811682528416602082015260408101839052608060608201819052600090612efb90830184612567565b9695505050505050565b600060208284031215612f1757600080fd5b8151611121816124d6565b634e487b7160e01b600052603160045260246000fdfea2646970667358221220473ab15b5561d6066b169579e87d5291fba7596624204bbda8728b44f072492b64736f6c634300080c0033",
    "linkReferences": {}
  },
  "methodIdentifiers": {
    "addAccessory(address)": "057bbfee",
    "addressToAccessoryEnabled(address)": "7473660a",
    "addressToAccessoryUnlocked(address,address)": "5c78ea6f",
    "addressToCategoryScore(address,string)": "da2fd4cb",
    "addressToPFPSVGLink(address)": "cb19a1d6",
    "approve(address,uint256)": "095ea7b3",
    "balanceOf(address)": "70a08231",
    "bunnyPFPContractAddress()": "dfcf2cf8",
    "cdmAddr()": "c17c7faa",
    "clearBunnyPFPLink()": "aa416e54",
    "descriptor()": "303e74df",
    "getApproved(uint256)": "081812fc",
    "getUnlockedAccessoriesForAddress(address)": "d1c5df07",
    "initialize(address)": "c4d66de8",
    "isApprovedForAll(address,address)": "e985e9c5",
    "mint(address)": "6a627842",
    "name()": "06fdde03",
    "nonce()": "affed0e0",
    "overrideSpecialAccessory(address,address)": "9129fa06",
    "owner()": "8da5cb5b",
    "ownerOf(uint256)": "6352211e",
    "relockAccessoryOrDecrementCategory((bool,address,string,address,string)[])": "bbe31dc7",
    "removeAccessory(address)": "befbf7de",
    "renounceOwnership()": "715018a6",
    "safeTransferFrom(address,address,uint256)": "42842e0e",
    "safeTransferFrom(address,address,uint256,bytes)": "b88d4fde",
    "setApprovalForAll(address,bool)": "a22cb465",
    "setBunnyPFPContract(address)": "d4f353c0",
    "setBunnyPFPSVGFromL1(bytes)": "4c0332a5",
    "setDescriptorContract(address)": "d37825b2",
    "setEnabledAccessory(address)": "948f5d25",
    "setOptimismCrossChainMessengerAddress(address)": "0303348f",
    "supportsInterface(bytes4)": "01ffc9a7",
    "symbol()": "95d89b41",
    "tokenURI(uint256)": "c87b56dd",
    "totalCategoryCount()": "b2b52ef1",
    "transferFrom(address,address,uint256)": "23b872dd",
    "transferOwnership(address)": "f2fde38b",
    "unlockAccessoryOrIncrementCategory((bool,address,string,address,string)[])": "34493671"
  },
  "id": 32
}