{
  "abi": [
    {
      "anonymous": false,
      "inputs": [
        {
          "indexed": true,
          "internalType": "address",
          "name": "addr",
          "type": "address"
        },
        {
          "indexed": true,
          "internalType": "uint256",
          "name": "oldAccessory",
          "type": "uint256"
        },
        {
          "indexed": true,
          "internalType": "uint256",
          "name": "newAccessory",
          "type": "uint256"
        }
      ],
      "name": "AccessorySwapped",
      "type": "event"
    },
    {
      "anonymous": false,
      "inputs": [
        {
          "indexed": true,
          "internalType": "address",
          "name": "addr",
          "type": "address"
        },
        {
          "indexed": true,
          "internalType": "uint256",
          "name": "accessoryId",
          "type": "uint256"
        },
        {
          "indexed": true,
          "internalType": "string",
          "name": "ipfsLink",
          "type": "string"
        }
      ],
      "name": "AccessoryUnlocked",
      "type": "event"
    },
    {
      "anonymous": false,
      "inputs": [
        {
          "indexed": true,
          "internalType": "address",
          "name": "owner",
          "type": "address"
        },
        {
          "indexed": true,
          "internalType": "address",
          "name": "approved",
          "type": "address"
        },
        {
          "indexed": true,
          "internalType": "uint256",
          "name": "tokenId",
          "type": "uint256"
        }
      ],
      "name": "Approval",
      "type": "event"
    },
    {
      "anonymous": false,
      "inputs": [
        {
          "indexed": true,
          "internalType": "address",
          "name": "owner",
          "type": "address"
        },
        {
          "indexed": true,
          "internalType": "address",
          "name": "operator",
          "type": "address"
        },
        {
          "indexed": false,
          "internalType": "bool",
          "name": "approved",
          "type": "bool"
        }
      ],
      "name": "ApprovalForAll",
      "type": "event"
    },
    {
      "anonymous": false,
      "inputs": [
        {
          "indexed": true,
          "internalType": "address",
          "name": "addr",
          "type": "address"
        },
        {
          "indexed": true,
          "internalType": "uint256",
          "name": "categoryId",
          "type": "uint256"
        },
        {
          "indexed": true,
          "internalType": "string",
          "name": "ipfsLink",
          "type": "string"
        },
        {
          "indexed": false,
          "internalType": "uint256",
          "name": "newScore",
          "type": "uint256"
        }
      ],
      "name": "CategoryScoreChanged",
      "type": "event"
    },
    {
      "anonymous": false,
      "inputs": [
        {
          "indexed": false,
          "internalType": "uint8",
          "name": "version",
          "type": "uint8"
        }
      ],
      "name": "Initialized",
      "type": "event"
    },
    {
      "anonymous": false,
      "inputs": [
        {
          "indexed": true,
          "internalType": "address",
          "name": "previousOwner",
          "type": "address"
        },
        {
          "indexed": true,
          "internalType": "address",
          "name": "newOwner",
          "type": "address"
        }
      ],
      "name": "OwnershipTransferred",
      "type": "event"
    },
    {
      "anonymous": false,
      "inputs": [
        {
          "indexed": true,
          "internalType": "address",
          "name": "from",
          "type": "address"
        },
        {
          "indexed": true,
          "internalType": "address",
          "name": "to",
          "type": "address"
        },
        {
          "indexed": true,
          "internalType": "uint256",
          "name": "tokenId",
          "type": "uint256"
        }
      ],
      "name": "Transfer",
      "type": "event"
    },
    {
      "inputs": [
        {
          "internalType": "uint256",
          "name": "",
          "type": "uint256"
        }
      ],
      "name": "accessoryIdToAccessory",
      "outputs": [
        {
          "internalType": "string",
          "name": "name",
          "type": "string"
        },
        {
          "internalType": "bool",
          "name": "xpBased",
          "type": "bool"
        },
        {
          "internalType": "address",
          "name": "artContract",
          "type": "address"
        },
        {
          "internalType": "uint256",
          "name": "qualifyingXPScore",
          "type": "uint256"
        },
        {
          "internalType": "uint256",
          "name": "xpCategory",
          "type": "uint256"
        }
      ],
      "stateMutability": "view",
      "type": "function"
    },
    {
      "inputs": [
        {
          "internalType": "string",
          "name": "displayName",
          "type": "string"
        }
      ],
      "name": "addCategory",
      "outputs": [],
      "stateMutability": "nonpayable",
      "type": "function"
    },
    {
      "inputs": [
        {
          "components": [
            {
              "internalType": "string",
              "name": "name",
              "type": "string"
            },
            {
              "internalType": "bool",
              "name": "xpBased",
              "type": "bool"
            },
            {
              "internalType": "address",
              "name": "artContract",
              "type": "address"
            },
            {
              "internalType": "uint256",
              "name": "qualifyingXPScore",
              "type": "uint256"
            },
            {
              "internalType": "uint256",
              "name": "xpCategory",
              "type": "uint256"
            }
          ],
          "internalType": "struct IBackedCommunityTokenV1.Accessory",
          "name": "accessory",
          "type": "tuple"
        }
      ],
      "name": "addSpecialAccessory",
      "outputs": [],
      "stateMutability": "nonpayable",
      "type": "function"
    },
    {
      "inputs": [
        {
          "internalType": "address",
          "name": "",
          "type": "address"
        }
      ],
      "name": "addressToAccessoryEnabled",
      "outputs": [
        {
          "internalType": "uint256",
          "name": "",
          "type": "uint256"
        }
      ],
      "stateMutability": "view",
      "type": "function"
    },
    {
      "inputs": [
        {
          "internalType": "address",
          "name": "",
          "type": "address"
        },
        {
          "internalType": "uint256",
          "name": "",
          "type": "uint256"
        }
      ],
      "name": "addressToAccessoryUnlocked",
      "outputs": [
        {
          "internalType": "bool",
          "name": "",
          "type": "bool"
        }
      ],
      "stateMutability": "view",
      "type": "function"
    },
    {
      "inputs": [
        {
          "internalType": "address",
          "name": "",
          "type": "address"
        },
        {
          "internalType": "uint256",
          "name": "",
          "type": "uint256"
        }
      ],
      "name": "addressToCategoryScore",
      "outputs": [
        {
          "internalType": "uint256",
          "name": "",
          "type": "uint256"
        }
      ],
      "stateMutability": "view",
      "type": "function"
    },
    {
      "inputs": [
        {
          "internalType": "address",
          "name": "",
          "type": "address"
        }
      ],
      "name": "addressToPFPSVGLink",
      "outputs": [
        {
          "internalType": "string",
          "name": "",
          "type": "string"
        }
      ],
      "stateMutability": "view",
      "type": "function"
    },
    {
      "inputs": [],
      "name": "admin",
      "outputs": [
        {
          "internalType": "address",
          "name": "",
          "type": "address"
        }
      ],
      "stateMutability": "view",
      "type": "function"
    },
    {
      "inputs": [
        {
          "internalType": "address",
          "name": "to",
          "type": "address"
        },
        {
          "internalType": "uint256",
          "name": "tokenId",
          "type": "uint256"
        }
      ],
      "name": "approve",
      "outputs": [],
      "stateMutability": "nonpayable",
      "type": "function"
    },
    {
      "inputs": [
        {
          "internalType": "address",
          "name": "owner",
          "type": "address"
        }
      ],
      "name": "balanceOf",
      "outputs": [
        {
          "internalType": "uint256",
          "name": "",
          "type": "uint256"
        }
      ],
      "stateMutability": "view",
      "type": "function"
    },
    {
      "inputs": [],
      "name": "bunnyPFPContractAddress",
      "outputs": [
        {
          "internalType": "address",
          "name": "",
          "type": "address"
        }
      ],
      "stateMutability": "view",
      "type": "function"
    },
    {
      "inputs": [
        {
          "internalType": "uint256",
          "name": "",
          "type": "uint256"
        }
      ],
      "name": "categoryIdToDisplayName",
      "outputs": [
        {
          "internalType": "string",
          "name": "",
          "type": "string"
        }
      ],
      "stateMutability": "view",
      "type": "function"
    },
    {
      "inputs": [],
      "name": "cdmAddr",
      "outputs": [
        {
          "internalType": "address",
          "name": "",
          "type": "address"
        }
      ],
      "stateMutability": "view",
      "type": "function"
    },
    {
      "inputs": [],
      "name": "clearBunnyPFPLink",
      "outputs": [],
      "stateMutability": "nonpayable",
      "type": "function"
    },
    {
      "inputs": [],
      "name": "descriptor",
      "outputs": [
        {
          "internalType": "contract IBackedCommunityTokenDescriptorV1",
          "name": "",
          "type": "address"
        }
      ],
      "stateMutability": "view",
      "type": "function"
    },
    {
      "inputs": [
        {
          "internalType": "uint256",
          "name": "tokenId",
          "type": "uint256"
        }
      ],
      "name": "getApproved",
      "outputs": [
        {
          "internalType": "address",
          "name": "",
          "type": "address"
        }
      ],
      "stateMutability": "view",
      "type": "function"
    },
    {
      "inputs": [
        {
          "internalType": "address",
          "name": "addr",
          "type": "address"
        }
      ],
      "name": "getUnlockedAccessoriesForAddress",
      "outputs": [
        {
          "internalType": "int256[]",
          "name": "",
          "type": "int256[]"
        }
      ],
      "stateMutability": "view",
      "type": "function"
    },
    {
      "inputs": [
        {
          "internalType": "address",
          "name": "_descriptorAddress",
          "type": "address"
        }
      ],
      "name": "initialize",
      "outputs": [],
      "stateMutability": "nonpayable",
      "type": "function"
    },
    {
      "inputs": [
        {
          "internalType": "address",
          "name": "owner",
          "type": "address"
        },
        {
          "internalType": "address",
          "name": "operator",
          "type": "address"
        }
      ],
      "name": "isApprovedForAll",
      "outputs": [
        {
          "internalType": "bool",
          "name": "",
          "type": "bool"
        }
      ],
      "stateMutability": "view",
      "type": "function"
    },
    {
      "inputs": [
        {
          "internalType": "address",
          "name": "mintTo",
          "type": "address"
        }
      ],
      "name": "mint",
      "outputs": [],
      "stateMutability": "nonpayable",
      "type": "function"
    },
    {
      "inputs": [],
      "name": "name",
      "outputs": [
        {
          "internalType": "string",
          "name": "",
          "type": "string"
        }
      ],
      "stateMutability": "view",
      "type": "function"
    },
    {
      "inputs": [],
      "name": "nonce",
      "outputs": [
        {
          "internalType": "uint256",
          "name": "",
          "type": "uint256"
        }
      ],
      "stateMutability": "view",
      "type": "function"
    },
    {
      "inputs": [],
      "name": "owner",
      "outputs": [
        {
          "internalType": "address",
          "name": "",
          "type": "address"
        }
      ],
      "stateMutability": "view",
      "type": "function"
    },
    {
      "inputs": [
        {
          "internalType": "uint256",
          "name": "tokenId",
          "type": "uint256"
        }
      ],
      "name": "ownerOf",
      "outputs": [
        {
          "internalType": "address",
          "name": "",
          "type": "address"
        }
      ],
      "stateMutability": "view",
      "type": "function"
    },
    {
      "inputs": [],
      "name": "renounceOwnership",
      "outputs": [],
      "stateMutability": "nonpayable",
      "type": "function"
    },
    {
      "inputs": [
        {
          "internalType": "address",
          "name": "from",
          "type": "address"
        },
        {
          "internalType": "address",
          "name": "to",
          "type": "address"
        },
        {
          "internalType": "uint256",
          "name": "tokenId",
          "type": "uint256"
        }
      ],
      "name": "safeTransferFrom",
      "outputs": [],
      "stateMutability": "nonpayable",
      "type": "function"
    },
    {
      "inputs": [
        {
          "internalType": "address",
          "name": "from",
          "type": "address"
        },
        {
          "internalType": "address",
          "name": "to",
          "type": "address"
        },
        {
          "internalType": "uint256",
          "name": "tokenId",
          "type": "uint256"
        },
        {
          "internalType": "bytes",
          "name": "_data",
          "type": "bytes"
        }
      ],
      "name": "safeTransferFrom",
      "outputs": [],
      "stateMutability": "nonpayable",
      "type": "function"
    },
    {
      "inputs": [
        {
          "internalType": "address",
          "name": "operator",
          "type": "address"
        },
        {
          "internalType": "bool",
          "name": "approved",
          "type": "bool"
        }
      ],
      "name": "setApprovalForAll",
      "outputs": [],
      "stateMutability": "nonpayable",
      "type": "function"
    },
    {
      "inputs": [
        {
          "internalType": "address",
          "name": "addr",
          "type": "address"
        }
      ],
      "name": "setBunnyPFPContract",
      "outputs": [],
      "stateMutability": "nonpayable",
      "type": "function"
    },
    {
      "inputs": [
        {
          "internalType": "bytes",
          "name": "message",
          "type": "bytes"
        }
      ],
      "name": "setBunnyPFPSVGFromL1",
      "outputs": [],
      "stateMutability": "nonpayable",
      "type": "function"
    },
    {
      "inputs": [
        {
          "internalType": "address",
          "name": "addr",
          "type": "address"
        }
      ],
      "name": "setDescriptorContract",
      "outputs": [],
      "stateMutability": "nonpayable",
      "type": "function"
    },
    {
      "inputs": [
        {
          "internalType": "uint256",
          "name": "accessoryId",
          "type": "uint256"
        }
      ],
      "name": "setEnabledAccessory",
      "outputs": [],
      "stateMutability": "nonpayable",
      "type": "function"
    },
    {
      "inputs": [
        {
          "internalType": "address",
          "name": "addr",
          "type": "address"
        }
      ],
      "name": "setOptimismCrossChainMessengerAddress",
      "outputs": [],
      "stateMutability": "nonpayable",
      "type": "function"
    },
    {
      "inputs": [
        {
          "internalType": "bytes4",
          "name": "interfaceId",
          "type": "bytes4"
        }
      ],
      "name": "supportsInterface",
      "outputs": [
        {
          "internalType": "bool",
          "name": "",
          "type": "bool"
        }
      ],
      "stateMutability": "view",
      "type": "function"
    },
    {
      "inputs": [],
      "name": "symbol",
      "outputs": [
        {
          "internalType": "string",
          "name": "",
          "type": "string"
        }
      ],
      "stateMutability": "view",
      "type": "function"
    },
    {
      "inputs": [
        {
          "internalType": "uint256",
          "name": "tokenId",
          "type": "uint256"
        }
      ],
      "name": "tokenURI",
      "outputs": [
        {
          "internalType": "string",
          "name": "",
          "type": "string"
        }
      ],
      "stateMutability": "view",
      "type": "function"
    },
    {
      "inputs": [],
      "name": "totalCategoryCount",
      "outputs": [
        {
          "internalType": "uint256",
          "name": "",
          "type": "uint256"
        }
      ],
      "stateMutability": "view",
      "type": "function"
    },
    {
      "inputs": [],
      "name": "totalSpecialyAccessoryCount",
      "outputs": [
        {
          "internalType": "uint256",
          "name": "",
          "type": "uint256"
        }
      ],
      "stateMutability": "view",
      "type": "function"
    },
    {
      "inputs": [
        {
          "internalType": "address",
          "name": "from",
          "type": "address"
        },
        {
          "internalType": "address",
          "name": "to",
          "type": "address"
        },
        {
          "internalType": "uint256",
          "name": "tokenId",
          "type": "uint256"
        }
      ],
      "name": "transferFrom",
      "outputs": [],
      "stateMutability": "nonpayable",
      "type": "function"
    },
    {
      "inputs": [
        {
          "internalType": "address",
          "name": "newOwner",
          "type": "address"
        }
      ],
      "name": "transferOwnership",
      "outputs": [],
      "stateMutability": "nonpayable",
      "type": "function"
    },
    {
      "inputs": [
        {
          "components": [
            {
              "internalType": "bool",
              "name": "isCategoryChange",
              "type": "bool"
            },
            {
              "internalType": "address",
              "name": "addr",
              "type": "address"
            },
            {
              "internalType": "uint256",
              "name": "changeableId",
              "type": "uint256"
            },
            {
              "internalType": "string",
              "name": "ipfsLink",
              "type": "string"
            }
          ],
          "internalType": "struct IBackedCommunityTokenV1.CategoryOrAccessoryChange[]",
          "name": "changes",
          "type": "tuple[]"
        }
      ],
      "name": "unlockAccessoryOrIncrementCategory",
      "outputs": [],
      "stateMutability": "nonpayable",
      "type": "function"
    }
  ],
  "bytecode": {
    "object": "0x608060405234801561001057600080fd5b50612fc5806100206000396000f3fe608060405234801561001057600080fd5b50600436106102535760003560e01c80638da5cb5b11610146578063c4d66de8116100c3578063d4f353c011610087578063d4f353c01461053c578063db8a06cf1461054f578063dfcf2cf814610573578063e985e9c514610586578063f2fde38b146105c2578063f851a440146105d557600080fd5b8063c4d66de8146104d0578063c87b56dd146104e3578063cb19a1d6146104f6578063d1c5df0714610509578063d37825b21461052957600080fd5b8063aa416e541161010a578063aa416e5414610490578063affed0e014610498578063b2b52ef1146104a1578063b88d4fde146104aa578063c17c7faa146104bd57600080fd5b80638da5cb5b14610430578063904b65d914610441578063957a27541461044a57806395d89b4114610475578063a22cb4651461047d57600080fd5b80632fdaa490116101d45780636352211e116101985780636352211e146103c15780636a627842146103d457806370a08231146103e7578063715018a6146104085780637473660a1461041057600080fd5b80632fdaa49014610347578063303e74df146103755780633ed0b70e1461038857806342842e0e1461039b5780634c0332a5146103ae57600080fd5b80631050c3561161021b5780631050c356146102e85780631073ce33146102fb57806323b872dd1461030e5780632e0dcbf7146103215780632f2aa2101461033457600080fd5b806301ffc9a7146102585780630303348f1461028057806306fdde0314610295578063081812fc146102aa578063095ea7b3146102d5575b600080fd5b61026b6102663660046124e3565b6105e8565b60405190151581526020015b60405180910390f35b61029361028e36600461251c565b61063a565b005b61029d61068f565b6040516102779190612591565b6102bd6102b83660046125a4565b610721565b6040516001600160a01b039091168152602001610277565b6102936102e33660046125bd565b6107b6565b6102936102f636600461270e565b6108cc565b610293610309366004612835565b610984565b61029361031c3660046128df565b610a90565b61029361032f366004612920565b610ac1565b6102936103423660046125a4565b610b26565b61026b6103553660046125bd565b600960209081526000928352604080842090915290825290205460ff1681565b6003546102bd906001600160a01b031681565b61029d6103963660046125a4565b610d7a565b6102936103a93660046128df565b610e14565b6102936103bc366004612954565b610e2f565b6102bd6103cf3660046125a4565b610fd8565b6102936103e236600461251c565b61104f565b6103fa6103f536600461251c565b611070565b604051908152602001610277565b6102936110f6565b6103fa61041e36600461251c565b600a6020526000908152604090205481565b60a4546001600160a01b03166102bd565b6103fa60075481565b6103fa6104583660046125bd565b600660209081526000928352604080842090915290825290205481565b61029d61112c565b61029361048b3660046129c5565b61113b565b610293611146565b6103fa60005481565b6103fa60045481565b6102936104b83660046129fa565b61116e565b6002546102bd906001600160a01b031681565b6102936104de36600461251c565b6111a6565b61029d6104f13660046125a4565b61127d565b61029d61050436600461251c565b611448565b61051c61051736600461251c565b611461565b6040516102779190612a79565b61029361053736600461251c565b611677565b61029361054a36600461251c565b6116c3565b61056261055d3660046125a4565b61170f565b604051610277959493929190612abd565b600b546102bd906001600160a01b031681565b61026b610594366004612afd565b6001600160a01b03918216600090815260776020908152604080832093909416825291909152205460ff1690565b6102936105d036600461251c565b6117d3565b6001546102bd906001600160a01b031681565b60006001600160e01b031982166380ac58cd60e01b148061061957506001600160e01b03198216635b5e139f60e01b145b8061063457506301ffc9a760e01b6001600160e01b03198316145b92915050565b60a4546001600160a01b0316331461066d5760405162461bcd60e51b815260040161066490612b36565b60405180910390fd5b600280546001600160a01b0319166001600160a01b0392909216919091179055565b60606072805461069e90612b6b565b80601f01602080910402602001604051908101604052809291908181526020018280546106ca90612b6b565b80156107175780601f106106ec57610100808354040283529160200191610717565b820191906000526020600020905b8154815290600101906020018083116106fa57829003601f168201915b5050505050905090565b6000818152607460205260408120546001600160a01b031661079a5760405162461bcd60e51b815260206004820152602c60248201527f4552433732313a20617070726f76656420717565727920666f72206e6f6e657860448201526b34b9ba32b73a103a37b5b2b760a11b6064820152608401610664565b506000908152607660205260409020546001600160a01b031690565b60006107c182610fd8565b9050806001600160a01b0316836001600160a01b0316141561082f5760405162461bcd60e51b815260206004820152602160248201527f4552433732313a20617070726f76616c20746f2063757272656e74206f776e656044820152603960f91b6064820152608401610664565b336001600160a01b038216148061084b575061084b8133610594565b6108bd5760405162461bcd60e51b815260206004820152603860248201527f4552433732313a20617070726f76652063616c6c6572206973206e6f74206f7760448201527f6e6572206e6f7220617070726f76656420666f7220616c6c00000000000000006064820152608401610664565b6108c7838361186b565b505050565b60a4546001600160a01b031633146108f65760405162461bcd60e51b815260040161066490612b36565b60005b81518110156109805781818151811061091457610914612ba6565b6020026020010151600001511561094c5761094782828151811061093a5761093a612ba6565b60200260200101516118d9565b61096e565b61096e82828151811061096157610961612ba6565b6020026020010151611980565b8061097881612bd2565b9150506108f9565b5050565b60a4546001600160a01b031633146109ae5760405162461bcd60e51b815260040161066490612b36565b6040518060a001604052808260000151815260200182602001511515815260200182604001516001600160a01b031681526020018260600151815260200182608001518152506008600060076000815480929190610a0b90612bd2565b909155508152602080820192909252604001600020825180519192610a3592849290910190612434565b50602082015160018201805460408501516001600160a01b031661010002610100600160a81b0319931515939093166001600160a81b0319909116179190911790556060820151600282015560809091015160039091015550565b610a9a3382611be7565b610ab65760405162461bcd60e51b815260040161066490612bed565b6108c7838383611cdd565b60a4546001600160a01b03163314610aeb5760405162461bcd60e51b815260040161066490612b36565b60048054829160059160009182610b0183612bd2565b9190505581526020019081526020016000209080519060200190610980929190612434565b336000908152600a60209081526040808320548484526008909252808320815160a08101909252805492939282908290610b5f90612b6b565b80601f0160208091040260200160405190810160405280929190818152602001828054610b8b90612b6b565b8015610bd85780601f10610bad57610100808354040283529160200191610bd8565b820191906000526020600020905b815481529060010190602001808311610bbb57829003601f168201915b5050509183525050600182015460ff811615156020808401919091526101009091046001600160a01b031660408301526002830154606083015260039092015460809091015281015190915015610cb6576060810151336000908152600660209081526040808320608086015184529091529020541015610cb15760405162461bcd60e51b815260206004820152602d60248201527f4261636b6564436f6d6d756e697479546f6b656e56313a207573657220646f6560448201526c73206e6f74207175616c69667960981b6064820152608401610664565b610d37565b33600090815260096020908152604080832086845290915290205460ff16610d375760405162461bcd60e51b815260206004820152602e60248201527f4261636b6564436f6d6d756e697479546f6b656e56313a206163636573736f7260448201526d1e481b9bdd081d5b9b1bd8dad95960921b6064820152608401610664565b336000818152600a6020526040808220869055518592859290917fea1b1f91e87d6596dd266ab28a1e2231755992988caaafc59ed42f2331d41e8c9190a4505050565b60056020526000908152604090208054610d9390612b6b565b80601f0160208091040260200160405190810160405280929190818152602001828054610dbf90612b6b565b8015610e0c5780601f10610de157610100808354040283529160200191610e0c565b820191906000526020600020905b815481529060010190602001808311610def57829003601f168201915b505050505081565b6108c78383836040518060200160405280600081525061116e565b600080610e3e83850185612c3e565b60025491935091506001600160a01b03163314610ec35760405162461bcd60e51b815260206004820152603d60248201527f4261636b6564436f6d6d756e697479546f6b656e56313a2063616c6c6572206d60448201527f7573742062652063726f737320646f6d61696e206d657373656e6765720000006064820152608401610664565b600b5460025460408051636e296e4560e01b815290516001600160a01b039384169390921691636e296e45916004808201926020929091908290030181865afa158015610f14573d6000803e3d6000fd5b505050506040513d601f19601f82011682018060405250810190610f389190612c8d565b6001600160a01b031614610fa85760405162461bcd60e51b815260206004820152603160248201527f4261636b6564436f6d6d756e697479546f6b656e56313a206f726967696e206d6044820152700757374206265204261636b65642050465607c1b6064820152608401610664565b6001600160a01b0382166000908152600c602090815260409091208251610fd192840190612434565b5050505050565b6000818152607460205260408120546001600160a01b0316806106345760405162461bcd60e51b815260206004820152602960248201527f4552433732313a206f776e657220717565727920666f72206e6f6e657869737460448201526832b73a103a37b5b2b760b91b6064820152608401610664565b6000805461106d918391908061106483612bd2565b91905055611d5c565b50565b60006001600160a01b0382166110da5760405162461bcd60e51b815260206004820152602960248201527f4552433732313a2061646472657373207a65726f206973206e6f7420612076616044820152683634b21037bbb732b960b91b6064820152608401610664565b506001600160a01b031660009081526075602052604090205490565b60a4546001600160a01b031633146111205760405162461bcd60e51b815260040161066490612b36565b61112a6000611dce565b565b60606073805461069e90612b6b565b610980338383611e20565b6040805160208082018084526000808452338152600c909252929020905161106d9290612434565b6111783383611be7565b6111945760405162461bcd60e51b815260040161066490612bed565b6111a084848484611eef565b50505050565b60006111b26001611f22565b905080156111ca57600d805461ff0019166101001790555b6112196040518060400160405280600f81526020016e4261636b6564436f6d6d756e69747960881b81525060405180604001604052806006815260200165109050d2d15160d21b815250611fb1565b600380546001600160a01b0319166001600160a01b038416179055801561098057600d805461ff0019169055604051600181527f7f26b83ff96e1f2b6a682f133852f6798a09c465da95921460cefb38474024989060200160405180910390a15050565b6040516331a9108f60e11b8152600481018290526060906000903090636352211e90602401602060405180830381865afa1580156112bf573d6000803e3d6000fd5b505050506040513d601f19601f820116820180604052508101906112e39190612c8d565b905060006004546001600160401b03811115611301576113016125e9565b60405190808252806020026020018201604052801561132a578160200160208202803683370190505b50905060005b60045481101561138f576001600160a01b0383166000908152600660209081526040808320848452909152902054825183908390811061137257611372612ba6565b60209081029190910101528061138781612bd2565b915050611330565b506003546001600160a01b038381166000818152600a602090815260408083205483526008825280832060010154938352600c90915290819020905163dc90d34360e01b81529383169363dc90d343936113fb938a938993899361010090930490921691600401612caa565b600060405180830381865afa158015611418573d6000803e3d6000fd5b505050506040513d6000823e601f3d908101601f191682016040526114409190810190612db2565b949350505050565b600c6020526000908152604090208054610d9390612b6b565b606060006007546001600160401b0381111561147f5761147f6125e9565b6040519080825280602002602001820160405280156114a8578160200160208202803683370190505b50905060005b60075481101561167057600081815260086020526040808220815160a081019092528054829082906114df90612b6b565b80601f016020809104026020016040519081016040528092919081815260200182805461150b90612b6b565b80156115585780601f1061152d57610100808354040283529160200191611558565b820191906000526020600020905b81548152906001019060200180831161153b57829003601f168201915b5050509183525050600182015460ff811615156020808401919091526101009091046001600160a01b0316604083015260028301546060830152600390920154608090910152810151909150156116095760608101516001600160a01b03861660009081526006602090815260408083206080860151845290915290205410156115e4576000196115e6565b815b8383815181106115f8576115f8612ba6565b60200260200101818152505061165d565b6001600160a01b038516600090815260096020908152604080832085845290915290205460ff1661163c5760001961163e565b815b83838151811061165057611650612ba6565b6020026020010181815250505b508061166881612bd2565b9150506114ae565b5092915050565b60a4546001600160a01b031633146116a15760405162461bcd60e51b815260040161066490612b36565b600380546001600160a01b0319166001600160a01b0392909216919091179055565b60a4546001600160a01b031633146116ed5760405162461bcd60e51b815260040161066490612b36565b600b80546001600160a01b0319166001600160a01b0392909216919091179055565b60086020526000908152604090208054819061172a90612b6b565b80601f016020809104026020016040519081016040528092919081815260200182805461175690612b6b565b80156117a35780601f10611778576101008083540402835291602001916117a3565b820191906000526020600020905b81548152906001019060200180831161178657829003601f168201915b5050505060018301546002840154600390940154929360ff8216936101009092046001600160a01b031692509085565b60a4546001600160a01b031633146117fd5760405162461bcd60e51b815260040161066490612b36565b6001600160a01b0381166118625760405162461bcd60e51b815260206004820152602660248201527f4f776e61626c653a206e6577206f776e657220697320746865207a65726f206160448201526564647265737360d01b6064820152608401610664565b61106d81611dce565b600081815260766020526040902080546001600160a01b0319166001600160a01b03841690811790915581906118a082610fd8565b6001600160a01b03167f8c5be1e5ebec7d5bd14f71427d1e84f3dd0314c0f7b2291e5b200ac8c7c3b92560405160405180910390a45050565b6020808201516001600160a01b031660009081526006825260408082208185015183529092529081208054829061190f90612bd2565b9182905550606083015160405191925061192891612e28565b6040518091039020826040015183602001516001600160a01b03167f4adfb6c8799106a05c87f98cd81c34d5636f2a657ab1d2b940cd96a643d91b4c8460405161197491815260200190565b60405180910390a45050565b600060086000836040015181526020019081526020016000206040518060a00160405290816000820180546119b490612b6b565b80601f01602080910402602001604051908101604052809291908181526020018280546119e090612b6b565b8015611a2d5780601f10611a0257610100808354040283529160200191611a2d565b820191906000526020600020905b815481529060010190602001808311611a1057829003601f168201915b5050509183525050600182015460ff811615156020808401919091526101009091046001600160a01b031660408301526002830154606083015260039092015460809091015281015190915015611ae45760405162461bcd60e51b815260206004820152603560248201527f4261636b6564436f6d6d756e697479546f6b656e56313a204163636573736f726044820152741e481b5d5cdd0818994818591b5a5b8818985cd959605a1b6064820152608401610664565b60408101516001600160a01b0316611b575760405162461bcd60e51b815260206004820152603060248201527f4261636b6564436f6d6d756e697479546f6b656e56313a204163636573736f7260448201526f1e48191bd95cc81b9bdd08195e1a5cdd60821b6064820152608401610664565b6020808301516001600160a01b03166000908152600982526040808220818601518352909252819020805460ff1916600117905560608301519051611b9c9190612e28565b6040518091039020826040015183602001516001600160a01b03167f21d40621155f17d6d4e01f8387b7ac9f14f7b993868011846ad64e5ad770e46460405160405180910390a45050565b6000818152607460205260408120546001600160a01b0316611c605760405162461bcd60e51b815260206004820152602c60248201527f4552433732313a206f70657261746f7220717565727920666f72206e6f6e657860448201526b34b9ba32b73a103a37b5b2b760a11b6064820152608401610664565b6000611c6b83610fd8565b9050806001600160a01b0316846001600160a01b03161480611cb257506001600160a01b0380821660009081526077602090815260408083209388168352929052205460ff165b806114405750836001600160a01b0316611ccb84610721565b6001600160a01b031614949350505050565b60a4546001600160a01b03163314611d515760405162461bcd60e51b815260206004820152603160248201527f455243373231536f756c626f756e643a206f6e6c7920636f6e7472616374206f6044820152703bb732b91031b0b7103a3930b739b332b960791b6064820152608401610664565b6108c7838383611fe2565b6001611d6783611070565b10611dc45760405162461bcd60e51b815260206004820152602760248201527f455243373231536f756c626f756e643a2063616e6e6f74206f776e206d6f7265604482015266207468616e203160c81b6064820152608401610664565b610980828261217e565b60a480546001600160a01b038381166001600160a01b0319831681179093556040519116919082907f8be0079c531659141344cd1fd0a4f28419497f9722a3daafe3b4186f6b6457e090600090a35050565b816001600160a01b0316836001600160a01b03161415611e825760405162461bcd60e51b815260206004820152601960248201527f4552433732313a20617070726f766520746f2063616c6c6572000000000000006044820152606401610664565b6001600160a01b03838116600081815260776020908152604080832094871680845294825291829020805460ff191686151590811790915591519182527f17307eab39ab6107e8899845ad3d59bd9653f200f220920489ca2b5937696c31910160405180910390a3505050565b611efa848484611cdd565b611f06848484846122c0565b6111a05760405162461bcd60e51b815260040161066490612e44565b600d54600090610100900460ff1615611f6b578160ff166001148015611f475750303b155b611f635760405162461bcd60e51b815260040161066490612e96565b506000919050565b600d5460ff808416911610611f925760405162461bcd60e51b815260040161066490612e96565b50600d805460ff191660ff92909216919091179055600190565b919050565b600d54610100900460ff16611fd85760405162461bcd60e51b815260040161066490612ee4565b61098082826123be565b826001600160a01b0316611ff582610fd8565b6001600160a01b0316146120595760405162461bcd60e51b815260206004820152602560248201527f4552433732313a207472616e736665722066726f6d20696e636f72726563742060448201526437bbb732b960d91b6064820152608401610664565b6001600160a01b0382166120bb5760405162461bcd60e51b8152602060048201526024808201527f4552433732313a207472616e7366657220746f20746865207a65726f206164646044820152637265737360e01b6064820152608401610664565b6120c660008261186b565b6001600160a01b03831660009081526075602052604081208054600192906120ef908490612f2f565b90915550506001600160a01b038216600090815260756020526040812080546001929061211d908490612f46565b909155505060008181526074602052604080822080546001600160a01b0319166001600160a01b0386811691821790925591518493918716917fddf252ad1be2c89b69c2b068fc378daa952ba7f163c4a11628f55a4df523b3ef91a4505050565b6001600160a01b0382166121d45760405162461bcd60e51b815260206004820181905260248201527f4552433732313a206d696e7420746f20746865207a65726f20616464726573736044820152606401610664565b6000818152607460205260409020546001600160a01b0316156122395760405162461bcd60e51b815260206004820152601c60248201527f4552433732313a20746f6b656e20616c7265616479206d696e746564000000006044820152606401610664565b6001600160a01b0382166000908152607560205260408120805460019290612262908490612f46565b909155505060008181526074602052604080822080546001600160a01b0319166001600160a01b03861690811790915590518392907fddf252ad1be2c89b69c2b068fc378daa952ba7f163c4a11628f55a4df523b3ef908290a45050565b60006001600160a01b0384163b156123b357604051630a85bd0160e11b81526001600160a01b0385169063150b7a0290612304903390899088908890600401612f5e565b6020604051808303816000875af192505050801561233f575060408051601f3d908101601f1916820190925261233c91810190612f9b565b60015b612399573d80801561236d576040519150601f19603f3d011682016040523d82523d6000602084013e612372565b606091505b5080516123915760405162461bcd60e51b815260040161066490612e44565b805181602001fd5b6001600160e01b031916630a85bd0160e11b149050611440565b506001949350505050565b600d54610100900460ff166123e55760405162461bcd60e51b815260040161066490612ee4565b6109808282600d54610100900460ff166124115760405162461bcd60e51b815260040161066490612ee4565b8151612424906072906020850190612434565b5080516108c79060739060208401905b82805461244090612b6b565b90600052602060002090601f01602090048101928261246257600085556124a8565b82601f1061247b57805160ff19168380011785556124a8565b828001600101855582156124a8579182015b828111156124a857825182559160200191906001019061248d565b506124b49291506124b8565b5090565b5b808211156124b457600081556001016124b9565b6001600160e01b03198116811461106d57600080fd5b6000602082840312156124f557600080fd5b8135612500816124cd565b9392505050565b6001600160a01b038116811461106d57600080fd5b60006020828403121561252e57600080fd5b813561250081612507565b60005b8381101561255457818101518382015260200161253c565b838111156111a05750506000910152565b6000815180845261257d816020860160208601612539565b601f01601f19169290920160200192915050565b6020815260006125006020830184612565565b6000602082840312156125b657600080fd5b5035919050565b600080604083850312156125d057600080fd5b82356125db81612507565b946020939093013593505050565b634e487b7160e01b600052604160045260246000fd5b604051608081016001600160401b0381118282101715612621576126216125e9565b60405290565b60405160a081016001600160401b0381118282101715612621576126216125e9565b604051601f8201601f191681016001600160401b0381118282101715612671576126716125e9565b604052919050565b80358015158114611fac57600080fd5b60006001600160401b038211156126a2576126a26125e9565b50601f01601f191660200190565b60006126c36126be84612689565b612649565b90508281528383830111156126d757600080fd5b828260208301376000602084830101529392505050565b600082601f8301126126ff57600080fd5b612500838335602085016126b0565b6000602080838503121561272157600080fd5b82356001600160401b038082111561273857600080fd5b818501915085601f83011261274c57600080fd5b81358181111561275e5761275e6125e9565b8060051b61276d858201612649565b918252838101850191858101908984111561278757600080fd5b86860192505b83831015612828578235858111156127a55760008081fd5b86016080818c03601f19018113156127bd5760008081fd5b6127c56125ff565b6127d08a8401612679565b81526040808401356127e181612507565b828c01526060848101358284015292840135928984111561280457600091508182fd5b6128128f8d868801016126ee565b908301525084525050918601919086019061278d565b9998505050505050505050565b60006020828403121561284757600080fd5b81356001600160401b038082111561285e57600080fd5b9083019060a0828603121561287257600080fd5b61287a612627565b82358281111561288957600080fd5b612895878286016126ee565b8252506128a460208401612679565b6020820152604083013591506128b982612507565b816040820152606083013560608201526080830135608082015280935050505092915050565b6000806000606084860312156128f457600080fd5b83356128ff81612507565b9250602084013561290f81612507565b929592945050506040919091013590565b60006020828403121561293257600080fd5b81356001600160401b0381111561294857600080fd5b611440848285016126ee565b6000806020838503121561296757600080fd5b82356001600160401b038082111561297e57600080fd5b818501915085601f83011261299257600080fd5b8135818111156129a157600080fd5b8660208285010111156129b357600080fd5b60209290920196919550909350505050565b600080604083850312156129d857600080fd5b82356129e381612507565b91506129f160208401612679565b90509250929050565b60008060008060808587031215612a1057600080fd5b8435612a1b81612507565b93506020850135612a2b81612507565b92506040850135915060608501356001600160401b03811115612a4d57600080fd5b8501601f81018713612a5e57600080fd5b612a6d878235602084016126b0565b91505092959194509250565b6020808252825182820181905260009190848201906040850190845b81811015612ab157835183529284019291840191600101612a95565b50909695505050505050565b60a081526000612ad060a0830188612565565b9515156020830152506001600160a01b039390931660408401526060830191909152608090910152919050565b60008060408385031215612b1057600080fd5b8235612b1b81612507565b91506020830135612b2b81612507565b809150509250929050565b6020808252818101527f4f776e61626c653a2063616c6c6572206973206e6f7420746865206f776e6572604082015260600190565b600181811c90821680612b7f57607f821691505b60208210811415612ba057634e487b7160e01b600052602260045260246000fd5b50919050565b634e487b7160e01b600052603260045260246000fd5b634e487b7160e01b600052601160045260246000fd5b6000600019821415612be657612be6612bbc565b5060010190565b60208082526031908201527f4552433732313a207472616e736665722063616c6c6572206973206e6f74206f6040820152701ddb995c881b9bdc88185c1c1c9bdd9959607a1b606082015260800190565b60008060408385031215612c5157600080fd5b8235612c5c81612507565b915060208301356001600160401b03811115612c7757600080fd5b612c83858286016126ee565b9150509250929050565b600060208284031215612c9f57600080fd5b815161250081612507565b600060a08201878352602060018060a01b038089168286015260a0604086015282885180855260c087019150838a01945060005b81811015612cfa57855183529484019491840191600101612cde565b50509087166060860152848103608086015285546000935090600182811c9080841680612d2857607f831692505b858310811415612d4657634e487b7160e01b87526022600452602487fd5b828452602084019350808015612d635760018114612d7457612d9f565b60ff19861685528685019750612d9f565b60008b81526020902060005b85811015612d9957815487820152908401908801612d80565b86019850505b50959d9c50505050505050505050505050565b600060208284031215612dc457600080fd5b81516001600160401b03811115612dda57600080fd5b8201601f81018413612deb57600080fd5b8051612df96126be82612689565b818152856020838501011115612e0e57600080fd5b612e1f826020830160208601612539565b95945050505050565b60008251612e3a818460208701612539565b9190910192915050565b60208082526032908201527f4552433732313a207472616e7366657220746f206e6f6e20455243373231526560408201527131b2b4bb32b91034b6b83632b6b2b73a32b960711b606082015260800190565b6020808252602e908201527f496e697469616c697a61626c653a20636f6e747261637420697320616c72656160408201526d191e481a5b9a5d1a585b1a5e995960921b606082015260800190565b6020808252602b908201527f496e697469616c697a61626c653a20636f6e7472616374206973206e6f74206960408201526a6e697469616c697a696e6760a81b606082015260800190565b600082821015612f4157612f41612bbc565b500390565b60008219821115612f5957612f59612bbc565b500190565b6001600160a01b0385811682528416602082015260408101839052608060608201819052600090612f9190830184612565565b9695505050505050565b600060208284031215612fad57600080fd5b8151612500816124cd56fea164736f6c634300080c000a",
    "linkReferences": {}
  }
}