{
  "abi": [
    {
      "anonymous": false,
      "inputs": [
        {
          "indexed": true,
          "internalType": "address",
          "name": "addr",
          "type": "address"
        },
        {
          "indexed": true,
          "internalType": "uint256",
          "name": "oldAccessory",
          "type": "uint256"
        },
        {
          "indexed": true,
          "internalType": "uint256",
          "name": "newAccessory",
          "type": "uint256"
        }
      ],
      "name": "AccessorySwapped",
      "type": "event"
    },
    {
      "anonymous": false,
      "inputs": [
        {
          "indexed": true,
          "internalType": "address",
          "name": "addr",
          "type": "address"
        },
        {
          "indexed": true,
          "internalType": "uint256",
          "name": "accessoryId",
          "type": "uint256"
        },
        {
          "indexed": true,
          "internalType": "string",
          "name": "ipfsLink",
          "type": "string"
        }
      ],
      "name": "AccessoryUnlocked",
      "type": "event"
    },
    {
      "anonymous": false,
      "inputs": [
        {
          "indexed": true,
          "internalType": "address",
          "name": "owner",
          "type": "address"
        },
        {
          "indexed": true,
          "internalType": "address",
          "name": "approved",
          "type": "address"
        },
        {
          "indexed": true,
          "internalType": "uint256",
          "name": "tokenId",
          "type": "uint256"
        }
      ],
      "name": "Approval",
      "type": "event"
    },
    {
      "anonymous": false,
      "inputs": [
        {
          "indexed": true,
          "internalType": "address",
          "name": "owner",
          "type": "address"
        },
        {
          "indexed": true,
          "internalType": "address",
          "name": "operator",
          "type": "address"
        },
        {
          "indexed": false,
          "internalType": "bool",
          "name": "approved",
          "type": "bool"
        }
      ],
      "name": "ApprovalForAll",
      "type": "event"
    },
    {
      "anonymous": false,
      "inputs": [
        {
          "indexed": true,
          "internalType": "address",
          "name": "addr",
          "type": "address"
        },
        {
          "indexed": true,
          "internalType": "uint256",
          "name": "categoryId",
          "type": "uint256"
        },
        {
          "indexed": true,
          "internalType": "string",
          "name": "ipfsLink",
          "type": "string"
        }
      ],
      "name": "CategoryScoreChanged",
      "type": "event"
    },
    {
      "anonymous": false,
      "inputs": [
        {
          "indexed": false,
          "internalType": "uint8",
          "name": "version",
          "type": "uint8"
        }
      ],
      "name": "Initialized",
      "type": "event"
    },
    {
      "anonymous": false,
      "inputs": [
        {
          "indexed": true,
          "internalType": "address",
          "name": "previousOwner",
          "type": "address"
        },
        {
          "indexed": true,
          "internalType": "address",
          "name": "newOwner",
          "type": "address"
        }
      ],
      "name": "OwnershipTransferred",
      "type": "event"
    },
    {
      "anonymous": false,
      "inputs": [
        {
          "indexed": true,
          "internalType": "address",
          "name": "from",
          "type": "address"
        },
        {
          "indexed": true,
          "internalType": "address",
          "name": "to",
          "type": "address"
        },
        {
          "indexed": true,
          "internalType": "uint256",
          "name": "tokenId",
          "type": "uint256"
        }
      ],
      "name": "Transfer",
      "type": "event"
    },
    {
      "inputs": [
        {
          "internalType": "uint256",
          "name": "",
          "type": "uint256"
        }
      ],
      "name": "accessoryIdToAccessory",
      "outputs": [
        {
          "internalType": "string",
          "name": "name",
          "type": "string"
        },
        {
          "internalType": "bool",
          "name": "xpBased",
          "type": "bool"
        },
        {
          "internalType": "address",
          "name": "artContract",
          "type": "address"
        },
        {
          "internalType": "uint256",
          "name": "qualifyingXPScore",
          "type": "uint256"
        },
        {
          "internalType": "uint256",
          "name": "xpCategory",
          "type": "uint256"
        }
      ],
      "stateMutability": "view",
      "type": "function"
    },
    {
      "inputs": [
        {
          "internalType": "string",
          "name": "displayName",
          "type": "string"
        }
      ],
      "name": "addCategory",
      "outputs": [],
      "stateMutability": "nonpayable",
      "type": "function"
    },
    {
      "inputs": [
        {
          "components": [
            {
              "internalType": "string",
              "name": "name",
              "type": "string"
            },
            {
              "internalType": "bool",
              "name": "xpBased",
              "type": "bool"
            },
            {
              "internalType": "address",
              "name": "artContract",
              "type": "address"
            },
            {
              "internalType": "uint256",
              "name": "qualifyingXPScore",
              "type": "uint256"
            },
            {
              "internalType": "uint256",
              "name": "xpCategory",
              "type": "uint256"
            }
          ],
          "internalType": "struct IBackedCommunityTokenV1.Accessory",
          "name": "accessory",
          "type": "tuple"
        }
      ],
      "name": "addSpecialAccessory",
      "outputs": [],
      "stateMutability": "nonpayable",
      "type": "function"
    },
    {
      "inputs": [
        {
          "internalType": "address",
          "name": "",
          "type": "address"
        }
      ],
      "name": "addressToAccessoryEnabled",
      "outputs": [
        {
          "internalType": "uint256",
          "name": "",
          "type": "uint256"
        }
      ],
      "stateMutability": "view",
      "type": "function"
    },
    {
      "inputs": [
        {
          "internalType": "address",
          "name": "",
          "type": "address"
        },
        {
          "internalType": "uint256",
          "name": "",
          "type": "uint256"
        }
      ],
      "name": "addressToAccessoryUnlocked",
      "outputs": [
        {
          "internalType": "bool",
          "name": "",
          "type": "bool"
        }
      ],
      "stateMutability": "view",
      "type": "function"
    },
    {
      "inputs": [
        {
          "internalType": "address",
          "name": "",
          "type": "address"
        },
        {
          "internalType": "uint256",
          "name": "",
          "type": "uint256"
        }
      ],
      "name": "addressToCategoryScore",
      "outputs": [
        {
          "internalType": "uint256",
          "name": "",
          "type": "uint256"
        }
      ],
      "stateMutability": "view",
      "type": "function"
    },
    {
      "inputs": [
        {
          "internalType": "address",
          "name": "",
          "type": "address"
        }
      ],
      "name": "addressToPFPTokenIdLink",
      "outputs": [
        {
          "internalType": "uint256",
          "name": "",
          "type": "uint256"
        }
      ],
      "stateMutability": "view",
      "type": "function"
    },
    {
      "inputs": [],
      "name": "admin",
      "outputs": [
        {
          "internalType": "address",
          "name": "",
          "type": "address"
        }
      ],
      "stateMutability": "view",
      "type": "function"
    },
    {
      "inputs": [
        {
          "internalType": "address",
          "name": "to",
          "type": "address"
        },
        {
          "internalType": "uint256",
          "name": "tokenId",
          "type": "uint256"
        }
      ],
      "name": "approve",
      "outputs": [],
      "stateMutability": "nonpayable",
      "type": "function"
    },
    {
      "inputs": [
        {
          "internalType": "address",
          "name": "owner",
          "type": "address"
        }
      ],
      "name": "balanceOf",
      "outputs": [
        {
          "internalType": "uint256",
          "name": "",
          "type": "uint256"
        }
      ],
      "stateMutability": "view",
      "type": "function"
    },
    {
      "inputs": [],
      "name": "bunnyPFPContractAddress",
      "outputs": [
        {
          "internalType": "address",
          "name": "",
          "type": "address"
        }
      ],
      "stateMutability": "view",
      "type": "function"
    },
    {
      "inputs": [
        {
          "internalType": "uint256",
          "name": "",
          "type": "uint256"
        }
      ],
      "name": "categoryIdToDisplayName",
      "outputs": [
        {
          "internalType": "string",
          "name": "",
          "type": "string"
        }
      ],
      "stateMutability": "view",
      "type": "function"
    },
    {
      "inputs": [],
      "name": "cdmAddr",
      "outputs": [
        {
          "internalType": "address",
          "name": "",
          "type": "address"
        }
      ],
      "stateMutability": "view",
      "type": "function"
    },
    {
      "inputs": [],
      "name": "descriptor",
      "outputs": [
        {
          "internalType": "contract IBackedCommunityTokenDescriptorV1",
          "name": "",
          "type": "address"
        }
      ],
      "stateMutability": "view",
      "type": "function"
    },
    {
      "inputs": [
        {
          "internalType": "uint256",
          "name": "tokenId",
          "type": "uint256"
        }
      ],
      "name": "getApproved",
      "outputs": [
        {
          "internalType": "address",
          "name": "",
          "type": "address"
        }
      ],
      "stateMutability": "view",
      "type": "function"
    },
    {
      "inputs": [
        {
          "internalType": "address",
          "name": "addr",
          "type": "address"
        }
      ],
      "name": "getUnlockedAccessoriesForAddress",
      "outputs": [
        {
          "internalType": "int256[]",
          "name": "",
          "type": "int256[]"
        }
      ],
      "stateMutability": "view",
      "type": "function"
    },
    {
      "inputs": [
        {
          "internalType": "address",
          "name": "_descriptorAddress",
          "type": "address"
        }
      ],
      "name": "initialize",
      "outputs": [],
      "stateMutability": "nonpayable",
      "type": "function"
    },
    {
      "inputs": [
        {
          "internalType": "address",
          "name": "owner",
          "type": "address"
        },
        {
          "internalType": "address",
          "name": "operator",
          "type": "address"
        }
      ],
      "name": "isApprovedForAll",
      "outputs": [
        {
          "internalType": "bool",
          "name": "",
          "type": "bool"
        }
      ],
      "stateMutability": "view",
      "type": "function"
    },
    {
      "inputs": [
        {
          "internalType": "uint256",
          "name": "tokenId",
          "type": "uint256"
        }
      ],
      "name": "linkBunnyPFP",
      "outputs": [],
      "stateMutability": "nonpayable",
      "type": "function"
    },
    {
      "inputs": [
        {
          "internalType": "address",
          "name": "mintTo",
          "type": "address"
        }
      ],
      "name": "mint",
      "outputs": [],
      "stateMutability": "nonpayable",
      "type": "function"
    },
    {
      "inputs": [],
      "name": "name",
      "outputs": [
        {
          "internalType": "string",
          "name": "",
          "type": "string"
        }
      ],
      "stateMutability": "view",
      "type": "function"
    },
    {
      "inputs": [],
      "name": "nonce",
      "outputs": [
        {
          "internalType": "uint256",
          "name": "",
          "type": "uint256"
        }
      ],
      "stateMutability": "view",
      "type": "function"
    },
    {
      "inputs": [],
      "name": "owner",
      "outputs": [
        {
          "internalType": "address",
          "name": "",
          "type": "address"
        }
      ],
      "stateMutability": "view",
      "type": "function"
    },
    {
      "inputs": [
        {
          "internalType": "uint256",
          "name": "tokenId",
          "type": "uint256"
        }
      ],
      "name": "ownerOf",
      "outputs": [
        {
          "internalType": "address",
          "name": "",
          "type": "address"
        }
      ],
      "stateMutability": "view",
      "type": "function"
    },
    {
      "inputs": [],
      "name": "renounceOwnership",
      "outputs": [],
      "stateMutability": "nonpayable",
      "type": "function"
    },
    {
      "inputs": [
        {
          "internalType": "address",
          "name": "from",
          "type": "address"
        },
        {
          "internalType": "address",
          "name": "to",
          "type": "address"
        },
        {
          "internalType": "uint256",
          "name": "tokenId",
          "type": "uint256"
        }
      ],
      "name": "safeTransferFrom",
      "outputs": [],
      "stateMutability": "nonpayable",
      "type": "function"
    },
    {
      "inputs": [
        {
          "internalType": "address",
          "name": "from",
          "type": "address"
        },
        {
          "internalType": "address",
          "name": "to",
          "type": "address"
        },
        {
          "internalType": "uint256",
          "name": "tokenId",
          "type": "uint256"
        },
        {
          "internalType": "bytes",
          "name": "_data",
          "type": "bytes"
        }
      ],
      "name": "safeTransferFrom",
      "outputs": [],
      "stateMutability": "nonpayable",
      "type": "function"
    },
    {
      "inputs": [
        {
          "internalType": "address",
          "name": "operator",
          "type": "address"
        },
        {
          "internalType": "bool",
          "name": "approved",
          "type": "bool"
        }
      ],
      "name": "setApprovalForAll",
      "outputs": [],
      "stateMutability": "nonpayable",
      "type": "function"
    },
    {
      "inputs": [
        {
          "internalType": "address",
          "name": "addr",
          "type": "address"
        }
      ],
      "name": "setBunnyPFPContract",
      "outputs": [],
      "stateMutability": "nonpayable",
      "type": "function"
    },
    {
      "inputs": [
        {
          "internalType": "bytes",
          "name": "message",
          "type": "bytes"
        }
      ],
      "name": "setBunnyPFPTokenApproval",
      "outputs": [],
      "stateMutability": "nonpayable",
      "type": "function"
    },
    {
      "inputs": [
        {
          "components": [
            {
              "internalType": "address",
              "name": "addr",
              "type": "address"
            },
            {
              "internalType": "uint256",
              "name": "categoryId",
              "type": "uint256"
            },
            {
              "internalType": "uint256",
              "name": "score",
              "type": "uint256"
            },
            {
              "internalType": "string",
              "name": "ipfsLink",
              "type": "string"
            }
          ],
          "internalType": "struct IBackedCommunityTokenV1.CategoryScoreChange[]",
          "name": "changes",
          "type": "tuple[]"
        }
      ],
      "name": "setCategoryScores",
      "outputs": [],
      "stateMutability": "nonpayable",
      "type": "function"
    },
    {
      "inputs": [
        {
          "internalType": "address",
          "name": "addr",
          "type": "address"
        }
      ],
      "name": "setDescriptorContract",
      "outputs": [],
      "stateMutability": "nonpayable",
      "type": "function"
    },
    {
      "inputs": [
        {
          "internalType": "uint256",
          "name": "accessoryId",
          "type": "uint256"
        }
      ],
      "name": "setEnabledAccessory",
      "outputs": [],
      "stateMutability": "nonpayable",
      "type": "function"
    },
    {
      "inputs": [
        {
          "internalType": "bytes4",
          "name": "interfaceId",
          "type": "bytes4"
        }
      ],
      "name": "supportsInterface",
      "outputs": [
        {
          "internalType": "bool",
          "name": "",
          "type": "bool"
        }
      ],
      "stateMutability": "view",
      "type": "function"
    },
    {
      "inputs": [],
      "name": "symbol",
      "outputs": [
        {
          "internalType": "string",
          "name": "",
          "type": "string"
        }
      ],
      "stateMutability": "view",
      "type": "function"
    },
    {
      "inputs": [
        {
          "internalType": "uint256",
          "name": "",
          "type": "uint256"
        }
      ],
      "name": "tokenIdToAddressApprovals",
      "outputs": [
        {
          "internalType": "address",
          "name": "",
          "type": "address"
        }
      ],
      "stateMutability": "view",
      "type": "function"
    },
    {
      "inputs": [
        {
          "internalType": "uint256",
          "name": "tokenId",
          "type": "uint256"
        }
      ],
      "name": "tokenURI",
      "outputs": [
        {
          "internalType": "string",
          "name": "",
          "type": "string"
        }
      ],
      "stateMutability": "view",
      "type": "function"
    },
    {
      "inputs": [],
      "name": "totalCategoryCount",
      "outputs": [
        {
          "internalType": "uint256",
          "name": "",
          "type": "uint256"
        }
      ],
      "stateMutability": "view",
      "type": "function"
    },
    {
      "inputs": [],
      "name": "totalSpecialyAccessoryCount",
      "outputs": [
        {
          "internalType": "uint256",
          "name": "",
          "type": "uint256"
        }
      ],
      "stateMutability": "view",
      "type": "function"
    },
    {
      "inputs": [
        {
          "internalType": "address",
          "name": "from",
          "type": "address"
        },
        {
          "internalType": "address",
          "name": "to",
          "type": "address"
        },
        {
          "internalType": "uint256",
          "name": "tokenId",
          "type": "uint256"
        }
      ],
      "name": "transferFrom",
      "outputs": [],
      "stateMutability": "nonpayable",
      "type": "function"
    },
    {
      "inputs": [
        {
          "internalType": "address",
          "name": "newOwner",
          "type": "address"
        }
      ],
      "name": "transferOwnership",
      "outputs": [],
      "stateMutability": "nonpayable",
      "type": "function"
    },
    {
      "inputs": [
        {
          "components": [
            {
              "internalType": "address",
              "name": "addr",
              "type": "address"
            },
            {
              "internalType": "uint256",
              "name": "accessoryId",
              "type": "uint256"
            },
            {
              "internalType": "string",
              "name": "ipfsLink",
              "type": "string"
            }
          ],
          "internalType": "struct IBackedCommunityTokenV1.AccessoryUnlockChange[]",
          "name": "changes",
          "type": "tuple[]"
        }
      ],
      "name": "unlockAccessories",
      "outputs": [],
      "stateMutability": "nonpayable",
      "type": "function"
    }
  ],
  "bytecode": {
    "object": "0x608060405234801561001057600080fd5b50612f1d806100206000396000f3fe608060405234801561001057600080fd5b506004361061025e5760003560e01c80637a0c81af11610146578063c17c7faa116100c3578063d4f353c011610087578063d4f353c014610588578063db8a06cf1461059b578063dfcf2cf8146105bf578063e985e9c5146105d2578063f2fde38b1461060e578063f851a4401461062157600080fd5b8063c17c7faa1461051c578063c4d66de81461052f578063c87b56dd14610542578063d1c5df0714610555578063d37825b21461057557600080fd5b806399d04bb01161010a57806399d04bb0146104d1578063a22cb465146104e4578063affed0e0146104f7578063b2b52ef114610500578063b88d4fde1461050957600080fd5b80637a0c81af146104645780638da5cb5b14610484578063904b65d914610495578063957a27541461049e57806395d89b41146104c957600080fd5b80632f2aa210116101df5780634fb05fe2116101a35780634fb05fe2146103cc5780636352211e146103f55780636a6278421461040857806370a082311461041b578063715018a61461043c5780637473660a1461044457600080fd5b80632f2aa210146103525780632fdaa49014610365578063303e74df146103935780633ed0b70e146103a657806342842e0e146103b957600080fd5b8063095ea7b311610226578063095ea7b3146102f35780631073ce33146103065780631e06bb261461031957806323b872dd1461032c5780632e0dcbf71461033f57600080fd5b806301ffc9a71461026357806302145eff1461028b5780630557cfef146102a057806306fdde03146102b3578063081812fc146102c8575b600080fd5b6102766102713660046123e8565b610634565b60405190151581526020015b60405180910390f35b61029e61029936600461257b565b610686565b005b61029e6102ae366004612689565b6106fd565b6102bb610791565b60405161028291906126fa565b6102db6102d6366004612689565b610823565b6040516001600160a01b039091168152602001610282565b61029e61030136600461270d565b6108b8565b61029e610314366004612749565b6109ce565b61029e6103273660046127f3565b610ada565b61029e61033a3660046128e7565b610b44565b61029e61034d366004612928565b610b75565b61029e610360366004612689565b610bda565b61027661037336600461270d565b600960209081526000928352604080842090915290825290205460ff1681565b6003546102db906001600160a01b031681565b6102bb6103b4366004612689565b610e2e565b61029e6103c73660046128e7565b610ec8565b6102db6103da366004612689565b600d602052600090815260409020546001600160a01b031681565b6102db610403366004612689565b610ee3565b61029e61041636600461295c565b610f5a565b61042e61042936600461295c565b610f7b565b604051908152602001610282565b61029e611001565b61042e61045236600461295c565b600a6020526000908152604090205481565b61042e61047236600461295c565b600c6020526000908152604090205481565b60a5546001600160a01b03166102db565b61042e60075481565b61042e6104ac36600461270d565b600660209081526000928352604080842090915290825290205481565b6102bb611037565b61029e6104df366004612979565b611046565b61029e6104f23660046129ea565b6111ef565b61042e60005481565b61042e60045481565b61029e610517366004612a1f565b6111fa565b6002546102db906001600160a01b031681565b61029e61053d36600461295c565b611232565b6102bb610550366004612689565b611309565b61056861056336600461295c565b6114c8565b6040516102829190612a9e565b61029e61058336600461295c565b6115aa565b61029e61059636600461295c565b6115f6565b6105ae6105a9366004612689565b611642565b604051610282959493929190612ae2565b600b546102db906001600160a01b031681565b6102766105e0366004612b22565b6001600160a01b03918216600090815260786020908152604080832093909416825291909152205460ff1690565b61029e61061c36600461295c565b611706565b6001546102db906001600160a01b031681565b60006001600160e01b031982166380ac58cd60e01b148061066557506001600160e01b03198216635b5e139f60e01b145b8061068057506301ffc9a760e01b6001600160e01b03198316145b92915050565b60a5546001600160a01b031633146106b95760405162461bcd60e51b81526004016106b090612b5b565b60405180910390fd5b60005b81518110156106f9576106e78282815181106106da576106da612b90565b602002602001015161179e565b806106f181612bbc565b9150506106bc565b5050565b6000818152600d60205260409020546001600160a01b0316331461077f5760405162461bcd60e51b815260206004820152603360248201527f4261636b6564436f6d6d756e697479546f6b656e56313a206d757374206170706044820152721c9bdd9948141194081bdb881b585a5b9b995d606a1b60648201526084016106b0565b336000908152600c6020526040902055565b6060607380546107a090612bd7565b80601f01602080910402602001604051908101604052809291908181526020018280546107cc90612bd7565b80156108195780601f106107ee57610100808354040283529160200191610819565b820191906000526020600020905b8154815290600101906020018083116107fc57829003601f168201915b5050505050905090565b6000818152607560205260408120546001600160a01b031661089c5760405162461bcd60e51b815260206004820152602c60248201527f4552433732313a20617070726f76656420717565727920666f72206e6f6e657860448201526b34b9ba32b73a103a37b5b2b760a11b60648201526084016106b0565b506000908152607760205260409020546001600160a01b031690565b60006108c382610ee3565b9050806001600160a01b0316836001600160a01b031614156109315760405162461bcd60e51b815260206004820152602160248201527f4552433732313a20617070726f76616c20746f2063757272656e74206f776e656044820152603960f91b60648201526084016106b0565b336001600160a01b038216148061094d575061094d81336105e0565b6109bf5760405162461bcd60e51b815260206004820152603860248201527f4552433732313a20617070726f76652063616c6c6572206973206e6f74206f7760448201527f6e6572206e6f7220617070726f76656420666f7220616c6c000000000000000060648201526084016106b0565b6109c98383611822565b505050565b60a5546001600160a01b031633146109f85760405162461bcd60e51b81526004016106b090612b5b565b6040518060a001604052808260000151815260200182602001511515815260200182604001516001600160a01b031681526020018260600151815260200182608001518152506008600060076000815480929190610a5590612bbc565b909155508152602080820192909252604001600020825180519192610a7f92849290910190612339565b50602082015160018201805460408501516001600160a01b031661010002610100600160a81b0319931515939093166001600160a81b0319909116179190911790556060820151600282015560809091015160039091015550565b60a5546001600160a01b03163314610b045760405162461bcd60e51b81526004016106b090612b5b565b60005b81518110156106f957610b32828281518110610b2557610b25612b90565b6020026020010151611890565b80610b3c81612bbc565b915050610b07565b610b4e3382611aec565b610b6a5760405162461bcd60e51b81526004016106b090612c12565b6109c9838383611be2565b60a5546001600160a01b03163314610b9f5760405162461bcd60e51b81526004016106b090612b5b565b60048054829160059160009182610bb583612bbc565b91905055815260200190815260200160002090805190602001906106f9929190612339565b336000908152600a60209081526040808320548484526008909252808320815160a08101909252805492939282908290610c1390612bd7565b80601f0160208091040260200160405190810160405280929190818152602001828054610c3f90612bd7565b8015610c8c5780601f10610c6157610100808354040283529160200191610c8c565b820191906000526020600020905b815481529060010190602001808311610c6f57829003601f168201915b5050509183525050600182015460ff811615156020808401919091526101009091046001600160a01b031660408301526002830154606083015260039092015460809091015281015190915015610d6a576060810151336000908152600660209081526040808320608086015184529091529020541015610d655760405162461bcd60e51b815260206004820152602d60248201527f4261636b6564436f6d6d756e697479546f6b656e56313a207573657220646f6560448201526c73206e6f74207175616c69667960981b60648201526084016106b0565b610deb565b33600090815260096020908152604080832086845290915290205460ff16610deb5760405162461bcd60e51b815260206004820152602e60248201527f4261636b6564436f6d6d756e697479546f6b656e56313a206163636573736f7260448201526d1e481b9bdd081d5b9b1bd8dad95960921b60648201526084016106b0565b336000818152600a6020526040808220869055518592859290917fea1b1f91e87d6596dd266ab28a1e2231755992988caaafc59ed42f2331d41e8c9190a4505050565b60056020526000908152604090208054610e4790612bd7565b80601f0160208091040260200160405190810160405280929190818152602001828054610e7390612bd7565b8015610ec05780601f10610e9557610100808354040283529160200191610ec0565b820191906000526020600020905b815481529060010190602001808311610ea357829003601f168201915b505050505081565b6109c9838383604051806020016040528060008152506111fa565b6000818152607560205260408120546001600160a01b0316806106805760405162461bcd60e51b815260206004820152602960248201527f4552433732313a206f776e657220717565727920666f72206e6f6e657869737460448201526832b73a103a37b5b2b760b91b60648201526084016106b0565b60008054610f789183919080610f6f83612bbc565b91905055611c61565b50565b60006001600160a01b038216610fe55760405162461bcd60e51b815260206004820152602960248201527f4552433732313a2061646472657373207a65726f206973206e6f7420612076616044820152683634b21037bbb732b960b91b60648201526084016106b0565b506001600160a01b031660009081526076602052604090205490565b60a5546001600160a01b0316331461102b5760405162461bcd60e51b81526004016106b090612b5b565b6110356000611cd3565b565b6060607480546107a090612bd7565b60008061105583850185612c63565b60025491935091506001600160a01b031633146110da5760405162461bcd60e51b815260206004820152603d60248201527f4261636b6564436f6d6d756e697479546f6b656e56313a2063616c6c6572206d60448201527f7573742062652063726f737320646f6d61696e206d657373656e67657200000060648201526084016106b0565b600b5460025460408051636e296e4560e01b815290516001600160a01b039384169390921691636e296e45916004808201926020929091908290030181865afa15801561112b573d6000803e3d6000fd5b505050506040513d601f19601f8201168201806040525081019061114f9190612c88565b6001600160a01b0316146111bf5760405162461bcd60e51b815260206004820152603160248201527f4261636b6564436f6d6d756e697479546f6b656e56313a206f726967696e206d6044820152700757374206265204261636b65642050465607c1b60648201526084016106b0565b6000918252600d602052604090912080546001600160a01b0319166001600160a01b039092169190911790555050565b6106f9338383611d25565b6112043383611aec565b6112205760405162461bcd60e51b81526004016106b090612c12565b61122c84848484611df4565b50505050565b600061123e6001611e27565b9050801561125657600e805461ff0019166101001790555b6112a56040518060400160405280600f81526020016e4261636b6564436f6d6d756e69747960881b81525060405180604001604052806006815260200165109050d2d15160d21b815250611eb6565b600380546001600160a01b0319166001600160a01b03841617905580156106f957600e805461ff0019169055604051600181527f7f26b83ff96e1f2b6a682f133852f6798a09c465da95921460cefb38474024989060200160405180910390a15050565b6040516331a9108f60e11b8152600481018290526060906000903090636352211e90602401602060405180830381865afa15801561134b573d6000803e3d6000fd5b505050506040513d601f19601f8201168201806040525081019061136f9190612c88565b905060006004546001600160401b0381111561138d5761138d61240c565b6040519080825280602002602001820160405280156113b6578160200160208202803683370190505b50905060005b60045481101561141b576001600160a01b038316600090815260066020908152604080832084845290915290205482518390839081106113fe576113fe612b90565b60209081029190910101528061141381612bbc565b9150506113bc565b506003546001600160a01b038381166000908152600a6020908152604080832054835260089091529081902060010154905163bd18ec6160e01b81529282169263bd18ec619261147b928792879261010090920490911690600401612ca5565b600060405180830381865afa158015611498573d6000803e3d6000fd5b505050506040513d6000823e601f3d908101601f191682016040526114c09190810190612d0a565b949350505050565b606060006007546001600160401b038111156114e6576114e661240c565b60405190808252806020026020018201604052801561150f578160200160208202803683370190505b50905060005b6007548110156115a3576001600160a01b038416600090815260096020908152604080832084845290915290205460ff161561156f578082828151811061155e5761155e612b90565b602002602001018181525050611591565b60001982828151811061158457611584612b90565b6020026020010181815250505b8061159b81612bbc565b915050611515565b5092915050565b60a5546001600160a01b031633146115d45760405162461bcd60e51b81526004016106b090612b5b565b600380546001600160a01b0319166001600160a01b0392909216919091179055565b60a5546001600160a01b031633146116205760405162461bcd60e51b81526004016106b090612b5b565b600b80546001600160a01b0319166001600160a01b0392909216919091179055565b60086020526000908152604090208054819061165d90612bd7565b80601f016020809104026020016040519081016040528092919081815260200182805461168990612bd7565b80156116d65780601f106116ab576101008083540402835291602001916116d6565b820191906000526020600020905b8154815290600101906020018083116116b957829003601f168201915b5050505060018301546002840154600390940154929360ff8216936101009092046001600160a01b031692509085565b60a5546001600160a01b031633146117305760405162461bcd60e51b81526004016106b090612b5b565b6001600160a01b0381166117955760405162461bcd60e51b815260206004820152602660248201527f4f776e61626c653a206e6577206f776e657220697320746865207a65726f206160448201526564647265737360d01b60648201526084016106b0565b610f7881611cd3565b60408082015182516001600160a01b0316600090815260066020908152838220818601518352905282902055606082015190516117db9190612d80565b60405190819003812060208301518351919290916001600160a01b0316907f7378ea9ed3597f5b4534722722c8269fdac3e3c3e9deae8f7f23d08e18a41c8090600090a450565b600081815260776020526040902080546001600160a01b0319166001600160a01b038416908117909155819061185782610ee3565b6001600160a01b03167f8c5be1e5ebec7d5bd14f71427d1e84f3dd0314c0f7b2291e5b200ac8c7c3b92560405160405180910390a45050565b602080820151600090815260089091526040808220815160a081019092528054829082906118bd90612bd7565b80601f01602080910402602001604051908101604052809291908181526020018280546118e990612bd7565b80156119365780601f1061190b57610100808354040283529160200191611936565b820191906000526020600020905b81548152906001019060200180831161191957829003601f168201915b5050509183525050600182015460ff811615156020808401919091526101009091046001600160a01b0316604083015260028301546060830152600390920154608090910152810151909150156119ed5760405162461bcd60e51b815260206004820152603560248201527f4261636b6564436f6d6d756e697479546f6b656e56313a204163636573736f726044820152741e481b5d5cdd0818994818591b5a5b8818985cd959605a1b60648201526084016106b0565b60408101516001600160a01b0316611a605760405162461bcd60e51b815260206004820152603060248201527f4261636b6564436f6d6d756e697479546f6b656e56313a204163636573736f7260448201526f1e48191bd95cc81b9bdd08195e1a5cdd60821b60648201526084016106b0565b81516001600160a01b0316600090815260096020908152604080832082860151845290915290819020805460ff19166001179055808301519051611aa49190612d80565b60405190819003812060208401518451919290916001600160a01b0316907f21d40621155f17d6d4e01f8387b7ac9f14f7b993868011846ad64e5ad770e46490600090a45050565b6000818152607560205260408120546001600160a01b0316611b655760405162461bcd60e51b815260206004820152602c60248201527f4552433732313a206f70657261746f7220717565727920666f72206e6f6e657860448201526b34b9ba32b73a103a37b5b2b760a11b60648201526084016106b0565b6000611b7083610ee3565b9050806001600160a01b0316846001600160a01b03161480611bb757506001600160a01b0380821660009081526078602090815260408083209388168352929052205460ff165b806114c05750836001600160a01b0316611bd084610823565b6001600160a01b031614949350505050565b60a5546001600160a01b03163314611c565760405162461bcd60e51b815260206004820152603160248201527f455243373231536f756c626f756e643a206f6e6c7920636f6e7472616374206f6044820152703bb732b91031b0b7103a3930b739b332b960791b60648201526084016106b0565b6109c9838383611ee7565b6001611c6c83610f7b565b10611cc95760405162461bcd60e51b815260206004820152602760248201527f455243373231536f756c626f756e643a2063616e6e6f74206f776e206d6f7265604482015266207468616e203160c81b60648201526084016106b0565b6106f98282612083565b60a580546001600160a01b038381166001600160a01b0319831681179093556040519116919082907f8be0079c531659141344cd1fd0a4f28419497f9722a3daafe3b4186f6b6457e090600090a35050565b816001600160a01b0316836001600160a01b03161415611d875760405162461bcd60e51b815260206004820152601960248201527f4552433732313a20617070726f766520746f2063616c6c65720000000000000060448201526064016106b0565b6001600160a01b03838116600081815260786020908152604080832094871680845294825291829020805460ff191686151590811790915591519182527f17307eab39ab6107e8899845ad3d59bd9653f200f220920489ca2b5937696c31910160405180910390a3505050565b611dff848484611be2565b611e0b848484846121c5565b61122c5760405162461bcd60e51b81526004016106b090612d9c565b600e54600090610100900460ff1615611e70578160ff166001148015611e4c5750303b155b611e685760405162461bcd60e51b81526004016106b090612dee565b506000919050565b600e5460ff808416911610611e975760405162461bcd60e51b81526004016106b090612dee565b50600e805460ff191660ff92909216919091179055600190565b919050565b600e54610100900460ff16611edd5760405162461bcd60e51b81526004016106b090612e3c565b6106f982826122c3565b826001600160a01b0316611efa82610ee3565b6001600160a01b031614611f5e5760405162461bcd60e51b815260206004820152602560248201527f4552433732313a207472616e736665722066726f6d20696e636f72726563742060448201526437bbb732b960d91b60648201526084016106b0565b6001600160a01b038216611fc05760405162461bcd60e51b8152602060048201526024808201527f4552433732313a207472616e7366657220746f20746865207a65726f206164646044820152637265737360e01b60648201526084016106b0565b611fcb600082611822565b6001600160a01b0383166000908152607660205260408120805460019290611ff4908490612e87565b90915550506001600160a01b0382166000908152607660205260408120805460019290612022908490612e9e565b909155505060008181526075602052604080822080546001600160a01b0319166001600160a01b0386811691821790925591518493918716917fddf252ad1be2c89b69c2b068fc378daa952ba7f163c4a11628f55a4df523b3ef91a4505050565b6001600160a01b0382166120d95760405162461bcd60e51b815260206004820181905260248201527f4552433732313a206d696e7420746f20746865207a65726f206164647265737360448201526064016106b0565b6000818152607560205260409020546001600160a01b03161561213e5760405162461bcd60e51b815260206004820152601c60248201527f4552433732313a20746f6b656e20616c7265616479206d696e7465640000000060448201526064016106b0565b6001600160a01b0382166000908152607660205260408120805460019290612167908490612e9e565b909155505060008181526075602052604080822080546001600160a01b0319166001600160a01b03861690811790915590518392907fddf252ad1be2c89b69c2b068fc378daa952ba7f163c4a11628f55a4df523b3ef908290a45050565b60006001600160a01b0384163b156122b857604051630a85bd0160e11b81526001600160a01b0385169063150b7a0290612209903390899088908890600401612eb6565b6020604051808303816000875af1925050508015612244575060408051601f3d908101601f1916820190925261224191810190612ef3565b60015b61229e573d808015612272576040519150601f19603f3d011682016040523d82523d6000602084013e612277565b606091505b5080516122965760405162461bcd60e51b81526004016106b090612d9c565b805181602001fd5b6001600160e01b031916630a85bd0160e11b1490506114c0565b506001949350505050565b600e54610100900460ff166122ea5760405162461bcd60e51b81526004016106b090612e3c565b6106f98282600e54610100900460ff166123165760405162461bcd60e51b81526004016106b090612e3c565b8151612329906073906020850190612339565b5080516109c99060749060208401905b82805461234590612bd7565b90600052602060002090601f01602090048101928261236757600085556123ad565b82601f1061238057805160ff19168380011785556123ad565b828001600101855582156123ad579182015b828111156123ad578251825591602001919060010190612392565b506123b99291506123bd565b5090565b5b808211156123b957600081556001016123be565b6001600160e01b031981168114610f7857600080fd5b6000602082840312156123fa57600080fd5b8135612405816123d2565b9392505050565b634e487b7160e01b600052604160045260246000fd5b604051608081016001600160401b03811182821017156124445761244461240c565b60405290565b60405160a081016001600160401b03811182821017156124445761244461240c565b604051606081016001600160401b03811182821017156124445761244461240c565b604051601f8201601f191681016001600160401b03811182821017156124b6576124b661240c565b604052919050565b60006001600160401b038211156124d7576124d761240c565b5060051b60200190565b6001600160a01b0381168114610f7857600080fd5b60006001600160401b0382111561250f5761250f61240c565b50601f01601f191660200190565b600061253061252b846124f6565b61248e565b905082815283838301111561254457600080fd5b828260208301376000602084830101529392505050565b600082601f83011261256c57600080fd5b6124058383356020850161251d565b6000602080838503121561258e57600080fd5b82356001600160401b03808211156125a557600080fd5b818501915085601f8301126125b957600080fd5b81356125c761252b826124be565b81815260059190911b830184019084810190888311156125e657600080fd5b8585015b8381101561267c578035858111156126025760008081fd5b86016080818c03601f190181131561261a5760008081fd5b612622612422565b8983013561262f816124e1565b81526040838101358b8301526060808501358284015292840135928984111561265a57600091508182fd5b6126688f8d8688010161255b565b9083015250855250509186019186016125ea565b5098975050505050505050565b60006020828403121561269b57600080fd5b5035919050565b60005b838110156126bd5781810151838201526020016126a5565b8381111561122c5750506000910152565b600081518084526126e68160208601602086016126a2565b601f01601f19169290920160200192915050565b60208152600061240560208301846126ce565b6000806040838503121561272057600080fd5b823561272b816124e1565b946020939093013593505050565b80358015158114611eb157600080fd5b60006020828403121561275b57600080fd5b81356001600160401b038082111561277257600080fd5b9083019060a0828603121561278657600080fd5b61278e61244a565b82358281111561279d57600080fd5b6127a98782860161255b565b8252506127b860208401612739565b6020820152604083013591506127cd826124e1565b816040820152606083013560608201526080830135608082015280935050505092915050565b6000602080838503121561280657600080fd5b82356001600160401b038082111561281d57600080fd5b818501915085601f83011261283157600080fd5b813561283f61252b826124be565b81815260059190911b8301840190848101908883111561285e57600080fd5b8585015b8381101561267c5780358581111561287a5760008081fd5b86016060818c03601f19018113156128925760008081fd5b61289a61246c565b898301356128a7816124e1565b81526040838101358b8301529183013591888311156128c65760008081fd5b6128d48e8c8587010161255b565b9082015285525050918601918601612862565b6000806000606084860312156128fc57600080fd5b8335612907816124e1565b92506020840135612917816124e1565b929592945050506040919091013590565b60006020828403121561293a57600080fd5b81356001600160401b0381111561295057600080fd5b6114c08482850161255b565b60006020828403121561296e57600080fd5b8135612405816124e1565b6000806020838503121561298c57600080fd5b82356001600160401b03808211156129a357600080fd5b818501915085601f8301126129b757600080fd5b8135818111156129c657600080fd5b8660208285010111156129d857600080fd5b60209290920196919550909350505050565b600080604083850312156129fd57600080fd5b8235612a08816124e1565b9150612a1660208401612739565b90509250929050565b60008060008060808587031215612a3557600080fd5b8435612a40816124e1565b93506020850135612a50816124e1565b92506040850135915060608501356001600160401b03811115612a7257600080fd5b8501601f81018713612a8357600080fd5b612a928782356020840161251d565b91505092959194509250565b6020808252825182820181905260009190848201906040850190845b81811015612ad657835183529284019291840191600101612aba565b50909695505050505050565b60a081526000612af560a08301886126ce565b9515156020830152506001600160a01b039390931660408401526060830191909152608090910152919050565b60008060408385031215612b3557600080fd5b8235612b40816124e1565b91506020830135612b50816124e1565b809150509250929050565b6020808252818101527f4f776e61626c653a2063616c6c6572206973206e6f7420746865206f776e6572604082015260600190565b634e487b7160e01b600052603260045260246000fd5b634e487b7160e01b600052601160045260246000fd5b6000600019821415612bd057612bd0612ba6565b5060010190565b600181811c90821680612beb57607f821691505b60208210811415612c0c57634e487b7160e01b600052602260045260246000fd5b50919050565b60208082526031908201527f4552433732313a207472616e736665722063616c6c6572206973206e6f74206f6040820152701ddb995c881b9bdc88185c1c1c9bdd9959607a1b606082015260800190565b60008060408385031215612c7657600080fd5b823591506020830135612b50816124e1565b600060208284031215612c9a57600080fd5b8151612405816124e1565b6001600160a01b038481168252606060208084018290528551918401829052600092868201929091906080860190855b81811015612cf157855183529483019491830191600101612cd5565b5050809450505080851660408501525050949350505050565b600060208284031215612d1c57600080fd5b81516001600160401b03811115612d3257600080fd5b8201601f81018413612d4357600080fd5b8051612d5161252b826124f6565b818152856020838501011115612d6657600080fd5b612d778260208301602086016126a2565b95945050505050565b60008251612d928184602087016126a2565b9190910192915050565b60208082526032908201527f4552433732313a207472616e7366657220746f206e6f6e20455243373231526560408201527131b2b4bb32b91034b6b83632b6b2b73a32b960711b606082015260800190565b6020808252602e908201527f496e697469616c697a61626c653a20636f6e747261637420697320616c72656160408201526d191e481a5b9a5d1a585b1a5e995960921b606082015260800190565b6020808252602b908201527f496e697469616c697a61626c653a20636f6e7472616374206973206e6f74206960408201526a6e697469616c697a696e6760a81b606082015260800190565b600082821015612e9957612e99612ba6565b500390565b60008219821115612eb157612eb1612ba6565b500190565b6001600160a01b0385811682528416602082015260408101839052608060608201819052600090612ee9908301846126ce565b9695505050505050565b600060208284031215612f0557600080fd5b8151612405816123d256fea164736f6c634300080c000a",
    "linkReferences": {}
  }
}