{
  "abi": [
    {
      "anonymous": false,
      "inputs": [
        {
          "indexed": true,
          "internalType": "address",
          "name": "owner",
          "type": "address"
        },
        {
          "indexed": true,
          "internalType": "address",
          "name": "approved",
          "type": "address"
        },
        {
          "indexed": true,
          "internalType": "uint256",
          "name": "tokenId",
          "type": "uint256"
        }
      ],
      "name": "Approval",
      "type": "event"
    },
    {
      "anonymous": false,
      "inputs": [
        {
          "indexed": true,
          "internalType": "address",
          "name": "owner",
          "type": "address"
        },
        {
          "indexed": true,
          "internalType": "address",
          "name": "operator",
          "type": "address"
        },
        {
          "indexed": false,
          "internalType": "bool",
          "name": "approved",
          "type": "bool"
        }
      ],
      "name": "ApprovalForAll",
      "type": "event"
    },
    {
      "anonymous": false,
      "inputs": [
        {
          "indexed": false,
          "internalType": "uint8",
          "name": "version",
          "type": "uint8"
        }
      ],
      "name": "Initialized",
      "type": "event"
    },
    {
      "anonymous": false,
      "inputs": [
        {
          "indexed": true,
          "internalType": "address",
          "name": "previousOwner",
          "type": "address"
        },
        {
          "indexed": true,
          "internalType": "address",
          "name": "newOwner",
          "type": "address"
        }
      ],
      "name": "OwnershipTransferred",
      "type": "event"
    },
    {
      "anonymous": false,
      "inputs": [
        {
          "indexed": true,
          "internalType": "address",
          "name": "from",
          "type": "address"
        },
        {
          "indexed": true,
          "internalType": "address",
          "name": "to",
          "type": "address"
        },
        {
          "indexed": true,
          "internalType": "uint256",
          "name": "tokenId",
          "type": "uint256"
        }
      ],
      "name": "Transfer",
      "type": "event"
    },
    {
      "inputs": [
        {
          "internalType": "address",
          "name": "to",
          "type": "address"
        },
        {
          "internalType": "uint256",
          "name": "tokenId",
          "type": "uint256"
        }
      ],
      "name": "approve",
      "outputs": [],
      "stateMutability": "nonpayable",
      "type": "function"
    },
    {
      "inputs": [
        {
          "internalType": "address",
          "name": "owner",
          "type": "address"
        }
      ],
      "name": "balanceOf",
      "outputs": [
        {
          "internalType": "uint256",
          "name": "",
          "type": "uint256"
        }
      ],
      "stateMutability": "view",
      "type": "function"
    },
    {
      "inputs": [
        {
          "internalType": "uint256",
          "name": "tokenId",
          "type": "uint256"
        }
      ],
      "name": "getApproved",
      "outputs": [
        {
          "internalType": "address",
          "name": "",
          "type": "address"
        }
      ],
      "stateMutability": "view",
      "type": "function"
    },
    {
      "inputs": [
        {
          "internalType": "address",
          "name": "owner",
          "type": "address"
        },
        {
          "internalType": "address",
          "name": "operator",
          "type": "address"
        }
      ],
      "name": "isApprovedForAll",
      "outputs": [
        {
          "internalType": "bool",
          "name": "",
          "type": "bool"
        }
      ],
      "stateMutability": "view",
      "type": "function"
    },
    {
      "inputs": [],
      "name": "name",
      "outputs": [
        {
          "internalType": "string",
          "name": "",
          "type": "string"
        }
      ],
      "stateMutability": "view",
      "type": "function"
    },
    {
      "inputs": [],
      "name": "owner",
      "outputs": [
        {
          "internalType": "address",
          "name": "",
          "type": "address"
        }
      ],
      "stateMutability": "view",
      "type": "function"
    },
    {
      "inputs": [
        {
          "internalType": "uint256",
          "name": "tokenId",
          "type": "uint256"
        }
      ],
      "name": "ownerOf",
      "outputs": [
        {
          "internalType": "address",
          "name": "",
          "type": "address"
        }
      ],
      "stateMutability": "view",
      "type": "function"
    },
    {
      "inputs": [],
      "name": "renounceOwnership",
      "outputs": [],
      "stateMutability": "nonpayable",
      "type": "function"
    },
    {
      "inputs": [
        {
          "internalType": "address",
          "name": "from",
          "type": "address"
        },
        {
          "internalType": "address",
          "name": "to",
          "type": "address"
        },
        {
          "internalType": "uint256",
          "name": "tokenId",
          "type": "uint256"
        }
      ],
      "name": "safeTransferFrom",
      "outputs": [],
      "stateMutability": "nonpayable",
      "type": "function"
    },
    {
      "inputs": [
        {
          "internalType": "address",
          "name": "from",
          "type": "address"
        },
        {
          "internalType": "address",
          "name": "to",
          "type": "address"
        },
        {
          "internalType": "uint256",
          "name": "tokenId",
          "type": "uint256"
        },
        {
          "internalType": "bytes",
          "name": "_data",
          "type": "bytes"
        }
      ],
      "name": "safeTransferFrom",
      "outputs": [],
      "stateMutability": "nonpayable",
      "type": "function"
    },
    {
      "inputs": [
        {
          "internalType": "address",
          "name": "operator",
          "type": "address"
        },
        {
          "internalType": "bool",
          "name": "approved",
          "type": "bool"
        }
      ],
      "name": "setApprovalForAll",
      "outputs": [],
      "stateMutability": "nonpayable",
      "type": "function"
    },
    {
      "inputs": [
        {
          "internalType": "bytes4",
          "name": "interfaceId",
          "type": "bytes4"
        }
      ],
      "name": "supportsInterface",
      "outputs": [
        {
          "internalType": "bool",
          "name": "",
          "type": "bool"
        }
      ],
      "stateMutability": "view",
      "type": "function"
    },
    {
      "inputs": [],
      "name": "symbol",
      "outputs": [
        {
          "internalType": "string",
          "name": "",
          "type": "string"
        }
      ],
      "stateMutability": "view",
      "type": "function"
    },
    {
      "inputs": [
        {
          "internalType": "uint256",
          "name": "tokenId",
          "type": "uint256"
        }
      ],
      "name": "tokenURI",
      "outputs": [
        {
          "internalType": "string",
          "name": "",
          "type": "string"
        }
      ],
      "stateMutability": "view",
      "type": "function"
    },
    {
      "inputs": [
        {
          "internalType": "address",
          "name": "from",
          "type": "address"
        },
        {
          "internalType": "address",
          "name": "to",
          "type": "address"
        },
        {
          "internalType": "uint256",
          "name": "tokenId",
          "type": "uint256"
        }
      ],
      "name": "transferFrom",
      "outputs": [],
      "stateMutability": "nonpayable",
      "type": "function"
    },
    {
      "inputs": [
        {
          "internalType": "address",
          "name": "newOwner",
          "type": "address"
        }
      ],
      "name": "transferOwnership",
      "outputs": [],
      "stateMutability": "nonpayable",
      "type": "function"
    }
  ],
  "bytecode": {
    "object": "0x608060405234801561001057600080fd5b5061147e806100206000396000f3fe608060405234801561001057600080fd5b50600436106101005760003560e01c8063715018a611610097578063b88d4fde11610066578063b88d4fde14610210578063c87b56dd14610223578063e985e9c514610236578063f2fde38b1461027257600080fd5b8063715018a6146101dc5780638da5cb5b146101e457806395d89b41146101f5578063a22cb465146101fd57600080fd5b806323b872dd116100d357806323b872dd1461018257806342842e0e146101955780636352211e146101a857806370a08231146101bb57600080fd5b806301ffc9a71461010557806306fdde031461012d578063081812fc14610142578063095ea7b31461016d575b600080fd5b610118610113366004610fb7565b610285565b60405190151581526020015b60405180910390f35b6101356102d7565b604051610124919061102c565b61015561015036600461103f565b610369565b6040516001600160a01b039091168152602001610124565b61018061017b366004611074565b610403565b005b61018061019036600461109e565b610519565b6101806101a336600461109e565b61054a565b6101556101b636600461103f565b610565565b6101ce6101c93660046110da565b6105dc565b604051908152602001610124565b610180610662565b6097546001600160a01b0316610155565b6101356106c8565b61018061020b3660046110f5565b6106d7565b61018061021e366004611147565b6106e6565b61013561023136600461103f565b61071e565b610118610244366004611223565b6001600160a01b039182166000908152606a6020908152604080832093909416825291909152205460ff1690565b6101806102803660046110da565b610806565b60006001600160e01b031982166380ac58cd60e01b14806102b657506001600160e01b03198216635b5e139f60e01b145b806102d157506301ffc9a760e01b6001600160e01b03198316145b92915050565b6060606580546102e690611256565b80601f016020809104026020016040519081016040528092919081815260200182805461031290611256565b801561035f5780601f106103345761010080835404028352916020019161035f565b820191906000526020600020905b81548152906001019060200180831161034257829003601f168201915b5050505050905090565b6000818152606760205260408120546001600160a01b03166103e75760405162461bcd60e51b815260206004820152602c60248201527f4552433732313a20617070726f76656420717565727920666f72206e6f6e657860448201526b34b9ba32b73a103a37b5b2b760a11b60648201526084015b60405180910390fd5b506000908152606960205260409020546001600160a01b031690565b600061040e82610565565b9050806001600160a01b0316836001600160a01b0316141561047c5760405162461bcd60e51b815260206004820152602160248201527f4552433732313a20617070726f76616c20746f2063757272656e74206f776e656044820152603960f91b60648201526084016103de565b336001600160a01b038216148061049857506104988133610244565b61050a5760405162461bcd60e51b815260206004820152603860248201527f4552433732313a20617070726f76652063616c6c6572206973206e6f74206f7760448201527f6e6572206e6f7220617070726f76656420666f7220616c6c000000000000000060648201526084016103de565b61051483836108d1565b505050565b610523338261093f565b61053f5760405162461bcd60e51b81526004016103de90611291565b610514838383610a36565b610514838383604051806020016040528060008152506106e6565b6000818152606760205260408120546001600160a01b0316806102d15760405162461bcd60e51b815260206004820152602960248201527f4552433732313a206f776e657220717565727920666f72206e6f6e657869737460448201526832b73a103a37b5b2b760b91b60648201526084016103de565b60006001600160a01b0382166106465760405162461bcd60e51b815260206004820152602960248201527f4552433732313a2061646472657373207a65726f206973206e6f7420612076616044820152683634b21037bbb732b960b91b60648201526084016103de565b506001600160a01b031660009081526068602052604090205490565b6097546001600160a01b031633146106bc5760405162461bcd60e51b815260206004820181905260248201527f4f776e61626c653a2063616c6c6572206973206e6f7420746865206f776e657260448201526064016103de565b6106c66000610ab5565b565b6060606680546102e690611256565b6106e2338383610b07565b5050565b6106f0338361093f565b61070c5760405162461bcd60e51b81526004016103de90611291565b61071884848484610bd6565b50505050565b6000818152606760205260409020546060906001600160a01b031661079d5760405162461bcd60e51b815260206004820152602f60248201527f4552433732314d657461646174613a2055524920717565727920666f72206e6f60448201526e3732bc34b9ba32b73a103a37b5b2b760891b60648201526084016103de565b60006107b460408051602081019091526000815290565b905060008151116107d457604051806020016040528060008152506107ff565b806107de84610c09565b6040516020016107ef9291906112e2565b6040516020818303038152906040525b9392505050565b6097546001600160a01b031633146108605760405162461bcd60e51b815260206004820181905260248201527f4f776e61626c653a2063616c6c6572206973206e6f7420746865206f776e657260448201526064016103de565b6001600160a01b0381166108c55760405162461bcd60e51b815260206004820152602660248201527f4f776e61626c653a206e6577206f776e657220697320746865207a65726f206160448201526564647265737360d01b60648201526084016103de565b6108ce81610ab5565b50565b600081815260696020526040902080546001600160a01b0319166001600160a01b038416908117909155819061090682610565565b6001600160a01b03167f8c5be1e5ebec7d5bd14f71427d1e84f3dd0314c0f7b2291e5b200ac8c7c3b92560405160405180910390a45050565b6000818152606760205260408120546001600160a01b03166109b85760405162461bcd60e51b815260206004820152602c60248201527f4552433732313a206f70657261746f7220717565727920666f72206e6f6e657860448201526b34b9ba32b73a103a37b5b2b760a11b60648201526084016103de565b60006109c383610565565b9050806001600160a01b0316846001600160a01b03161480610a0a57506001600160a01b038082166000908152606a602090815260408083209388168352929052205460ff165b80610a2e5750836001600160a01b0316610a2384610369565b6001600160a01b0316145b949350505050565b6097546001600160a01b03163314610aaa5760405162461bcd60e51b815260206004820152603160248201527f455243373231536f756c626f756e643a206f6e6c7920636f6e7472616374206f6044820152703bb732b91031b0b7103a3930b739b332b960791b60648201526084016103de565b610514838383610d07565b609780546001600160a01b038381166001600160a01b0319831681179093556040519116919082907f8be0079c531659141344cd1fd0a4f28419497f9722a3daafe3b4186f6b6457e090600090a35050565b816001600160a01b0316836001600160a01b03161415610b695760405162461bcd60e51b815260206004820152601960248201527f4552433732313a20617070726f766520746f2063616c6c65720000000000000060448201526064016103de565b6001600160a01b038381166000818152606a6020908152604080832094871680845294825291829020805460ff191686151590811790915591519182527f17307eab39ab6107e8899845ad3d59bd9653f200f220920489ca2b5937696c31910160405180910390a3505050565b610be1848484610a36565b610bed84848484610ea3565b6107185760405162461bcd60e51b81526004016103de90611311565b606081610c2d5750506040805180820190915260018152600360fc1b602082015290565b8160005b8115610c575780610c4181611379565b9150610c509050600a836113aa565b9150610c31565b60008167ffffffffffffffff811115610c7257610c72611131565b6040519080825280601f01601f191660200182016040528015610c9c576020820181803683370190505b5090505b8415610a2e57610cb16001836113be565b9150610cbe600a866113d5565b610cc99060306113e9565b60f81b818381518110610cde57610cde611401565b60200101906001600160f81b031916908160001a905350610d00600a866113aa565b9450610ca0565b826001600160a01b0316610d1a82610565565b6001600160a01b031614610d7e5760405162461bcd60e51b815260206004820152602560248201527f4552433732313a207472616e736665722066726f6d20696e636f72726563742060448201526437bbb732b960d91b60648201526084016103de565b6001600160a01b038216610de05760405162461bcd60e51b8152602060048201526024808201527f4552433732313a207472616e7366657220746f20746865207a65726f206164646044820152637265737360e01b60648201526084016103de565b610deb6000826108d1565b6001600160a01b0383166000908152606860205260408120805460019290610e149084906113be565b90915550506001600160a01b0382166000908152606860205260408120805460019290610e429084906113e9565b909155505060008181526067602052604080822080546001600160a01b0319166001600160a01b0386811691821790925591518493918716917fddf252ad1be2c89b69c2b068fc378daa952ba7f163c4a11628f55a4df523b3ef91a4505050565b60006001600160a01b0384163b15610f9657604051630a85bd0160e11b81526001600160a01b0385169063150b7a0290610ee7903390899088908890600401611417565b6020604051808303816000875af1925050508015610f22575060408051601f3d908101601f19168201909252610f1f91810190611454565b60015b610f7c573d808015610f50576040519150601f19603f3d011682016040523d82523d6000602084013e610f55565b606091505b508051610f745760405162461bcd60e51b81526004016103de90611311565b805181602001fd5b6001600160e01b031916630a85bd0160e11b149050610a2e565b506001949350505050565b6001600160e01b0319811681146108ce57600080fd5b600060208284031215610fc957600080fd5b81356107ff81610fa1565b60005b83811015610fef578181015183820152602001610fd7565b838111156107185750506000910152565b60008151808452611018816020860160208601610fd4565b601f01601f19169290920160200192915050565b6020815260006107ff6020830184611000565b60006020828403121561105157600080fd5b5035919050565b80356001600160a01b038116811461106f57600080fd5b919050565b6000806040838503121561108757600080fd5b61109083611058565b946020939093013593505050565b6000806000606084860312156110b357600080fd5b6110bc84611058565b92506110ca60208501611058565b9150604084013590509250925092565b6000602082840312156110ec57600080fd5b6107ff82611058565b6000806040838503121561110857600080fd5b61111183611058565b91506020830135801515811461112657600080fd5b809150509250929050565b634e487b7160e01b600052604160045260246000fd5b6000806000806080858703121561115d57600080fd5b61116685611058565b935061117460208601611058565b925060408501359150606085013567ffffffffffffffff8082111561119857600080fd5b818701915087601f8301126111ac57600080fd5b8135818111156111be576111be611131565b604051601f8201601f19908116603f011681019083821181831017156111e6576111e6611131565b816040528281528a60208487010111156111ff57600080fd5b82602086016020830137600060208483010152809550505050505092959194509250565b6000806040838503121561123657600080fd5b61123f83611058565b915061124d60208401611058565b90509250929050565b600181811c9082168061126a57607f821691505b6020821081141561128b57634e487b7160e01b600052602260045260246000fd5b50919050565b60208082526031908201527f4552433732313a207472616e736665722063616c6c6572206973206e6f74206f6040820152701ddb995c881b9bdc88185c1c1c9bdd9959607a1b606082015260800190565b600083516112f4818460208801610fd4565b835190830190611308818360208801610fd4565b01949350505050565b60208082526032908201527f4552433732313a207472616e7366657220746f206e6f6e20455243373231526560408201527131b2b4bb32b91034b6b83632b6b2b73a32b960711b606082015260800190565b634e487b7160e01b600052601160045260246000fd5b600060001982141561138d5761138d611363565b5060010190565b634e487b7160e01b600052601260045260246000fd5b6000826113b9576113b9611394565b500490565b6000828210156113d0576113d0611363565b500390565b6000826113e4576113e4611394565b500690565b600082198211156113fc576113fc611363565b500190565b634e487b7160e01b600052603260045260246000fd5b6001600160a01b038581168252841660208201526040810183905260806060820181905260009061144a90830184611000565b9695505050505050565b60006020828403121561146657600080fd5b81516107ff81610fa156fea164736f6c634300080c000a",
    "linkReferences": {}
  }
}